:020000040000FA
:100000000C9431010C9459010C9459010C94590130
:100010000C9459010C9459010C9459010C945901F8
:100020000C9459010C9459010C943C0E0C94AB0E99
:100030000C9459010C9459010C9459010C945901D8
:100040000C9459010C9459010C9459010C945901C8
:100050000C9459010C9459010C9459010C943511CC
:100060000C9459010C9403110C94DD100C9459015B
:100070000C9459010C9459010C9459010C94590198
:100080000C9459010C9459010C9459010C94590188
:100090000C9459010C9459010C9459010C94590178
:1000A0000C9459010C9459010C945901302E302EA6
:1000B000302E30003132372E302E302E31000000FD
:1000C0000000240027002A002D003000000000005E
:1000D000250028002B002E00310072756E2D6272F3
:1000E000696467650A000A000A0000000000230036
:1000F000260029002C002F00040404040403040536
:1001000002020202040302020202060606060606B4
:10011000040402020204040408020110408040109A
:10012000204080408008020401804020100201101D
:100130008010204040202073657420746F20005090
:10014000696E2044000000000200090F0000030453
:1001500001000C0000000000000000000000000092
:1001600000000000070605040100080A0B0C0D0939
:1001700020726561647320616E616C6F672000504E
:10018000696E2041002073657420746F20616E6178
:100190006C6F67200050696E2044006572726F7248
:1001A0003A20696E76616C6964206D6F6465200029
:1001B00020636F6E66696775726564206173204F96
:1001C0005554505554210050696E20440020636FEF
:1001D0006E6669677572656420617320494E50557B
:1001E00054210050696E2044006572726F720008DD
:1001F0000B000202020000090400000102020000DC
:10020000052400100105240101010424020605242F
:100210000600010705810310004009040100020ADD
:1002200000000007050202400000070583024000AD
:10023000000403090412010002EF020140412341BE
:100240008000010102030141726475696E6F204CE8
:100250004C430041726475696E6F2059756E0000E1
:100260007F1111241FBECFEFDAE0DEBFCDBF22E049
:10027000A6EAB1E001C01D92AD3DB207E1F711E081
:10028000A0E0B1E0E2E5F3E302C005900D92A63AEA
:10029000B107D9F711E0C1E3D1E004C02197FE0115
:1002A0000E94A117C033D107C9F70E9407120C940E
:1002B000A7190C940000FC018091C401882311F15E
:1002C0003FB7F89482E08093E9002091F200822FFA
:1002D00090E01816190614F481E090E0882339F0B4
:1002E000289844E64093C3014091F10040832223C3
:1002F00039F02091F200211103C02BE62093E80091
:100300003FBF08958FEF9FEF08952FB7F89483E0D4
:100310008093E9009091E800892F807295FF04C0D6
:100320009091F20080E4891B2FBF08958091BB015A
:1003300081110DC082E08093B70184E08093B80101
:100340001092BA011092B90181E08093BB0187EB52
:1003500091E00895CF93DF931F92CDB7DEB7698305
:10036000DC01ED91FC910280F381E02D41E050E051
:10037000BE016F5F7F4F09950F90DF91CF91089578
:1003800083E08093E9008091F200882319F08AE3EA
:100390008093E80008950E94850190E00895CF932E
:1003A000DF931F92CDB7DEB7FC018485958597FD5D
:1003B00008C02FEF3FEF358724870F90DF91CF9153
:1003C0000895CE0101960E945B01019719F489817D
:1003D00090E0F3CF8FEF9FEFF0CF0F931F93CF936A
:1003E000DF931F92CDB7DEB78C01FC018485958524
:1003F00097FF0BC0CE0101960E945B01019771F43B
:10040000898190E0F80195878487F8018485958536
:100410000F90DF91CF911F910F9108958FEF9FEF74
:10042000F1CFFC018485958597FD0BC09FB7F894AB
:1004300082E08093E9008091F2009FBF90E00196F6
:1004400008959FB7F89482E08093E9008091F200CC
:100450009FBF90E008954091B1015091B201209169
:10046000AF013091B00142175307B4F49091E80006
:100470009570E1F39091E80092FD19C08093F1002E
:100480008091B1019091B20101968F739927892BC8
:1004900019F48EEF8093E8008091B1019091B20140
:1004A00001969093B2018093B10181E0089580E0BC
:1004B0000895EF92FF920F931F93CF93DF93F82E3F
:1004C000192FE62E042F81E0860F880F0E942B0241
:1004D00083E00E942B02CF2DD12FEC0EFD2EF11CBC
:1004E000CE15DF05B9F007FF13C0FE0184910E940D
:1004F0002B02182F80E00E942B028123219681116C
:10050000EFCFDF91CF911F910F91FF90EF90089562
:100510008881EDCF81E0F5CFDF92EF92FF920F93CC
:100520001F93CF93DF93D82E8A01EB017B01E40E5A
:10053000F51ECE15DF0559F0D7FE12C0FE018491DD
:100540000E942B0221968111F4CF0FEF1FEFC801FB
:10055000DF91CF911F910F91FF90EF90DF90089561
:100560008881EECF0F931F93CF93DF931F92CDB768
:10057000DEB782E0898342E450E06FEE71E080E80C
:100580000E948C020E949601DC0112960D911C9132
:100590000115110589F0D801ED91FC910280F381DC
:1005A000E02DBE016F5F7F4FC801099597FD04C024
:1005B000F80100851185ECCF89810F90DF91CF91F3
:1005C0001F910F910895615030F02091F100FC01CE
:1005D00020830196F8CF289884E68093C30108957C
:1005E000EF92FF920F931F93CF93DF938C017B01C8
:1005F000D0E0C0E0F701EC0FFD1F6491662361F0CD
:10060000D801ED91FC910190F081E02DC801099590
:10061000892B11F02196EECFCE01DF91CF911F9162
:100620000F91FF90EF900895AF92BF92CF92DF921B
:10063000EF92FF920F931F93CF93DF936C017B0197
:100640008B01040F151FEB015E01AE18BF08C01728
:10065000D10759F06991D601ED91FC910190F0819B
:10066000E02DC6010995892B79F7C501DF91CF915E
:100670001F910F91FF90EF90DF90CF90BF90AF90C0
:100680000895FC01538D448D252F30E0842F90E098
:10069000821B930B541710F0CF960895019708957D
:1006A000FC01918D828D981761F0A28DAE0FBF2F46
:1006B000B11D5D968C91928D9F5F9F73928F90E09C
:1006C00008958FEF9FEF0895FC01918D828D98170B
:1006D00031F0828DE80FF11D858D90E008958FEF48
:1006E0009FEF0895FC01918D228D892F90E0805C11
:1006F0009F4F821B91098F739927089581E292E0A1
:100700000E94720321E0892B09F420E0822F0895D2
:1007100080E090E0892B29F00E947E0381110C94E7
:1007200000000895FC01A48DA80FB92FB11DA35A94
:10073000BF4F2C91848D90E001968F739927848F01
:10074000A689B7892C93A089B1898C9182748C93E6
:10075000938D848D981306C00288F389E02D8081E3
:100760008F7D80830895EF92FF920F931F93CF9315
:10077000DF93EC0181E0888F9B8D8C8D981319C0DD
:10078000E889F989808185FF14C09FB7F894EE89C4
:10079000FF896083E889F9898081827480839FBFA3
:1007A00081E090E0DF91CF911F910F91FF90EF904A
:1007B0000895F62E0B8D10E00F5F1F4F0F7311275A
:1007C000E02E8C8D8E110CC00FB607FCFACFE88995
:1007D000F989808185FFF5CFCE010E949203F1CF88
:1007E000EB8DEC0FFD2FF11DE35AFF4FF0829FB709
:1007F000F8940B8FEA89FB8980818062CFCFCF93F9
:10080000DF93EC01888D8823B9F0AA89BB89E88938
:10081000F9898C9185FD03C0808186FD0DC00FB6DE
:1008200007FCF7CF8C9185FFF2CF808185FFEDCF5C
:10083000CE010E949203E9CFDF91CF9108958150BC
:100840008F3008F047C0E82FF0E0E75DFB4F0C94D5
:10085000A11746044A0438043E0442046A046A04A8
:100860006A044D04530457045B0461046A0465047C
:10087000809180008F778093800008958091800020
:100880008F7DF9CF80918000877FF5CF84B58F77FA
:1008900084BD089584B58F7DFBCF809190008F77C4
:1008A000809390000895809190008F7DF9CF809182
:1008B0009000877FF5CF8091C0008F778093C00034
:1008C00008958091C0008F7DF9CF8091C200877F0D
:1008D0008093C20008951F93CF93DF93282F30E0B9
:1008E000F901EB5BFE4F8491F901E95EFE4FD49173
:1008F000F901E850FF4FC491CC23A9F0162F8111C4
:100900000E941F04EC2FF0E0EE0FFF1FE453FF4F97
:10091000A591B4918FB7F894EC91111108C0D095BE
:10092000DE23DC938FBFDF91CF911F910895DE2BE3
:10093000F8CFCF93DF9390E0FC01E95EFE4F249166
:1009400088509F4FFC0184918823D1F090E0880F5C
:10095000991FFC01E254FF4FA591B491FC01E453AF
:10096000FF4FC591D49161110EC09FB7F8948C913F
:10097000E22FE0958E238C932881E223E8839FBFAA
:10098000DF91CF9108958FB7F894EC91E22BEC931F
:100990008FBFF6CF3FB7F8948091AB019091AC0137
:1009A000A091AD01B091AE0126B5A89B05C02F3F27
:1009B00019F00196A11DB11D3FBFBA2FA92F982F85
:1009C0008827BC01CD01620F711D811D911D42E080
:1009D000660F771F881F991F4A95D1F708958F9248
:1009E0009F92AF92BF92CF92DF92EF92FF924B0114
:1009F0005C010E94CA046B017C010E94CA046C194C
:100A00007D098E099F09683E734081059105A8F311
:100A100021E0821A9108A108B10888EEC80E83E08F
:100A2000D81EE11CF11C81149104A104B10429F722
:100A3000FF90EF90DF90CF90BF90AF909F908F90FE
:100A400008958F929F92AF92BF92CF92DF92EF92D2
:100A5000FF920F931F93CF93DF936C017B018A0169
:100A600080910B01882309F45CC08091C401882324
:100A700009F457C08091B60180FF05C08091E00065
:100A800082608093E000E801B12C8AEFA82E93E009
:100A9000892E2AE3922E209711F4BB20D9F10E94CF
:100AA000850181110AC0AA94AA20D9F161E070E001
:100AB00080E090E00E94EF04EECF8C171D0611F04D
:100AC0000CF08C2F9FB7F8948092E9002091E800F9
:100AD00025FD02C09FBFDFCF282F30E0C21BD30B04
:100AE000F701815020F041914093F100FACFE20EDE
:100AF000F31EBB2021F09092E800B12CEBCF809147
:100B0000E80085FDE7CF9092E800BB24B3942097DE
:100B100009F3F3CF5D9884E68093B50110161106B2
:100B20003CF081E090E0F6019383828310E000E0E6
:100B3000C801DF91CF911F910F91FF90EF90DF904F
:100B4000CF90BF90AF909F908F9008952FB7F8945B
:100B50006091A7017091A8018091A9019091AA01CB
:100B60002FBF08950895FB012785FC012787FB010E
:100B70002685FC0126870895CF93DF93EC018D81B4
:100B80009E81DC01ED91FC910084F185E02D0995B9
:100B90001816190654F48D819E81DC01ED91FC91AB
:100BA0000284F385E02D0995EACFDF91CF91089576
:100BB0008F929F92AF92BF92CF92DF92EF92FF926D
:100BC000CF93DF93EC016B010E94A6054B015C0102
:100BD000F12CE12C8D819E81DC01ED91FC91028450
:100BE000F385E02D099597FF0DC00E94A6056819B1
:100BF00079098A099B096C157D058E059F0550F3BF
:100C00008FEF9FEFDF91CF91FF90EF90DF90CF902C
:100C1000BF90AF909F908F900895FC012381348105
:100C20002627022E2295207F2025032E322F229563
:100C30002F700226269532272327220F220F220FFC
:100C400020253483238308952F923F924F925F9201
:100C50006F927F928F929F92AF92BF92CF92DF92CC
:100C6000EF92FF920F931F93CF93DF93CDB7DEB731
:100C70002A970FB6F894DEBF0FBECDBF9A8789873B
:100C80005B01290137011A01200E311E3A821982B7
:100C900088248A94982C9A01260F371F3E832D832F
:100CA000C801840D951D98878F83A985BA851896EC
:100CB0008C91B981B81708F040C1E985FA85948212
:100CC000838285819681DC01ED91FC910190F08118
:100CD000E02D6FEF09956FEF89859A850E940D06CB
:100CE000E985FA8585819681DC01ED91FC91019081
:100CF000F081E02DA985BA856C910995E985FA8581
:100D00006081CF010E940D06A985BA8515968D9147
:100D10009C91DC01ED91FC910190F081E02D6A81C4
:100D200009956A8189859A850E940D06E985FA856B
:100D300085819681DC01ED91FC910190F081E02D9F
:100D4000622D0995622D89859A850E940D0685017F
:100D5000E985FA8585819681DC01ED91FC91019010
:100D6000F081E02D2D813E8120173107E1F48201D1
:100D7000E985FA8585819681DC01ED91FC910190F0
:100D8000F081E02D2F81388520173107C1F0D8017F
:100D90006D918D010995F8013197608189859A855A
:100DA0000E940D06E5CFD8016D918D010995F801DE
:100DB0003197608189859A850E940D06C9CFA985E2
:100DC000BA8514966C910995E985FA858581968195
:100DD000DC01ED91FC910190F081E02DA985BA85AF
:100DE00013966C91099568EC70E089859A850E944C
:100DF000D8058F3F910509F092C0E985FA85948264
:100E000083826FEFCF010E940D0665E070E0898557
:100E10009A850E94D805A985BA856C91681719062C
:100E200009F07DC0CD010E940D066AE070E0898561
:100E30009A850E94D8057C0197FD71C0682F89852D
:100E40009A850E940D066AE070E089859A850E9465
:100E5000D8058C0197FD63C0682F89859A850E940B
:100E60000D06EC821B82EB81FC810E0F1F1FF12C03
:100E7000E12C65E070E089859A850E151F05A1F0CB
:100E8000EC14FD0489F00E94D80597FD09C0F30118
:100E9000EE0DFF1D8083682F89859A850E940D06BF
:100EA000FFEFEF1AFF0AE5CF0E94D8057C0197FDFE
:100EB00036C065E070E089859A850E94D80597FD67
:100EC0002EC0FE2CEE248E0D9F1DA985BA8513968B
:100ED0002D913C9114978217930709F58C918F5FA0
:100EE0008C93C801C016D10608F4C6012A960FB625
:100EF000F894DEBF0FBECDBFDF91CF911F910F9150
:100F0000FF90EF90DF90CF90BF90AF909F908F9029
:100F10007F906F905F904F903F902F900895B98190
:100F2000BF5FB98364E670E080E090E00E94EF0468
:100F300089859A850E94BC05B8CE8FEF9FEFD6CFEA
:100F4000AF92BF92CF92DF92EF92FF920F931F93D7
:100F5000CF93DF9300D0CDB7DEB7FC019B015A01E0
:100F60008785882301F18CE6898386858A83D12C45
:100F7000C12CF12CE12C8A0142E050E0BE016F5FF0
:100F80007F4F848595850E942406C5010F900F90A0
:100F9000DF91CF911F910F91FF90EF90DF90CF9055
:100FA000BF90AF900895B12CA12CEFCFCF92DF92DC
:100FB000EF92FF920F931F936801790110E000E018
:100FC00030E020E00E9424061F910F91FF90EF90E7
:100FD000DF90CF900895EF92FF920F931F93CF93DE
:100FE000DF9300D01F92CDB7DEB7DC011F962C91A6
:100FF0001F97222301F17C01ED91FC910084F18582
:10100000E02D0995892B11F58CE48983F7018685FC
:101010008A8301E010E09E012D5F3F4F42E050E0E7
:10102000BE016F5F7F4F848595850E94D60781E062
:101030009B81913009F080E00F900F900F90DF912D
:10104000CF911F910F91FF90EF90089581E0F4CF21
:10105000EF92FF920F931F93CF93DF9300D01F92D5
:10106000CDB7DEB7FC012089211118C07C01118A9F
:101070008BE4898380E48B8386858A839F012E5E3F
:101080003F4F00E410E043E050E0BE016F5F7F4F50
:10109000848595850E94D607F701808B0F900F906D
:1010A0000F90DF91CF911F910F91FF90EF900895D6
:1010B000CF93DF93EC010E9428088889882341F0B0
:1010C0008989C80FD11D8A8990E0DF91CF91089559
:1010D0008FEF9FEFFACF0F931F93CF93DF93EC0126
:1010E0000E94A605688779878A879B87CE010E9420
:1010F000580897FF15C00E94A605088519852A85FE
:101100003B85601B710B820B930B0C811D812E8123
:101110003F81601771078207930740F38FEF9FEFBE
:10112000DF91CF911F910F910895CF92DF92EF92AF
:10113000FF920F931F93CF93DF93EC016A017B0122
:1011400010E000E08889811106C0CE010E942808C5
:101150008889882399F0E98981E08E0F898B0F5F58
:101160001F4FEC0FFD2FF11D8289F70181937F0145
:1011700088898150888B0C151D0520F3C801DF91EB
:10118000CF911F910F91FF90EF90DF90CF90089536
:10119000CF93DF93EC010E9428088889882369F0A7
:1011A0008150888B898991E0980F998BC80FD11D48
:1011B0008A8990E0DF91CF9108958FEF9FEFFACF6A
:1011C000CF92DF92EF92FF921F93CF93DF93EC01C8
:1011D000CE010E946B08FC0197FD4FC08D32910536
:1011E00021F0C0970A9708F042C0C12CD12C76019B
:1011F00010E0E130F105D1F0ED32F105E1F1CF0180
:10120000C0970A9798F4AAE0B0E0A70196010E945F
:101210002E176F01FF0FEE08FF08C60ED71EE81E3F
:10122000F91E80E3C81AD108E108F108CE010E9436
:10123000C808CE010E946B08FC01C0970A97C8F24B
:10124000E130F105B1F2112341F0F094E094D09433
:10125000C094C11CD11CE11CF11CC701B601DF9177
:10126000CF911F91FF90EF90DF90CF900895CE0126
:101270000E94C808ADCF11E0D9CFC12CD12C760186
:10128000ECCF0F931F93CF93DF93EC010E94A60541
:10129000688779878A879B87CE010E94C80897FF55
:1012A00015C00E94A605088519852A853B85601B07
:1012B000710B820B930B0C811D812E813F81601776
:1012C00071078207930740F38FEF9FEFDF91CF9174
:1012D0001F910F910895CF93DF93EC010E9428088E
:1012E000888990E0DF91CF9108950F931F9310E0CC
:1012F00000E030E020E00E94D6071F910F91089592
:10130000CF93DF9300D0CDB7DEB722E629836A837F
:1013100042E050E0BE016F5F7F4FFC018481958108
:101320000E94750981E090E00F900F90DF91CF91BE
:101330000895CF93DF9300D01F92CDB7DEB7FC01A5
:10134000278590E080E0222381F08CE689838685E2
:101350008A836B8343E050E0BE016F5F7F4F8485DB
:1013600095850E94750981E090E00F900F900F9095
:10137000DF91CF9108950F931F93CF93DF9300D008
:10138000CDB7DEB78C01FC018785882369F08AE63A
:10139000898386858A8342E050E0BE016F5F7F4F7C
:1013A000848595850E947509F8011786108A118A2F
:1013B0000F900F90DF91CF911F910F910895DC0155
:1013C000FB018281938113969C938E9312974481A3
:1013D00055816681778114964D935D936D937C93CF
:1013E0001797408551856285738518964D935D9357
:1013F0006D937C931B9780E291E011969C938E9362
:10140000848595851D969C938E931C9786851E9644
:101410008C931E9787851F968C931F978089509673
:101420008C935097818951968C93519780E4729652
:10143000529601900D928A95E1F70895FC018785F7
:101440000895089590E080E008958F929F92AF9262
:10145000BF92EF92FF920F931F93CF93DF93CDB77D
:10146000DEB7A1970FB6F894DEBF0FBECDBF7C01EB
:10147000FA01CB0119A2223008F42AE08E010F5D97
:101480001F4F822E912CB12CA12CBF01A5019401DC
:101490000E947F17F901CA016A3074F5605DD801B6
:1014A0006E938D01232B242B252B79F790E080E080
:1014B000109789F0FD0101900020E9F73197AF0105
:1014C0004A1B5B0BD701ED91FC910280F381E02D6B
:1014D000B801C7010995A1960FB6F894DEBF0FBEFB
:1014E000CDBFDF91CF911F910F91FF90EF90BF90F3
:1014F000AF909F908F900895695CD1CF42E050E00B
:101500006BE771E00C94A007AF92BF92CF92DF928D
:10151000EF92FF920F931F93CF93DF9300D000D0F1
:1015200000D01F92CDB7DEB75C019B0183E48983B5
:101530005A834B83FB0101900020E9F731978F011B
:10154000061B170BCC24C394D12CCE0106967C012C
:1015500043E050E0BE016F5F7F4FD5011C968D9137
:101560009C910E942406892BB9F18E81F501868712
:1015700093E69C838D8301E010E09E01295F3F4F3D
:1015800042E050E0BE016C5F7F4FD5011C968D910B
:101590009C910E94D6078F81882339F061E070E02A
:1015A00080E090E00E94EF04E6CF81E0F5018787BC
:1015B0000190F081E02D0688F789E02DC50109959D
:1015C00081111DC0D501ED91FC910488F589E02DB4
:1015D000C5010995F501168690E080E027960FB6C3
:1015E000F894DEBF0FBECDBFDF91CF911F910F9159
:1015F000FF90EF90DF90CF90BF90AF90089581E083
:1016000090E0ECCFCF92DF92EF92FF920F931F9377
:10161000CF93DF936B01770FEE08FF08F7FE1BC037
:10162000EC016DE20E9499098C0144275527BA010B
:101630004C195D096E097F092AE0CE010E94250A36
:10164000800F911FDF91CF911F910F91FF90EF902D
:10165000DF90CF9008952AE0B701A601DF91CF91E6
:101660001F910F91FF90EF90DF90CF900C94250A7F
:101670000F931F93CF93DF93EC010E94020B8C0119
:10168000CE010E947E0A800F911FDF91CF911F91A2
:101690000F9108958F929F92AF92BF92CF92DF9257
:1016A000EF92FF920F931F93CF93DF937C01EB0197
:1016B0006C0182E0C80ED11C4701E5E08E0E911C42
:1016C00010E000E0F60141916F0150E070E060E051
:1016D0002AE0CE010E94250A5C01E881F98101908F
:1016E000F081E02D6EE2CE0109958A0D9B1D080F59
:1016F000191FC814D90431F7F701458150E070E093
:1017000060E02AE0CE010E94250A800F911FDF9140
:10171000CF911F910F91FF90EF90DF90CF90BF90EE
:10172000AF909F908F9008950E948919FC012481A9
:101730003581232B39F421E0FB018081882349F096
:1017400020E007C0808191810E94971921E0892BB8
:10175000B9F7822F08950F931F93CF93DF93EC0176
:1017600088819981009759F02A813B812617370794
:1017700030F081E0DF91CF911F910F9108958B019F
:101780006F5F7F4F0E94CC18009759F09983888330
:101790001B830A832C813D81232B59F7FC01108286
:1017A000E8CF80E0E7CFEF92FF920F931F93CF93A4
:1017B000DF936115710541F480E0DF91CF911F91B6
:1017C0000F91FF90EF90089541155105B1F07B0105
:1017D000EC010C811D81040F151FB8010E94AB0B99
:1017E000882351F3288139818C819D81B701820F33
:1017F000931F0E94A0191D830C8381E0DECFEF921E
:10180000FF920F931F93CF93DF93CDB7DEB7289747
:101810000FB6F894DEBF0FBECDBF7C01CB014AE00E
:101820008E010F5F1F4FB8010E94F916F801019059
:101830000020E9F73197AF01401B510BB801C701F8
:101840000E94D30B28960FB6F894DEBF0FBECDBF13
:10185000DF91CF911F910F91FF90EF900895EF923C
:10186000FF920F931F93CF93DF9300D000D0CDB79B
:10187000DEB77C01862F4AE08E010F5F1F4FB80153
:1018800090E00E94F916F80101900020E9F73197E5
:10189000AF01401B510BB801C7010E94D30B0F9041
:1018A0000F900F900F90DF91CF911F910F91FF90AC
:1018B000EF900895CF93DF9300D0CDB7DEB7698363
:1018C0001A8241E050E0BE016F5F7F4F0E94D30B50
:1018D0000F900F90DF91CF9108956115710551F030
:1018E000FB0101900020E9F73197AF01461B570B30
:1018F0000C94D30B80E00895CF93DF93EC018881A3
:101900009981009711F00E944318198218821D8254
:101910001C821B821A82DF91CF910895EF92FF9271
:101920000F931F93CF93DF93EC017B0119821882F1
:101930001B821A821D821C82FB0101900020E9F7A4
:1019400031978F01061B170BB8010E94AB0B811159
:1019500009C0CE01DF91CF911F910F91FF90EF90C1
:101960000C947C0C1D830C83B70188819981DF91D5
:10197000CF911F910F91FF90EF900C94A019CF92EF
:10198000DF92EF92FF920F931F93CF93DF93CDB728
:10199000DEB762970FB6F894DEBF0FBECDBF8C01E5
:1019A000CB01F801118210821382128215821482F7
:1019B0004AE09E012F5F3F4F6901B9010E94F9166D
:1019C000F60101900020E9F731977F01EC18FD083E
:1019D000B701C8010E94AB0B811112C0C8010E945F
:1019E0007C0C62960FB6F894DEBF0FBECDBFDF91C0
:1019F000CF911F910F91FF90EF90DF90CF900895BE
:101A0000F801F582E482B601808191810E94A019DB
:101A1000E8CFFC0180819181009711F00C9443186C
:101A20000895EF92FF920F931F93CF93DF9300D00F
:101A300000D000D01F92CDB7DEB77C018B016EE7DE
:101A400071E0CE0101960E948E0CB701CE01019685
:101A50000E946D0C41E050E060E871E0CE0101961B
:101A60000E94D30BB801CE0101960E946D0C4D81EE
:101A70005E8169817A8101E010E09E01295F3F4F1C
:101A80008EEB92E00E94D607CE0101960E94090DCE
:101A900027960FB6F894DEBF0FBECDBFDF91CF9172
:101AA0001F910F91FF90EF900895CF92DF92EF92E8
:101AB000FF920F931F93CF93DF9300D000D000D0FD
:101AC000CDB7DEB77C018B016A016DE771E0CE0115
:101AD00001960E948E0C62E170E0CE0101960E9498
:101AE000AB0BD80112966C91CE0101960E942F0C7F
:101AF0006EE2CE0101960E945A0CF8016381CE017C
:101B000001960E942F0C6EE2CE0101960E945A0CA3
:101B1000D80114966C91CE0101960E942F0C6EE2B2
:101B2000CE0101960E945A0CF8016581CE01019602
:101B30000E942F0C69817A81D701ED91FC91008878
:101B4000F189E02DA601C70109958C01CE0101960E
:101B50000E94090DC80126960FB6F894DEBF0FBE8D
:101B6000CDBFDF91CF911F910F91FF90EF90DF904C
:101B7000CF900895AF92BF92CF92DF92EF92FF92F3
:101B80000F931F93CF93DF93CDB7DEB72A970FB68E
:101B9000F894DEBF0FBECDBF5C018EE48F83F501EC
:101BA00086819781988789871A8219821C821B8275
:101BB0001E821D8269E070E0CE0101960E94AB0B8F
:101BC000811144C0CE0101960E947C0CF5018185F3
:101BD00081110CC067E070E0CE0101960E94AB0B52
:101BE00081113FC0CE0101960E947C0C0D811E81A7
:101BF00029813A81CC24C394D12CCE010A967C0150
:101C000043E050E0BE01695F7F4FF501848195811B
:101C10000E94240681E09A85913009F080E0F50168
:101C20008087CE0101960E94090D2A960FB6F8947E
:101C3000DEBF0FBECDBFDF91CF911F910F91FF90FF
:101C4000EF90DF90CF90BF90AF90089589E090E043
:101C50009E838D8364EB70E089819A810E94F216E5
:101C6000B5CF87E090E09E838D836CEA70E0898138
:101C70009A810E94F216BACF1F920F920FB60F925E
:101C800011248F939F938091E1009091E100937FC5
:101C90009093E10083FF0FC01092E90091E09093D0
:101CA000EB001092EC0092E39093ED001092C401CF
:101CB00098E09093F00082FF22C093E09093E900B7
:101CC0009091F200992319F09AE39093E800909193
:101CD000B501992341F09091B50191509093B501D0
:101CE000911101C05D9A9091C301992341F09091A7
:101CF000C30191509093C301911101C0289A84FFB0
:101D000018C08091E2008E7E81608093E200809115
:101D1000E1008F7E8093E1008091B6018E7E80612C
:101D20008093B6019F918F910F900FBE0F901F90DF
:101D3000189580FFF7CF8091E2008E7E80618093BE
:101D4000E2008091E1008E7E8093E1008091B601F7
:101D50008E7E8160E5CF1F920F920FB60F921124F5
:101D6000CF92DF92EF92FF920F931F932F933F93A7
:101D70004F935F936F937F938F939F93AF93BF9393
:101D8000EF93FF93CF93DF93CDB7DEB76C97DEBFB2
:101D9000CDBF1092E9008091E80083FF25C068E084
:101DA000CE0145960E94E30282EF8093E8008D8980
:101DB00087FF39C09091E80090FFFCCF982F907674
:101DC00009F034C19E894F89588D2F89F88C911163
:101DD00031C0803861F58091B4018093F100109298
:101DE000F1008EEF8093E8006C960FB6F894DEBF9A
:101DF0000FBECDBFDF91CF91FF91EF91BF91AF911A
:101E00009F918F917F916F915F914F913F912F9112
:101E10001F910F91FF90EF90DF90CF900F900FBE2A
:101E20000F901F9018959EEF9093E800C7CF1092E7
:101E3000F100D5CF913059F48111D3CF4130510504
:101E400081F68091B4018D7F8093B401CACF933025
:101E500049F48111C6CF4130510519F68091B40182
:101E60008260F2CF953041F48091E80080FFFCCF92
:101E700020682093E300B5CF963009F0A9C00B8D00
:101E80001C8D22E01092E9001092B2011092B10173
:101E9000F2122EC01092B0011092AF010E94B20255
:101EA0001F8299E09983FA8291E09E8390EA988755
:101EB0009AEF99872091B1013091B201275F3F4F8E
:101EC0003C832B838D831092E9001092B201109213
:101ED000B1011093B0010093AF0149E050E0BE01A1
:101EE0006F5F7F4F80E00E948C020E94B20279CF28
:101EF0001093B0010093AF010E949601DC0112968D
:101F00000D911C910115110509F451C1D801ED91F4
:101F1000FC910480F581E02DBE016B5E7F4FC8010E
:101F20000995009709F03EC1F80100851185EACFB7
:101F3000F3E0FF120EC08F89882309F440C082307D
:101F400061F440E86BE083E592E00E945902811160
:101F500048CF81E28093EB0047CF813029F440E8FD
:101F60006BE087E492E0F1CF833099F70E9496010D
:101F7000DC011296ED90FC908E010F5F1F4F6801FF
:101F8000E114F10479F0D701ED91FC910680F7811D
:101F9000E02DB801C7010995080F111DF701E08474
:101FA000F184EECFD8011C92F60101900020E9F7F0
:101FB0003197BF016C197D0940E0C601C6CF61E3CE
:101FC00072E0FB01449150E080E80E948C0209CF4E
:101FD000973009F4BECF983021F481E08093F1006E
:101FE00000CF993009F0FDCE837009F0B2CFEDE358
:101FF000F1E081E031E096E32191222371F08093BA
:10200000E9003093EB00DF0111972C912093EC0055
:102010009093ED008F5F873079F78EE78093EA0029
:102020001092EA008F898093C401DBCE8B8D9C8D4A
:102030001092E9001092B2011092B1019093B00198
:102040008093AF01898D811192C08E899D89913ACB
:1020500049F4813209F07DCF47E050E064E071E05F
:1020600080E0B3CF913209F074CF833269F48F8965
:10207000988DB0E0A0E08093000190930101A093BF
:102080000201B0930301ADCE803269F48091E80083
:1020900082FFFCCF67E084E091E00E94E3028BEFD7
:1020A0008093E8009ECE823209F09BCE8F89809388
:1020B0000B01EEEFFFE7859194918B3F9C4D51F121
:1020C000E0E0F8E08091040190910501A091060103
:1020D000B0910701803B9440A105B105F1F48091D6
:1020E0000B0180FD1AC0EE3F8AE0F80789F587E70B
:1020F00097E791838083809160008093B30188E1AA
:102100009BE00FB6F894A895809360000FBE909363
:10211000600067CEEEEFFAE0D5CF808191818737FE
:10212000974709F05ECEA895809160008861809302
:1021300060008091B30180936000EE3F2AE0F207D7
:1021400089F08091FE0A9091FF0A9183808349CEA5
:10215000808191818737980751F29093FF0A80938D
:10216000FE0AC5CF1092FF0A1092FE0A3ACE0E94D4
:102170009601DC0112960D911C910115110509F4CF
:10218000E8CED801ED91FC910190F081E02DBE01E7
:102190006B5E7F4FC8010995811123CEF801008540
:1021A0001185EBCF181619060CF41BCED2CEF1E038
:1021B000FF12BECE65E372E004CF1F920F920FB6FE
:1021C0000F9211242F933F934F935F936F937F93BD
:1021D0008F939F93AF93BF93EF93FF9381E292E02E
:1021E0000E949203FF91EF91BF91AF919F918F91C8
:1021F0007F916F915F914F913F912F910F900FBE03
:102200000F901F9018951F920F920FB60F921124E6
:102210002F938F939F93EF93FF93E0913102F0916F
:1022200032028081E0913702F091380282FD1BC0BA
:10223000908180913A028F5F8F7320913B028217C9
:1022400041F0E0913A02F0E0EF5DFD4F958F809311
:102250003A02FF91EF919F918F912F910F900FBEB6
:102260000F901F9018958081F4CF1F920F920FB698
:102270000F9211242F933F938F939F93AF93BF930C
:102280008091A7019091A801A091A901B091AA0104
:102290003091A60123E0230F2D3758F50196A11D9B
:1022A000B11D2093A6018093A7019093A801A0934C
:1022B000A901B093AA018091AB019091AC01A091CA
:1022C000AD01B091AE010196A11DB11D8093AB018E
:1022D0009093AC01A093AD01B093AE01BF91AF91CB
:1022E0009F918F913F912F910F900FBE0F901F9054
:1022F000189526E8230F0296A11DB11DD2CFE5EC5B
:10230000F1E01382128288EE93E0A0E0B0E08483D3
:102310009583A683B78327E431E0318320832FEFB1
:102320003FEF35872487E1E2F2E013821282848353
:102330009583A683B78389E591E0918380838DECB3
:1023400090E0958784878CEC90E09787868788EC6F
:1023500090E0918B808B89EC90E0938B828B8AEC60
:1023600090E0958B848B8EEC90E0978B868B118E12
:10237000128E138E148EA5E1B2E089E791E01196DA
:102380009C938E9312961C92129713961C921397FD
:1023900014961C92149715961C92ABE1B2E011961C
:1023A0009C938E9312961C92129713961C921397DD
:1023B00014961C92149715961C92AEEBB2E01C92E8
:1023C0001696FC93EE93159717961C9217971896EE
:1023D0001C9218971A96FC93EE931997E3EDF2E08E
:1023E000918380831282138214821582E9ECF2E0D9
:1023F000138212828BE691E091838083B583A4835C
:1024000083EB95E197838683108611860895CF9399
:10241000DF93CDB7DEB7C850D1400FB6F894DEBF1A
:102420000FBECDBF789484B5826084BD84B58160D1
:1024300084BD85B5826085BD85B5816085BD80918F
:102440006E00816080936E00109281008091810007
:1024500082608093810080918100816080938100FF
:1024600080918000816080938000809191008260E3
:102470008093910080919100816080939100809180
:1024800090008160809390008091C100846080936F
:10249000C1008091C10082608093C1008091C10021
:1024A00081608093C1008091C30081608093C300EC
:1024B0008091C00082608093C0008091C2008160E2
:1024C0008093C20080917A00846080937A0080912A
:1024D0007A00826080937A0080917A008160809394
:1024E0007A0080917A00806880937A001092C4010B
:1024F0001092B4011092B6018091D7008160809350
:10250000D70080EA8093D80089B5806189BD89B5FC
:10251000826089BD09B400FEFDCF61E070E080E01B
:1025200090E00E94EF048091D8008F7C80618093BE
:10253000D8008091E000807F8093E0008091E100EE
:102540008E7E8093E1008DE08093E200559A209A80
:1025500061E00E94990460E08DE00E946B04E091CC
:10256000C702F091C802A089B18982E08C93A4854A
:10257000B5851C92A685B78587E08C93108EA489BB
:10258000B58986E08C93A289B3898C9180618C9304
:10259000A289B3898C9188608C93A289B3898C912C
:1025A00080688C930288F389E02D80818F7D808301
:1025B0008091C5028111CAC081E08093C5028EEB73
:1025C00092E00E94BC0568EE73E080E090E00E941B
:1025D000EF048091C3029091C402DC01ED91FC9163
:1025E0000084F185E02D09951816190644F3FF249F
:1025F000F39442E3E42E85E0E2E1F1E0DE01AD5A3E
:10260000BF4F01900D928A95E1F7F092C60245E026
:1026100050E0BE016D5A7F4F8EEB92E00E9475092B
:102620008091C3029091C402DC01ED91FC91019074
:10263000F081E02D63E009956AEF70E080E090E0C2
:102640000E94EF0468EE70E08091C3029091C40292
:102650000E94F0026AEF70E080E090E00E94EF04D8
:1026600066EE70E08091C3029091C4020E94F00275
:1026700064EF71E080E090E00E94EF046AED70E0AA
:102680008091C3029091C4020E94F00264EF71E055
:1026900080E090E00E94EF048EEB92E00E94BC0587
:1026A00085E0E7E1F1E0DE01119601900D928A9557
:1026B000E1F7E092C60204E010E09E012B553F4F87
:1026C00045E050E0BE016F5F7F4F8EEB92E00E94CD
:1026D000D6078F3F980739F468EE73E080E090E00A
:1026E0000E94EF0488CFCB55DF4F2881C55AD040D8
:1026F0002111FFCF049709F0ACC0CA55DF4F2881E4
:10270000C65AD0402053330B44E6429FC001439F3A
:10271000900D1124C955DF4F2881C75AD0403AE0A7
:10272000239F800D911D1124805E9140C855DF4F7D
:102730002881C85AD0402053330B820F931F9093A7
:10274000C0028093BF0282E38093C60261E08DE005
:102750000E946B0481E08093D20289EC92E00E9497
:10276000BA0D38EE432E33E0532E612C712C20E24B
:10277000C22E21E0D22E9EEBA92E92E0B92E222469
:1027800023948BE664968FAF649701E010E09E017E
:102790002F5F3F4F41E050E0BE016D5A7F4F809167
:1027A000CD029091CE020E94D607892B09F054C029
:1027B000C955DF4F19821882C75AD040C755DF4F1D
:1027C000488259826A827B82C95AD040CB55DF4FFA
:1027D000D982C882C55AD040CF54DF4FB982A8826F
:1027E000C15BD040CD54DF4F1882C35BD040CC5486
:1027F000DF4F1882C45BD040CB54DF4F1882C55BDB
:10280000D040CC54DF4F8881C45BD040882309F48A
:10281000A8C1BE016B557F4FCE018D5A9F4F0E94BC
:10282000DF096DE771E0CE018D5F9E4F0E948E0C37
:10283000CE018D5A9F4F0E94410997FD33C08F32C0
:10284000910581F1682FCE018D5F9E4F0E945A0C39
:10285000EFCF84E690E073CF8981C955DF4F1982AD
:102860001882C75AD040C755DF4F488259826A82C2
:102870007B82C95AD040CB55DF4FD982C882C55A16
:10288000D040CF54DF4FB982A882C15BD040CD5435
:10289000DF4F8883C35BD040CC54DF4F2882C45BBA
:1028A000D040AACF62E871E0CE018D5F9E4F0E94BA
:1028B000960B882309F463C0BE016D5A7F4FCE0189
:1028C00001960E94DF09CE0101960E94E008162FB2
:1028D000962EE72ECE0101960E94C8088F9709F028
:1028E00081C0CE0101960E94E008072FF62E812FAD
:1028F0000E946B046FE371E0CE0101960E94F0022A
:10290000692D7E2DCE0101960E94020B66E371E0D7
:10291000CE0101960E94F0026F2D702FCE0101961C
:102920000E94380B6EE771E0CE0183509F4F0E94EA
:102930008E0C692D7E2DCE0183509F4F0E94FF0B80
:102940006F2D702FCE0189509F4F0E94BF0CC95030
:10295000DF4F68817981C75FD040C350DF4F8881E6
:102960009981CD5FD0400E94110DCE0189509F4FBB
:102970000E94090DCE0183509F4F0E94090D6AE805
:1029800071E0CE018D5F9E4F0E94960B882309F463
:10299000B7C0BE016D5A7F4FCE0101960E94DF097C
:1029A000CE0101960E94E008162F862E972ECE01AA
:1029B00001960E94C8088F9709F05BC1CE0101966D
:1029C0000E94E008062F372EE62EF72E61E0812FB9
:1029D0000E949904E114F10459F560E0812F0E94EE
:1029E0006B044DC0212F30E0F901EB5BFE4F849169
:1029F000F901E95EFE4F0491F901E850FF4F14918F
:102A0000112399F081110E941F04E12FF0E0EE0FD5
:102A1000FF1FE651FF4FA591B491EC91E02381E0B7
:102A200000E009F480E0F82E65CFF12C00E062CFE1
:102A30009FEFE916F10411F461E0D0CFE12FF0E04F
:102A4000EB5BFE4FE491E150EF3008F00CC1F0E099
:102A5000E45DFA4E0C94A1173B15C415C915D515A4
:102A6000E115331633163316ED15F9150516111643
:102A70001E163316261684B5806884BD07BD65E929
:102A800071E0CE0101960E94F002B401CE010196E0
:102A90000E94020B65E871E0CE0101960E94F002EF
:102AA000B701CE0101960E94380B6EE771E0CE01AE
:102AB00083509F4F0E948E0CB401CE0183509F4FD4
:102AC0000E94FF0BB701CE0189509F4F0E94BF0C9F
:102AD000C950DF4F68817981C75FD040C350DF4F55
:102AE00088819981CD5FD0400E94110DCE0189501F
:102AF0009F4F0E94090DCE0183509F4F0E94090DE8
:102B000063E971E0CE018D5F9E4F0E94960B882392
:102B1000F1F0BE016D5A7F4FCE0101960E94DF0990
:102B2000CE0101960E94E008162F072FCE010196D4
:102B30000E94C8088F9709F4E6C069EE71E0CE01E3
:102B400001960E94F002CE0101960E947E0ACE01FB
:102B50008D5F9E4F0E94090DCE018B559F4F0E94A5
:102B6000BB0962E370E080E090E00E94EF0420E0A7
:102B700030E0232B09F405CE0E947E03882309F45C
:102B8000FACD0E940000F3CD84B5806284BD08BDFB
:102B900076CF80918000806880938000802F932D75
:102BA00090938900809388006ACF80918000806232
:102BB00080938000802F932D90938B0080938A00C8
:102BC0005ECF80918000886080938000802F932D5D
:102BD00090938D0080938C0052CF809190008068FC
:102BE00080939000802F932D90939900809398006C
:102BF00046CF80919000806280939000802F932D2B
:102C000090939B0080939A003ACF809190008860C7
:102C100080939000802F932D90939D0080939C0033
:102C20002ECF8091C00080688093C0008091C0004A
:102C30008F7B8093C0000093CF0021CF8091C00094
:102C400080628093C0000093D00019CF8091C200B1
:102C500088608093C2008091C2008B7F8093C20005
:102C60000093D2000CCFA0E8EA16F1040CF0E4CEF9
:102C7000B4CE123108F01251E12FF0E0EC59FE4FC2
:102C8000E49190917B008E2F880F880F80729F7D3A
:102C9000892B80937B00E770E064E0937C00809157
:102CA0007A00806480937A0080917A0086FDFCCF60
:102CB0008091780000917900102F082F6FE771E064
:102CC000CE0101960E94F002B401CE0101960E944D
:102CD000020B60E771E0CE0101960E94F002B8019C
:102CE000CE0101960E94380B61E971E0CE0183505C
:102CF0009F4F0E948E0CB401CE0183509F4F0E94C3
:102D0000FF0BB801E0CE6DE771E0CE0189509F4F17
:102D10000E948E0CCE0101960E94410997FD0AC0C7
:102D20008D30910539F0682FCE0189509F4F0E9458
:102D30005A0CF0CFE12EF02E68E971E0CE018950F7
:102D40009F4F0E94960B8823D9F060E0812F0E944C
:102D5000990463EE71E0CE0101960E94F002B70182
:102D6000CE0101960E94020B6DEC71E0CE0101963E
:102D70000E94F002CE0189509F4F0E94090DE7CEBC
:102D80006EE971E0CE0189509F4F0E94960B882317
:102D900091F061E0812F0E94990467EC71E0CE010F
:102DA00001960E94F002B701CE0101960E94020B2B
:102DB00060EB71E0DBCF6BE971E0CE0101960E9420
:102DC000F002C550DF4F48815981CB5FD040C950D8
:102DD000DF4F68817981C75FD040CE0101960E94A4
:102DE000A007C8CFFB01DC0105900D920020E1F7A0
:102DF0000895BB274A3031F4992322F4BDE290951F
:102E000081959F4F0C940517BB27FB015527AA27D7
:102E1000880F991FAA1FA41710F0A41B8395505167
:102E2000B9F7A05DAA3308F0A95DA193009779F7DF
:102E3000B111B1931192CB010C941E17DC01FC016E
:102E4000672F71917723E1F7329704C07C916D93DE
:102E500070836291AE17BF07C8F308950E94701780
:102E6000A59F900DB49F900DA49F800D911D1124DE
:102E700008952F923F924F925F926F927F928F921E
:102E80009F92AF92BF92CF92DF92EF92FF920F93F9
:102E90001F93CF93DF93CDB7DEB7CA1BDB0B0FB603
:102EA000F894DEBF0FBECDBF09942A8839884888C0
:102EB0005F846E847D848C849B84AA84B984C88456
:102EC000DF80EE80FD800C811B81AA81B981CE0F4D
:102ED000D11D0FB6F894DEBF0FBECDBFED01089532
:102EE000A29FB001B39FC001A39F700D811D11244B
:102EF000911DB29F700D811D1124911D0895A1E2B5
:102F00001A2EAA1BBB1BFD010DC0AA1FBB1FEE1F63
:102F1000FF1FA217B307E407F50720F0A21BB30BAE
:102F2000E40BF50B661F771F881F991F1A9469F72A
:102F300060957095809590959B01AC01BD01CF0186
:102F40000895EE0FFF1F0590F491E02D09940F9363
:102F50001F93CF93DF938230910510F482E090E0CD
:102F6000E091DB02F091DC0230E020E0B0E0A0E094
:102F7000309799F42115310509F44AC0281B390B03
:102F800024303105D8F58A819B816115710589F15D
:102F9000FB0193838283FE0111C040815181028134
:102FA000138148175907E0F04817590799F410970B
:102FB00061F012960C93129713961C933296CF01E0
:102FC000DF91CF911F910F9108950093DB02109331
:102FD000DC02F4CF2115310551F04217530738F0C8
:102FE000A901DB019A01BD01DF01F801C1CFEF01A9
:102FF000F9CF9093DC028093DB02CDCFFE01E20F8C
:10300000F31F819391932250310939832883D7CFBD
:103010002091D9023091DA02232B41F420910E0144
:1030200030910F013093DA022093D90220910C01E4
:1030300030910D012115310541F42DB73EB7409176
:10304000100150911101241B350BE091D902F09130
:10305000DA02E217F307A0F42E1B3F0B28173907FB
:1030600078F0AC014E5F5F4F2417350748F04E0FE4
:103070005F1F5093DA024093D902819391939FCFBF
:10308000F0E0E0E09CCFCF93DF930097E9F0FC0104
:10309000329713821282A091DB02B091DC02ED0123
:1030A00030E020E01097A1F420813181820F931F3E
:1030B0002091D9023091DA022817390709F061C04E
:1030C000F093DA02E093D902DF91CF910895EA01FB
:1030D000CE17DF07E8F54A815B819E014115510556
:1030E000B1F7E901FB83EA8349915991C40FD51FD8
:1030F000EC17FD0761F4808191810296840F951F82
:10310000E90199838883828193819B838A83F0E09C
:10311000E0E012968D919C9113970097B9F52D914F
:103120003C911197CD010296820F931F2091D902F5
:103130003091DA022817390739F6309751F5109295
:10314000DC021092DB02B093DA02A093D902BCCF6A
:10315000D383C28340815181840F951FC817D9073B
:1031600061F44E5F5F4F88819981480F591F5183E9
:1031700040838A819B81938382832115310509F0E5
:10318000B0CFF093DC02E093DB029ECFFD01DC01C7
:10319000C0CF13821282D7CFB0E0A0E0E2EDF8E119
:1031A0000C943B178C01009751F4CB010E94A71798
:1031B0008C01C801CDB7DEB7E0E10C945717FC01D4
:1031C000E60FF71F9C0122503109E217F30708F4BC
:1031D0009DC0D901CD91DC911197C617D70798F002
:1031E000C530D10530F3CE0104978617970708F351
:1031F000C61BD70B2297C193D1936D937C93CF01BC
:103200000E944318D6CF5B01AC1ABD0A4C018C0E4C
:103210009D1EA091DB02B091DC02512C412CF12CBF
:10322000E12C109731F58091D9029091DA0288153E
:10323000990509F05CC04616570608F058C0809101
:103240000C0190910D01009741F48DB79EB740910C
:10325000100150911101841B950BE817F90708F034
:1032600055C0F093DA02E093D902F90171836083CB
:10327000A0CF8D919C91119712966C9012971396F6
:103280007C901397A815B90559F56C0142E0C40E5E
:10329000D11CCA14DB0420F1AC014A195B09DA0124
:1032A0001296159780F06282738251834083D90110
:1032B0006D937C93E114F10471F0D7011396FC93A4
:1032C000EE93129776CF22968C0F9D1FF901918372
:1032D0008083F301EFCFF093DC02E093DB0269CF50
:1032E0004816590608F42C017D01D3019ACFCB0171
:1032F0000E94A7177C01009749F0AE01B8010E9417
:103300008E19C8010E944318870153CF10E000E0D6
:1033100050CF81E090E0F8940C94A719FB01DC01F8
:1033200002C001900D9241505040D8F70895FB0122
:10333000DC018D91019080190110D9F3990B08954A
:10334000FB01DC0101900D920020E1F70895F89453
:10335000FFCFFFFFFFFF00E10000000000000000C2
:10336000DD02800058585858585858313030000005
:1033700000009909A007220AB2056B09C80858087D
:10338000550D840A9508BB09EB071E0AB30500C159
:10339000808100000000000000AA012105CB01C0CF
:1033A000011102CF01ED0100000000B3031403413D
:1033B00003FF03720350036403000000008009143C
:1033C00003220A210ABA0D000000004A0B0D0A0070
:1033D0004400FE006469676974616C00616E616C31
:1033E0006F670041006D6F646500696E70757400F1
:0833F0006F7574707574000024
:1070000055C000006EC000006CC000006AC00000E7
:1070100068C0000066C0000064C0000062C00000DC
:1070200060C000005EC00000FCC400005AC0000048
:1070300058C0000056C0000054C0000052C00000FC
:1070400050C000005DC000004CC000004AC00000FD
:1070500048C0000046C0000044C0000042C000001C
:1070600040C000003EC000003CC000003AC000002C
:1070700038C0000036C0000034C0000032C000003C
:1070800030C000002EC000002CC000002AC000004C
:1070900028C0000026C0000024C0000022C000005C
:1070A00020C000001EC000001CC0000011241FBE34
:1070B000CFEFDAE0DEBFCDBF11E0A0E0B1E0E6E463
:1070C000FFE702C005900D92A63AB107D9F711E08B
:1070D000A6EAB1E001C01D92AF3BB107E1F74FD383
:1070E00030C78ECFF89410926F001092810081E02B
:1070F00085BF15BE47985D9A289A0C9400000895A4
:107100001F920F920FB60F9211242F938F939F937C
:10711000EF93FF9310928500109284008091A60156
:107120009091A701009741F001979093A701809358
:10713000A601892B09F45D9A8091A8019091A9017B
:10714000009741F001979093A9018093A801892BA2
:1071500009F4289A8091AC019091AD010196909329
:10716000AD018093AC01E0E0F0E0859194918F5FF8
:107170009F4F49F08091AA019091AB0101969093A5
:10718000AB018093AA01FF91EF919F918F912F9175
:107190000F900FBE0F901F90189584E08093E90028
:1071A0000DC08091E8008B778093E80003C08EB318
:1071B000882351F08091E80082FFF9CF8091E800A8
:1071C00085FFEFCF8091F1000895982F83E08093A1
:1071D000E9008091E80085FD0DC08091E8008E7780
:1071E0008093E80003C08EB3882369F08091E800A3
:1071F00080FFF9CF9093F1005D9884E690E0909342
:10720000A7018093A60108954F925F926F927F929B
:107210008F929F92AF92BF92CF92DF92EF92FF92A6
:107220000F931F93CF93DF9384E08093E9008091C5
:10723000E80082FF57C2289884E690E09093A90165
:107240008093A801AADF182F853481F48CE49DE196
:107250009093AB018093AA0107B600FCFDCFF9998A
:10726000FECF81E180935700E89503C0843519F47F
:1072700094DF8DE00DC28C34E1F38035D1F3843797
:1072800021F484E4A2DF80E003C2813611F489E5B1
:10729000FFC18134B1F481DF182F7FDF90E0880FC8
:1072A000991FAA2797FDA095BA2F312F330F20E001
:1072B000442737FD4095542F822B932BA42BB52BBD
:1072C000B8C1803711F483E5E3C1833549F4C0E0E8
:1072D000D1E089917ADF21E0C730D207D1F7D9C157
:1072E000863521F481E371DF80E3D2C1833731F445
:1072F00087E86BDF85E969DF8EE1CAC18536B9F4BD
:10730000E0E0F0E093E085E090935700E89507B661
:1073100000FCFDCF80935700E89507B600FCFDCF39
:10732000E058FF4FA0E7E030FA0771F7A2CF8237AD
:1073300039F4E1E0F0E089E0809357008491A8C13E
:10734000863439F4E0E0F0E089E0809357008491DE
:107350009FC18E3439F4E3E0F0E089E08093570078
:10736000849196C1813539F4E2E0F0E089E08093C0
:10737000570084918DC1823631F489E526DF80E0A3
:1073800024DF80E885C1823419F0873609F0E5C032
:107390001092AB011092AA0100DF082FFEDEF82E3A
:1073A000FCDE682E8554823008F071C1902F80E099
:1073B000CF2DD0E0C82BD92B10926F00173609F0D3
:1073C0004BC081E180935700E895DD24CC24C39421
:1073D0003FC0E090AF01F090B0010091B101109179
:1073E000B201B6E46B16D9F4ED2DF0E0EE29FF29D9
:1073F000E4918E2FEADEDD2081F082E090E0A0E0D3
:10740000B0E0E80EF91E0A1F1B1FE092AF01F092D8
:10741000B0010093B1011093B201DC2418C0D8016F
:10742000C701B695A7959795879575D5CEDE82E06D
:1074300090E0A0E0B0E0E80EF91E0A1F1B1FE092EA
:10744000AF01F092B0010093B1011093B201219706
:10745000209709F0BECF7DC08090AF019090B00121
:10746000A090B101B090B20196E4691609F05DC038
:1074700083E0F40180935700E89507B600FCFDCF48
:1074800054C0F6E46F1661F5772031F1E090AF015A
:10749000F090B0010091B1011091B2017EDED82EC2
:1074A000CC24852D90E08C299D29F7010C01409278
:1074B0005700E895112482E090E0A0E0B0E0E80EEB
:1074C000F91E0A1F1B1FE092AF01F092B00100935A
:1074D000B1011093B20102C060DE582E742423C0A3
:1074E000E090AF01F090B0010091B1011091B201B4
:1074F00016950795F794E79450DE682FC70113D5CA
:107500008091AF019091B001A091B101B091B20111
:107510000296A11DB11D8093AF019093B001A0937D
:10752000B101B093B201219704C0552477244424BB
:107530004394209709F0A5CF96E4691641F485E0BD
:10754000F40180935700E89507B600FCFDCF8DE06D
:107550003CDE82E080936F009CC0833471F4009124
:10756000AF011091B00119DE90E021E0F8010C01AB
:1075700020935700E89511247CCE833619F5E090CE
:10758000AF01F090B0010091B1011091B20105DEA0
:10759000F701E16090E021E00C0120935700E895AD
:1075A000112482E090E0A0E0B0E0E80EF91E0A1F8E
:1075B0001B1FE092AF01F092B0010093B101109354
:1075C000B20157CE8D3661F4E091AF01F091B00178
:1075D00085E080935700E89507B600FCFDCF49CEC3
:1075E000823551F4E091AF01F091B0010591149111
:1075F000812FEBDD802F4CC0843421F5E090AF016A
:10760000F090B0010091B1011091B201169507956B
:10761000F794E794C2DD682FC70185D48091AF014C
:107620009091B001A091B101B091B2010296A11D5B
:10763000B11D8093AF019093B001A093B101B093BD
:10764000B20117CE843609F5E090AF01F090B00199
:107650000091B1011091B201D801C701B695A7956B
:107660009795879558D4B1DD82E090E0A0E0B0E036
:10767000E80EF91E0A1F1B1FE092AF01F092B00145
:107680000093B1011093B20104C08B3111F08FE36C
:107690009CDD83E08093E9009091E8008091E80010
:1076A0008E778093E80095FF04C010C08EB38823C6
:1076B000C9F08091E80080FFF9CF8091E8008E77D3
:1076C0008093E80003C08EB3882361F08091E800C6
:1076D00080FFF9CF84E08093E9008091E8008B7708
:1076E0008093E800DF91CF911F910F91FF90EF9071
:1076F000DF90CF90BF90AF909F908F907F906F90D2
:107700005F904F9008959091B701892F8F778132C4
:1077100049F58091B8018032A1F0813219F5913A92
:1077200009F58091E800877F8093E8008CE091E084
:1077300067E070E027D28091E8008B778093E800C3
:107740000895913279F48091E800877F8093E80072
:107750008CE091E067E070E079D28091E8008E776C
:107760008093E800089582E061EC42E0D1D083E0AC
:1077700061E842E1CDD084E060E842E1C9C01F93F6
:10778000209100081092000844B714BE88E10FB69B
:10779000F89480936000109260000FBE80E8E0E0F3
:1077A000F0E00FB6F89480936100E09361000FBEA3
:1077B00031E035BF92E095BF3F9A209A559A809369
:1077C00061001092610047985D9A289A1092890092
:1077D0008AEF8093880090936F0083E0809381000C
:1077E000859194918F5F9F4F11F03093AE01942F4C
:1077F00041FF19C0809109012817A9F08093000862
:10780000789480911301882339F08091AC01909194
:10781000AD018F5E9240C8F310920008F89481E0A9
:10782000809313010CC090FF04C08091AE018823A7
:1078300051F493FF09C080910901281729F0809124
:10784000AE01882309F04EDCD4D078941092AB01BD
:107850001092AA011EEF20C0D7DC4BD38091AA0161
:107860009091AB0181549F4110F0109213018091CF
:10787000B3019091B40101969093B4018093B30148
:10788000292F97FF03C0512F591B252F220F28178F
:1078900010F4479801C0479A809113018823E1F6BC
:1078A0008091E00081608093E0001CDC80E090E04B
:1078B0001F910895FA01923049F0933061F09130B0
:1078C000F9F484E191E022E130E01EC086E291E02B
:1078D0002EE330E019C0882329F484E691E024E007
:1078E00030E012C0813029F488E691E022E230E0F5
:1078F0000BC0823029F48CE891E028E130E004C02C
:1079000080E090E020E030E091838083C901089519
:107910008093E9008091EB0081608093EB001092EE
:10792000ED006093EC004093ED008091EE00881F25
:107930008827881F08958091B70188238CF403C09D
:107940008EB38823B1F08091E80082FFF9CF809157
:10795000E8008B778093E80008958EB3882349F080
:107960008091E80080FFF9CF8091E8008E778093C6
:10797000E8000895EF92FF920F931F9345D04CD0EB
:1079800008ED10E0F80180818F7780838081806826
:10799000808380818F7D808319BC1EBA1092B501CF
:1079A00080EEE82EF12CF70180818B7F8083F80137
:1079B00080818160808380E060E042E0A9DFE1EEC9
:1079C000F0E080818E7F8083E2EEF0E08081816054
:1079D0008083808188608083F70180818E7F8083AF
:1079E000F8018081806180831F910F91FF90EF905B
:1079F0000895E7EDF0E08081816080838AE482BFB2
:107A000081E08093B601B6CFE8EDF0E080818E7F13
:107A100080831092E20008951092DA001092E10043
:107A200008951F920F920FB60F9211242F933F9338
:107A30004F935F936F937F938F939F93AF93BF9376
:107A4000EF93FF938091DA0080FF1BC08091D800F4
:107A500080FF17C08091DA008E7F8093DA008091DA
:107A6000D90080FF0BC080E189BD82E189BD09B4E6
:107A700000FEFDCF81E08EBB3BD203C019BC1EBA15
:107A800037D28091E10080FF17C08091E20080FF33
:107A900013C08091E2008E7F8093E2008091E2002B
:107AA00080618093E2008091D80080628093D8004A
:107AB00019BC85E08EBB1CD28091E10084FF2CC0F4
:107AC0008091E20084FF28C080E189BD82E189BD08
:107AD00009B400FEFDCF8091D8008F7D8093D8003F
:107AE0008091E1008F7E8093E1008091E2008F7EA3
:107AF0008093E2008091E20081608093E2008091B7
:107B0000B501882331F48091E30087FD02C081E054
:107B100001C084E08EBBECD18091E10083FF21C0E5
:107B20008091E20083FF1DC08091E100877F8093F8
:107B3000E10082E08EBB1092B5018091E1008E7F62
:107B40008093E1008091E2008E7F8093E20080913B
:107B5000E20080618093E20080E060E042E0D8DEF5
:107B6000C7D1FF91EF91BF91AF919F918F917F917D
:107B70006F915F914F913F912F910F900FBE0F909A
:107B80001F9018959C014091BD015091BE01461770
:107B9000570718F4F90190E044C06115710511F020
:107BA000AB01F8CF8091E8008E778093E80040E049
:107BB00050E0F0CF8EB3882309F444C0853009F437
:107BC00043C08091E80083FF02C081E00895809166
:107BD000E80082FD31C08091E80080FF22C08091E2
:107BE000F3009091F200782F60E0292F30E0262BEF
:107BF000372B07C081918093F100415050402F5F97
:107C00003F4F4115510519F02830310598F390E0A8
:107C10002830310509F491E08091E8008E77809357
:107C2000E8004115510531F6992321F605C08EB3C0
:107C3000882341F0853041F08091E80082FFF7CF42
:107C400080E0089582E0089583E008959C01611525
:107C5000710529F48091E8008B778093E800F901A1
:107C600026C08EB3882391F1853091F18091E80090
:107C700083FF02C081E008958091E80082FFF1CF88
:107C800006C08091F10081936150704059F02091BD
:107C9000F3008091F200322F20E090E0822B932BB2
:107CA000892B79F78091E8008B778093E800611544
:107CB0007105B9F605C08EB3882341F0853041F0D7
:107CC0008091E80080FFF7CF80E0089582E008957A
:107CD00083E008950F931F93DF93CF9300D0CDB728
:107CE000DEB7E7EBF1E08091F100819381E0EF3BBB
:107CF000F807C9F708DD8091E80083FFE4C08091B0
:107D0000B7019091B801953009F46DC0963040F4F8
:107D1000913081F1913070F0933009F0D4C02AC0D5
:107D2000983009F4A3C0993009F4B2C0963009F034
:107D3000CAC07CC0803809F4C6C0823809F0C3C00C
:107D40008091BB0187708093E9008091EB001092D5
:107D5000E9002091E800277F2093E80090E025E0EB
:107D6000969587952A95E1F781708093F10010929E
:107D7000F10087C0882319F0823009F0A4C08F7108
:107D8000823009F0A0C08091B901882331F520919B
:107D9000BB01277009F497C02093E9008091EB00A4
:107DA00080FF1BC0933021F48091EB00806213C0F0
:107DB0008091EB0080618093EB0081E090E002C055
:107DC000880F991F2A95E2F78093EA001092EA0043
:107DD0008091EB0088608093EB001092E900809125
:107DE000E800877F51C0882309F06DC01091B90168
:107DF0001F770FB7F8948091E800877F8093E800A1
:107E00009ADD8091E80080FFFCCF8091E3008078CC
:107E1000812B8093E30080688093E300112311F4A9
:107E200082E001C083E08EBB0FBF4DC0805882301E
:107E300008F049C08091B9019091BA016091BB01ED
:107E4000AE014F5F5F4F36DDBC01009709F43BC0C8
:107E50008091E800877F8093E80089819A8192DE93
:107E60008091E8008B778093E8002DC0803859F529
:107E70008091E800877F8093E8008091B50180932E
:107E8000F1008091E8008E778093E80054DD1BC0FC
:107E90008823C9F49091B9019230A8F48091E80048
:107EA000877F8093E8009093B50145DD8091B5010F
:107EB000882331F48091E30087FD02C081E001C096
:107EC00084E08EBB50DC8091E80083FF0AC0809183
:107ED000EB0080628093EB008091E800877F8093C5
:107EE000E8000F900F90CF91DF911F910F910895AF
:107EF00008951F938EB3882361F01091E9001092CA
:107F0000E9008091E80083FF01C0E4DE1770109360
:107F1000E9001F910895F999FECF92BD81BDF89AAD
:107F2000992780B50895262FF999FECF1FBA92BDE3
:107F300081BD20BD0FB6F894FA9AF99A0FBE01964A
:107F40000895F894FFCF4341544552494E4100777C
:107F500000080000000000000801120110010200EA
:107F600000084123410001000201000109023E0016
:107F70000201008032090400000102020100052410
:107F800000100104240204052406000107058203F1
:107F90000800FF09040100020A00000007050402AE
:107FA00010000107058302100001040309042203E5
:107FB000410072006400750069006E006F002000CF
:107FC000590075006E0020002000200020002000D5
:107FD00000001803410072006400750069006E0023
:0C7FE0006F0020004C004C00430000002B
:00000001FF
