:100000000C94E1000C9409010C9409010C94090171
:100010000C9409010C9409010C9409010C94090138
:100020000C9409010C9409010C9409010C94090128
:100030000C9409010C9409010C9409010C94090118
:100040000C948B090C9409010C9459090C943309F4
:100050000C9409010C9409010C9409010C940901F8
:100060000C9409010C94090100407A10F35A00A085
:10007000724E18090010A5D4E80000E87648170071
:1000800000E40B54020000CA9A3B000000E1F505B1
:10009000000080969800000040420F000000A086FB
:1000A00001000000102700000000E803000000002D
:1000B0006400000000000A000000000001000000D1
:1000C00000002C76D888DC674F0823DFC1DFAE59EB
:1000D000E1B1B796E5E3E453C63AE651997696E87E
:1000E000E6C28426EB898C9B62ED407C6FFCEFBC02
:1000F0009C9F40F2BAA56FA5F490055A2AF75C932D
:100100006B6CF9676DC11BFCE0E40D47FEF520E662
:10011000B500D0ED902E0300943577050080841E45
:10012000080000204E0A000000C80C333333330FA0
:10013000986E12831141EF8D2114893BE65516CF3D
:10014000FEE6DB18D1844B381BF77C1D901DA4BB49
:10015000E424203284725E228100C9F124ECA1E5FE
:100160003D27302E302E302E30003132372E302EBB
:10017000302E310072756E2D6272696467650A00F7
:100180000A000A0000000000250028002B000000E3
:100190000000240027002A000404040404040404CA
:1001A0000202020202020303030303030102040822
:1001B00010204080010204081020010204081020D1
:1001C000D50911241FBECFEFD8E0DEBFCDBF22E09E
:1001D000AAE7B1E001C01D92AB34B207E1F711E02C
:1001E000A0E0B1E0ECE1F8E202C005900D92AA3780
:1001F000B107D9F710E0C1EED0E004C02197FE01AD
:100200000E940612C03ED107C9F70E944D0A0C9405
:100210000C140C940000EF92FF920F931F93CF9356
:10022000DF938C017B01D0E0C0E0F701EC0FFD1FF4
:100230006491662361F0D801ED91FC910190F08109
:10024000E02DC8010995892B11F02196EECFCE0142
:10025000DF91CF911F910F91FF90EF900895AF9292
:10026000BF92CF92DF92EF92FF920F931F93CF93A3
:10027000DF936C017B018B01040F151FEB015E0105
:10028000AE18BF08C017D10759F06991D601ED919A
:10029000FC910190F081E02DC6010995892B79F739
:1002A000C501DF91CF911F910F91FF90EF90DF90EB
:1002B000CF90BF90AF900895FC01538D448D252FB2
:1002C00030E0842F90E0821B930B541710F0CF96F0
:1002D000089501970895FC01918D828D981761F022
:1002E000A28DAE0FBF2FB11D5D968C91928D9F5F39
:1002F0009F73928F90E008958FEF9FEF0895FC0118
:10030000918D828D981731F0828DE80FF11D858DCA
:1003100090E008958FEF9FEF0895FC01918D228D5D
:10032000892F90E0805C9F4F821B91098F739927E2
:1003300008958FE891E00E948D0121E0892B09F456
:1003400020E0822F089580E090E0892B29F00E9420
:10035000990181110C9400000895FC01A48DA80F4F
:10036000B92FB11DA35ABF4F2C91848D90E00196F7
:100370008F739927848FA689B7892C93A089B18917
:100380008C91837080648C93938D848D981306C0B8
:100390000288F389E02D80818F7D80830895EF921C
:1003A000FF920F931F93CF93DF93EC0181E0888F2F
:1003B0009B8D8C8D98131AC0E889F989808185FFFF
:1003C00015C09FB7F894EE89FF896083E889F989A1
:1003D00080818370806480839FBF81E090E0DF91A3
:1003E000CF911F910F91FF90EF900895F62E0B8DF6
:1003F00010E00F5F1F4F0F731127E02E8C8D8E11B1
:100400000CC00FB607FCFACFE889F989808185FF17
:10041000F5CFCE010E94AD01F1CFEB8DEC0FFD2F9A
:10042000F11DE35AFF4FF0829FB7F8940B8FEA89D2
:10043000FB8980818062CFCFCF93DF93EC01888DE1
:100440008823B9F0AA89BB89E889F9898C9185FD4F
:1004500003C0808186FD0DC00FB607FCF7CF8C91DD
:1004600085FFF2CF808185FFEDCFCE010E94AD01E7
:10047000E9CFDF91CF9108953FB7F89480917B0148
:1004800090917C01A0917D01B0917E0126B5A89B41
:1004900005C02F3F19F00196A11DB11D3FBFBA2F16
:1004A000A92F982F8827BC01CD01620F711D811DD6
:1004B000911D42E0660F771F881F991F4A95D1F75B
:1004C00008958F929F92AF92BF92CF92DF92EF9258
:1004D000FF924B015C010E943C026B017C010E9477
:1004E0003C026C197D098E099F09683E73408105A5
:1004F0009105A8F321E0821A9108A108B10888EEBD
:10050000C80E83E0D81EE11CF11C81149104A104E3
:10051000B10429F7FF90EF90DF90CF90BF90AF909C
:100520009F908F9008950895FB012785FC012787F0
:10053000FB012685FC0126870895CF93DF93EC010C
:100540008D819E81DC01ED91FC910084F185E02D8F
:1005500009951816190654F48D819E81DC01ED91E0
:10056000FC910284F385E02D0995EACFDF91CF91CC
:1005700008958F929F92AF92BF92CF92DF92EF92A7
:10058000FF92CF93DF93EC018FB7F89480907F01B7
:1005900090908001A0908101B09082018FBF6B018B
:1005A000F12CE12C8D819E81DC01ED91FC91028486
:1005B000F385E02D099597FF16C02FB7F894809129
:1005C0007F0190918001A0918101B09182012FBFA4
:1005D00088199909AA09BB098C159D05AE05BF05A7
:1005E00008F38FEF9FEFDF91CF91FF90EF90DF90B7
:1005F000CF90BF90AF909F908F900895FC01238182
:1006000034812627022E2295207F2025032E322F8B
:1006100022952F700226269532272327220F220F9C
:10062000220F20253483238308952F923F924F92E7
:100630005F926F927F928F929F92AF92BF92CF9272
:10064000DF92EF92FF920F931F93CF93DF93CDB77B
:10065000DEB72A970FB6F894DEBF0FBECDBF9A87DC
:1006600089875B01290137011A01200E311E3A8268
:10067000198288248A94982C9A01260F371F3E836A
:100680002D83C801840D951D98878F83A985BA8510
:1006900018968C91B981B81708F040C1E985FA85A0
:1006A0009482838285819681DC01ED91FC91019099
:1006B000F081E02D6FEF09956FEF89859A850E9493
:1006C000FE02E985FA8585819681DC01ED91FC9138
:1006D0000190F081E02DA985BA856C910995E98595
:1006E000FA856081CF010E94FE02A985BA85159620
:1006F0008D919C91DC01ED91FC910190F081E02DB8
:100700006A8109956A8189859A850E94FE02E98538
:10071000FA8585819681DC01ED91FC910190F08153
:10072000E02D622D0995622D89859A850E94FE0231
:100730008501E985FA8585819681D8016D918D01C4
:10074000DC01ED91FC910190F081E02D0995F8011B
:100750003197608189859A850E94FE02ED81FE8134
:100760000E171F0731F78201A985BA8515968D915D
:100770009C91DC01ED91FC910190F081E02D2F81A5
:1007800038852017310761F0D8016D918D010995E9
:10079000F8013197608189859A850E94FE02E4CF35
:1007A000A985BA8514966C910995E985FA858581A4
:1007B0009681DC01ED91FC910190F081E02DA985FD
:1007C000BA8513966C91099568EC70E089859A85D5
:1007D0000E94B9028F3F910509F092C0E985FA8520
:1007E000948283826FEFCF010E94FE0265E070E089
:1007F00089859A850E94B902A985BA856C91681786
:10080000190609F07DC0CD010E94FE026AE070E089
:1008100089859A850E94B9027C0197FD71C0682F75
:1008200089859A850E94FE026AE070E089859A8532
:100830000E94B9028C0197FD63C0682F89859A8553
:100840000E94FE02EC821B82EB81FC810E0F1F1FB7
:10085000F12CE12C65E070E089859A850E151F0565
:10086000A1F0EC14FD0489F00E94B90297FD09C0C3
:10087000F301EE0DFF1D8083682F89859A850E9404
:10088000FE02FFEFEF1AFF0AE5CF0E94B9027C01DA
:1008900097FD36C065E070E089859A850E94B902AF
:1008A00097FD2EC0FE2CEE248E0D9F1DA985BA85C6
:1008B00013962D913C9114978217930709F58C910B
:1008C0008F5F8C93C801C016D10608F4C6012A9622
:1008D0000FB6F894DEBF0FBECDBFDF91CF911F9151
:1008E0000F91FF90EF90DF90CF90BF90AF909F90CF
:1008F0008F907F906F905F904F903F902F900895D2
:10090000B981BF5FB98364E670E080E090E00E9447
:10091000610289859A850E949D02B8CE8FEF9FEF74
:10092000D6CFAF92BF92CF92DF92EF92FF920F930A
:100930001F93CF93DF9300D0CDB7DEB7FC019B01AF
:100940005A018785882301F18CE6898386858A830D
:10095000D12CC12CF12CE12C8A0142E050E0BE01E7
:100960006F5F7F4F848595850E941503C5010F90A9
:100970000F90DF91CF911F910F91FF90EF90DF903B
:10098000CF90BF90AF900895B12CA12CEFCFCF9214
:10099000DF92EF92FF920F931F936801790110E0AD
:1009A00000E030E020E00E9415031F910F91FF90BE
:1009B000EF90DF90CF900895EF92FF920F931F93E7
:1009C000CF93DF9300D01F92CDB7DEB7DC011F9627
:1009D0002C911F97222301F17C01ED91FC91008461
:1009E000F185E02D0995892B11F58CE48983F701B8
:1009F00086858A8301E010E09E012D5F3F4F42E033
:100A000050E0BE016F5F7F4F848595850E94C704CB
:100A100081E09B81913009F080E00F900F900F9062
:100A2000DF91CF911F910F91FF90EF90089581E09A
:100A3000F4CFEF92FF920F931F93CF93DF9300D0E9
:100A40001F92CDB7DEB7FC012089211118C07C01AF
:100A5000118A8BE4898380E48B8386858A839F0156
:100A60002E5E3F4F00E410E043E050E0BE016F5FB8
:100A70007F4F848595850E94C704F701808B0F9076
:100A80000F900F90DF91CF911F910F91FF90EF90FA
:100A90000895CF93DF93EC010E941905888988237C
:100AA00041F08989C80FD11D8A8990E0DF91CF91EB
:100AB00008958FEF9FEFFACFCF92DF92EF92FF92E0
:100AC0000F931F93CF93DF93EC016A017B0110E03A
:100AD00000E08889811106C0CE010E94190588892D
:100AE000882399F0E98981E08E0F898B0F5F1F4F72
:100AF000EC0FFD2FF11D8289F70181937F01888919
:100B00008150888B0C151D0520F3C801DF91CF9112
:100B10001F910F91FF90EF90DF90CF900895CF93AA
:100B2000DF93EC010E9419058889882369F08150C0
:100B3000888B898991E0980F998BC80FD11D8A897C
:100B400090E0DF91CF9108958FEF9FEFFACFCF9391
:100B5000DF93EC012FB7F89480917F019091800191
:100B6000A0918101B09182012FBF88879987AA87C0
:100B7000BB87CE010E948F0597FF1EC02FB7F89448
:100B800080917F0190918001A0918101B0918201BB
:100B90002FBF488559856A857B85841B950BA60BDD
:100BA000B70B4C815D816E817F8184179507A60705
:100BB000B707F8F28FEF9FEFDF91CF910895CF93B2
:100BC000DF93EC010E941905888990E0DF91CF91B5
:100BD00008950F931F9310E000E030E020E00E94A2
:100BE000C7041F910F910895CF93DF9300D0CDB725
:100BF000DEB722E629836A8342E050E0BE016F5FE0
:100C00007F4FFC01848195810E94E90581E090E09D
:100C10000F900F90DF91CF910895CF93DF9300D085
:100C20001F92CDB7DEB7FC01278590E080E022233C
:100C300081F08CE6898386858A836B8343E050E06C
:100C4000BE016F5F7F4F848595850E94E90581E035
:100C500090E00F900F900F90DF91CF9108950F9338
:100C60001F93CF93DF9300D0CDB7DEB78C01FC018B
:100C70008785882369F08AE6898386858A8342E0AE
:100C800050E0BE016F5F7F4F848595850E94E90526
:100C9000F8011786108A118A0F900F90DF91CF917B
:100CA0001F910F910895FC0187850895089590E0A4
:100CB00080E008958F929F92AF92BF92EF92FF9241
:100CC0000F931F93CF93DF93CDB7DEB7A1970FB6E6
:100CD000F894DEBF0FBECDBF7C01FA01CB0119A293
:100CE000223008F42AE08E010F5D1F4F822E912CD6
:100CF000B12CA12CBF01A50194010E94E411F901BE
:100D0000CA016A3074F5605DD8016E938D01232BA2
:100D1000242B252B79F790E080E0109789F0FD01D6
:100D200001900020E9F73197AF014A1B5B0BD70117
:100D3000ED91FC910280F381E02DB801C701099586
:100D4000A1960FB6F894DEBF0FBECDBFDF91CF9155
:100D50001F910F91FF90EF90BF90AF909F908F9059
:100D60000895695CD1CFAF92BF92CF92DF92EF929C
:100D7000FF920F931F93CF93DF9300D000D000D04A
:100D80001F92CDB7DEB75C019B0183E489835A8350
:100D90004B83FB0101900020E9F731978F01061B7F
:100DA000170BCC24C394D12CCE0106967C0143E0D2
:100DB00050E0BE016F5F7F4FD5011C968D919C91D5
:100DC0000E941503892BB9F18E81F501868793E680
:100DD0009C838D8301E010E09E01295F3F4F42E03C
:100DE00050E0BE016C5F7F4FD5011C968D919C91A8
:100DF0000E94C7048F81882339F061E070E080E0B1
:100E000090E00E946102E6CF81E0F50187870190C2
:100E1000F081E02D0688F789E02DC5010995811143
:100E20001DC0D501ED91FC910488F589E02DC50127
:100E30000995F501168690E080E027960FB6F894A4
:100E4000DEBF0FBECDBFDF91CF911F910F91FF90FD
:100E5000EF90DF90CF90BF90AF90089581E090E049
:100E6000ECCF0E94EE130F931F93CF93DF93EC010F
:100E700088819981009759F02A813B81261737078D
:100E800030F081E0DF91CF911F910F9108958B0198
:100E90006F5F7F4F0E943113009759F099838883C9
:100EA0001B830A832C813D81232B59F7FC0110827F
:100EB000E8CF80E0E7CFCF92DF92EF92FF920F93DF
:100EC0001F93CF93DF9300D000D0CDB7DEB77C0166
:100ED000862F4AE09E012F5F3F4F6901B90190E0E4
:100EE0000E94460EF60101900020E9F73197EC19B7
:100EF000FD09D9F0D70114960D911C910E0F1F1FFB
:100F0000B801C7010E943307882381F0F7012081CF
:100F1000318184819581B601820F931F0E9405144F
:100F2000D70115961C930E93149781E00F900F90A4
:100F30000F900F90DF91CF911F910F91FF90EF9045
:100F4000DF90CF900895EF92FF920F931F93CF936E
:100F5000DF9300D0CDB7DEB78C0169831A82FC0124
:100F6000E480F580FFEFEF1AFF0AB7010E94330714
:100F7000882381F0F8012081318184819581BE012F
:100F80006F5F7F4F820F931F0E940514F801F58257
:100F9000E48281E00F900F90DF91CF911F910F912C
:100FA000FF90EF900895CF93DF93EC0188819981B2
:100FB000009711F00E94A812198218821D821C82CB
:100FC0001B821A82DF91CF910895FC01808191816B
:100FD000009711F00C94A8120895CF92DF92EF922F
:100FE000FF920F931F93CF93DF9300D000D000D0D8
:100FF000CDB7DEB77C018B016A011A8219821C828F
:101000001B821E821D8270E060E0CE0101960E946C
:101010003307811153C0CE0101960E94D30762E1CC
:1010200070E0CE0101960E943307D80112966C91B0
:10103000CE0101960E945B076EE2CE0101960E94EE
:10104000A307F8016381CE0101960E945B076EE25F
:10105000CE0101960E94A307D80114966C91CE018F
:1010600001960E945B076EE2CE0101960E94A307E3
:10107000F8016581CE0101960E945B0769817A8142
:10108000D701ED91FC910088F189E02DA601C701FF
:1010900009958C01CE0101960E94E507C8012696AC
:1010A0000FB6F894DEBF0FBECDBFDF91CF911F9179
:1010B0000F91FF90EF90DF90CF9008951E821D82D8
:1010C00069E771E089819A810E940514A8CF8F9207
:1010D0009F92AF92BF92CF92DF92EF92FF920F93C7
:1010E0001F93CF93DF937C01EB016C0182E0C80E6C
:1010F000D11C4701E5E08E0E911C10E000E0F601E6
:1011000041916F0150E070E060E02AE0CE010E9462
:101110005A065C01E881F9810190F081E02D6EE2D0
:10112000CE0109958A0D9B1D080F191FC814D904FB
:1011300031F7F701458150E070E060E02AE0CE0130
:101140000E945A06800F911FDF91CF911F910F913E
:10115000FF90EF90DF90CF90BF90AF909F908F90D7
:101160000895AF92BF92CF92DF92EF92FF920F93CA
:101170001F93CF93DF93CDB7DEB72A970FB6F894BE
:10118000DEBF0FBECDBF5C018EE48F83F50186818B
:101190009781988789871A8219821C821B821E82F6
:1011A0001D8269E070E0CE0101960E943307811133
:1011B00044C0CE0101960E94D307F50181858111BB
:1011C0000CC067E070E0CE0101960E9433078111E8
:1011D0003FC0CE0101960E94D3070D811E81298157
:1011E0003A81CC24C394D12CCE010A967C0143E0F1
:1011F00050E0BE01695F7F4FF501848195810E94B7
:10120000150381E09A85913009F080E0F50180872F
:10121000CE0101960E94E5072A960FB6F894DEBF2C
:101220000FBECDBFDF91CF911F910F91FF90EF9037
:10123000DF90CF90BF90AF90089589E090E09E83BB
:101240008D836AE671E089819A810E943F0EB5CF55
:1012500087E090E09E838D8362E671E089819A81C8
:101260000E943F0EBACF1F920F920FB60F92112419
:101270002F933F934F935F936F937F938F939F939E
:10128000AF93BF93EF93FF938FE891E00E94AD017E
:10129000FF91EF91BF91AF919F918F917F916F914E
:1012A0005F914F913F912F910F900FBE0F901F9024
:1012B00018951F920F920FB60F9211242F938F93B0
:1012C0009F93EF93FF93E0919F01F091A0018081A4
:1012D000E091A501F091A60182FD1BC09081809153
:1012E000A8018F5F8F732091A901821741F0E091CF
:1012F000A801F0E0E157FE4F958F8093A801FF9180
:10130000EF919F918F912F910F900FBE0F901F9093
:1013100018958081F4CF1F920F920FB60F9211246F
:101320002F933F938F939F93AF93BF9380917F01B0
:1013300090918001A0918101B091820130917A0158
:1013400023E0230F2D3758F50196A11DB11D2093E1
:101350007A0180937F0190938001A0938101B093E3
:10136000820180917B0190917C01A0917D01B091DF
:101370007E010196A11DB11D80937B0190937C019C
:10138000A0937D01B0937E01BF91AF919F918F910A
:101390003F912F910F900FBE0F901F90189526E848
:1013A000230F0296A11DB11DD2CFEFE8F1E0138209
:1013B000128288EE93E0A0E0B0E084839583A68358
:1013C000B7838CE491E09183808385EC90E09587EE
:1013D000848784EC90E09787868780EC90E0918BFF
:1013E000808B81EC90E0938B828B82EC90E0958BEC
:1013F000848B86EC90E0978B868B118E128E138EE9
:10140000148EA3E8B1E08CE691E011969C938E9344
:1014100012961C92129713961C92139714961C9274
:10142000149715961C92A9E8B1E011969C938E939F
:1014300012961C92129713961C92139714961C9254
:10144000149715961C92ACE2B2E01C921696FC938F
:10145000EE93159717961C92179718961C9218974B
:101460001A96FC93EE931997E1E4F2E0918380835E
:101470001282138214821582E7E3F2E01382128251
:101480008EE591E091838083B583A48383EB95E11E
:1014900097838683108611860895CF93DF93CDB707
:1014A000DEB7CB50D1400FB6F894DEBF0FBECDBF34
:1014B000789484B5826084BD84B5816084BD85B52F
:1014C000826085BD85B5816085BD80916E0081603B
:1014D00080936E00109281008091810082608093E1
:1014E00081008091810081608093810080918000E3
:1014F0008160809380008091B10084608093B1000E
:101500008091B00081608093B00080917A00846007
:1015100080937A0080917A00826080937A00809133
:101520007A00816080937A0080917A00806880934D
:101530007A001092C100E0913502F0913602A08944
:10154000B18982E08C93A485B5851C92A685B78568
:1015500087E08C93108EA489B58986E08C93A2894C
:10156000B3898C9180618C93A289B3898C918860B6
:101570008C93A289B3898C9180688C930288F389BB
:10158000E02D80818F7D8083809133028111CAC0DC
:1015900081E0809333028CE292E00E949D0268EE2B
:1015A00073E080E090E00E946102809131029091AE
:1015B0003202DC01ED91FC910084F185E02D09956A
:1015C0001816190644F3FF24F39472E3E72E85E01E
:1015D000E6E0F1E0DE01AD5ABF4F01900D928A9531
:1015E000E1F7F092340245E050E0BE016D5A7F4FC2
:1015F0008CE292E00E94E9058091310290913202E2
:10160000DC01ED91FC910190F081E02D63E0099502
:101610006AEF70E080E090E00E94610262E871E0B1
:1016200080913102909132020E940B016AEF70E0CA
:1016300080E090E00E94610260E871E080913102F8
:10164000909132020E940B0164EF71E080E090E023
:101650000E94610264E771E0809131029091320250
:101660000E940B0164EF71E080E090E00E94610253
:101670008CE292E00E949D0285E0EBE0F1E0DE0169
:10168000119601900D928A95E1F7E092340204E000
:1016900010E09E012B553F4F45E050E0BE016F5FCB
:1016A0007F4F8CE292E00E94C7048F3F980739F485
:1016B00068EE73E080E090E00E94610288CFCB5535
:1016C000DF4F2881C55AD0402111FFCF049709F080
:1016D00066C1CA55DF4F2881C65AD0402053330B0C
:1016E00044E6429FC001439F900D1124C955DF4F2E
:1016F0002881C75AD040EAE02E9F800D911D112409
:10170000805E9140C855DF4F2881C85AD040205391
:10171000330B820F931F90932E0280932D0282E34E
:101720008093340228E431E060E3E62E61E0F62E97
:10173000D7018D919D917D019927FC01E455FE4FC4
:10174000449188569E4FFC0184918823C9F090E013
:10175000880F991FFC01E257FE4FA591B491FC013F
:10176000EC57FE4F659174919FB7F8948C91E42FDC
:10177000E0958E238C93DB018C91E823EC939FBF43
:101780002E153F05A9F681E08093400287E392E0A1
:101790000E94B10838EE232E33E0332E412C512C19
:1017A000E3E5F0E0EC0FFD1F7296C85FDE4FF983B2
:1017B000E883C850D14025EA30E02C0F3D1F2E5E53
:1017C0003F4FC65FDE4F39832883CA50D1406E0138
:1017D0003DEFC31A3EEFD30A94E1A92E91E0B92E52
:1017E0002CE2622E22E0722E8BE664968FAF649715
:1017F00001E010E09E012F5F3F4F41E050E0BE014D
:101800006D5A7F4F80913B0290913C020E94C70429
:10181000892B09F0C7C0C955DF4F19821882C75AF2
:10182000D040C755DF4F288239824A825B82C95A2D
:10183000D040CB55DF4FB982A882C55AD040CF5493
:10184000DF4F79826882C15BD040CD54DF4F188270
:10185000C35BD040CC54DF4F1882C45BD040CB5424
:10186000DF4F1882C55BD040CC54DF4F8881C45B0A
:10187000D040882309F4D2C1C955DF4F88819981AE
:10188000C75AD04067969FAF8EAF6797C755DF4F57
:1018900088819981AA81BB81C95AD0406B968CAF4F
:1018A0009DAFAEAFBFAF6B97C355DF4F88819981B6
:1018B000AA81BB81CD5AD0406F968CAF9DAFAEAFA1
:1018C000BFAF6F976596BFAEAEAE6597CF54DF4F93
:1018D00088819981C15BD040A1969FAF8EAFA197BF
:1018E000CD54DF4F8881C35BD040A2968FAFA297C3
:1018F000A1E0A396AFAFA397CB54DF4F8881C55B20
:10190000D040A4968FAFA497CA54DF4F8881C65B9E
:10191000D040A5968FAFA59780E4C65FDE4FE881E3
:10192000F981CA50D140C85FDE4FA881B981C85043
:10193000D14001900D928A95E1F7C350DF4F198293
:101940001882CD5FD040C150DF4F19821882CF5F1F
:10195000D040CF5FDE4F19821882C150D14070E075
:1019600060E0CE0183509F4F0E943307811141C038
:10197000CE0183509F4F0E94D307CE018D5A9F4FB7
:101980000E94A70597FD46C08F32910509F442C019
:10199000682FCE0183509F4F0E94A307EECF84E6AD
:1019A00090E0B9CE8981C955DF4F19821882C75A94
:1019B000D040C755DF4F288239824A825B82C95A9C
:1019C000D040CB55DF4FB982A882C55AD040CF5402
:1019D000DF4F79826882C15BD040CD54DF4F88836E
:1019E000C35BD04091E0CC54DF4F9883C45BD040C0
:1019F00036CFCF5FDE4F19821882C150D14069E7E0
:101A000071E0C350DF4F88819981CD5FD0400E9443
:101A10000514B3CFCF5FDE4F88819981C150D1408B
:101A2000892B09F4F1C06EE671E0C350DF4F888165
:101A30009981CD5FD0400E94FC13892B09F0E4C04E
:101A400067968EAD9FAD67979C838B836B968CADAD
:101A50009DADAEADBFAD6B978D839E83AF83B887D1
:101A60006F968CAD9DADAEADBFAD6F9789879A87F0
:101A7000AB87BC87BA82A982A1968EAD9FADA19794
:101A80009E878D87A2968FADA2978F87A3968FADE5
:101A9000A397888BA4968FADA497898BA5968FADBD
:101AA000A5978A8B80E4C85FDE4FE881F981C85032
:101AB000D140DE01539601900D928A95E1F7C9500D
:101AC000DF4F19821882C75FD040C750DF4F19829D
:101AD0001882C95FD040C550DF4F19821882CB5F92
:101AE000D04070E060E0CE0189509F4F0E943307E4
:101AF000811115C0CE0189509F4F0E94D307CE019E
:101B000001960E94A70597FD1BC08F329105C1F079
:101B1000682FCE0189509F4F0E94A307F0CFC55078
:101B2000DF4F19821882CB5FD04069E771E0C9505E
:101B3000DF4F88819981C75FD0400E940514DFCFB5
:101B4000C550DF4F88819981CB5FD040892B09F444
:101B500056C063E771E0C950DF4F88819981C75F44
:101B6000D0400E94FC13892B09F049C080E3882EE5
:101B700081E0982EF4018081F2E08F0E911C8E306E
:101B800008F08E508770806480937C0080917A008A
:101B9000806480937A0080917A0086FDFCCF8091EA
:101BA000780060917900762F682F072E000C880B43
:101BB000990B0E94B4102EEC39E04EE45CE30E94D5
:101BC000EF10860122E045E00E94210EF60101900F
:101BD0000020E9F73197AF014C195D09B601CE013C
:101BE00001960E94910442E050E067E771E0CE0167
:101BF00001960E949104E814F90409F0BBCFCE01CC
:101C000089509F4F0E94E507CE0183509F4F0E944D
:101C1000E507CE018B559F4F0E942F0662E370E0CF
:101C200080E090E00E94610220E030E0232B09F484
:101C3000DBCD0E949901882309F4CECD0E940000DB
:101C4000BACDEF920F931F93CF93DF93E80134E067
:101C500047FD34E1042E000C550B57FF03C051958E
:101C600041955109E32E022F242FAE010E946B0EE5
:101C7000CE01DF91CF911F910F91EF900895FB015D
:101C8000DC0105900D920020E1F70895BB274A3052
:101C900031F4992322F4BDE2909581959F4F0C94E5
:101CA000520EBB27FB015527AA27880F991FAA1F91
:101CB000A41710F0A41B83955051B9F7A05DAA3367
:101CC00008F0A95DA193009779F7B111B193119232
:101CD000CB010C94A210A9E0B0E0E1E7FEE00C9487
:101CE000B3116A01F22EB02E102FFBE3AF2EA01617
:101CF00008F41BE31F5F012F27E0AE014F5F5F4F2A
:101D00000E94CA0FBC018981982F9970913009F403
:101D10003FC09BE2E1FC04C09E2D9170E0FC3AC004
:101D20005E2D5071E82FE87083FF46C084E091116A
:101D300001C083E0EF2DE81B8F1508F0E0E0D6012D
:101D40008E2F20E2552351F1992329F0D6019C933F
:101D5000C60101966C0196012D5F3F4FE2FE24C043
:101D60008EE4D6018C9391E411969C931197129670
:101D70008C93D9018E2F90E281111BC0E20FF32FBB
:101D8000F11D10828EEF9FEF2996ECE00C94CF119D
:101D90009DE2C6CF90E2C4CF2D9381508111FCCF3C
:101DA000CE0ED11CE0E0D0CF8EE6D6018C9391E62A
:101DB000DBCF9D938150E0CF482F447082FF3DC020
:101DC00084E0911101C083E08F1510F4EF2DE81B22
:101DD000D6018E2F20E2552309F1992329F0D6014F
:101DE0009C93C60101966C0196012D5F3F4FE2FE68
:101DF0001BC089E4D6018C938EE411968C931197C5
:101E000086E412968C93D9018E2F90E2882309F4F0
:101E1000B5CF9D938150FACF2D9381508111FCCF86
:101E2000CE0ED11CE0E0D9CF89E6D6018C938EE6A8
:101E300011968C93119786E6E4CF9B0177FF02C041
:101E400030E020E0A1E0B0E0911102C0B0E0A0E0FD
:101E5000F9013196AE0FBF1F8B2C912CBB2009F4DA
:101E600061C05401EFEFAE1ABE0AAA0DBB1DFA16EF
:101E70001B0619F014F04F2D4A1B511188C0E3FCCA
:101E800059C07601A42FB0E2A1114FC0C40ED11CDD
:101E9000992309F45BC040E0D6011196F6019083C6
:101EA0006D01552309F448C0012F060F9A81582F60
:101EB000507184FF03C0913309F4015010160CF0E7
:101EC00047C0093008F008E0EEE2FE2E5B01A01AE0
:101ED000B10885019194819491082F3F320729F42C
:101EE000D601FC92F60131966F016217730794F1E7
:101EF000021713077CF5DB01A21BB30BAA24A394E2
:101F0000B12CAC0EBD1EAA0DBB1D11968C9121509B
:101F10003109D601119628153905F4F0F6018083B0
:101F20006D01DBCFB12CA12CA0CFF701B1937F01C4
:101F3000A150AACF9111B0CFD601942F50E302C087
:101F40005D9391509111FCCFC40ED11C40E0ACCFF9
:101F500001E0BACF80E3DBCF6217730731F4963329
:101F600088F4953311F4552369F0F6018083FD015F
:101F7000842F90E2811108C0A40FB11D1C9290E043
:101F800080E002CF81E3F1CF91938150F3CF9111A3
:101F900083CF8ACF283008F027E03327DA01990F62
:101FA000311D87FD916000966105710539F432603D
:101FB0002E5F3D9330E32A95E1F708959F3F30F07F
:101FC00080387105610509F03C5F3C5F3D939130BD
:101FD00008F08068911DDF93CF931F930F93FF92BA
:101FE000EF92192F987F9695E92F96959695E90F80
:101FF000FF27EE53FF4F99273327EE24FF24A70135
:10200000E70105900894079428F4360FE71EF81EA0
:10201000491F511D660F771F881F991F0694A1F74E
:102020000590079428F4E70EF81E491F561FC11D9E
:10203000770F881F991F661F0694A1F705900794D4
:1020400028F4F80E491F561FC71FD11D880F991F6E
:10205000661F771F0694A1F70590079420F4490F97
:10206000561FC71FD81F990F661F771F881F06941A
:10207000A9F784911095177041F0D695C79557959B
:102080004795F794E7941A95C1F7E8E6F0E068946D
:102090001590159135916591959105907FE2739515
:1020A000E118F10A430B560BC90BD009C0F7E10C3C
:1020B000F11E431F561FC91FD01D7EF4703311F44B
:1020C0008A95E6CFE894015030F0080F0AF4002713
:1020D000021708F4202F2395022F7A3328F079E392
:1020E0007D932A95E9F710C07D932A9589F6069489
:1020F00097956795379517951794E118F10A430B53
:10210000560BC90BD00998F023957E9173957A33BD
:1021100008F070E37C932013B8F77E9170617D9393
:1021200030F0839571E37D9370E32A95E1F71124F4
:10213000EF90FF900F911F91CF91DF91992787FD2D
:1021400090950895DC01FC01672F71917723E1F7E9
:10215000329704C07C916D9370836291AE17BF0774
:10216000C8F30895E89409C097FB3EF490958095D4
:10217000709561957F4F8F4F9F4F9923A9F0F92F4D
:1021800096E9BB279395F695879577956795B795CB
:10219000F111F8CFFAF4BB0F11F460FF1BC06F5FB1
:1021A0007F4F8F4F9F4F16C0882311F096E911C0C3
:1021B000772321F09EE8872F762F05C0662371F0E4
:1021C00096E8862F70E060E02AF09A95660F771FF8
:1021D000881FDAF7880F9695879597F908950E94DA
:1021E00002110C9473110E94651138F00E946C1159
:1021F00020F0952311F00C945C110C9462111124C1
:102200000C94A7110E94841170F3959FC1F3950F50
:1022100050E0551F629FF001729FBB27F00DB11D6A
:10222000639FAA27F00DB11DAA1F649F6627B00DFA
:10223000A11D661F829F2227B00DA11D621F739FE3
:10224000B00DA11D621F839FA00D611D221F749FF1
:102250003327A00D611D231F849F600D211D822F38
:10226000762F6A2F11249F5750409AF0F1F088235F
:102270004AF0EE0FFF1FBB1F661F771F881F91508C
:102280005040A9F79E3F510580F00C945C110C94CE
:10229000A7115F3FE4F3983ED4F386957795679551
:1022A000B795F795E7959F5FC1F7FE2B880F911DB6
:1022B0009695879597F9089597F99F6780E870E05C
:1022C00060E008959FEF80EC089500240A941616AC
:1022D000170618060906089500240A941216130614
:1022E000140605060895092E0394000C11F48823A2
:1022F00052F0BB0F40F4BF2B11F460FF04C06F5FBE
:102300007F4F8F4F9F4F089557FD9058440F551F93
:1023100059F05F3F71F04795880F97FB991F61F067
:102320009F3F79F087950895121613061406551FDE
:10233000F2CF4695F1DF08C0161617061806991F4A
:10234000F1CF86957105610508940895E894BB273F
:1023500066277727CB0197F908952F923F924F92E6
:102360005F926F927F928F929F92AF92BF92CF9225
:10237000DF92EF92FF920F931F93CF93DF93CDB72E
:10238000DEB7CA1BDB0B0FB6F894DEBF0FBECDBFA6
:1023900009942A88398848885F846E847D848C8477
:1023A0009B84AA84B984C884DF80EE80FD800C8180
:1023B0001B81AA81B981CE0FD11D0FB6F894DEBF63
:1023C0000FBECDBFED010895A1E21A2EAA1BBB1BC3
:1023D000FD010DC0AA1FBB1FEE1FFF1FA217B307F1
:1023E000E407F50720F0A21BB30BE40BF50B661F07
:1023F000771F881F991F1A9469F7609570958095CB
:1024000090959B01AC01BD01CF010895EE0FFF1F18
:102410000590F491E02D09940F931F93CF93DF93D0
:102420008230910510F482E090E0E0914902F09151
:102430004A0230E020E0B0E0A0E0309799F42115A6
:10244000310509F44AC0281B390B24303105D8F571
:102450008A819B816115710589F1FB0193838283D8
:10246000FE0111C040815181028113814817590733
:10247000E0F04817590799F4109761F012960C9301
:10248000129713961C933296CF01DF91CF911F9133
:102490000F9108950093490210934A02F4CF211539
:1024A000310551F04217530738F0A901DB019A01B9
:1024B000BD01DF01F801C1CFEF01F9CF90934A02CE
:1024C00080934902CDCFFE01E20FF31F81939193D8
:1024D0002250310939832883D7CF20914702309188
:1024E0004802232B41F420910201309103013093E3
:1024F00048022093470220910001309101012115EB
:10250000310541F42DB73EB74091040150910501CA
:10251000241B350BE0914702F0914802E217F307C4
:10252000A0F42E1B3F0B2817390778F0AC014E5F43
:102530005F4F2417350748F04E0F5F1F5093480236
:1025400040934702819391939FCFF0E0E0E09CCFCE
:10255000CF93DF930097E9F0FC0132971382128248
:10256000A0914902B0914A02ED0130E020E01097BD
:10257000A1F420813181820F931F20914702309175
:1025800048022817390709F061C0F0934802E09328
:102590004702DF91CF910895EA01CE17DF07E8F5F2
:1025A0004A815B819E0141155105B1F7E901FB8329
:1025B000EA8349915991C40FD51FEC17FD0761F4C7
:1025C000808191810296840F951FE9019983888308
:1025D000828193819B838A83F0E0E0E012968D9163
:1025E0009C9113970097B9F52D913C911197CD01CE
:1025F0000296820F931F20914702309148022817BC
:10260000390739F6309751F510924A021092490273
:10261000B0934802A0934702BCCFD383C2834081CA
:102620005181840F951FC817D90761F44E5F5F4F22
:1026300088819981480F591F518340838A819B81EA
:10264000938382832115310509F0B0CFF0934A02BC
:10265000E09349029ECFFD01DC01C0CF13821282BC
:10266000D7CFB0E0A0E0E7E3F3E10C94AF118C0129
:10267000009751F4CB010E940C128C01C801CDB718
:10268000DEB7E0E10C94CB11FC01E60FF71F9C01D3
:1026900022503109E217F30708F49DC0D901CD910A
:1026A000DC911197C617D70798F0C530D10530F3E4
:1026B000CE0104978617970708F3C61BD70B2297FE
:1026C000C193D1936D937C93CF010E94A812D6CF72
:1026D0005B01AC1ABD0A4C018C0E9D1EA0914902F3
:1026E000B0914A02512C412CF12CE12C109731F57C
:1026F00080914702909148028815990509F05CC0C5
:102700004616570608F058C08091000190910101CB
:10271000009741F48DB79EB7409104015091050197
:10272000841B950BE817F90708F055C0F093480291
:10273000E0934702F90171836083A0CF8D919C9152
:10274000119712966C90129713967C901397A81578
:10275000B90559F56C0142E0C40ED11CCA14DB0462
:1027600020F1AC014A195B09DA011296159780F045
:102770006282738251834083D9016D937C93E1140B
:10278000F10471F0D7011396FC93EE93129776CF74
:1027900022968C0F9D1FF90191838083F301EFCF67
:1027A000F0934A02E093490269CF4816590608F4AB
:1027B0002C017D01D3019ACFCB010E940C127C0128
:1027C000009749F0AE01B8010E94F313C8010E94BE
:1027D000A812870153CF10E000E050CF81E090E0D5
:1027E000F8940C940C14FB01DC0102C001900D92D2
:1027F00041505040D8F70895FB01DC018D910190C4
:1028000080190110D9F3990B0895FB01DC010190A7
:0C2810000D920020E1F70895F894FFCF2E
:10281C0000004B02800058585858585858313030E6
:10282C00000000000D06910457069302DF058F058A
:10283C004905ED07B3065C052F06DC04530694022C
:10284C000E000F001000110012001300060007000C
:10285C00080009000A000B0000000000CF012F0146
:10286C005C011C028D016B017F0100000000F4056E
:10287C002F0157065606B108000000006708726564
:0A288C00616400616C6C002C2000F8
:00000001FF
