:100000000C94CB000C94F3000C94F3000C94F300CC
:100010000C94F3000C94F3000C94F3000C94F30094
:100020000C94F3000C94F3000C941A080C948908B7
:100030000C94F3000C94F3000C94F3000C94F30074
:100040000C94F3000C94F3000C94F3000C94F30064
:100050000C94F3000C94F3000C94F3000C94130B29
:100060000C94F3000C94E10A0C94BB0A0C94F3007A
:100070000C94F3000C94F3000C94F3000C94F30034
:100080000C94F3000C94F3000C94F3000C94F30024
:100090000C94F3000C94F3000C94F3000C94F30014
:1000A0000C94F3000C94F3000C94F30072756E2D15
:1000B0006272696467650A000A000A0000000000B5
:1000C000250028002B002E00310000000000240035
:1000D00027002A002D003000040404040403040552
:1000E00002020202040302020202060606060606D5
:1000F00004040202020404040802011040804010BB
:10010000204080408008020401804020100201103D
:10011000801020404020070605040100080A0B0C4F
:100120000D09080B00020202000009040000010290
:10013000020000052400100105240101010424022D
:10014000060524060001070581031000400904018B
:1001500000020A00000007050202400000070583B4
:10016000024000000403090412010002EF020140F2
:100170004123418000010102030141726475696EEF
:100180006F204C4C430041726475696E6F20597545
:100190006E005D0BA00E11241FBECFEFDAE0DEBFB4
:1001A000CDBF22E0AEE8B1E001C01D92A03CB20795
:1001B000E1F711E0A0E0B1E0E4ECF3E202C0059069
:1001C0000D92AE38B107D9F710E0CAECD0E004C008
:1001D0002197FE010E94AA10C93CD107C9F70E94CD
:1001E000C90B0C94D5110C940000FC018091AC015A
:1001F000882311F13FB7F89482E08093E9002091C1
:10020000F200822F90E01816190614F481E090E0B5
:10021000882339F0289844E64093AB014091F100DF
:100220004083222339F02091F200211103C02BE6F4
:100230002093E8003FBF08958FEF9FEF08952FB7F9
:10024000F89483E08093E9009091E800892F807210
:1002500095FF04C09091F20080E4891B2FBF0895A0
:100260008091A30181110DC082E080939F0184E001
:100270008093A0011092A2011092A10181E08093CD
:10028000A3018FE991E00895CF93DF931F92CDB73B
:10029000DEB76983DC01ED91FC910280F381E02DF2
:1002A00041E050E0BE016F5F7F4F09950F90DF91F5
:1002B000CF91089583E08093E9008091F200882334
:1002C00019F08AE38093E80008950E941F0190E0EE
:1002D0000895CF93DF931F92CDB7DEB7FC018485DD
:1002E000958597FD08C02FEF3FEF358724870F9046
:1002F000DF91CF910895CE0101960E94F5000197FC
:1003000019F4898190E0F3CF8FEF9FEFF0CF0F9337
:100310001F93CF93DF931F92CDB7DEB78C01FC0103
:100320008485958597FF0BC0CE0101960E94F5004C
:10033000019771F4898190E0F80195878487F8012D
:10034000848595850F90DF91CF911F910F9108952E
:100350008FEF9FEFF1CFFC018485958597FD0BC052
:100360009FB7F89482E08093E9008091F2009FBFEC
:1003700090E0019608959FB7F89482E08093E90099
:100380008091F2009FBF90E00895409199015091B3
:100390009A01209197013091980142175307B4F4C4
:1003A0009091E8009570E1F39091E80092FD19C0FA
:1003B0008093F1008091990190919A0101968F7339
:1003C0009927892B19F48EEF8093E8008091990189
:1003D00090919A01019690939A018093990181E0FE
:1003E000089580E00895EF92FF920F931F93CF93AB
:1003F000DF93F82E192FE62E042F81E0860F880F49
:100400000E94C50183E00E94C501CF2DD12FEC0EC3
:10041000FD2EF11CCE15DF05B9F007FF13C0FE015C
:1004200084910E94C501182F80E00E94C50181239C
:1004300021968111EFCFDF91CF911F910F91FF9006
:10044000EF9008958881EDCF81E0F5CFDF92EF92B4
:10045000FF920F931F93CF93DF93D82E8A01EB0166
:100460007B01E40EF51ECE15DF0559F0D7FE12C054
:10047000FE0184910E94C50121968111F4CF0FEFF6
:100480001FEFC801DF91CF911F910F91FF90EF9067
:10049000DF9008958881EECF0F931F93CF93DF9362
:1004A0001F92CDB7DEB782E0898342E450E062E27A
:1004B00071E080E80E9426020E943001DC01129661
:1004C0000D911C910115110589F0D801ED91FC9158
:1004D0000280F381E02DBE016F5F7F4FC801099557
:1004E00097FD04C0F80100851185ECCF89810F903C
:1004F000DF91CF911F910F910895615030F02091BD
:10050000F100FC0120830196F8CF289884E68093BF
:10051000AB010895EF92FF920F931F93CF93DF9358
:100520008C017B01D0E0C0E0F701EC0FFD1F64916E
:10053000662361F0D801ED91FC910190F081E02DEE
:10054000C8010995892B11F02196EECFCE01DF91DC
:10055000CF911F910F91FF90EF900895AF92BF92AE
:10056000CF92DF92EF92FF920F931F93CF93DF937F
:100570006C017B018B01040F151FEB015E01AE18AE
:10058000BF08C017D10759F06991D601ED91FC91D0
:100590000190F081E02DC6010995892B79F7C501FD
:1005A000DF91CF911F910F91FF90EF90DF90CF904F
:1005B000BF90AF900895FC01538D448D252F30E0FE
:1005C000842F90E0821B930B541710F0CF96089560
:1005D00001970895FC01918D828D981761F0A28D8D
:1005E000AE0FBF2FB11D5D968C91928D9F5F9F7353
:1005F000928F90E008958FEF9FEF0895FC01918D09
:10060000828D981731F0828DE80FF11D858D90E075
:1006100008958FEF9FEF0895FC01918D228D892F12
:1006200090E0805C9F4F821B91098F7399270895FA
:1006300084E192E00E940C0321E0892B09F420E080
:10064000822F089580E090E0892B29F00E94180302
:1006500081110C9400000895FC01A48DA80FB92FFE
:10066000B11DA35ABF4F2C91848D90E001968F73DA
:100670009927848FA689B7892C93A089B1898C91F9
:1006800082748C93938D848D981306C00288F389AD
:10069000E02D80818F7D80830895EF92FF920F93EC
:1006A0001F93CF93DF93EC0181E0888F9B8D8C8D1E
:1006B000981319C0E889F989808185FF14C09FB714
:1006C000F894EE89FF896083E889F98980818274D2
:1006D00080839FBF81E090E0DF91CF911F910F91C8
:1006E000FF90EF900895F62E0B8D10E00F5F1F4FD7
:1006F0000F731127E02E8C8D8E110CC00FB607FCE6
:10070000FACFE889F989808185FFF5CFCE010E9473
:100710002C03F1CFEB8DEC0FFD2FF11DE35AFF4FB2
:10072000F0829FB7F8940B8FEA89FB898081806201
:10073000CFCFCF93DF93EC01888D8823B9F0AA89BE
:10074000BB89E889F9898C9185FD03C0808186FD8C
:100750000DC00FB607FCF7CF8C9185FFF2CF8081DB
:1007600085FFEDCFCE010E942C03E9CFDF91CF9121
:1007700008953FB7F8948091930190919401A091CE
:100780009501B091960126B5A89B05C02F3F19F0A1
:100790000196A11DB11D3FBFBA2FA92F982F882701
:1007A000BC01CD01620F711D811D911D42E0660FDC
:1007B000771F881F991F4A95D1F708958F929F92AE
:1007C000AF92BF92CF92DF92EF92FF924B015C010A
:1007D0000E94B9036B017C010E94B9036C197D0969
:1007E0008E099F09683E734081059105A8F321E0B9
:1007F000821A9108A108B10888EEC80E83E0D81EBD
:10080000E11CF11C81149104A104B10429F7FF90AB
:10081000EF90DF90CF90BF90AF909F908F90089512
:100820008F929F92AF92BF92CF92DF92EF92FF9200
:100830000F931F93CF93DF936C017B018A0180910B
:100840000B01882309F45CC08091AC01882309F472
:1008500057C080919E0180FF05C08091E0008260BA
:100860008093E000E801B12C8AEFA82E93E0892E56
:100870002AE3922E209711F4BB20D9F10E941F0188
:1008800081110AC0AA94AA20D9F161E070E080E049
:1008900090E00E94DE03EECF8C171D0611F00CF0E5
:1008A0008C2F9FB7F8948092E9002091E80025FDF5
:1008B00002C09FBFDFCF282F30E0C21BD30BF70150
:1008C000815020F041914093F100FACFE20EF31EE7
:1008D000BB2021F09092E800B12CEBCF8091E80092
:1008E00085FDE7CF9092E800BB24B394209709F3ED
:1008F000F3CF5D9884E680939D01101611063CF0BD
:1009000081E090E0F6019383828310E000E0C8016B
:10091000DF91CF911F910F91FF90EF90DF90CF90DB
:10092000BF90AF909F908F90089590E080E00895E1
:10093000CF93DF93EC018D819E81DC01ED91FC91E1
:100940000084F185E02D09951816190654F48D815F
:100950009E81DC01ED91FC910284F385E02D0995E7
:10096000EACFDF91CF9108958F929F92AF92BF927D
:10097000CF92DF92EF92FF92CF93DF93EC018FB78C
:10098000F89480908F0190909001A0909101B09088
:1009900092018FBF6B01F12CE12C8D819E81DC01D6
:1009A000ED91FC910284F385E02D099597FF16C027
:1009B0002FB7F89480918F0190919001A0919101AF
:1009C000B09192012FBF88199909AA09BB098C150A
:1009D0009D05AE05BF0508F38FEF9FEFDF91CF9127
:1009E000FF90EF90DF90CF90BF90AF909F908F904F
:1009F0000895FC01238134812627022E2295207F31
:100A00002025032E322F22952F700226269532277D
:100A10002327220F220F220F2025348323830895BA
:100A20002F923F924F925F926F927F928F929F92FE
:100A3000AF92BF92CF92DF92EF92FF920F931F93EC
:100A4000CF93DF93CDB7DEB72A970FB6F894DEBF0A
:100A50000FBECDBF9A8789875B01290137011A0133
:100A6000200E311E3A82198288248A94982C9A0189
:100A7000260F371F3E832D83C801840D951D98874F
:100A80008F83A985BA8518968C91B981B81708F01B
:100A900040C1E985FA859482838285819681DC0153
:100AA000ED91FC910190F081E02D6FEF09956FEFD2
:100AB00089859A850E94F904E985FA858581968160
:100AC000DC01ED91FC910190F081E02DA985BA85C2
:100AD0006C910995E985FA856081CF010E94F9043E
:100AE000A985BA8515968D919C91DC01ED91FC91BB
:100AF0000190F081E02D6A8109956A8189859A8546
:100B00000E94F904E985FA8585819681DC01ED91E1
:100B1000FC910190F081E02D622D0995622D89856F
:100B20009A850E94F9048501E985FA858581968177
:100B3000DC01ED91FC910190F081E02D2D813E8151
:100B400020173107E1F48201E985FA8585819681D4
:100B5000DC01ED91FC910190F081E02D2F81388531
:100B600020173107C1F0D8016D918D010995F80169
:100B70003197608189859A850E94F904E5CFD80173
:100B80006D918D010995F8013197608189859A856C
:100B90000E94F904C9CFA985BA8514966C9109956C
:100BA000E985FA8585819681DC01ED91FC910190C2
:100BB000F081E02DA985BA8513966C91099568ECB2
:100BC00070E089859A850E94B4048F3F910509F0F1
:100BD00092C0E985FA85948283826FEFCF010E94EB
:100BE000F90465E070E089859A850E94B404A985BE
:100BF000BA856C916817190609F07DC0CD010E9475
:100C0000F9046AE070E089859A850E94B4047C0149
:100C100097FD71C0682F89859A850E94F9046AE062
:100C200070E089859A850E94B4048C0197FD63C0A9
:100C3000682F89859A850E94F904EC821B82EB81DA
:100C4000FC810E0F1F1FF12CE12C65E070E08985FF
:100C50009A850E151F05A1F0EC14FD0489F00E9481
:100C6000B40497FD09C0F301EE0DFF1D8083682FCA
:100C700089859A850E94F904FFEFEF1AFF0AE5CFF4
:100C80000E94B4047C0197FD36C065E070E0898560
:100C90009A850E94B40497FD2EC0FE2CEE248E0D82
:100CA0009F1DA985BA8513962D913C9114978217A3
:100CB000930709F58C918F5F8C93C801C016D106FC
:100CC00008F4C6012A960FB6F894DEBF0FBECDBF5A
:100CD000DF91CF911F910F91FF90EF90DF90CF9018
:100CE000BF90AF909F908F907F906F905F904F904C
:100CF0003F902F900895B981BF5FB98364E670E09B
:100D000080E090E00E94DE0389859A850E94980425
:100D1000B8CE8FEF9FEFD6CF8F929F92AF92BF92B8
:100D2000CF92DF92EF92FF920F931F93CF93DF93B7
:100D30001F92CDB7DEB75C019B014A01DC015296E0
:100D40008C91811128C08B017B01E40EF51E0E15DC
:100D50001F0591F1D50155962D913C9156975396CB
:100D6000EC91539781E08E0F53968C93D8018D911F
:100D70008D01E20FF32FF11D8083F50193898489A2
:100D80009813E5CF0190F081E02D0680F781E02DEA
:100D9000C5010995DCCF80E58983D12CC12CF12CCC
:100DA000E12C8A0141E050E0BE016F5F7F4FF50109
:100DB000848595850E941005C4010F90DF91CF9125
:100DC0001F910F91FF90EF90DF90CF90BF90AF9069
:100DD0009F908F900895AF92BF92CF92DF92EF9243
:100DE000FF920F931F93CF93DF9300D0CDB7DEB761
:100DF000FC01268521111AC05C01178680E78983D2
:100E000080E28A83E088F18880E2C82ED12C10E04D
:100E100000E030E020E042E050E0BE016F5F7F4F35
:100E2000848595850E941005F50186870F900F90A7
:100E3000DF91CF911F910F91FF90EF90DF90CF90B6
:100E4000BF90AF900895CF93DF93EC010E94EB0623
:100E50008E85882359F0EF8588899989E80FF92FC5
:100E6000F11D808190E0DF91CF9108958FEF9FEF8A
:100E7000FACFCF93DF93EC010E94EB068E85882397
:100E800081F081508E8788899989EF8521E02E0F26
:100E90002F87E80FF92FF11D808190E0DF91CF912E
:100EA00008958FEF9FEFFACFCF93DF93EC010E946D
:100EB000EB068E8590E0DF91CF910895CF92DF927F
:100EC000EF92FF920F931F93D12CC12CF12CE12CA8
:100ED00010E000E030E020E00E9410051F910F912B
:100EE000FF90EF90DF90CF900895CF93DF93FC01B8
:100EF000228921110BC0EC01438950E06589768974
:100F0000848595850E945E0781E08B8BDF91CF9170
:100F10000895CF93DF9300D0CDB7DEB7DC015296B2
:100F20008C9152978823A1F080E589836A8342E0FF
:100F300050E0BE016F5F7F4F1C968D919C910E9487
:100F40005E0781E090E00F900F90DF91CF910895C0
:100F500055968D919C9156975396EC91539721E01D
:100F60002E0F53962C935397E80FF92FF11D6083A2
:100F700053969C91539754968C9154979813E1CF24
:100F8000ED91FC9111970680F781E02DCD01099537
:100F9000D8CFFC0101900020E9F73197AF01481B41
:100FA000590BBC018DEF91E00C948C068F929F92AF
:100FB000AF92BF920F931F93CF93DF93CDB7DEB75E
:100FC000A1970FB6F894DEBF0FBECDBF19A2423075
:100FD00008F44AE08E010F5D1F4F842E912CB12C36
:100FE000A12CA50194010E948810E62FB901CA0125
:100FF000EA30F4F4E05DD801EE938D01232B242B2D
:10100000252B79F790E080E0109719F0CD010E9430
:10101000C907A1960FB6F894DEBF0FBECDBFDF9112
:10102000CF911F910F91BF90AF909F908F90089597
:10103000E95CE1CF1F920F920FB60F9211248F93AC
:101040009F938091E1009091E100937F9093E10064
:1010500083FF0FC01092E90091E09093EB00109293
:10106000EC0092E39093ED001092AC0198E0909325
:10107000F00082FF22C093E09093E9009091F2008B
:10108000992319F09AE39093E80090919D01992398
:1010900041F090919D01915090939D01911101C05B
:1010A0005D9A9091AB01992341F09091AB019150E1
:1010B0009093AB01911101C0289A84FF18C08091D0
:1010C000E2008E7E81608093E2008091E1008F7E5D
:1010D0008093E10080919E018E7E806180939E01CD
:1010E0009F918F910F900FBE0F901F90189580FFCA
:1010F000F7CF8091E2008E7E80618093E200809144
:10110000E1008E7E8093E10080919E018E7E816061
:10111000E5CF1F920F920FB60F921124CF92DF925C
:10112000EF92FF920F931F932F933F934F935F93F1
:101130006F937F938F939F93AF93BF93EF93FF939F
:10114000CF93DF93CDB7DEB76C97DEBFCDBF1092E4
:10115000E9008091E80083FF25C068E0CE01459654
:101160000E947D0282EF8093E8008D8987FF39C05D
:101170009091E80090FFFCCF982F907609F034C151
:101180009E894F89588D2F89F88C911131C08038F4
:1011900061F580919C018093F1001092F1008EEF37
:1011A0008093E8006C960FB6F894DEBF0FBECDBFFB
:1011B000DF91CF91FF91EF91BF91AF919F918F916F
:1011C0007F916F915F914F913F912F911F910F915F
:1011D000FF90EF90DF90CF900F900FBE0F901F9079
:1011E00018959EEF9093E800C7CF1092F100D5CFED
:1011F000913059F48111D3CF4130510581F680915E
:101200009C018D7F80939C01CACF933049F481115A
:10121000C6CF4130510519F680919C018260F2CF12
:10122000953041F48091E80080FFFCCF2068209346
:10123000E300B5CF963009F0A9C00B8D1C8D22E0DC
:101240001092E90010929A0110929901F2122EC0A8
:1012500010929801109297010E944C021F8299E00F
:101260009983FA8291E09E8390EA98879AEF998712
:101270002091990130919A01275F3F4F3C832B8346
:101280008D831092E90010929A01109299011093A7
:1012900098010093970149E050E0BE016F5F7F4FD6
:1012A00080E00E9426020E944C0279CF10939801A0
:1012B000009397010E943001DC0112960D911C9160
:1012C0000115110509F451C1D801ED91FC9104807B
:1012D000F581E02DBE016B5E7F4FC8010995009737
:1012E00009F03EC1F80100851185EACFF3E0FF1255
:1012F0000EC08F89882309F440C0823061F440E831
:101300006BE086E891E00E94F301811148CF81E211
:101310008093EB0047CF813029F440E86BE08AE707
:1013200091E0F1CF833099F70E943001DC011296F1
:10133000ED90FC908E010F5F1F4F6801E114F104E6
:1013400079F0D701ED91FC910680F781E02DB8018D
:10135000C7010995080F111DF701E084F184EECF54
:10136000D8011C92F60101900020E9F73197BF01E6
:101370006C197D0940E0C601C6CF64E671E0FB014F
:10138000449150E080E80E94260209CF973009F48A
:10139000BECF983021F481E08093F10000CF9930E6
:1013A00009F0FDCE837009F0B2CFE5E3F1E081E012
:1013B00031E096E32191222371F08093E90030938C
:1013C000EB00DF0111972C912093EC009093ED003E
:1013D0008F5F873079F78EE78093EA001092EA00FA
:1013E0008F898093AC01DBCE8B8D9C8D1092E900B0
:1013F00010929A011092990190939801809397010D
:10140000898D811192C08E899D89913A49F48132EA
:1014100009F07DCF47E050E064E071E080E0B3CFB9
:10142000913209F074CF833269F48F89988DB0E0DE
:10143000A0E08093000190930101A0930201B0937A
:101440000301ADCE803269F48091E80082FFFCCFC9
:1014500067E084E091E00E947D028BEF8093E800DA
:101460009ECE823209F09BCE8F8980930B01EEEFE6
:10147000FFE7859194918B3F9C4D51F1E0E0F8E0BE
:101480008091040190910501A0910601B09107019E
:10149000803B9440A105B105F1F480910B0180FDE2
:1014A0001AC0EE3F8AE0F80789F587E797E791834E
:1014B00080838091600080939B0188E19BE00FB660
:1014C000F894A895809360000FBE9093600067CE5B
:1014D000EEEFFAE0D5CF808191818737974709F009
:1014E0005ECEA895809160008861809360008091B5
:1014F0009B0180936000EE3F2AE0F20789F0809123
:10150000FE0A9091FF0A9183808349CE8081918168
:101510008737980751F29093FF0A8093FE0AC5CF50
:101520001092FF0A1092FE0A3ACE0E943001DC01AE
:1015300012960D911C910115110509F4E8CED80100
:10154000ED91FC910190F081E02DBE016B5E7F4F2B
:10155000C8010995811123CEF80100851185EBCFD3
:10156000181619060CF41BCED2CEF1E0FF12BECE37
:1015700068E671E004CF1F920F920FB60F9211240C
:101580002F933F934F935F936F937F938F939F938B
:10159000AF93BF93EF93FF9384E192E00E942C03FB
:1015A000FF91EF91BF91AF919F918F917F916F913B
:1015B0005F914F913F912F910F900FBE0F901F9011
:1015C00018951F920F920FB60F9211242F938F939D
:1015D0009F93EF93FF93E0912402F0912502808185
:1015E000E0912A02F0912B0282FD1BC09081809134
:1015F0002D028F5F8F7320912E02821741F0E091B0
:101600002D02F0E0EC5EFD4F958F80932D02FF914F
:10161000EF919F918F912F910F900FBE0F901F9080
:1016200018958081F4CF1F920F920FB60F9211245C
:101630002F933F938F939F93AF93BF9380918F018D
:1016400090919001A0919101B091920130918E0101
:1016500023E0230F2D3758F50196A11DB11D2093CE
:101660008E0180938F0190939001A0939101B0938C
:1016700092018091930190919401A0919501B09174
:1016800096010196A11DB11D809393019093940141
:10169000A0939501B0939601BF91AF919F918F91C7
:1016A0003F912F910F900FBE0F901F90189526E835
:1016B000230F0296A11DB11DD2CFCF93DF93EDEA88
:1016C000F1E01382128248EE53E060E070E0448360
:1016D0005583668377838FE391E0918380838FEFD7
:1016E0009FEF95878487E4E1F2E0138212824483BE
:1016F00055836683778381E591E0918380838DECC8
:1017000090E0958784878CEC90E09787868788ECBB
:1017100090E0918B808B89EC90E0938B828B8AECAC
:1017200090E0958B848B8EEC90E0978B868B118E5E
:10173000128E138E148EADEFB1E013961C921E9292
:10174000129714964D935D936D937C93179783E650
:1017500091E011969C938E93C1EBD2E01D96DC93A1
:10176000CE931C971E961C921E971F961C921F9735
:1017700051961C921E92509781E052968C9318823B
:10178000FE83ED831F821886FA87E987DF91CF9168
:101790000895CF93DF93CDB7DEB72E970FB6F894A9
:1017A000DEBF0FBECDBF789484B5826084BD84B5A2
:1017B000816084BD85B5826085BD85B5816085BD4C
:1017C00080916E00816080936E0010928100809104
:1017D000810082608093810080918100816080938C
:1017E00081008091800081608093800080919100D1
:1017F000826080939100809191008160809391003C
:10180000809190008160809390008091C1008460FD
:101810008093C1008091C10082608093C10080915B
:10182000C10081608093C1008091C300816080937A
:10183000C3008091C00082608093C0008091C2008C
:1018400081608093C20080917A00846080937A00E6
:1018500080917A00826080937A0080917A00816022
:1018600080937A0080917A00806880937A00109249
:10187000AC0110929C0110929E018091D700816072
:101880008093D70080EA8093D80089B5806189BDB4
:1018900089B5826089BD09B400FEFDCF61E070E0CA
:1018A00080E090E00E94DE038091D8008F7C806110
:1018B0008093D8008091E000807F8093E000809149
:1018C000E1008E7E8093E1008DE08093E200559AE6
:1018D000209AE091BA02F091BB02A089B18982E01E
:1018E0008C93A485B5851C92A685B78587E08C93DB
:1018F000108EA489B58986E08C93A289B3898C91D6
:1019000080618C93A289B3898C9188608C93A28921
:10191000B3898C9180688C930288F389E02D808153
:101920008F7D80838091B8028111BEC081E0809359
:10193000B80281EB92E00E94980468EE73E080E0C8
:1019400090E00E94DE038091B6029091B702DC0124
:10195000ED91FC910084F185E02D0995181619068A
:1019600044F3BB24B394A2E3AA2E85E0E2E1F1E0C4
:10197000DE01169601900D928A95E1F7B092B902B8
:1019800045E050E0BE016A5F7F4F81EB92E00E942C
:101990005E078091B6029091B702DC01ED91FC9157
:1019A0000190F081E02D63E009956AEF70E080E03E
:1019B00090E00E94DE036AEB70E08091B6029091A5
:1019C000B7020E948A026AEF70E080E090E00E9415
:1019D000DE0368EB70E08091B6029091B7020E943E
:1019E0008A0264EF71E080E090E00E94DE036CEA1E
:1019F00070E08091B6029091B7020E948A0264EF73
:101A000071E080E090E00E94DE0381EB92E00E94B2
:101A1000980485E0E7E1F1E0DE01119601900D9276
:101A20008A95E1F7A092B902F4E0CF2ED12CFE0105
:101A30003B967F0110E000E030E020E045E050E020
:101A4000BE016F5F7F4F81EB92E00E9410058F3FD8
:101A5000980739F468EE73E080E090E00E94DE03BE
:101A600084CF2B852111FFCF049709F0D2C02C859C
:101A70002053330B44E6429FC001439F900D112435
:101A80002D853AE0239F800D911D1124805E9140A9
:101A90002E852053330B820F931F9093B3028093B4
:101AA000B20282E38093B902E1E6BE2EB982CC2471
:101AB000C394D12CCE0101967C0110E000E030E00F
:101AC00020E041E050E0BC018091090290910A02BF
:101AD0000E9410058981813049F781E791E00E94D9
:101AE000C9078CE791E00E94C90724E331E06CE16B
:101AF000262E61E0362ED1018D919D911D019927F1
:101B0000FC01E950FF4F449188529F4FFC018491A2
:101B10008823C9F090E0880F991FFC01E653FF4F1E
:101B2000A591B491FC01E454FF4F659174919FB766
:101B3000F8948C91E42FE0958E238C93DB018C91AB
:101B4000E823EC939FBF22153305A9F60CE111E0C1
:101B5000D801EC910E5F1F4FE23108F0E251F0E046
:101B6000EA5EFE4FE49190917B008E2F880F880FE4
:101B700080729F7D892B80937B00E770E064E09307
:101B80007C0080917A00806480937A0080917A0052
:101B900086FDFCCF8091780060917900762F682FC8
:101BA000072E000C880B990B0E94C50E2EEC39E015
:101BB0004EE45CE30E94240F6B017C014B015C014D
:101BC000AC019B010E948310882331F18FE791E0E3
:101BD0000E94C9078BE891E00E94C90720163106D0
:101BE00009F0B6CF8CE791E00E94C90762E370E08C
:101BF00080E090E00E94DE03E0E0F0E0EF2B09F4EB
:101C0000A5CF0E941803882309F4A0CF0E940000EA
:101C10009DCF84E690E041CF26013701E89477F824
:101C20002FEF3FEF4FE75FE7C301B2010E94831040
:101C300081110DC02FEF3FEF4FE75FE7C301B20106
:101C40000E94BE0E18161CF483E891E0C1CF2FEF5E
:101C50003FEF4FE75FE4C701B6010E947E10181600
:101C60001CF487E891E0B4CF2FEF3FEF4FE75FEC34
:101C7000C701B6010E94BE0E87FDF3CF20E030E021
:101C8000A901C701B6010E94BE0E87FF0BC06DE21D
:101C90008DEF91E00E94890746015701B7FAB09491
:101CA000B7F8B0942AE037ED43EA5BE3C501B4012D
:101CB0000E94E30F4B015C010E944F106B017C01FD
:101CC0000E94C30E9B01AC01C501B4010E94E20F4A
:101CD0004B015C014AE0C701B6010E94D6076EE2E3
:101CE0008DEF91E00E94890720E030E040E251E46E
:101CF000C501B4010E94240F4B015C010E944F10EA
:101D00006B01F12CE12C4AE0C701B6010E94D60715
:101D1000C701B6010E94C30E9B01AC01C501B4010D
:101D20000E94E20F20E030E040E251E40E94240FE4
:101D30000E944F1090E080E04AE00E94D6074ACF10
:101D400083E691E09093FE018093FD0180910F0264
:101D500081110BC08091120290911302009711F033
:101D60000E944C1181E080930F0280910D029091AE
:101D70000E02009711F00C944C1108950E94000F70
:101D800008F481E00895E89409C097FB3EF490952B
:101D90008095709561957F4F8F4F9F4F9923A9F044
:101DA000F92F96E9BB279395F695879577956795D3
:101DB000B795F111F8CFFAF4BB0F11F460FF1BC017
:101DC0006F5F7F4F8F4F9F4F16C0882311F096E9AA
:101DD00011C0772321F09EE8872F762F05C0662358
:101DE00071F096E8862F70E060E02AF09A95660F11
:101DF000771F881FDAF7880F9695879597F90895CA
:101E0000990F0008550FAA0BE0E8FEEF161617060B
:101E1000E807F907C0F012161306E407F50798F073
:101E2000621B730B840B950B39F40A2661F0232B8C
:101E3000242B252B21F408950A2609F4A140A69508
:101E40008FEF811D811D08950E94370F0C94A80FFC
:101E50000E949A0F38F00E94A10F20F0952311F0F4
:101E60000C94910F0C94970F11240C94DC0F0E948A
:101E7000B90F70F3959FC1F3950F50E0551F629F06
:101E8000F001729FBB27F00DB11D639FAA27F00DD3
:101E9000B11DAA1F649F6627B00DA11D661F829FFA
:101EA0002227B00DA11D621F739FB00DA11D621FDF
:101EB000839FA00D611D221F749F3327A00D611DFC
:101EC000231F849F600D211D822F762F6A2F1124DE
:101ED0009F5750409AF0F1F088234AF0EE0FFF1F11
:101EE000BB1F661F771F881F91505040A9F79E3F68
:101EF000510580F00C94910F0C94DC0F5F3FE4F3DC
:101F0000983ED4F3869577956795B795F795E795BD
:101F10009F5FC1F7FE2B880F911D9695879597F9C6
:101F2000089597F99F6780E870E060E008959FEF5B
:101F300080EC089500240A94161617061806090660
:101F4000089500240A94121613061406050608952F
:101F5000092E0394000C11F4882352F0BB0F40F4B7
:101F6000BF2B11F460FF04C06F5F7F4F8F4F9F4FF7
:101F7000089557FD9058440F551F59F05F3F71F079
:101F80004795880F97FB991F61F09F3F79F08795E0
:101F90000895121613061406551FF2CF4695F1DF69
:101FA00008C0161617061806991FF1CF86957105F9
:101FB000610508940895E894BB2766277727CB012D
:101FC00097F908955058BB27AA270E94FA0F0C943E
:101FD000A80F0E949A0F38F00E94A10F20F039F448
:101FE0009F3F19F426F40C94970F0EF4E095E7FB4D
:101FF0000C94910FE92F0E94B90F58F3BA1762079A
:1020000073078407950720F079F4A6F50C94DB0F8D
:102010000EF4E0950B2EBA2FA02D0B01B901900103
:102020000C01CA01A0011124FF27591B99F0593F47
:1020300050F4503E68F11A16F040A22F232F342F8F
:102040004427585FF3CF469537952795A795F040DD
:102050005395C9F77EF41F16BA0B620B730B840BF2
:10206000BAF09150A1F0FF0FBB1F661F771F881FAA
:10207000C2F70EC0BA0F621F731F841F48F4879502
:1020800077956795B795F7959E3F08F0B0CF9395F4
:10209000880F08F09927EE0F9795879508950E946D
:1020A000C10F88F09F5798F0B92F9927B751B0F01A
:1020B000E1F0660F771F881F991F1AF0BA95C9F7CC
:1020C00014C0B13091F00E94DB0FB1E008950C9480
:1020D000DB0F672F782F8827B85F39F0B93FCCF333
:1020E000869577956795B395D9F73EF49095809549
:1020F000709561957F4F8F4F9F4F08950E94000FFD
:1021000008F48FEF08950E94000F880B990B089533
:10211000A1E21A2EAA1BBB1BFD010DC0AA1FBB1FEB
:10212000EE1FFF1FA217B307E407F50720F0A21B5D
:10213000B30BE40BF50B661F771F881F991F1A94CA
:1021400069F760957095809590959B01AC01BD01F4
:10215000CF010895EE0FFF1F0590F491E02D099433
:102160000F931F93CF93DF938230910510F482E099
:1021700090E0E091BE02F091BF0230E020E0B0E0DC
:10218000A0E0309799F42115310509F44AC0281BC5
:10219000390B24303105D8F58A819B816115710591
:1021A00089F1FB0193838283FE0111C0408151813B
:1021B0000281138148175907E0F04817590799F42D
:1021C000109761F012960C93129713961C93329607
:1021D000CF01DF91CF911F910F9108950093BE021F
:1021E0001093BF02F4CF2115310551F04217530768
:1021F00038F0A901DB019A01BD01DF01F801C1CF6F
:10220000EF01F9CF9093BF028093BE02CDCFFE01C4
:10221000E20FF31F81939193225031093983288370
:10222000D7CF2091BC023091BD02232B41F42091E5
:102230000E0130910F013093BD022093BC0220911A
:102240000C0130910D012115310541F42DB73EB738
:102250004091100150911101241B350BE091BC02FB
:10226000F091BD02E217F307A0F42E1B3F0B2817D5
:10227000390778F0AC014E5F5F4F2417350748F0FF
:102280004E0F5F1F5093BD024093BC028193919308
:102290009FCFF0E0E0E09CCFCF93DF930097E9F091
:1022A000FC01329713821282A091BE02B091BF024C
:1022B000ED0130E020E01097A1F420813181820F00
:1022C000931F2091BC023091BD022817390709F0F5
:1022D00061C0F093BD02E093BC02DF91CF910895FD
:1022E000EA01CE17DF07E8F54A815B819E014115BF
:1022F0005105B1F7E901FB83EA8349915991C40F74
:10230000D51FEC17FD0761F4808191810296840F3F
:10231000951FE90199838883828193819B838A83B6
:10232000F0E0E0E012968D919C9113970097B9F53B
:102330002D913C911197CD010296820F931F209110
:10234000BC023091BD022817390739F6309751F594
:102350001092BF021092BE02B093BD02A093BC02C5
:10236000BCCFD383C28340815181840F951FC8178E
:10237000D90761F44E5F5F4F88819981480F591FDB
:10238000518340838A819B81938382832115310508
:1023900009F0B0CFF093BF02E093BE029ECFFD01E3
:1023A000DC01C0CF13821282D7CF10E0CAECD0E09C
:1023B00004C0FE010E94AA102196CB3CD107C9F7A8
:0423C000F894FFCFBF
:1023C400FFFFFFFF00E10000000000000000C0026A
:1023D400800058585858585858313030120013005B
:1023E4001400150016001700060007000800090075
:1023F4000A000B0000C180810000000000000044BE
:1024040001100465015A01AB016901870100000054
:10241400004D03AE02DB0299030C03EA02FE020044
:1024240000000089078C06950475075407390723B3
:1024340007436F6E6E65637465642E000D0A006E4B
:0E244400616E00696E66006F7666002C2000E7
:00000001FF
