:100000000C9448010C9470010C9470010C947001D4
:100010000C9470010C9470010C9470010C9470019C
:100020000C9470010C9470010C94CF090C943E0A4E
:100030000C9470010C9470010C9470010C9470017C
:100040000C9470010C9470010C9470010C9470016C
:100050000C9470010C9470010C9470010C94C80CF9
:100060000C9470010C94960C0C94700C0C94700110
:100070000C9470010C9470010C9470010C9470013C
:100080000C9470010C9470010C9470010C9470012C
:100090000C9470010C9470010C9470010C9470011C
:1000A0000C9470010C9470010C94700100407A1053
:1000B000F35A00A0724E18090010A5D4E80000E819
:1000C0007648170000E40B54020000CA9A3B000077
:1000D00000E1F505000080969800000040420F0006
:1000E0000000A08601000000102700000000E803C7
:1000F000000000006400000000000A000000000092
:100100000100000000002C76D888DC674F0823DF50
:10011000C1DFAE59E1B1B796E5E3E453C63AE65123
:10012000997696E8E6C28426EB898C9B62ED407C4A
:100130006FFCEFBC9C9F40F2BAA56FA5F490055AE6
:100140002AF75C936B6CF9676DC11BFCE0E40D470B
:10015000FEF520E6B500D0ED902E0300943577052E
:100160000080841E080000204E0A000000C80C33E6
:100170003333330F986E12831141EF8D2114893B75
:10018000E65516CFFEE6DB18D1844B381BF77C1DF5
:10019000901DA4BBE424203284725E228100C9F148
:1001A00024ECA1E53D2772756E2D62726964676566
:1001B0000A000A000A0000000000250028002B00A9
:1001C0002E00310000000000240027002A002D002E
:1001D00030000404040404030405020202020403C0
:1001E00002020202060606060606040402020204D1
:1001F0000404080201104080401020408040800824
:100200000204018040201002011080102040402094
:10021000070605040100080A0B0C0D09080B000273
:10022000020200000904000001020200000524008F
:100230001001052401010104240206052406000121
:100240000705810310004009040100020A000000B4
:100250000705020240000007058302400000040376
:10026000090412010002EF02014041234180000114
:100270000102030141726475696E6F204C4C4300AA
:1002800041726475696E6F2059756E00120DDE1033
:1002900011241FBECFEFDAE0DEBFCDBF23E0AAE915
:1002A000B1E001C01D92A732B207E1F711E0A0E072
:1002B000B1E0EAEBF3E302C005900D92AA39B10771
:1002C000D9F711E0C7E4D1E004C02197FE010E94F4
:1002D0003715C634D107C9F70E947B0D0C94D0198D
:1002E0000C940000FC018091CC01882311F13FB7F0
:1002F000F89482E08093E9002091F200822F90E050
:100300001816190614F481E090E0882339F0289833
:1003100044E64093CB014091F1004083222339F021
:100320002091F200211103C02BE62093E8003FBF8B
:1003300008958FEF9FEF08952FB7F89483E080938F
:10034000E9009091E800892F807295FF04C0909198
:10035000F20080E4891B2FBF08958091C3018111B1
:100360000DC082E08093BF0184E08093C0011092B1
:10037000C2011092C10181E08093C3018FEB91E033
:100380000895CF93DF931F92CDB7DEB76983DC0169
:10039000ED91FC910280F381E02D41E050E0BE013F
:1003A0006F5F7F4F09950F90DF91CF91089583E0A4
:1003B0008093E9008091F200882319F08AE380930A
:1003C000E80008950E949C0190E00895CF93DF9388
:1003D0001F92CDB7DEB7FC018485958597FD08C0D7
:1003E0002FEF3FEF358724870F90DF91CF9108954E
:1003F000CE0101960E947201019719F4898190E063
:10040000F3CF8FEF9FEFF0CF0F931F93CF93DF9337
:100410001F92CDB7DEB78C01FC018485958597FFCF
:100420000BC0CE0101960E947201019771F489817F
:1004300090E0F80195878487F801848595850F9071
:10044000DF91CF911F910F9108958FEF9FEFF1CF23
:10045000FC018485958597FD0BC09FB7F89482E0D9
:100460008093E9008091F2009FBF90E0019608958B
:100470009FB7F89482E08093E9008091F2009FBFDB
:1004800090E008954091B9015091BA012091B701CF
:100490003091B80142175307B4F49091E800957079
:1004A000E1F39091E80092FD19C08093F1008091F2
:1004B000B9019091BA0101968F739927892B19F48C
:1004C0008EEF8093E8008091B9019091BA01019676
:1004D0009093BA018093B90181E0089580E0089576
:1004E000EF92FF920F931F93CF93DF93F82E192F64
:1004F000E62E042F81E0860F880F0E94420283E0DF
:100500000E944202CF2DD12FEC0EFD2EF11CCE15F4
:10051000DF05B9F007FF13C0FE0184910E9442027B
:10052000182F80E00E944202812321968111EFCF93
:10053000DF91CF911F910F91FF90EF9008958881E7
:10054000EDCF81E0F5CFDF92EF92FF920F931F93F3
:10055000CF93DF93D82E8A01EB017B01E40EF51EC9
:10056000CE15DF0559F0D7FE12C0FE0184910E941E
:10057000420221968111F4CF0FEF1FEFC801DF91E6
:10058000CF911F910F91FF90EF90DF900895888198
:10059000EECF0F931F93CF93DF931F92CDB7DEB7AC
:1005A00082E0898342E450E06CE172E080E80E94DE
:1005B000A3020E94AD01DC0112960D911C91011560
:1005C000110589F0D801ED91FC910280F381E02DB5
:1005D000BE016F5F7F4FC801099597FD04C0F80108
:1005E00000851185ECCF89810F90DF91CF911F910C
:1005F0000F910895615030F02091F100FC012083AB
:100600000196F8CF289884E68093CB010895EF9265
:10061000FF920F931F93CF93DF938C017B01D0E068
:10062000C0E0F701EC0FFD1F6491662361F0D80173
:10063000ED91FC910190F081E02DC8010995892B85
:1006400011F02196EECFCE01DF91CF911F910F9146
:10065000FF90EF900895AF92BF92CF92DF92EF920A
:10066000FF920F931F93CF93DF936C017B018B015C
:10067000040F151FEB015E01AE18BF08C017D107AC
:1006800059F06991D601ED91FC910190F081E02D36
:10069000C6010995892B79F7C501DF91CF911F918B
:1006A0000F91FF90EF90DF90CF90BF90AF900895A3
:1006B000FC01538D448D252F30E0842F90E0821B68
:1006C000930B541710F0CF96089501970895FC01ED
:1006D000918D828D981761F0A28DAE0FBF2FB11D45
:1006E0005D968C91928D9F5F9F73928F90E008959D
:1006F0008FEF9FEF0895FC01918D828D981731F057
:10070000828DE80FF11D858D90E008958FEF9FEFAA
:100710000895FC01918D228D892F90E0805C9F4F80
:10072000821B91098F739927089581E292E00E94BC
:10073000890321E0892B09F420E0822F089580E0CD
:1007400090E0892B29F00E94950381110C94000000
:100750000895FC01A48DA80FB92FB11DA35ABF4F56
:100760002C91848D90E001968F739927848FA689B0
:10077000B7892C93A089B1898C9182748C93938DC5
:10078000848D981306C00288F389E02D80818F7DC7
:1007900080830895EF92FF920F931F93CF93DF937F
:1007A000EC0181E0888F9B8D8C8D981319C0E889AE
:1007B000F989808185FF14C09FB7F894EE89FF897D
:1007C0006083E889F9898081827480839FBF81E09A
:1007D00090E0DF91CF911F910F91FF90EF900895DE
:1007E000F62E0B8D10E00F5F1F4F0F731127E02EB9
:1007F0008C8D8E110CC00FB607FCFACFE889F989F1
:10080000808185FFF5CFCE010E94A903F1CFEB8D4A
:10081000EC0FFD2FF11DE35AFF4FF0829FB7F894C4
:100820000B8FEA89FB8980818062CFCFCF93DF93E2
:10083000EC01888D8823B9F0AA89BB89E889F989F8
:100840008C9185FD03C0808186FD0DC00FB607FC2D
:10085000F7CF8C9185FFF2CF808185FFEDCFCE0160
:100860000E94A903E9CFDF91CF9108953FB7F89493
:1008700080919B0190919C01A0919D01B0919E015E
:1008800026B5A89B05C02F3F19F00196A11DB11DEB
:100890003FBFBA2FA92F982F8827BC01CD01620F27
:1008A000711D811D911D42E0660F771F881F991FE2
:1008B0004A95D1F708958F929F92AF92BF92CF92AF
:1008C000DF92EF92FF924B015C010E9436046B01B4
:1008D0007C010E9436046C197D098E099F09683ECF
:1008E000734081059105A8F321E0821A9108A108BF
:1008F000B10888EEC80E83E0D81EE11CF11C8114FB
:100900009104A104B10429F7FF90EF90DF90CF90FC
:10091000BF90AF909F908F9008958F929F92AF92CB
:10092000BF92CF92DF92EF92FF920F931F93CF93DC
:10093000DF936C017B018A0180910B01882309F40C
:100940005CC08091CC01882309F457C08091BE011E
:1009500080FF05C08091E00082608093E000E801A4
:10096000B12C8AEFA82E93E0892E2AE3922E2097AD
:1009700011F4BB20D9F10E949C0181110AC0AA94F4
:10098000AA20D9F161E070E080E090E00E945B0471
:10099000EECF8C171D0611F00CF08C2F9FB7F8943A
:1009A0008092E9002091E80025FD02C09FBFDFCFC3
:1009B000282F30E0C21BD30BF701815020F041916A
:1009C0004093F100FACFE20EF31EBB2021F090928B
:1009D000E800B12CEBCF8091E80085FDE7CF909245
:1009E000E800BB24B394209709F3F3CF5D9884E625
:1009F0008093BD01101611063CF081E090E0F601F5
:100A00009383828310E000E0C801DF91CF911F91B2
:100A10000F91FF90EF90DF90CF90BF90AF909F909D
:100A20008F9008950895CF93DF93EC018D819E817F
:100A3000DC01ED91FC910084F185E02D09951816FB
:100A4000190654F48D819E81DC01ED91FC910284A4
:100A5000F385E02D0995EACFDF91CF9108958F922C
:100A60009F92AF92BF92CF92DF92EF92FF92CF937D
:100A7000DF93EC018FB7F8948090CD019090CE0178
:100A8000A090CF01B090D0018FBF6B01F12CE12C71
:100A90008D819E81DC01ED91FC910284F385E02D36
:100AA000099597FF16C02FB7F8948091CD019091CA
:100AB000CE01A091CF01B091D0012FBF8819990923
:100AC000AA09BB098C159D05AE05BF0508F38FEF7C
:100AD0009FEFDF91CF91FF90EF90DF90CF90BF908D
:100AE000AF909F908F900895FC0123813481262739
:100AF000022E2295207F2025032E322F22952F7043
:100B00000226269532272327220F220F220F202587
:100B10003483238308952F923F924F925F926F9276
:100B20007F928F929F92AF92BF92CF92DF92EF927D
:100B3000FF920F931F93CF93DF93CDB7DEB72A9722
:100B40000FB6F894DEBF0FBECDBF9A8789875B01D1
:100B5000290137011A01200E311E3A821982882498
:100B60008A94982C9A01260F371F3E832D83C80143
:100B7000840D951D98878F83A985BA8518968C91C9
:100B8000B981B81708F040C1E985FA85948283825B
:100B900085819681DC01ED91FC910190F081E02D41
:100BA0006FEF09956FEF89859A850E947405E98535
:100BB000FA8585819681DC01ED91FC910190F081AF
:100BC000E02DA985BA856C910995E985FA85608142
:100BD000CF010E947405A985BA8515968D919C91C7
:100BE000DC01ED91FC910190F081E02D6A81099585
:100BF0006A8189859A850E947405E985FA858581CF
:100C00009681DC01ED91FC910190F081E02D622D47
:100C10000995622D89859A850E9474058501E9856B
:100C2000FA8585819681DC01ED91FC910190F0813E
:100C3000E02D2D813E8120173107E1F48201E98505
:100C4000FA8585819681DC01ED91FC910190F0811E
:100C5000E02D2F81388520173107C1F0D8016D9123
:100C60008D010995F8013197608189859A850E94E7
:100C70007405E5CFD8016D918D010995F801319783
:100C8000608189859A850E947405C9CFA985BA8536
:100C900014966C910995E985FA8585819681DC0128
:100CA000ED91FC910190F081E02DA985BA85139614
:100CB0006C91099568EC70E089859A850E942F05F2
:100CC0008F3F910509F092C0E985FA85948283826D
:100CD0006FEFCF010E94740565E070E089859A8509
:100CE0000E942F05A985BA856C916817190609F02D
:100CF0007DC0CD010E9474056AE070E089859A8507
:100D00000E942F057C0197FD71C0682F89859A8507
:100D10000E9474056AE070E089859A850E942F051B
:100D20008C0197FD63C0682F89859A850E947405A0
:100D3000EC821B82EB81FC810E0F1F1FF12CE12C3A
:100D400065E070E089859A850E151F05A1F0EC1409
:100D5000FD0489F00E942F0597FD09C0F301EE0DF7
:100D6000FF1D8083682F89859A850E947405FFEF97
:100D7000EF1AFF0AE5CF0E942F057C0197FD36C0D0
:100D800065E070E089859A850E942F0597FD2EC049
:100D9000FE2CEE248E0D9F1DA985BA8513962D91EC
:100DA0003C9114978217930709F58C918F5F8C9370
:100DB000C801C016D10608F4C6012A960FB6F894E9
:100DC000DEBF0FBECDBFDF91CF911F910F91FF907E
:100DD000EF90DF90CF90BF90AF909F908F907F90DB
:100DE0006F905F904F903F902F900895B981BF5FB3
:100DF000B98364E670E080E090E00E945B0489853E
:100E00009A850E941305B8CE8FEF9FEFD6CFCF9271
:100E1000DF92EF92FF920F931F936801790110E028
:100E200000E030E020E00E948B051F910F91FF90C1
:100E3000EF90DF90CF9008950F931F93CF93DF93A0
:100E400000D0CDB7DEB78091DA028823A1F087E722
:100E500089838091D7028A8310E000E030E020E0AF
:100E600042E050E0BE016F5F7F4F8091D5029091CC
:100E7000D6020E9407071092DA020F900F90DF91BE
:100E8000CF911F910F9108950F931F93CF93DF93ED
:100E900000D01F92CDB7DEB782E789838091D70259
:100EA0008A8301E010E09E012D5F3F4F42E050E059
:100EB000BE016F5F7F4F8091D5029091D6020E9454
:100EC000070781E09B81913009F080E00F900F903F
:100ED0000F90DF91CF911F910F910895EF92FF92A4
:100EE0000F931F93CF93DF9300D01F92CDB7DEB740
:100EF000FC012289211118C07C01138A8FE48983A7
:100F000080E48B8386858A839F012C5E3F4F00E4BB
:100F100010E043E050E0BE016F5F7F4F8485958510
:100F20000E940707F701828B0F900F900F90DF91BF
:100F3000CF911F910F91FF90EF900895CF93DF9382
:100F4000EC010E946E078A8990E0DF91CF910895AD
:100F5000CF93DF93EC010E946E078A89882341F0CA
:100F60008B89C80FD11D8C8990E0DF91CF910895B6
:100F70008FEF9FEFFACFCF93DF93EC010E946E07C4
:100F80008A89882369F081508A8B8B8991E0980F38
:100F90009B8BC80FD11D8C8990E0DF91CF91089574
:100FA0008FEF9FEFFACF2FB7F8948091CD019091FA
:100FB000CE01A091CF01B091D0012FBF8093D1027B
:100FC0009093D202A093D302B093D40289EC92E022
:100FD0000E94BB0797FF26C02FB7F8948091CD01E0
:100FE0009091CE01A091CF01B091D0012FBF40913F
:100FF000D1025091D2026091D3027091D402841B2D
:10100000950BA60BB70B4091CD025091CE0260918B
:10101000CF027091D00284179507A607B707B0F2E8
:101020008FEF9FEF08950F931F93CF93DF9300D01F
:101030001F92CDB7DEB729E42983FC0126852A83D8
:101040006B8310E000E030E020E043E050E0BE01C0
:101050006F5F7F4F848595850E94070781E090E050
:101060000F900F900F90DF91CF911F910F910895E6
:1010700090E080E008958F929F92AF92BF92EF929E
:10108000FF920F931F93CF93DF93CDB7DEB7A19756
:101090000FB6F894DEBF0FBECDBF7C01FA01CB01C5
:1010A00019A2223008F42AE08E010F5D1F4F822E14
:1010B000912CB12CA12CBF01A50194010E94151502
:1010C000F901CA016A3074F5605DD8016E938D0133
:1010D000232B242B252B79F790E080E0109789F0C3
:1010E000FD0101900020E9F73197AF014A1B5B0B2E
:1010F000D701ED91FC910280F381E02DB801C70189
:101100000995A1960FB6F894DEBF0FBECDBFDF9153
:10111000CF911F910F91FF90EF90BF90AF909F9054
:101120008F900895695CD1CF8F929F92AF92BF92BA
:10113000CF92DF92EF92FF920F931F93CF93DF93A3
:101140007C01EB016C0182E0C80ED11C4701E5E097
:101150008E0E911C10E000E0F60141916F0150E00D
:1011600070E060E02AE0CE010E943B085C01E8816B
:10117000F9810190F081E02D6EE2CE0109958A0D92
:101180009B1D080F191FC814D90431F7F7014581B9
:1011900050E070E060E02AE0CE010E943B08800F42
:1011A000911FDF91CF911F910F91FF90EF90DF90F2
:1011B000CF90BF90AF909F908F900895CF93DF9383
:1011C000EC0188819981009711F00E94D91519824C
:1011D00018821D821C821B821A82DF91CF91089592
:1011E000FC0180819181009711F00C94D91508952C
:1011F0000F931F93CF93DF93EC0188819981009720
:1012000059F02A813B812617370730F081E0DF91C2
:10121000CF911F910F9108958B016F5F7F4F0E94B7
:101220006216009759F0998388831B830A832C8167
:101230003D81232B59F7FC011082E8CF80E0E7CFF6
:10124000EF92FF920F931F93CF93DF936115710578
:1012500041F480E0DF91CF911F910F91FF90EF90CB
:10126000089541155105B1F07B01EC010C811D8100
:10127000040F151FB8010E94F808882351F3288134
:1012800039818C819D81B701820F931F0E9428179D
:101290001D830C8381E0DECFFB0101900020E9F784
:1012A0003197AF01461B570B0C942009EF92FF9228
:1012B0000F931F93CF93DF93EC017B011982188268
:1012C0001B821A821D821C82FB0101900020E9F71B
:1012D00031978F01061B170BB8010E94F808811186
:1012E00009C0CE01DF91CF911F910F91FF90EF9038
:1012F0000C94DE081D830C83B70188819981DF91EE
:10130000CF911F910F91FF90EF900C942817EF92BF
:10131000FF920F931F93CF93DF9300D000D000D0A4
:101320001F92CDB7DEB77C018B0167E771E0CE017C
:1013300001960E945609E114F10429F0B701CE018B
:1013400001960E944C0969E771E0CE0101960E9466
:101350004C090115110529F0B801CE0101960E9432
:101360004C094D815E8169817A8101E010E09E0126
:10137000295F3F4F8EEB92E00E940707CE01019656
:101380000E94F00827960FB6F894DEBF0FBECDBFBF
:10139000DF91CF911F910F91FF90EF9008951F92D1
:1013A0000F920FB60F9211248F939F938091E100BB
:1013B0009091E100937F9093E10083FF0FC0109222
:1013C000E90091E09093EB001092EC0092E390938F
:1013D000ED001092CC0198E09093F00082FF22C0C3
:1013E00093E09093E9009091F200992319F09AE329
:1013F0009093E8009091BD01992341F09091BD0137
:1014000091509093BD01911101C05D9A9091CB01D3
:10141000992341F09091CB0191509093CB01911180
:1014200001C0289A84FF18C08091E2008E7E8160FE
:101430008093E2008091E1008F7E8093E1008091B3
:10144000BE018E7E80618093BE019F918F910F902F
:101450000FBE0F901F90189580FFF7CF8091E2008C
:101460008E7E80618093E2008091E1008E7E809389
:10147000E1008091BE018E7E8160E5CF1F920F92C8
:101480000FB60F921124CF92DF92EF92FF920F933B
:101490001F932F933F934F935F936F937F938F93FC
:1014A0009F93AF93BF93EF93FF93CF93DF93CDB70A
:1014B000DEB76C97DEBFCDBF1092E9008091E800E7
:1014C00083FF25C068E0CE0145960E94FA0282EFB4
:1014D0008093E8008D8987FF39C09091E80090FFE4
:1014E000FCCF982F907609F034C19E894F89588D92
:1014F0002F89F88C911131C0803861F58091BC0141
:101500008093F1001092F1008EEF8093E8006C96CA
:101510000FB6F894DEBF0FBECDBFDF91CF91FF9124
:10152000EF91BF91AF919F918F917F916F915F915B
:101530004F913F912F911F910F91FF90EF90DF906E
:10154000CF900F900FBE0F901F9018959EEF909325
:10155000E800C7CF1092F100D5CF913059F4811136
:10156000D3CF4130510581F68091BC018D7F8093AE
:10157000BC01CACF933049F48111C6CF4130510527
:1015800019F68091BC018260F2CF953041F48091D0
:10159000E80080FFFCCF20682093E300B5CF9630B1
:1015A00009F0A9C00B8D1C8D22E01092E900109269
:1015B000BA011092B901F2122EC01092B801109225
:1015C000B7010E94C9021F8299E09983FA8291E0D3
:1015D0009E8390EA98879AEF99872091B90130917C
:1015E000BA01275F3F4F3C832B838D831092E90024
:1015F0001092BA011092B9011093B8010093B7018B
:1016000049E050E0BE016F5F7F4F80E00E94A3027F
:101610000E94C90279CF1093B8010093B7010E94CC
:10162000AD01DC0112960D911C910115110509F413
:1016300051C1D801ED91FC910480F581E02DBE01EE
:101640006B5E7F4FC8010995009709F03EC1F80114
:1016500000851185EACFF3E0FF120EC08F89882341
:1016600009F440C0823061F440E86BE080E892E029
:101670000E947002811148CF81E28093EB0047CF36
:10168000813029F440E86BE084E792E0F1CF8330C9
:1016900099F70E94AD01DC011296ED90FC908E014D
:1016A0000F5F1F4F6801E114F10479F0D701ED914C
:1016B000FC910680F781E02DB801C7010995080F5C
:1016C000111DF701E084F184EECFD8011C92F601E0
:1016D00001900020E9F73197BF016C197D0940E0C6
:1016E000C601C6CF6EE572E0FB01449150E080E890
:1016F0000E94A30209CF973009F4BECF983021F49D
:1017000081E08093F10000CF993009F0FDCE837025
:1017100009F0B2CFE5E3F1E081E031E096E3219119
:10172000222371F08093E9003093EB00DF011197E1
:101730002C912093EC009093ED008F5F873079F728
:101740008EE78093EA001092EA008F898093CC01A3
:10175000DBCE8B8D9C8D1092E9001092BA01109215
:10176000B9019093B8018093B701898D811192C01E
:101770008E899D89913A49F4813209F07DCF47E005
:1017800050E064E071E080E0B3CF913209F074CFB3
:10179000833269F48F89988DB0E0A0E080930001D6
:1017A00090930101A0930201B0930301ADCE80326A
:1017B00069F48091E80082FFFCCF67E084E091E06B
:1017C0000E94FA028BEF8093E8009ECE823209F0ED
:1017D0009BCE8F8980930B01EEEFFFE7859194916B
:1017E0008B3F9C4D51F1E0E0F8E080910401909135
:1017F0000501A0910601B0910701803B9440A1052D
:10180000B105F1F480910B0180FD1AC0EE3F8AE032
:10181000F80789F587E797E79183808380916000D7
:101820008093BB0188E19BE00FB6F894A895809364
:1018300060000FBE9093600067CEEEEFFAE0D5CF68
:10184000808191818737974709F05ECEA895809176
:1018500060008861809360008091BB01809360008C
:10186000EE3F2AE0F20789F08091FE0A9091FF0A8C
:101870009183808349CE808191818737980751F287
:101880009093FF0A8093FE0AC5CF1092FF0A109230
:10189000FE0A3ACE0E94AD01DC0112960D911C9118
:1018A0000115110509F4E8CED801ED91FC910190E4
:1018B000F081E02DBE016B5E7F4FC801099581115B
:1018C00023CEF80100851185EBCF181619060CF40C
:1018D0001BCED2CEF1E0FF12BECE62E672E004CFA4
:1018E0001F920F920FB60F9211242F933F934F9395
:1018F0005F936F937F938F939F93AF93BF93EF9378
:10190000FF9381E292E00E94A903FF91EF91BF91C2
:10191000AF919F918F917F916F915F914F913F9187
:101920002F910F900FBE0F901F9018951F920F923E
:101930000FB60F9211242F938F939F93EF93FF93E2
:10194000E0913102F09132028081E0913702F09112
:10195000380282FD1BC0908180913A028F5F8F73A5
:1019600020913B02821741F0E0913A02F0E0EF5DF6
:10197000FD4F958F80933A02FF91EF919F918F9148
:101980002F910F900FBE0F901F9018958081F4CF6C
:101990001F920F920FB60F9211242F933F938F93A4
:1019A0009F93AF93BF938091CD019091CE01A09171
:1019B000CF01B091D00130919A0123E0230F2D3750
:1019C00058F50196A11DB11D20939A018093CD0178
:1019D0009093CE01A093CF01B093D00180919B0151
:1019E00090919C01A0919D01B0919E010196A11D35
:1019F000B11D80939B0190939C01A0939D01B09396
:101A00009E01BF91AF919F918F913F912F910F9028
:101A10000FBE0F901F90189526E8230F0296A11D68
:101A2000B11DD2CFE1EDF1E01382128248EE53E016
:101A300060E070E044835583668377838FE391E0B1
:101A4000918380838FEF9FEF95878487E1E2F2E0B7
:101A500013821282448355836683778381E591E004
:101A6000918380838DEC90E0958784878CEC90E067
:101A70009787868788EC90E0918B808B89EC90E04B
:101A8000938B828B8AEC90E0958B848B8EEC90E02C
:101A9000978B868B118E128E138E148EAEEBB2E066
:101AA0001C921696FC93EE93159717961C92179717
:101AB00018961C9218971A96FC93EE931997EDE1DD
:101AC000F3E085E791E09183808312821382148290
:101AD0001582E9ECF2E01382128244835583668317
:101AE000778383E691E091838083B587A487118A09
:101AF000128A138A0895CF93DF93CDB7DEB7689724
:101B00000FB6F894DEBF0FBECDBF789484B5826067
:101B100084BD84B5816084BD85B5826085BD85B591
:101B2000816085BD80916E00816080936E0010920F
:101B3000810080918100826080938100809181008A
:101B4000816080938100809180008160809380001B
:101B500080919100826080939100809191008160DA
:101B6000809391008091900081608093900080919B
:101B7000C10084608093C1008091C1008260809325
:101B8000C1008091C10081608093C1008091C30039
:101B900081608093C3008091C00082608093C00008
:101BA0008091C20081608093C20080917A0084603D
:101BB00080937A0080917A00826080937A0080918D
:101BC0007A00816080937A0080917A0080688093A7
:101BD0007A001092CC011092BC011092BE0180914B
:101BE000D70081608093D70080EA8093D80089B5C0
:101BF000806189BD89B5826089BD09B400FEFDCFD1
:101C000061E070E080E090E00E945B048091D80089
:101C10008F7C80618093D8008091E000807F8093EA
:101C2000E0008091E1008E7E8093E1008DE0809362
:101C3000E200559A209AE091C702F091C802A0896B
:101C4000B18982E08C93A485B5851C92A685B78561
:101C500087E08C93108EA489B58986E08C93A28945
:101C6000B3898C9180618C93A289B3898C918860AF
:101C70008C93A289B3898C9180688C930288F389B4
:101C8000E02D80818F7D80838091C5028111BDC050
:101C900081E08093C5028EEB92E00E94130568EE0E
:101CA00073E080E090E00E945B048091C302909119
:101CB000C402DC01ED91FC910084F185E02D0995D1
:101CC0001816190644F3FF24F394E2E3EE2E85E0A0
:101CD000E2E1F1E0DE01179601900D928A95E1F7BD
:101CE000F092C60210E000E030E020E045E050E075
:101CF000BE01695F7F4F8EEB92E00E9407078091E3
:101D0000C3029091C402DC01ED91FC910190F0813D
:101D1000E02D63E009956AEF70E080E090E00E94BA
:101D20005B0464EB71E08091C3029091C4020E9455
:101D300007036AEF70E080E090E00E945B0462EBD2
:101D400071E08091C3029091C4020E94070364EF86
:101D500071E080E090E00E945B0466EA71E08091AF
:101D6000C3029091C4020E94070364EF71E080E017
:101D700090E00E945B048EEB92E00E94130585E0E8
:101D8000E7E1F1E0DE01119601900D928A95E1F70D
:101D9000E092C60204E010E09E01235F3F4F45E061
:101DA00050E0BE016F5F7F4F8EEB92E00E9407070D
:101DB0008F3F980739F468EE73E080E090E00E946E
:101DC0005B0485CF2D852111FFCF049709F094C1C5
:101DD0002E852053330B44E6429FC001439F900D54
:101DE00011242F85EAE02E9F800D911D1124805E25
:101DF000914028892053330B820F931F9093C00288
:101E00008093BF0282E38093C60224E331E0ACE119
:101E1000B1E08D919D919927FC01EF50FE4F4491C7
:101E20008E529E4FFC0184918823C9F090E0880F68
:101E3000991FFC01EC53FE4F65917491FC01EA542B
:101E4000FE4F059114919FB7F894FB018081409556
:101E500084238083F8018081842380839FBF2A1795
:101E60003B07B9F63BE7432E31E0532E5E01F7E125
:101E7000AF0EB11C40E0842E40E0942E52E5252E9A
:101E800067E5362E9FE9692E91E0792E2CE1C22E6E
:101E900021E0D22EF12CE12CD3016D917D913D01F9
:101EA000D601EC91B2E0CB0ED11CE23108F0E25148
:101EB000F0E0E05FFD4FE49190917B008E2F880F62
:101EC000880F80729F7D892B80937B00E770E06490
:101ED000E0937C0080917A00806480937A00809106
:101EE0007A0086FDFCCF9091780080917900892757
:101EF00098278927680F791F072E000C880B990BEC
:101F00000E943D1320E030E040E05FE30E94781340
:101F10000E94DF14F301329771836083072E000C57
:101F2000880B990B0E943D1320E030E040EA50E41A
:101F30000E94781320E030EC4FE754E40E946D14C7
:101F40008E010D5E1F4F21E044E00E94E610FF92DB
:101F5000EF925F924F92BF92AF920E942F17B801FB
:101F6000CE0101960E945609B501CE0107960E9446
:101F7000560960E871E0CE010D960E9456094B8526
:101F80005C856F817885CE010D960E9420090F90A7
:101F90000F900F900F900F900F90811104C0CE0101
:101FA0000D960E94DE0869817A818D859E850E944A
:101FB0008709CE010D960E94F008CE0107960E9477
:101FC000F008CE0101960E94F008EFEFEE1AFE0A2B
:101FD000FCE0EF16F10409F05FCF0E944407811185
:101FE000ABC063E871E0CE0101960E9456090E94E1
:101FF0001C0786E090E00E943D158C01DC011196E3
:102000001C921E9213961C921E92129715961C9269
:102010001E921497E980FA80E114F10451F0CD800A
:10202000DE80B6010E94F808811169C0C8010E94D3
:10203000DE081093D9020093D802CE0101960E94C7
:10204000F00868E871E0CE0101960E94560969E740
:1020500071E08091D8029091D9020E944C094D8183
:102060005E8169817A818091D8029091D9020E9423
:102070002009CE0101960E94F0082F82E091D8023B
:10208000F091D902048115812081318182E0C82E2E
:10209000D12CCE0101967C0141E050E0BE01695F88
:1020A0007F4F8091D5029091D6020E948B058A8144
:1020B0008093D7020091D8021091D9020115110521
:1020C00031F0C8010E94F008C8010E94D915109291
:1020D000D9021092D8028981811103C081E08093D6
:1020E000DA020E944407882399F064E670E080E0F9
:1020F00090E00E945B04F5CF84E690E07FCEF8018B
:10210000D582C482B701808191810E94281791CF26
:102110003F828091D702888702E010E09E012F5F06
:102120003F4F42E050E0BE01695F7F4F8091D50292
:102130009091D6020E94070789EC92E00E946E07F8
:102140008091DB02882371F168E771E0CE0101968E
:102150000E9456090E94D30797FD0FC08A3091054F
:1021600061F08F83188641E050E0BE01695F7F4FC8
:10217000CE0101960E942009EDCF62E971E0CE0107
:1021800007960E94560969817A818F8198850E94FD
:102190008709CE0107960E94F008CE0101960E94A1
:1021A000F008CACF8114910409F46CCE0E94950303
:1021B000882309F467CE0E94000064CE83E691E094
:1021C0009093CA028093C9020C941C07EF920F935C
:1021D0001F93CF93DF93E80134E047FD34E1042EF1
:1021E000000C550B57FF03C0519541955109E32E43
:1021F000022F242FAE010E940411CE01DF91CF9156
:102200001F910F91EF900895A9E0B0E0EAE0F1E1AD
:102210000C943C146A01F22EB02E102FFBE3AF2E6B
:10222000A01608F41BE31F5F012F27E0AE014F5FEC
:102230005F4F0E946312BC018981982F9970913081
:1022400009F43FC09BE2E1FC04C09E2D9170E0FCCC
:102250003AC05E2D5071E82FE87083FF46C084E0DD
:10226000911101C083E0EF2DE81B8F1508F0E0E02D
:10227000D6018E2F20E2552351F1992329F0D60162
:102280009C93C60101966C0196012D5F3F4FE2FEC3
:1022900024C08EE4D6018C9391E411969C931197FF
:1022A00012968C93D9018E2F90E281111BC0E20F00
:1022B000F32FF11D10828EEF9FEF2996ECE00C9426
:1022C00058149DE2C6CF90E2C4CF2D938150811166
:1022D000FCCFCE0ED11CE0E0D0CF8EE6D6018C93A1
:1022E00091E6DBCF9D938150E0CF482F447082FF71
:1022F0003DC084E0911101C083E08F1510F4EF2DF3
:10230000E81BD6018E2F20E2552309F1992329F0ED
:10231000D6019C93C60101966C0196012D5F3F4F3B
:10232000E2FE1BC089E4D6018C938EE411968C9357
:10233000119786E412968C93D9018E2F90E2882310
:1023400009F4B5CF9D938150FACF2D93815081111F
:10235000FCCFCE0ED11CE0E0D9CF89E6D6018C931C
:102360008EE611968C93119786E6E4CF9B0177FF5A
:1023700002C030E020E0A1E0B0E0911102C0B0E086
:10238000A0E0F9013196AE0FBF1F8B2C912CBB2022
:1023900009F461C05401EFEFAE1ABE0AAA0DBB1DCD
:1023A000FA161B0619F014F04F2D4A1B511188C064
:1023B000E3FC59C07601A42FB0E2A1114FC0C40EB6
:1023C000D11C992309F45BC040E0D6011196F601B7
:1023D00090836D01552309F448C0012F060F9A819F
:1023E000582F507184FF03C0913309F40150101627
:1023F0000CF047C0093008F008E0EEE2FE2E5B0169
:10240000A01AB10885019194819491082F3F320759
:1024100029F4D601FC92F60131966F016217730719
:1024200094F1021713077CF5DB01A21BB30BAA245E
:10243000A394B12CAC0EBD1EAA0DBB1D11968C91A0
:1024400021503109D601119628153905F4F0F6010D
:1024500080836D01DBCFB12CA12CA0CFF701B1930C
:102460007F01A150AACF9111B0CFD601942F50E394
:1024700002C05D9391509111FCCFC40ED11C40E07D
:10248000ACCF01E0BACF80E3DBCF6217730731F442
:10249000963388F4953311F4552369F0F60180835F
:1024A000FD01842F90E2811108C0A40FB11D1C9280
:1024B00090E080E002CF81E3F1CF91938150F3CFA0
:1024C000911183CF8ACF283008F027E03327DA0133
:1024D000990F311D87FD916000966105710539F4F2
:1024E00032602E5F3D9330E32A95E1F708959F3FD8
:1024F00030F080387105610509F03C5F3C5F3D9329
:10250000913008F08068911DDF93CF931F930F9354
:10251000FF92EF92192F987F9695E92F96959695B1
:10252000E90FFF27EA5FFE4F99273327EE24FF24A8
:10253000A701E70105900894079428F4360FE71ED9
:10254000F81E491F511D660F771F881F991F06949B
:10255000A1F70590079428F4E70EF81E491F561FAF
:10256000C11D770F881F991F661F0694A1F705905C
:10257000079428F4F80E491F561FC71FD11D880F56
:10258000991F661F771F0694A1F70590079420F402
:10259000490F561FC71FD81F990F661F771F881F27
:1025A0000694A9F784911095177041F0D695C795B8
:1025B00057954795F794E7941A95C1F7ECEAF0E040
:1025C00068941590159135916591959105907FE2EC
:1025D0007395E118F10A430B560BC90BD009C0F7EC
:1025E000E10CF11E431F561FC91FD01D7EF470332E
:1025F00011F48A95E6CFE894015030F0080F0AF400
:102600000027021708F4202F2395022F7A3328F091
:1026100079E37D932A95E9F710C07D932A9589F691
:10262000069497956795379517951794E118F10AD1
:10263000430B560BC90BD00998F023957E917395E7
:102640007A3308F070E37C932013B8F77E917061C1
:102650007D9330F0839571E37D9370E32A95E1F7E4
:102660001124EF90FF900F911F91CF91DF91992747
:1026700087FD90950895E89409C097FB3EF49095E6
:102680008095709561957F4F8F4F9F4F9923A9F04B
:10269000F92F96E9BB279395F695879577956795DA
:1026A000B795F111F8CFFAF4BB0F11F460FF1BC01E
:1026B0006F5F7F4F8F4F9F4F16C0882311F096E9B1
:1026C00011C0772321F09EE8872F762F05C066235F
:1026D00071F096E8862F70E060E02AF09A95660F18
:1026E000771F881FDAF7880F9695879597F90895D1
:1026F0000E948B130C94FC130E94EE1338F00E947E
:10270000F51320F0952311F00C94E5130C94EB13C2
:1027100011240C9430140E940D1470F3959FC1F392
:10272000950F50E0551F629FF001729FBB27F00D7F
:10273000B11D639FAA27F00DB11DAA1F649F6627D4
:10274000B00DA11D661F829F2227B00DA11D621F23
:10275000739FB00DA11D621F839FA00D611D221FDD
:10276000749F3327A00D611D231F849F600D211DC1
:10277000822F762F6A2F11249F5750409AF0F1F044
:1027800088234AF0EE0FFF1FBB1F661F771F881FAD
:1027900091505040A9F79E3F510580F00C94E513ED
:1027A0000C9430145F3FE4F3983ED4F3869577950C
:1027B0006795B795F795E7959F5FC1F7FE2B880F53
:1027C000911D9695879597F9089597F99F6780E8E9
:1027D00070E060E008959FEF80EC089500240A9473
:1027E0001616170618060906089500240A941216EC
:1027F0001306140605060895092E0394000C11F41F
:10280000882352F0BB0F40F4BF2B11F460FF04C0CB
:102810006F5F7F4F8F4F9F4F089557FD9058440F24
:10282000551F59F05F3F71F04795880F97FB991F2F
:1028300061F09F3F79F087950895121613061406EC
:10284000551FF2CF4695F1DF08C016161706180679
:10285000991FF1CF86957105610508940895E89454
:10286000BB2766277727CB0197F908952F923F92D0
:102870004F925F926F927F928F929F92AF92BF9290
:10288000CF92DF92EF92FF920F931F93CF93DF933C
:10289000CDB7DEB7CA1BDB0B0FB6F894DEBF0FBE99
:1028A000CDBF09942A88398848885F846E847D84E6
:1028B0008C849B84AA84B984C884DF80EE80FD80E8
:1028C0000C811B81AA81B981CE0FD11D0FB6F8945E
:1028D000DEBF0FBECDBFED0108950E9481140C94A0
:1028E000FC130E94F51358F00E94EE1340F029F4F7
:1028F0005F3F29F00C94E51351110C9430140C94A3
:10290000EB130E940D1468F39923B1F3552391F34F
:10291000951B550BBB27AA2762177307840738F04E
:102920009F5F5F4F220F331F441FAA1FA9F335D0AB
:102930000E2E3AF0E0E832D091505040E695001C5F
:10294000CAF72BD0FE2F29D0660F771F881FBB1F19
:10295000261737074807AB07B0E809F0BB0B802DF7
:10296000BF01FF2793585F4F3AF09E3F510578F023
:102970000C94E5130C9430145F3FE4F3983ED4F3C9
:10298000869577956795B795F7959F5FC9F7880FF7
:10299000911D9695879597F90895E1E0660F771F49
:1029A000881FBB1F621773078407BA0720F0621BDA
:1029B000730B840BBA0BEE1F88F7E09508950E9405
:1029C000E6146894B1110C94301408950E94151403
:1029D00088F09F5798F0B92F9927B751B0F0E1F0E0
:1029E000660F771F881F991F1AF0BA95C9F714C090
:1029F000B13091F00E942F14B1E008950C942F147F
:102A0000672F782F8827B85F39F0B93FCCF38695C8
:102A100077956795B395D9F73EF490958095709525
:102A200061957F4F8F4F9F4F0895A1E21A2EAA1BE9
:102A3000BB1BFD010DC0AA1FBB1FEE1FFF1FA2176E
:102A4000B307E407F50720F0A21BB30BE40BF50B6B
:102A5000661F771F881F991F1A9469F760957095F4
:102A6000809590959B01AC01BD01CF010895EE0FBB
:102A7000FF1F0590F491E02D09940F931F93CF93BE
:102A8000DF938230910510F482E090E0E09125031D
:102A9000F091260330E020E0B0E0A0E0309799F418
:102AA0002115310509F44AC0281B390B24303105A2
:102AB000D8F58A819B816115710589F1FB019383AA
:102AC0008283FE0111C04081518102811381481728
:102AD0005907E0F04817590799F4109761F01296DA
:102AE0000C93129713961C933296CF01DF91CF91DE
:102AF0001F910F9108950093250310932603F4CF9F
:102B00002115310551F04217530738F0A901DB01B7
:102B10009A01BD01DF01F801C1CFEF01F9CF909318
:102B2000260380932503CDCFFE01E20FF31F81938F
:102B300091932250310939832883D7CF20912303E1
:102B400030912403232B41F420910E0130910F0189
:102B5000309324032093230320910C0130910D0125
:102B60002115310541F42DB73EB740911001509128
:102B70001101241B350BE0912303F0912403E2178C
:102B8000F307A0F42E1B3F0B2817390778F0AC0190
:102B90004E5F5F4F2417350748F04E0F5F1F50936D
:102BA000240340932303819391939FCFF0E0E0E0CF
:102BB0009CCFCF93DF930097E9F0FC01329713820B
:102BC0001282A0912503B0912603ED0130E020E0B0
:102BD0001097A1F420813181820F931F209123034C
:102BE000309124032817390709F061C0F0932403BA
:102BF000E0932303DF91CF910895EA01CE17DF0719
:102C0000E8F54A815B819E0141155105B1F7E90163
:102C1000FB83EA8349915991C40FD51FEC17FD0737
:102C200061F4808191810296840F951FE901998357
:102C30008883828193819B838A83F0E0E0E012960F
:102C40008D919C9113970097B9F52D913C91119717
:102C5000CD010296820F931F20912303309124030C
:102C60002817390739F6309751F51092260310923C
:102C70002503B0932403A0932303BCCFD383C28343
:102C800040815181840F951FC817D90761F44E5FA9
:102C90005F4F88819981480F591F518340838A81F2
:102CA0009B81938382832115310509F0B0CFF09386
:102CB0002603E09325039ECFFD01DC01C0CF1382E4
:102CC0001282D7CFB0E0A0E0E8E6F6E10C94381429
:102CD0008C01009751F4CB010E943D158C01C80175
:102CE000CDB7DEB7E0E10C945414FC01E60FF71FFA
:102CF0009C0122503109E217F30708F49DC0D90165
:102D0000CD91DC911197C617D70798F0C530D10542
:102D100030F3CE0104978617970708F3C61BD70B2D
:102D20002297C193D1936D937C93CF010E94D915C3
:102D3000D6CF5B01AC1ABD0A4C018C0E9D1EA09132
:102D40002503B0912603512C412CF12CE12C109736
:102D500031F580912303909124038815990509F09A
:102D60005CC04616570608F058C080910C0190913F
:102D70000D01009741F48DB79EB74091100150911D
:102D80001101841B950BE817F90708F055C0F09363
:102D90002403E0932303F90171836083A0CF8D9115
:102DA0009C91119712966C90129713967C901397A2
:102DB000A815B90559F56C0142E0C40ED11CCA141E
:102DC000DB0420F1AC014A195B09DA011296159770
:102DD00080F06282738251834083D9016D937C932A
:102DE000E114F10471F0D7011396FC93EE9312975E
:102DF00076CF22968C0F9D1FF90191838083F3017A
:102E0000EFCFF0932603E093250369CF48165906C8
:102E100008F42C017D01D3019ACFCB010E943D150E
:102E20007C01009749F0AE01B8010E941F17C8014C
:102E30000E94D915870153CF10E000E050CFFB016D
:102E4000DC0102C001900D9241505040D8F7089526
:102E5000FB01DC0101900D920020E1F70895AEE046
:102E6000B0E0E5E3F7E10C9444140D891E8986E097
:102E70008C831A8309838FEF9FE79E838D83AE0136
:102E8000475E5F4F6F89788DCE0101960E94521781
:102E90002F813885020F131FF80110822E96E4E06F
:102EA0000C946014ABE0B0E0E8E5F7E10C94361464
:102EB0007C013B018A01FC0117821682838181FF1C
:102EC000C8C1CE0101965C01F7019381F30193FD26
:102ED000859193FF81913F01882309F453C1853285
:102EE00039F493FD859193FF81913F01853229F457
:102EF000B70190E00E944219E7CF912C212C312C90
:102F0000FFE1F31538F08B3211F190F4803209F1C2
:102F1000833229F137FC3CC020ED280F2A3050F5D0
:102F200036FE20C08AE0989E200D1124922E06C005
:102F30008D3291F0803371F7689430F8F30193FD8E
:102F4000859193FF81913F018111DACF21C068946F
:102F500031F8689432F8F2CF689433F8EFCF689480
:102F600034F8ECCFEAE02E9E200D1124222E689436
:102F700035F8E4CF8E3229F436FC04C1689436F873
:102F8000DDCF8C3619F4689437F8D8CF8836B1F293
:102F9000982F9F7D95549330E0F08336A1F18337CD
:102FA000C1F1833509F063C02801F2E04F0E511CD6
:102FB000F801C080D180692D70E036FC02C06FEF4F
:102FC0007FEFC6010E942C194C01689437F88201EA
:102FD0000AC00C5F1F4FFFE3F98388248394912C70
:102FE0006501E89437F833FE2DC0522C811491040A
:102FF00071F5552009F468CFB70180E290E00E9496
:1030000042195A94F6CFF801808189830E5F1F4FD1
:10301000E4CF2801F2E04F0E511CF801C080D180AE
:10302000692D70E036FC02C06FEF7FEFC6010E9491
:1030300037194C018201D5CFB70180E290E00E94A0
:1030400042192A942814190409F0B0F7CECFF601DA
:1030500037FC859137FE81916F01B70190E00E94A6
:10306000421951105A94F1E08F1A9108BFCF84365B
:1030700019F0893609F077C0F80137FE6BC060811E
:103080007181828193810C5F1F4FF32DFF763F2E5C
:1030900097FF09C090958095709561957F4F8F4FF0
:1030A0009F4F689437F82AE030E0A5010E9472191A
:1030B000C82ECA188C2C432C36FE0CC0E89440F85D
:1030C000C91440F434FE05C032FC03C0F32DFE7E6B
:1030D0004F2E892C44FE95C0FE01EC0DF11D808120
:1030E000803309F087C0242D297E422E842D8870DC
:1030F000582E43FC95C040FE8FC09C2C821418F4BF
:103100002C0C922C981844FE91C0B70180E390E0FB
:103110000E94421942FE09C088E790E041FE02C0C9
:1031200088E590E0B7010E944219C91408F48AC0EA
:10313000CA94D12C9FEFC91AD90ACA0CDB1CF6011C
:1031400082916F01B70190E00E944219AC14BD0456
:10315000B1F74FCF60817181072E000C880B990B5E
:103160000E5F1F4F92CFD32CE894D4F82AE030E0C2
:10317000853739F1232D297FD22E8F3601F148F47E
:103180008835A9F0F701868197812B96E2E10C94AE
:103190005214803749F08837A9F7D4FE02C06894EA
:1031A000D2F820E130E00DC06894D4F8F6CF34FEB8
:1031B00003C0822F8660D82E20E132E002C028E0D2
:1031C00030E0F801D7FE0FC0608171818281938168
:1031D0000C5F1F4FA5010E947219C82ECA183D2C02
:1031E000E89437F867CF6081718190E080E00E5FEE
:1031F0001F4FF0CF42FC02C0839478CF8394839416
:1032000075CF842D867809F471CFF6CFB70180E2AF
:1032100090E00E94421983948214C0F3512C73CF22
:10322000522C5818821408F46ECFF8CF842D86786B
:1032300009F47BCF8BE241FE80E247FC8DE2B701CF
:1032400090E071CFB70180E390E00E9442199A9418
:103250006CCF8FEF9FEF99CFFC01059061507040CC
:103260000110D8F7809590958E0F9F1F0895FC014F
:103270006150704001900110D8F7809590958E0FA5
:103280009F1F08950F931F93CF93DF93182F092F3C
:10329000EB018B8181FD09C01FEF0FEF812F902F74
:1032A000DF91CF911F910F91089582FF14C02E815D
:1032B0003F818C819D81281739073CF4E881F98191
:1032C000CF0101969983888310838E819F81019617
:1032D0009F838E83E3CFE885F985812F0995892B1C
:1032E000A1F3DACFFA01AA27283051F1203181F178
:1032F000E8946F936E7F6E5F7F4F8F4F9F4FAF4FFE
:10330000B1E03ED0B4E03CD0670F781F891F9A1F10
:10331000A11D680F791F8A1F911DA11D6A0F711DC4
:10332000811D911DA11D20D009F468943F912AE0D0
:10333000269F11243019305D3193DEF6CF010895B8
:10334000462F4770405D4193B3E00FD0C9F7F6CFE9
:10335000462F4F70405D4A3318F0495D31FD4052B1
:10336000419302D0A9F7EACFB4E0A6959795879547
:1033700077956795BA95C9F7009761057105089526
:103380009B01AC010A2E06945795479537952795D2
:10339000BA95C9F7620F731F841F951FA01D08956A
:1033A00011E0C7E4D1E004C0FE010E943715219668
:0A33B000C834D107C9F7F894FFCF25
:1033BA00FFFFFFFF00E100000000000000002703FC
:1033CA008000585858585858583130301200130055
:1033DA00140015001600170006000700080009006F
:1033EA000A000B0000C1808100000000000000C13B
:1033FA00018D04E201D7012802E60104020000005F
:10340A0000CA032B0358031604890367037B0300CE
:10341A0000000013082B03380812059E07BB07A8F3
:10342A00070000000094084400FE002530326400C2
:10343A0043480064617465002B25483A254D3A25B6
:0A344A00530075706461746564003E
:00000001FF
