:100000000C9459010C9481010C9481010C94810190
:100010000C9481010C9481010C9481010C94810158
:100020000C9481010C9481010C940C0A0C947B0AB1
:100030000C9481010C9481010C9481010C94810138
:100040000C9481010C9481010C9481010C94810128
:100050000C9481010C9481010C9481010C94050D88
:100060000C9481010C94D30C0C94AD0C0C94810174
:100070000C9481010C9481010C9481010C948101F8
:100080000C9481010C9481010C9481010C948101E8
:100090000C9481010C9481010C9481010C948101D8
:1000A0000C9481010C9481010C94810100407A1020
:1000B000F35A00A0724E18090010A5D4E80000E819
:1000C0007648170000E40B54020000CA9A3B000077
:1000D00000E1F505000080969800000040420F0006
:1000E0000000A08601000000102700000000E803C7
:1000F000000000006400000000000A000000000092
:100100000100000000002C76D888DC674F0823DF50
:10011000C1DFAE59E1B1B796E5E3E453C63AE65123
:10012000997696E8E6C28426EB898C9B62ED407C4A
:100130006FFCEFBC9C9F40F2BAA56FA5F490055AE6
:100140002AF75C936B6CF9676DC11BFCE0E40D470B
:10015000FEF520E6B500D0ED902E0300943577052E
:100160000080841E080000204E0A000000C80C33E6
:100170003333330F986E12831141EF8D2114893B75
:10018000E65516CFFEE6DB18D1844B381BF77C1DF5
:10019000901DA4BBE424203284725E228100C9F148
:1001A00024ECA1E53D2700000000240027002A00E0
:1001B0002D00300000000000250028002B002E003C
:1001C00031000000000200090F0000030401000CD0
:1001D000000000000000000000000000000000001F
:1001E0000072756E2D6272696467650A000A000A02
:1001F00000080B00020202000009040000010202D4
:100200000000052400100105240101010424020658
:1002100005240600010705810310004009040100C0
:10022000020A0000000705020240000007058302E1
:100230004000000403090412010002EF02014041E2
:1002400023418000010102030141726475696E6FF0
:10025000204C4C430041726475696E6F2059756E75
:1002600000000000002300260029002C002F0004BD
:10027000040404040304050202020204030202024D
:100280000206060606060604040202020404040826
:10029000020110408040102040804080080204018C
:1002A00080402010020110801020404020004F0D9F
:1002B0005D1211241FBECFEFDAE0DEBFCDBF23E019
:1002C000A2E8B1E001C01D92A031B207E1F711E050
:1002D000A0E0B1E0ECEEFFE202C005900D92A23882
:1002E000B107D9F711E0C8E5D1E004C02197FE01BC
:1002F0000E94F115C735D107C9F70E94CF0D0C94A4
:10030000E9170C9400008F929F92AF92BF92CF9208
:10031000DF92EF92FF92CF93DF93A091A70230E09C
:1003200081113A2F8091A80290E0880F991FAC01AB
:100330004F595D4FC090A902D090AA02E090AB0245
:10034000F090AC0260E070E0CB01FA01C591D4916D
:1003500028812A2323130FC04B015C012FEF821A3F
:10036000920AA20AB20A6C157D058E059F0570F0EF
:1003700060E070E0CB01DF91CF91FF90EF90DF90D4
:10038000CF90BF90AF909F908F900895C501B4011A
:10039000DCCFFC018091AC01882311F13FB7F894C8
:1003A00082E08093E9002091F200822F90E01816FD
:1003B000190614F481E090E0882339F0289844E687
:1003C0004093AB014091F1004083222339F020910A
:1003D000F200211103C02BE62093E8003FBF0895EF
:1003E0008FEF9FEF08952FB7F89483E08093E90093
:1003F0009091E800892F807295FF04C09091F200DF
:1004000080E4891B2FBF08958091A30181110DC045
:1004100082E080939F0184E08093A0011092A2016A
:100420001092A10181E08093A3018FE991E00895EA
:10043000CF93DF931F92CDB7DEB76983DC01ED91D7
:10044000FC910280F381E02D41E050E0BE016F5F3E
:100450007F4F09950F90DF91CF91089583E08093AE
:10046000E9008091F200882319F08AE38093E80084
:1004700008950E94F30190E00895CF93DF931F92B7
:10048000CDB7DEB7FC018485958597FD08C02FEFB9
:100490003FEF358724870F90DF91CF910895CE01EC
:1004A00001960E94C901019719F4898190E0F3CF68
:1004B0008FEF9FEFF0CF0F931F93CF93DF931F9298
:1004C000CDB7DEB78C01FC018485958597FF0BC005
:1004D000CE0101960E94C901019771F4898190E0D3
:1004E000F80195878487F801848595850F90DF91C1
:1004F000CF911F910F9108958FEF9FEFF1CFFC01E6
:100500008485958597FD0BC09FB7F89482E0809312
:10051000E9008091F2009FBF90E0019608959FB797
:10052000F89482E08093E9008091F2009FBF90E010
:1005300008954091990150919A012091970130912D
:10054000980142175307B4F49091E8009570E1F3D5
:100550009091E80092FD19C08093F100809199017B
:1005600090919A0101968F739927892B19F48EEF38
:100570008093E8008091990190919A01019690935F
:100580009A018093990181E0089580E00895EF92A7
:10059000FF920F931F93CF93DF93F82E192FE62E20
:1005A000042F81E0860F880F0E94990283E00E9449
:1005B0009902CF2DD12FEC0EFD2EF11CCE15DF05AB
:1005C000B9F007FF13C0FE0184910E949902182F11
:1005D00080E00E949902812321968111EFCFDF9163
:1005E000CF911F910F91FF90EF9008958881EDCFEB
:1005F00081E0F5CFDF92EF92FF920F931F93CF939D
:10060000DF93D82E8A01EB017B01E40EF51ECE1597
:10061000DF0559F0D7FE12C0FE0184910E949902B5
:1006200021968111F4CF0FEF1FEFC801DF91CF9119
:100630001F910F91FF90EF90DF9008958881EECF8A
:100640000F931F93CF93DF931F92CDB7DEB782E056
:10065000898342E450E061EF71E080E80E94FA0291
:100660000E940402DC0112960D911C9101151105E6
:1006700089F0D801ED91FC910280F381E02DBE015B
:100680006F5F7F4FC801099597FD04C0F801008591
:100690001185ECCF89810F90DF91CF911F910F9140
:1006A0000895615030F02091F100FC012083019603
:1006B000F8CF289884E68093AB010895EF92FF92DB
:1006C0000F931F93CF93DF938C017B01D0E0C0E0A9
:1006D000F701EC0FFD1F6491662361F0D801ED91E5
:1006E000FC910190F081E02DC8010995892B11F052
:1006F0002196EECFCE01DF91CF911F910F91FF9008
:10070000EF900895AF92BF92CF92DF92EF92FF9257
:100710000F931F93CF93DF936C017B018B01040F29
:10072000151FEB015E01AE18BF08C017D10759F0C5
:100730006991D601ED91FC910190F081E02DC60107
:100740000995892B79F7C501DF91CF911F910F9101
:10075000FF90EF90DF90CF90BF90AF900895FC0195
:10076000538D448D252F30E0842F90E0821B930B16
:10077000541710F0CF96089501970895FC01918DBC
:10078000828D981761F0A28DAE0FBF2FB11D5D96BF
:100790008C91928D9F5F9F73928F90E008958FEF61
:1007A0009FEF0895FC01918D828D981731F0828D15
:1007B000E80FF11D858D90E008958FEF9FEF08956C
:1007C000FC01918D228D892F90E0805C9F4F821BD0
:1007D00091098F73992708958DEF91E00E94E003AE
:1007E00021E0892B09F420E0822F089580E090E039
:1007F000892B29F00E94EC0381110C9400000895CC
:10080000FC01A48DA80FB92FB11DA35ABF4F2C9185
:10081000848D90E001968F739927848FA689B7897C
:100820002C93A089B1898C9182748C93938D848D43
:10083000981306C00288F389E02D80818F7D808324
:100840000895EF92FF920F931F93CF93DF93EC01E4
:1008500081E0888F9B8D8C8D981319C0E889F98968
:10086000808185FF14C09FB7F894EE89FF8960836B
:10087000E889F9898081827480839FBF81E090E05C
:10088000DF91CF911F910F91FF90EF900895F62E79
:100890000B8D10E00F5F1F4F0F731127E02E8C8D13
:1008A0008E110CC00FB607FCFACFE889F989808158
:1008B00085FFF5CFCE010E940004F1CFEB8DEC0F48
:1008C000FD2FF11DE35AFF4FF0829FB7F8940B8F75
:1008D000EA89FB8980818062CFCFCF93DF93EC01DF
:1008E000888D8823B9F0AA89BB89E889F9898C9118
:1008F00085FD03C0808186FD0DC00FB607FCF7CFD4
:100900008C9185FFF2CF808185FFEDCFCE010E94D3
:100910000004E9CFDF91CF910895282F30E0F9014D
:10092000EE53FE4F9491F901E257FD4F8491215906
:100930003D4FF9012491222309F430C09923E9F0B5
:1009400091509F30D0F4E92FF0E0E755FB4F0C9425
:10095000F115D704DB04B804CF04D304BD04BD04EF
:10096000BD04DE04E404E804EC04F204BD04F6046F
:10097000909180009F7790938000E22FF0E0EE0F3F
:10098000FF1FEC54FE4FA591B4919FB7F894EC91E2
:10099000611132C080958E238C939FBF08959091F2
:1009A00080009F7DE8CF90918000977FE4CF94B541
:1009B0009F7794BDE2CF94B59F7DFBCF909190003F
:1009C0009F7790939000D9CF909190009F7DF9CF21
:1009D00090919000977FF5CF9091C0009F77909372
:1009E000C000CBCF9091C0009F7DF9CF9091C20005
:1009F000977F9093C200C1CF8E2BCECFCF93DF9342
:100A000090E0FC01E257FD4F249181599D4FFC017C
:100A100084918823D1F090E0880F991FFC01EA555A
:100A2000FE4FA591B491FC01EC54FE4FC591D491B9
:100A300061110EC09FB7F8948C91E22FE0958E2340
:100A40008C932881E223E8839FBFDF91CF910895A3
:100A50008FB7F894EC91E22BEC938FBFF6CF3FB7B2
:100A6000F8948091870190918801A0918901B091BB
:100A70008A0126B5A89B05C02F3F19F00196A11D3C
:100A8000B11D3FBFBA2FA92F982F8827BC01CD01D8
:100A9000620F711D811D911D42E0660F771F881F37
:100AA000991F4A95D1F708958F929F92AF92BF9266
:100AB000CF92DF92EF92FF924B015C010E942F05D3
:100AC0006B017C010E942F056C197D098E099F091D
:100AD000683E734081059105A8F321E0821A9108D0
:100AE000A108B10888EEC80E83E0D81EE11CF11CF5
:100AF00081149104A104B10429F7FF90EF90DF90D5
:100B0000CF90BF90AF909F908F9008958F929F92BB
:100B1000AF92BF92CF92DF92EF92FF920F931F930B
:100B2000CF93DF936C017B018A0180910B018823B5
:100B300009F45CC08091AC01882309F457C080910E
:100B40009E0180FF05C08091E00082608093E000FC
:100B5000E801B12C8AEFA82E93E0892E2AE3922E89
:100B6000209711F4BB20D9F10E94F30181110AC032
:100B7000AA94AA20D9F161E070E080E090E00E94A0
:100B80005405EECF8C171D0611F00CF08C2F9FB77B
:100B9000F8948092E9002091E80025FD02C09FBFF3
:100BA000DFCF282F30E0C21BD30BF701815020F09C
:100BB00041914093F100FACFE20EF31EBB2021F0E9
:100BC0009092E800B12CEBCF8091E80085FDE7CF53
:100BD0009092E800BB24B394209709F3F3CF5D987B
:100BE00084E680939D01101611063CF081E090E0B0
:100BF000F6019383828310E000E0C801DF91CF917A
:100C00001F910F91FF90EF90DF90CF90BF90AF902A
:100C10009F908F9008952FB7F89460918301709101
:100C2000840180918501909186012FBF08950895D8
:100C3000CF93DF93EC018D819E81DC01ED91FC91DE
:100C40000084F185E02D09951816190654F48D815C
:100C50009E81DC01ED91FC910284F385E02D0995E4
:100C6000EACFDF91CF9108958F929F92AF92BF927A
:100C7000CF92DF92EF92FF92CF93DF93EC016B0163
:100C80000E940B064B015C01F12CE12C8D819E81B1
:100C9000DC01ED91FC910284F385E02D099597FF2D
:100CA0000DC00E940B06681979098A099B096C1509
:100CB0007D058E059F0550F38FEF9FEFDF91CF915C
:100CC000FF90EF90DF90CF90BF90AF909F908F906C
:100CD0000895FC01238134812627022E2295207F4E
:100CE0002025032E322F22952F700226269532279B
:100CF0002327220F220F220F2025348323830895D8
:100D00002F923F924F925F926F927F928F929F921B
:100D1000AF92BF92CF92DF92EF92FF920F931F9309
:100D2000CF93DF93CDB7DEB72A970FB6F894DEBF27
:100D30000FBECDBF9A8789875B01290137011A0150
:100D4000200E311E3A82198288248A94982C9A01A6
:100D5000260F371F3E832D83C801840D951D98876C
:100D60008F83A985BA8518968C91B981B81708F038
:100D700040C1E985FA859482838285819681DC0170
:100D8000ED91FC910190F081E02D6FEF09956FEFEF
:100D900089859A850E946906E985FA85858196810B
:100DA000DC01ED91FC910190F081E02DA985BA85DF
:100DB0006C910995E985FA856081CF010E946906E9
:100DC000A985BA8515968D919C91DC01ED91FC91D8
:100DD0000190F081E02D6A8109956A8189859A8563
:100DE0000E946906E985FA8585819681DC01ED918D
:100DF000FC910190F081E02D622D0995622D89858D
:100E00009A850E9469068501E985FA858581968122
:100E1000DC01ED91FC910190F081E02D2D813E816E
:100E200020173107E1F48201E985FA8585819681F1
:100E3000DC01ED91FC910190F081E02D2F8138854E
:100E400020173107C1F0D8016D918D010995F80186
:100E50003197608189859A850E946906E5CFD8011E
:100E60006D918D010995F8013197608189859A8589
:100E70000E946906C9CFA985BA8514966C91099517
:100E8000E985FA8585819681DC01ED91FC910190DF
:100E9000F081E02DA985BA8513966C91099568ECCF
:100EA00070E089859A850E9434068F3F910509F08C
:100EB00092C0E985FA85948283826FEFCF010E9408
:100EC000690665E070E089859A850E943406A985E7
:100ED000BA856C916817190609F07DC0CD010E9492
:100EE00069066AE070E089859A850E9434067C0173
:100EF00097FD71C0682F89859A850E9469066AE00E
:100F000070E089859A850E9434068C0197FD63C044
:100F1000682F89859A850E946906EC821B82EB8185
:100F2000FC810E0F1F1FF12CE12C65E070E089851C
:100F30009A850E151F05A1F0EC14FD0489F00E949E
:100F4000340697FD09C0F301EE0DFF1D8083682F65
:100F500089859A850E946906FFEFEF1AFF0AE5CF9F
:100F60000E9434067C0197FD36C065E070E08985FB
:100F70009A850E94340697FD2EC0FE2CEE248E0D1D
:100F80009F1DA985BA8513962D913C9114978217C0
:100F9000930709F58C918F5F8C93C801C016D10619
:100FA00008F4C6012A960FB6F894DEBF0FBECDBF77
:100FB000DF91CF911F910F91FF90EF90DF90CF9035
:100FC000BF90AF909F908F907F906F905F904F9069
:100FD0003F902F900895B981BF5FB98364E670E0B8
:100FE00080E090E00E94540589859A850E94180649
:100FF000B8CE8FEF9FEFD6CFCF92DF92EF92FF92D6
:101000000F931F936801790110E000E030E020E0C9
:101010000E9480061F910F91FF90EF90DF90CF907C
:1010200008950F931F93CF93DF9300D0CDB7DEB712
:101030008091C9028823A1F087E789838091C60245
:101040008A8310E000E030E020E042E050E0BE01A2
:101050006F5F7F4F8091C4029091C5020E94FC0790
:101060001092C9020F900F90DF91CF911F910F91B5
:1010700008950F931F93CF93DF9300D01F92CDB7A6
:10108000DEB782E789838091C6028A8301E010E09F
:101090009E012D5F3F4F42E050E0BE016F5F7F4FEA
:1010A0008091C4029091C5020E94FC0781E09B815F
:1010B000913009F080E00F900F900F90DF91CF9169
:1010C0001F910F910895EF92FF920F931F93CF936B
:1010D000DF9300D01F92CDB7DEB7FC01228921112A
:1010E00018C07C01138A8FE4898380E48B83868512
:1010F0008A839F012C5E3F4F00E410E043E050E004
:10110000BE016F5F7F4F848595850E94FC07F701C4
:10111000828B0F900F900F90DF91CF911F910F91C5
:10112000FF90EF900895CF93DF93EC010E94630846
:101130008A8990E0DF91CF910895CF93DF93EC01FE
:101140000E9463088A89882341F08B89C80FD11DCA
:101150008C8990E0DF91CF9108958FEF9FEFFACFC8
:10116000CF93DF93EC010E9463088A89882369F09A
:1011700081508A8B8B8991E0980F9B8BC80FD11D72
:101180008C8990E0DF91CF9108958FEF9FEFFACF98
:101190000F931F930E940B066093C0027093C102CD
:1011A0008093C2029093C30288EB92E00E94B00841
:1011B00097FF1DC00E940B060091C0021091C10252
:1011C0002091C2023091C302601B710B820B930B02
:1011D0000091BC021091BD022091BE023091BF026D
:1011E0006017710782079307F8F28FEF9FEF1F9147
:1011F0000F9108950F931F93CF93DF9300D01F9209
:10120000CDB7DEB729E42983FC0126852A836B83C9
:1012100010E000E030E020E043E050E0BE016F5F0E
:101220007F4F848595850E94FC0781E090E00F90B8
:101230000F900F90DF91CF911F910F91089590E043
:1012400080E00895FC0180819181009711F00C9459
:10125000931608950F931F93CF93DF93EC0188812A
:101260009981009759F02A813B812617370730F082
:1012700081E0DF91CF911F910F9108958B016F5FF6
:101280007F4F0E941C17009759F0998388831B8316
:101290000A832C813D81232B59F7FC011082E8CF72
:1012A00080E0E7CFEF92FF920F931F93CF93DF93EE
:1012B000EC017B01FB0101900020E9F731978F01E0
:1012C000061B170BB8010E942A0928813981811158
:1012D00013C02115310519F0C9010E949316198216
:1012E00018821D821C821B821A82DF91CF911F916E
:1012F0000F91FF90EF9008951D830C83B701C901F2
:10130000DF91CF911F910F91FF90EF900C94E21716
:10131000EF92FF920F931F93CF93DF9361157105A7
:1013200041F480E0DF91CF911F910F91FF90EF90FA
:10133000089541155105B1F07B01EC010C811D812F
:10134000040F151FB8010E942A09882351F3288130
:1013500039818C819D81B701820F931F0E94E21712
:101360001D830C8381E0DECFFB0101900020E9F7B3
:101370003197AF01461B570B0C948809EF92FF92EF
:101380000F931F93CF93DF9300D000D000D01F9214
:10139000CDB7DEB77C018B011A8219821C821B82B9
:1013A0001E821D8269E571E0CE0101960E945209FC
:1013B000E114F10429F0B701CE0101960E94B409AD
:1013C0006BE571E0CE0101960E94B409011511058B
:1013D00029F0B801CE0101960E94B4094D815E81C9
:1013E00069817A8101E010E09E01295F3F4F8DEA1B
:1013F00092E00E94FC07CE0101960E9422092796E6
:101400000FB6F894DEBF0FBECDBFDF91CF911F9115
:101410000F91FF90EF9008951F920F920FB60F92C9
:1014200011248F939F938091E1009091E100937F2D
:101430009093E10083FF0FC01092E90091E0909338
:10144000EB001092EC0092E39093ED001092AC014F
:1014500098E09093F00082FF22C093E09093E9001F
:101460009091F200992319F09AE39093E8009091FB
:101470009D01992341F090919D01915090939D0180
:10148000911101C05D9A9091AB01992341F0909127
:10149000AB0191509093AB01911101C0289A84FF48
:1014A00018C08091E2008E7E81608093E20080917E
:1014B000E1008F7E8093E10080919E018E7E8061AD
:1014C00080939E019F918F910F900FBE0F901F9060
:1014D000189580FFF7CF8091E2008E7E8061809327
:1014E000E2008091E1008E7E8093E10080919E0178
:1014F0008E7E8160E5CF1F920F920FB60F9211245E
:10150000CF92DF92EF92FF920F931F932F933F930F
:101510004F935F936F937F938F939F93AF93BF93FB
:10152000EF93FF93CF93DF93CDB7DEB76C97DEBF1A
:10153000CDBF1092E9008091E80083FF25C068E0EC
:10154000CE0145960E94510382EF8093E8008D8979
:1015500087FF39C09091E80090FFFCCF982F9076DC
:1015600009F034C19E894F89588D2F89F88C9111CB
:1015700031C0803861F580919C018093F100109218
:10158000F1008EEF8093E8006C960FB6F894DEBF02
:101590000FBECDBFDF91CF91FF91EF91BF91AF9182
:1015A0009F918F917F916F915F914F913F912F917B
:1015B0001F910F91FF90EF90DF90CF900F900FBE93
:1015C0000F901F9018959EEF9093E800C7CF109250
:1015D000F100D5CF913059F48111D3CF413051056D
:1015E00081F680919C018D7F80939C01CACF9330BE
:1015F00049F48111C6CF4130510519F680919C0103
:101600008260F2CF953041F48091E80080FFFCCFFA
:1016100020682093E300B5CF963009F0A9C00B8D68
:101620001C8D22E01092E90010929A01109299010B
:10163000F2122EC010929801109297010E9420037E
:101640001F8299E09983FA8291E09E8390EA9887BD
:101650009AEF99872091990130919A01275F3F4F26
:101660003C832B838D831092E90010929A01109293
:101670009901109398010093970149E050E0BE0151
:101680006F5F7F4F80E00E94FA020E94200379CFB3
:1016900010939801009397010E940402DC011296B6
:1016A0000D911C910115110509F451C1D801ED915D
:1016B000FC910480F581E02DBE016B5E7F4FC80177
:1016C0000995009709F03EC1F80100851185EACF20
:1016D000F3E0FF120EC08F89882309F440C08230E6
:1016E00061F440E86BE085E592E00E94C702811159
:1016F00048CF81E28093EB0047CF813029F440E866
:101700006BE089E492E0F1CF833099F70E94040204
:10171000DC011296ED90FC908E010F5F1F4F680167
:10172000E114F10479F0D701ED91FC910680F78185
:10173000E02DB801C7010995080F111DF701E084DC
:10174000F184EECFD8011C92F60101900020E9F758
:101750003197BF016C197D0940E0C601C6CF63E334
:1017600072E0FB01449150E080E80E94FA0209CF48
:10177000973009F4BECF983021F481E08093F100D6
:1017800000CF993009F0FDCE837009F0B2CFEDE1C2
:10179000F1E081E031E096E32191222371F0809322
:1017A000E9003093EB00DF0111972C912093EC00BE
:1017B0009093ED008F5F873079F78EE78093EA0092
:1017C0001092EA008F898093AC01DBCE8B8D9C8DCB
:1017D0001092E90010929A01109299019093980149
:1017E00080939701898D811192C08E899D89913A4C
:1017F00049F4813209F07DCF47E050E064E071E0C8
:1018000080E0B3CF913209F074CF833269F48F89CD
:10181000988DB0E0A0E08093000190930101A09327
:101820000201B0930301ADCE803269F48091E800EB
:1018300082FFFCCF67E084E091E00E9451038BEFD0
:101840008093E8009ECE823209F09BCE8F898093F0
:101850000B01EEEFFFE7859194918B3F9C4D51F189
:10186000E0E0F8E08091040190910501A09106016B
:10187000B0910701803B9440A105B105F1F480913E
:101880000B0180FD1AC0EE3F8AE0F80789F587E773
:1018900097E7918380838091600080939B0188E12A
:1018A0009BE00FB6F894A895809360000FBE9093CC
:1018B000600067CEEEEFFAE0D5CF80819181873767
:1018C000974709F05ECEA89580916000886180936B
:1018D000600080919B0180936000EE3F2AE0F20758
:1018E00089F08091FE0A9091FF0A9183808349CE0E
:1018F000808191818737980751F29093FF0A8093F6
:10190000FE0AC5CF1092FF0A1092FE0A3ACE0E943C
:101910000402DC0112960D911C910115110509F4C8
:10192000E8CED801ED91FC910190F081E02DBE014F
:101930006B5E7F4FC8010995811123CEF8010085A8
:101940001185EBCF181619060CF41BCED2CEF1E0A0
:10195000FF12BECE67E372E004CF1F920F920FB664
:101960000F9211242F933F934F935F936F937F9325
:101970008F939F93AF93BF93EF93FF938DEF91E07E
:101980000E940004FF91EF91BF91AF919F918F91C1
:101990007F916F915F914F913F912F910F900FBE6B
:1019A0000F901F9018951F920F920FB60F9211244F
:1019B0002F938F939F93EF93FF93E0910D02F091FC
:1019C0000E028081E0911302F091140282FD1BC08F
:1019D0009081809116028F5F8F732091170282177A
:1019E00041F0E0911602F0E0E350FE4F958F8093B6
:1019F0001602FF91EF919F918F912F910F900FBE43
:101A00000F901F9018958081F4CF1F920F920FB600
:101A10000F9211242F933F938F939F93AF93BF9374
:101A20008091830190918401A0918501B0918601FC
:101A30003091820123E0230F2D3758F50196A11D27
:101A4000B11D209382018093830190938401A09320
:101A50008501B09386018091870190918801A091C2
:101A60008901B0918A010196A11DB11D8093870162
:101A700090938801A0938901B0938A01BF91AF919F
:101A80009F918F913F912F910F900FBE0F901F90BC
:101A9000189526E8230F0296A11DB11DD2CFCF9332
:101AA000DF93EDEAF1E01382128248EE53E060E04A
:101AB00070E0448355836683778387E291E0918366
:101AC00080838FEF9FEF95878487EDEFF1E013829E
:101AD0001282448355836683778389E391E09183FF
:101AE00080838DEC90E0958784878CEC90E09787DD
:101AF000868788EC90E0918B808B89EC90E0938BCB
:101B0000828B8AEC90E0958B848B8EEC90E0978BA7
:101B1000868B118E128E138E148EADEAB2E01C925B
:101B20001696FC93EE93159717961C921797189696
:101B30001C9218971A96FC93EE931997E8EBF2E033
:101B40001382128244835583668377838BE491E00A
:101B500091838083B587A487118A128A138ACAE980
:101B6000D2E082E08B871C86E0E9F2E0E491ED8729
:101B7000E1E7F2E0E491EE8780E89EE3A0E0B0E0E8
:101B80008F87988BA98BBA8B188260E082E00E94C5
:101B9000FE0461E08B85DF91CF910C948D04CF938F
:101BA000DF93CDB7DEB7CC54D1400FB6F894DEBF8B
:101BB0000FBECDBF789484B5826084BD84B581604A
:101BC00084BD85B5826085BD85B5816085BD809108
:101BD0006E00816080936E00109281008091810080
:101BE0008260809381008091810081608093810078
:101BF000809180008160809380008091910082605C
:101C000080939100809191008160809391008091F8
:101C100090008160809390008091C10084608093E7
:101C2000C1008091C10082608093C1008091C10099
:101C300081608093C1008091C30081608093C30064
:101C40008091C00082608093C0008091C20081605A
:101C50008093C20080917A00846080937A008091A2
:101C60007A00826080937A0080917A00816080930C
:101C70007A0080917A00806880937A001092AC019B
:101C800010929C0110929E018091D70081608093F8
:101C9000D70080EA8093D80089B5806189BD89B575
:101CA000826089BD09B400FEFDCF61E070E080E094
:101CB00090E00E9454058091D8008F7C80618093D1
:101CC000D8008091E000807F8093E0008091E10067
:101CD0008E7E8093E1008DE08093E200559A209AF9
:101CE000E091B602F091B702A089B18982E08C93AD
:101CF000A485B5851C92A685B78587E08C93108E48
:101D0000A489B58986E08C93A289B3898C9180617E
:101D10008C93A289B3898C9188608C93A289B389B2
:101D20008C9180688C930288F389E02D80818F7D6F
:101D300080838091B4028111CEC081E08093B4028F
:101D40008DEA92E00E94180668EE73E080E090E071
:101D50000E9454058091B2029091B302DC01ED9192
:101D6000FC910084F185E02D09951816190644F3BD
:101D7000FF24F39402E3E02E85E0E2E1F1E0DE01EE
:101D8000AF5BBE4F01900D928A95E1F7F092B502DC
:101D900010E000E030E020E045E050E0BE016F5B85
:101DA0007E4F8DEA92E00E94FC078091B2029091F2
:101DB000B302DC01ED91FC910190F081E02D63E034
:101DC00009956AEF70E080E090E00E9454056FEEA4
:101DD00071E08091B2029091B3020E945E036AEFBB
:101DE00070E080E090E00E9454056DEE71E080911B
:101DF000B2029091B3020E945E0364EF71E080E052
:101E000090E00E94540561EE71E08091B2029091E1
:101E1000B3020E945E0364EF71E080E090E00E94F4
:101E200054058DEA92E00E94180685E0E7E1F1E0B2
:101E3000DE01119601900D928A95E1F7E092B502CC
:101E400004E010E09E01295B3E4F45E050E0BE01FA
:101E50006F5F7F4F8DEA92E00E94FC078F3F9807EB
:101E600039F468EE73E080E090E00E94540584CF7E
:101E7000C95BDE4F2881C754D1402111FFCF0497A1
:101E800009F007C1C85BDE4F2881C854D1402053F8
:101E9000330B44E6429FC001439F900D1124C75B62
:101EA000DE4F2881C954D140EAE02E9F800D911D5C
:101EB0001124805E9140C65BDE4F2881CA54D14018
:101EC0002053330B820F931F9093AF028093AE0287
:101ED00082E38093B5025E01FFEBAF1AFEEFBF0A0B
:101EE00099249394B2E53B2E17E5812E80918F01C2
:101EF00081110CC00E940B0660938B0170938C01C2
:101F000080938D0190938E0190928F010E940B0619
:101F100000918B0110918C0120918D0130918E01E7
:101F2000601B710B820B930B693B7B408105910514
:101F300068F080919A02823009F4EBC008F0ACC0DE
:101F4000882309F4C6C0813009F4C6C00E9439084C
:101F5000811160C21A8219821C821B821E821D821C
:101F600061E671E0CE0101960E9452090E941108BB
:101F700086E090E00E94F7158C01FC01118210822E
:101F80001382128215821482E980FA80E114F1042E
:101F9000C1F0CD80DE80B6010E942A09D8012D91C2
:101FA0003C911197811119C22115310519F0C90110
:101FB0000E949316F80111821082158214821382F6
:101FC00012821093C8020093C702CE0101960E94AC
:101FD00022091A8219821C821B821E821D8266E6D9
:101FE00071E0CE0101960E9452096BE571E080918B
:101FF000C7029091C8020E94B4094D815E81698137
:102000007A818091C7029091C8020E948809CE010E
:1020100001960E942209F5013082E091C702F091F9
:10202000C802048115812081318182E0C82ED12C23
:10203000CE0101967C0141E050E0B5018091C402DF
:102040009091C5020E9480068A818093C602009109
:10205000C7021091C8020115110531F0C8010E9494
:102060002209C8010E9493161092C8021092C7025A
:102070008981811102C09092C9020E943908882387
:1020800009F4B4C164E670E080E090E00E94540579
:10209000F4CF84E690E018CF833009F466C0843032
:1020A00009F054CF0E940B0600919B0210919C02F4
:1020B00020919D0230919E02601B710B820B930B4D
:1020C000613D77408105910508F440CF10929A0256
:1020D0003DCF90929A023ACF61E08091A5020E9492
:1020E0008D041092A3021092A2021092A1021092EB
:1020F000A00210929F020E940B0660939B027093B5
:102100009C0280939D0290939E0232E030939A024B
:102110001DCF0E940B0600919B0210919C02209102
:102120009D0230919E02601B710B820B930B6B3FE3
:1021300071058105910508F409CF61E08091A50240
:102140000E94FE0460E08091A5020E948D040E941E
:102150000B0660939B0270939C0280939D02909368
:102160009E0283E080939A02F1CE0E940B060091BA
:102170009B0210919C0220919D0230919E02601B57
:10218000710B820B930B653171058105910508F484
:10219000DDCE0E940B0660939B0270939C0280939D
:1021A0009D0290939E0294E090939A02F89461E0CD
:1021B0008091A5020E948D048BE990E00197F1F7D0
:1021C00060E08091A5020E94FE0483E290E0019706
:1021D000F1F780E00E948301672B682B692B09F4DB
:1021E000ACC081E00E948301672B682B692B09F446
:1021F000A4C08E010F5F1F4F7801C55BDE4F0883BF
:10220000CB54D140C45BDE4F1883CC54D14080E026
:102210000E948301D7016D937D938D939C931397B7
:1022200081E00E948301F70164837583868397832D
:10223000F8E0EF0EF11CAE14BF0449F7789490E07B
:1022400080E0D8014D905D906D907C90139714962E
:102250004D915D916D917C911797411451046104EA
:10226000710409F473CE411551056105710509F436
:102270006DCEFC01A3E0F595E795AA95E1F7E6564A
:10228000FD4F2581220F441655066606770608F491
:1022900052C025830196085F1F4F8832910589F649
:1022A00020909F02E22CF12C0091A0022091A1022B
:1022B000622F70E08091A20290E03091A30210E0C2
:1022C000A8014E0D5F1D460F571F480F591F552778
:1022D0003417150609F03ACE3091A602332379F16E
:1022E000333008F071C0762F662766277F77682B1A
:1022F000792B27FF03C0719561957109072E000C9A
:10230000880B990B0E94BC1420E030E040E251E4BD
:102310000E947F152B013C017E2D6627602B712BBF
:1023200090E080E00E94BA1420E030E040E251E406
:102330000E947F1512C02160ACCF789407CE072E83
:10234000000C880B990B0E94BC142B013C01622DE0
:1023500070E090E080E00E94BA146B017C010E9462
:102360000B0660938B0170938C0180938D01909389
:102370008E01850121E043E0C301B2010E94651294
:10238000C55BDE4F0881CB54D140C45BDE4F188162
:10239000CC54D14021E043E0C701B6010E94651250
:1023A000B5018DE591E00E94BE09C55BDE4F6881F5
:1023B000CB54D140C45BDE4F7881CC54D1408FE503
:1023C00091E00E94BE09C2CDC12CD12C90ECE92E27
:1023D0009FE7F92E26013701C2CF1596DC92CE92E7
:1023E0001497B701C9010E94E217EBCDD5018C9279
:1023F0008091C60211968C9302E010E09E012F5F3F
:102400003F4F42E050E0B5018091C4029091C50277
:102410000E94FC0788EB92E00E9463088091CA0248
:102420008823F1F11A8219821C821B821E821D826E
:102430006AE571E0CE0101960E9452090E94C80827
:1024400097FD0EC08A30910559F0F5018083118205
:1024500041E050E0B501CE0101960E948809EECF1F
:10246000D50111961C921E9213961C921E921297E1
:1024700015961C921E92149769E771E0C5010E949F
:10248000520969817A81F501808191810E94BE099A
:10249000C5010E942209CE0101960E942209BACFED
:1024A00020E030E0232B09F421CD0E94EC038823A7
:1024B00009F416CD0E94000013CD8BE491E09093B7
:1024C000B9028093B8020C941108EF920F931F93F6
:1024D000CF93DF93E80134E047FD34E1042E000C94
:1024E000550B57FF03C0519541955109E32E022F1B
:1024F000242FAE010E948312CE01DF91CF911F9154
:102500000F91EF900895A9E0B0E0E9E8F2E10C94B2
:102510004E156A01F22EB02E102FFBE3AF2EA0163F
:1025200008F41BE31F5F012F27E0AE014F5F5F4FF1
:102530000E94E213BC018981982F9970913009F4AF
:102540003FC09BE2E1FC04C09E2D9170E0FC3AC0CC
:102550005E2D5071E82FE87083FF46C084E0911132
:1025600001C083E0EF2DE81B8F1508F0E0E0D601F5
:102570008E2F20E2552351F1992329F0D6019C9307
:10258000C60101966C0196012D5F3F4FE2FE24C00B
:102590008EE4D6018C9391E411969C931197129638
:1025A0008C93D9018E2F90E281111BC0E20FF32F83
:1025B000F11D10828EEF9FEF2996ECE00C946A15C6
:1025C0009DE2C6CF90E2C4CF2D9381508111FCCF04
:1025D000CE0ED11CE0E0D0CF8EE6D6018C9391E6F2
:1025E000DBCF9D938150E0CF482F447082FF3DC0E8
:1025F00084E0911101C083E08F1510F4EF2DE81BEA
:10260000D6018E2F20E2552309F1992329F0D60116
:102610009C93C60101966C0196012D5F3F4FE2FE2F
:102620001BC089E4D6018C938EE411968C9311978C
:1026300086E412968C93D9018E2F90E2882309F4B8
:10264000B5CF9D938150FACF2D9381508111FCCF4E
:10265000CE0ED11CE0E0D9CF89E6D6018C938EE670
:1026600011968C93119786E6E4CF9B0177FF02C009
:1026700030E020E0A1E0B0E0911102C0B0E0A0E0C5
:10268000F9013196AE0FBF1F8B2C912CBB2009F4A2
:1026900061C05401EFEFAE1ABE0AAA0DBB1DFA16B7
:1026A0001B0619F014F04F2D4A1B511188C0E3FC92
:1026B00059C07601A42FB0E2A1114FC0C40ED11CA5
:1026C000992309F45BC040E0D6011196F60190838E
:1026D0006D01552309F448C0012F060F9A81582F28
:1026E000507184FF03C0913309F4015010160CF0AF
:1026F00047C0093008F008E0EEE2FE2E5B01A01AA8
:10270000B10885019194819491082F3F320729F4F3
:10271000D601FC92F60131966F016217730794F1AE
:10272000021713077CF5DB01A21BB30BAA24A394A9
:10273000B12CAC0EBD1EAA0DBB1D11968C91215063
:102740003109D601119628153905F4F0F601808378
:102750006D01DBCFB12CA12CA0CFF701B1937F018C
:10276000A150AACF9111B0CFD601942F50E302C04F
:102770005D9391509111FCCFC40ED11C40E0ACCFC1
:1027800001E0BACF80E3DBCF6217730731F49633F1
:1027900088F4953311F4552369F0F6018083FD0127
:1027A000842F90E2811108C0A40FB11D1C9290E00B
:1027B00080E002CF81E3F1CF91938150F3CF91116B
:1027C00083CF8ACF283008F027E03327DA01990F2A
:1027D000311D87FD916000966105710539F4326005
:1027E0002E5F3D9330E32A95E1F708959F3F30F047
:1027F00080387105610509F03C5F3C5F3D93913085
:1028000008F08068911DDF93CF931F930F93FF9281
:10281000EF92192F987F9695E92F96959695E90F47
:10282000FF27EA5FFE4F99273327EE24FF24A701F5
:10283000E70105900894079428F4360FE71EF81E68
:10284000491F511D660F771F881F991F0694A1F716
:102850000590079428F4E70EF81E491F561FC11D66
:10286000770F881F991F661F0694A1F7059007949C
:1028700028F4F80E491F561FC71FD11D880F991F36
:10288000661F771F0694A1F70590079420F4490F5F
:10289000561FC71FD81F990F661F771F881F0694E2
:1028A000A9F784911095177041F0D695C795579563
:1028B0004795F794E7941A95C1F7ECEAF0E068942D
:1028C0001590159135916591959105907FE27395DD
:1028D000E118F10A430B560BC90BD009C0F7E10C04
:1028E000F11E431F561FC91FD01D7EF4703311F413
:1028F0008A95E6CFE894015030F0080F0AF40027DB
:10290000021708F4202F2395022F7A3328F079E359
:102910007D932A95E9F710C07D932A9589F6069450
:1029200097956795379517951794E118F10A430B1A
:10293000560BC90BD00998F023957E9173957A3385
:1029400008F070E37C932013B8F77E9170617D935B
:1029500030F0839571E37D9370E32A95E1F71124BC
:10296000EF90FF900F911F91CF91DF91992787FDF5
:1029700090950895E89409C097FB3EF49095809552
:10298000709561957F4F8F4F9F4F9923A9F0F92F35
:1029900096E9BB279395F695879577956795B795B3
:1029A000F111F8CFFAF4BB0F11F460FF1BC06F5F99
:1029B0007F4F8F4F9F4F16C0882311F096E911C0AB
:1029C000772321F09EE8872F762F05C0662371F0CC
:1029D00096E8862F70E060E02AF09A95660F771FE0
:1029E000881FDAF7880F9695879597F9089597F9D4
:1029F0009F6780E870E060E008959FEF80EC0895A5
:102A000000240A94161617061806090608950024CD
:102A10000A9412161306140605060895092E039447
:102A2000000C11F4882352F0BB0F40F4BF2B11F4BB
:102A300060FF04C06F5F7F4F8F4F9F4F089557FD1A
:102A40009058440F551F59F05F3F71F04795880F1C
:102A500097FB991F61F09F3F79F0879508951216B3
:102A600013061406551FF2CF4695F1DF08C016165F
:102A700017061806991FF1CF869571056105089410
:102A80000895E894BB2766277727CB0197F9089527
:102A90002F923F924F925F926F927F928F929F926E
:102AA000AF92BF92CF92DF92EF92FF920F931F935C
:102AB000CF93DF93CDB7DEB7CA1BDB0B0FB6F8940D
:102AC000DEBF0FBECDBF09942A88398848885F844D
:102AD0006E847D848C849B84AA84B984C884DF80BE
:102AE000EE80FD800C811B81AA81B981CE0FD11DA2
:102AF0000FB6F894DEBF0FBECDBFED0108950E9462
:102B000093150C940E150E94071558F00E9400159D
:102B100040F029F45F3F29F00C94F71451110C9404
:102B200042150C94FD140E941F1568F39923B1F30C
:102B3000552391F3951B550BBB27AA2762177307E3
:102B4000840738F09F5F5F4F220F331F441FAA1F77
:102B5000A9F335D00E2E3AF0E0E832D09150504033
:102B6000E695001CCAF72BD0FE2F29D0660F771FE1
:102B7000881FBB1F261737074807AB07B0E809F0C7
:102B8000BB0B802DBF01FF2793585F4F3AF09E3F4C
:102B9000510578F00C94F7140C9442155F3FE4F360
:102BA000983ED4F3869577956795B795F7959F5F8F
:102BB000C9F7880F911D9695879597F90895E1E0DB
:102BC000660F771F881FBB1F621773078407BA073A
:102BD00020F0621B730B840BBA0BEE1F88F7E09595
:102BE0000895EE0FFF1F0590F491E02D09940F93C7
:102BF0001F93CF93DF938230910510F482E090E031
:102C0000E0910E03F0910F0330E020E0B0E0A0E08F
:102C1000309799F42115310509F44AC0281B390B66
:102C200024303105D8F58A819B816115710589F1C0
:102C3000FB0193838283FE0111C040815181028197
:102C4000138148175907E0F04817590799F410976E
:102C500061F012960C93129713961C933296CF0143
:102C6000DF91CF911F910F91089500930E03109360
:102C70000F03F4CF2115310551F04217530738F0F7
:102C8000A901DB019A01BD01DF01F801C1CFEF010C
:102C9000F9CF90930F0380930E03CDCFFE01E20F87
:102CA000F31F819391932250310939832883D7CF21
:102CB00020910C0330910D03232B41F420910E0140
:102CC00030910F0130930D0320930C0320910C01E0
:102CD00030910D012115310541F42DB73EB74091DA
:102CE000100150911101241B350BE0910C03F09160
:102CF0000D03E217F307A0F42E1B3F0B281739072B
:102D000078F0AC014E5F5F4F2417350748F04E0F47
:102D10005F1F50930D0340930C03819391939FCFBA
:102D2000F0E0E0E09CCFCF93DF930097E9F0FC0167
:102D3000329713821282A0910E03B0910F03ED011E
:102D400030E020E01097A1F420813181820F931FA1
:102D500020910C0330910D032817390709F061C049
:102D6000F0930D03E0930C03DF91CF910895EA01F6
:102D7000CE17DF07E8F54A815B819E0141155105B9
:102D8000B1F7E901FB83EA8349915991C40FD51F3B
:102D9000EC17FD0761F4808191810296840F951FE5
:102DA000E90199838883828193819B838A83F0E000
:102DB000E0E012968D919C9113970097B9F52D91B3
:102DC0003C911197CD010296820F931F20910C0325
:102DD00030910D032817390739F6309751F51092C5
:102DE0000F0310920E03B0930D03A0930C03BCCFFE
:102DF000D383C28340815181840F951FC817D9079F
:102E000061F44E5F5F4F88819981480F591F51834C
:102E100040838A819B81938382832115310509F048
:102E2000B0CFF0930F03E0930E039ECFFD01DC01C2
:102E3000C0CF13821282D7CFB0E0A0E0E2E2F7E188
:102E40000C944A158C01009751F4CB010E94F715A0
:102E50008C01C801CDB7DEB7E0E10C946615FC012A
:102E6000E60FF71F9C0122503109E217F30708F41F
:102E70009DC0D901CD91DC911197C617D70798F065
:102E8000C530D10530F3CE0104978617970708F3B4
:102E9000C61BD70B2297C193D1936D937C93CF011F
:102EA0000E949316D6CF5B01AC1ABD0A4C018C0E62
:102EB0009D1EA0910E03B0910F03512C412CF12CBB
:102EC000E12C109731F580910C0390910D0388153A
:102ED000990509F05CC04616570608F058C0809165
:102EE0000C0190910D01009741F48DB79EB7409170
:102EF000100150911101841B950BE817F90708F098
:102F000055C0F0930D03E0930C03F90171836083C6
:102F1000A0CF8D919C91119712966C901297139659
:102F20007C901397A815B90559F56C0142E0C40EC1
:102F3000D11CCA14DB0420F1AC014A195B09DA0187
:102F40001296159780F06282738251834083D90173
:102F50006D937C93E114F10471F0D7011396FC9307
:102F6000EE93129776CF22968C0F9D1FF9019183D5
:102F70008083F301EFCFF0930F03E0930E0369CF4B
:102F80004816590608F42C017D01D3019ACFCB01D4
:102F90000E94F7157C01009749F0AE01B8010E942C
:102FA000D917C8010E949316870153CF10E000E0A3
:102FB00050CFFB01DC0102C001900D924150504006
:102FC000D8F70895FB01DC0101900D920020E1F794
:102FD000089511E0C8E5D1E004C0FE010E94F1159A
:0C2FE0002196C935D107C9F7F894FFCF3E
:102FEC00FFFFFFFF00E100000000000000001003E5
:102FFC0080005858585858585831303000C180818A
:10300C00000000000000001802860539022E027F25
:10301C00023D025B020000000021048203AF036D3D
:10302C0004E003BE03D20300000000FA0882031F71
:10303C000917069308B0089D084400FE0054004888
:10304C000064617465002B25642F256D2F25592094
:10305C0025483A254D3A25530075706461746564B2
:02306C00000062
:00000001FF
