:020000040000FA
:100000000C94E8000C9410010C9410010C94100155
:100010000C9410010C9410010C9410010C9410011C
:100020000C9410010C9410010C9410010C9410010C
:100030000C9410010C9410010C9410010C941001FC
:100040000C94B4080C9410010C9482080C945C0875
:100050000C9410010C9410010C9410010C941001DC
:100060000C9410010C94100100407A10F35A00A077
:10007000724E18090010A5D4E80000E87648170071
:1000800000E40B54020000CA9A3B000000E1F505B1
:10009000000080969800000040420F000000A086FB
:1000A00001000000102700000000E803000000002D
:1000B0006400000000000A000000000001000000D1
:1000C00000002C76D888DC674F0823DFC1DFAE59EB
:1000D000E1B1B796E5E3E453C63AE651997696E87E
:1000E000E6C28426EB898C9B62ED407C6FFCEFBC02
:1000F0009C9F40F2BAA56FA5F490055A2AF75C932D
:100100006B6CF9676DC11BFCE0E40D47FEF520E662
:10011000B500D0ED902E0300943577050080841E45
:10012000080000204E0A000000C80C333333330FA0
:10013000986E12831141EF8D2114893BE65516CF3D
:10014000FEE6DB18D1844B381BF77C1D901DA4BB49
:10015000E424203284725E228100C9F124ECA1E5FE
:100160003D2700000000240027002A0072756E2D34
:100170006272696467650A000A000A0000000000F4
:10018000250028002B0000000008000201000003E9
:100190000407000000000000000000000000230031
:1001A00026002900040404040404040402020202D8
:1001B000020203030303030301020408102040802A
:1001C000010204081020010204081020FE08D30CCC
:1001D00011241FBECFEFD8E0DEBFCDBF22E0A2E8E2
:1001E000B1E001C01D92AE39B207E1F711E0A0E025
:1001F000B1E0EAEFF5E202C005900D92A238B10736
:10020000D9F710E0C7EED0E004C02197FE010E94AC
:10021000F810C63ED107C9F70E946B090C94F01282
:100220000C940000CF92DF92EF92FF92CF93DF9376
:10023000B0918E02A0E08111AB2F80918F0290E0EF
:10024000880F991FAC0146565E4FC0909402D09023
:100250009502E0909602F090970230E020E0FA01DB
:10026000C591D491E881B90190E080E0EB23EA13D5
:100270000AC02F5F3F4F6C157D058E059F0578F3F3
:100280006FEF7FEFCB01DF91CF91FF90EF90DF9089
:10029000CF900895EF92FF920F931F93CF93DF9328
:1002A0008C017B01D0E0C0E0F701EC0FFD1F6491F1
:1002B000662361F0D801ED91FC910190F081E02D71
:1002C000C8010995892B11F02196EECFCE01DF915F
:1002D000CF911F910F91FF90EF900895AF92BF9231
:1002E000CF92DF92EF92FF920F931F93CF93DF9302
:1002F0006C017B018B01040F151FEB015E01AE1831
:10030000BF08C017D10759F06991D601ED91FC9152
:100310000190F081E02DC6010995892B79F7C5017F
:10032000DF91CF911F910F91FF90EF90DF90CF90D1
:10033000BF90AF900895FC01538D448D252F30E080
:10034000842F90E0821B930B541710F0CF960895E2
:1003500001970895FC01918D828D981761F0A28D0F
:10036000AE0FBF2FB11D5D968C91928D9F5F9F73D5
:10037000928F90E008958FEF9FEF0895FC01918D8B
:10038000828D981731F0828DE80FF11D858D90E0F8
:1003900008958FEF9FEF0895FC01918D228D892F95
:1003A00090E0805C9F4F821B91098F73992708957D
:1003B0008BE891E00E94CC0121E0892B09F420E038
:1003C000822F089580E090E0892B29F00E94D801C7
:1003D00081110C9400000895FC01A48DA80FB92F81
:1003E000B11DA35ABF4F2C91848D90E001968F735D
:1003F0009927848FA689B7892C93A089B1898C917C
:10040000837080648C93938D848D981306C00288CA
:10041000F389E02D80818F7D80830895EF92FF9294
:100420000F931F93CF93DF93EC0181E0888F9B8D17
:100430008C8D98131AC0E889F989808185FF15C0D1
:100440009FB7F894EE89FF896083E889F9898081F4
:100450008370806480839FBF81E090E0DF91CF91C3
:100460001F910F91FF90EF900895F62E0B8D10E0E5
:100470000F5F1F4F0F731127E02E8C8D8E110CC054
:100480000FB607FCFACFE889F989808185FFF5CF9F
:10049000CE010E94EC01F1CFEB8DEC0FFD2FF11D91
:1004A000E35AFF4FF0829FB7F8940B8FEA89FB89DC
:1004B00080818062CFCFCF93DF93EC01888D88233A
:1004C000B9F0AA89BB89E889F9898C9185FD03C0B7
:1004D000808186FD0DC00FB607FCF7CF8C9185FF9C
:1004E000F2CF808185FFEDCFCE010E94EC01E9CFF4
:1004F000DF91CF910895CF93DF9390E0FC01E85412
:10050000FE4F24918C559E4FFC0184918823D1F09D
:1005100090E0880F991FFC01EE59FE4FA591B49110
:10052000FC01E458FE4FC591D491623071F49FB73D
:10053000F8943C91822F809583238C93E8812E2B15
:1005400028839FBFDF91CF9108958FB7F894EC91E6
:100550002E2B2C938FBFF6CF3FB7F8948091870155
:1005600090918801A0918901B0918A0126B5A89B3C
:1005700005C02F3F19F00196A11DB11D3FBFBA2F35
:10058000A92F982F8827BC01CD01620F711D811DF5
:10059000911D42E0660F771F881F991F4A95D1F77A
:1005A00008958F929F92AF92BF92CF92DF92EF9277
:1005B000FF924B015C010E94AC026B017C010E9426
:1005C000AC026C197D098E099F09683E7340810554
:1005D0009105A8F321E0821A9108A108B10888EEDC
:1005E000C80E83E0D81EE11CF11C81149104A10403
:1005F000B10429F7FF90EF90DF90CF90BF90AF90BC
:100600009F908F9008952FB7F89460918301709117
:10061000840180918501909186012FBF08958F926A
:100620009F92AF92BF92CF92DF92EF92FF920F9381
:100630001F93CF93DF93CDB7DEB7C054D1400FB631
:10064000F894DEBF0FBECDBF0E940303009190025D
:100650001091910220919202309193026B017C01E2
:10066000C01AD10AE20AF30A97018601003D174039
:1006700021053105B0F480919802C05CDE4F0FB6C1
:10068000F894DEBF0FBECDBFDF91CF911F910F91C8
:10069000FF90EF90DF90CF90BF90AF909F908F90A2
:1006A00008956093900270939102809392029093C8
:1006B000930210928B0210928A0210928902109279
:1006C00088021092870262E080918C020E947B0275
:1006D00061E070E080E090E00E94D10261E08091F2
:1006E0008C020E947B0280918C0290E0FC01EA5710
:1006F000FE4F2491FC01E854FE4F3491FC01EC556F
:10070000FE4FE491EE23D9F0222359F0233009F46F
:100710004BC008F03EC0213009F44CC0223009F42F
:100720004DC0F0E0EE0FFF1FE458FE4FA591B491CD
:100730008FB7F894EC9130953E233C938FBF809116
:100740008D028551823008F046C08BE291E101971D
:10075000F1F762E080918C020E947B028091990205
:1007600090E08230910538F0880F991F880F991F0B
:1007700005970197F1F7F89480E00E9412016F3F0E
:100780007F4F8F4F9F4F71F510929802789480E0C1
:1007900074CF2730B1F02830D1F0243009F0C1CF28
:1007A000809180008F7D03C0809180008F7780933F
:1007B0008000B7CF84B58F7784BDB3CF84B58F7DEC
:1007C000FBCF8091B0008F778093B000AACF80914B
:1007D000B0008F7DF9CF64E170E080E090E00E948E
:1007E000D102B7CF81E00E9412016F3F7F4F8F4F40
:1007F0009F4F51F2CE0101967C015E019FEBA91A39
:100800009EEFB90A870180E00E941201F80160831F
:1008100071838283938381E00E941201F8016483D3
:10082000758386839783085F1F4FA016B10659F71B
:10083000789430E020E0F70180809180A280B3803E
:100840004481558166817781FFEF8F169F06AF0641
:10085000BF0631F04F3F8FEF58076807780719F44C
:100860001092980294CFF90183E0F595E7958A9567
:10087000E1F7E957FD4F8081880F84169506A6069B
:10088000B70618F180832F5F3F4F98E0E90EF11C07
:100890002832310581F640918B02209187028091A8
:1008A0008802280F3327331F80918902280F311DBA
:1008B00080918A02820F932F911D9927481719065C
:1008C00079F681E080939802D8CE8160DBCF0895DD
:1008D000CF93DF93EC018D819E81DC01ED91FC9142
:1008E0000084F185E02D09951816190654F48D81C0
:1008F0009E81DC01ED91FC910284F385E02D099548
:10090000EACFDF91CF9108958F929F92AF92BF92DD
:10091000CF92DF92EF92FF92CF93DF93EC016B01C6
:100920000E9403034B015C01F12CE12C8D819E811F
:10093000DC01ED91FC910284F385E02D099597FF90
:100940000DC00E940303681979098A099B096C1577
:100950007D058E059F0550F38FEF9FEFDF91CF91BF
:10096000FF90EF90DF90CF90BF90AF909F908F90CF
:100970000895FC01238134812627022E2295207FB1
:100980002025032E322F22952F70022626953227FE
:100990002327220F220F220F20253483238308953B
:1009A0002F923F924F925F926F927F928F929F927F
:1009B000AF92BF92CF92DF92EF92FF920F931F936D
:1009C000CF93DF93CDB7DEB72A970FB6F894DEBF8B
:1009D0000FBECDBF9A8789875B01290137011A01B4
:1009E000200E311E3A82198288248A94982C9A010A
:1009F000260F371F3E832D83C801840D951D9887D0
:100A00008F83A985BA8518968C91B981B81708F09B
:100A100040C1E985FA859482838285819681DC01D3
:100A2000ED91FC910190F081E02D6FEF09956FEF52
:100A300089859A850E94B904E985FA858581968120
:100A4000DC01ED91FC910190F081E02DA985BA8542
:100A50006C910995E985FA856081CF010E94B904FE
:100A6000A985BA8515968D919C91DC01ED91FC913B
:100A70000190F081E02D6A8109956A8189859A85C6
:100A80000E94B904E985FA8585819681DC01ED91A2
:100A9000FC910190F081E02D622D0995622D8985F0
:100AA0009A850E94B9048501E985FA858581968138
:100AB000DC01ED91FC910190F081E02D2D813E81D2
:100AC00020173107E1F48201E985FA858581968155
:100AD000DC01ED91FC910190F081E02D2F813885B2
:100AE00020173107C1F0D8016D918D010995F801EA
:100AF0003197608189859A850E94B904E5CFD80134
:100B00006D918D010995F8013197608189859A85EC
:100B10000E94B904C9CFA985BA8514966C9109952C
:100B2000E985FA8585819681DC01ED91FC91019042
:100B3000F081E02DA985BA8513966C91099568EC32
:100B400070E089859A850E9484048F3F910509F0A1
:100B500092C0E985FA85948283826FEFCF010E946B
:100B6000B90465E070E089859A850E948404A985AE
:100B7000BA856C916817190609F07DC0CD010E94F5
:100B8000B9046AE070E089859A850E9484047C013A
:100B900097FD71C0682F89859A850E94B9046AE023
:100BA00070E089859A850E9484048C0197FD63C05A
:100BB000682F89859A850E94B904EC821B82EB819B
:100BC000FC810E0F1F1FF12CE12C65E070E0898580
:100BD0009A850E151F05A1F0EC14FD0489F00E9402
:100BE000840497FD09C0F301EE0DFF1D8083682F7B
:100BF00089859A850E94B904FFEFEF1AFF0AE5CFB5
:100C00000E9484047C0197FD36C065E070E0898510
:100C10009A850E94840497FD2EC0FE2CEE248E0D32
:100C20009F1DA985BA8513962D913C911497821723
:100C3000930709F58C918F5F8C93C801C016D1067C
:100C400008F4C6012A960FB6F894DEBF0FBECDBFDA
:100C5000DF91CF911F910F91FF90EF90DF90CF9098
:100C6000BF90AF909F908F907F906F905F904F90CC
:100C70003F902F900895B981BF5FB98364E670E01B
:100C800080E090E00E94D10289859A850E946804E4
:100C9000B8CE8FEF9FEFD6CFCF92DF92EF92FF9239
:100CA0000F931F936801790110E000E030E020E02D
:100CB0000E94D0041F910F91FF90EF90DF90CF9092
:100CC00008950F931F93CF93DF9300D0CDB7DEB776
:100CD000809144028823A1F087E7898380914102B3
:100CE0008A8310E000E030E020E042E050E0BE0106
:100CF0006F5F7F4F80913F02909140020E944C06AF
:100D0000109244020F900F90DF91CF911F910F919D
:100D100008950F931F93CF93DF9300D01F92CDB709
:100D2000DEB782E78983809141028A8301E010E087
:100D30009E012D5F3F4F42E050E0BE016F5F7F4F4D
:100D400080913F02909140020E944C0681E09B817D
:100D5000913009F080E00F900F900F90DF91CF91CC
:100D60001F910F910895EF92FF920F931F93CF93CE
:100D7000DF9300D01F92CDB7DEB7FC01228921118D
:100D800018C07C01138A8FE4898380E48B83868575
:100D90008A839F012C5E3F4F00E410E043E050E067
:100DA000BE016F5F7F4F848595850E944C06F701D9
:100DB000828B0F900F900F90DF91CF911F910F9129
:100DC000FF90EF900895CF93DF93EC010E94B3065C
:100DD0008A8990E0DF91CF910895CF93DF93EC0162
:100DE0000E94B3068A89882341F08B89C80FD11DE0
:100DF0008C8990E0DF91CF9108958FEF9FEFFACF2C
:100E0000CF93DF93EC010E94B3068A89882369F0AF
:100E100081508A8B8B8991E0980F9B8BC80FD11DD5
:100E20008C8990E0DF91CF9108958FEF9FEFFACFFB
:100E30000F931F930E94030360933B0270933C0245
:100E400080933D0290933E0283E392E00E9400076C
:100E500097FF1DC00E94030300913B0210913C02CA
:100E600020913D0230913E02601B710B820B930B6F
:100E700000913702109138022091390230913A02E4
:100E80006017710782079307F8F28FEF9FEF1F91AA
:100E90000F9108950F931F93CF93DF9300D01F926C
:100EA000CDB7DEB729E42983FC0126852A836B832D
:100EB00010E000E030E020E043E050E0BE016F5F72
:100EC0007F4F848595850E944C0681E090E00F90CD
:100ED0000F900F90DF91CF911F910F91089590E0A7
:100EE00080E00895FC0180819181009711F00C94BD
:100EF0009A1108950F931F93CF93DF93EC0188818C
:100F00009981009759F02A813B812617370730F0E5
:100F100081E0DF91CF911F910F9108958B016F5F59
:100F20007F4F0E942312009759F0998388831B8377
:100F30000A832C813D81232B59F7FC011082E8CFD5
:100F400080E0E7CFEF92FF920F931F93CF93DF9351
:100F5000EC017B01FB0101900020E9F731978F0143
:100F6000061B170BB8010E947A072881398181116D
:100F700013C02115310519F0C9010E949A11198277
:100F800018821D821C821B821A82DF91CF911F91D1
:100F90000F91FF90EF9008951D830C83B701C90155
:100FA000DF91CF911F910F91FF90EF900C94E91278
:100FB000EF92FF920F931F93CF93DF93611571050B
:100FC00041F480E0DF91CF911F910F91FF90EF905E
:100FD000089541155105B1F07B01EC010C811D8193
:100FE000040F151FB8010E947A07882351F3288146
:100FF00039818C819D81B701820F931F0E94E91274
:101000001D830C8381E0DECFFB0101900020E9F716
:101010003197AF01461B570B0C94D807EF92FF9204
:101020000F931F93CF93DF9300D000D000D01F9277
:10103000CDB7DEB77C018B011A8219821C821B821C
:101040001E821D8264E371E0CE0101960E94A20718
:10105000E114F10429F0B701CE0101960E940408C1
:1010600066E371E0CE0101960E94040801151105A6
:1010700029F0B801CE0101960E9404084D815E81DD
:1010800069817A8101E010E09E01295F3F4F88E28B
:1010900092E00E944C06CE0101960E9472072796AC
:1010A0000FB6F894DEBF0FBECDBFDF91CF911F9179
:1010B0000F91FF90EF9008951F920F920FB60F922D
:1010C00011242F933F934F935F936F937F938F934D
:1010D0009F93AF93BF93EF93FF938BE891E00E94B0
:1010E000EC01FF91EF91BF91AF919F918F917F9113
:1010F0006F915F914F913F912F910F900FBE0F9085
:101100001F9018951F920F920FB60F9211242F93D4
:101110008F939F93EF93FF93E0919B01F0919C013C
:101120008081E091A101F091A20182FD1BC090811C
:101130008091A4018F5F8F732091A501821741F0E8
:10114000E091A401F0E0E557FE4F958F8093A40154
:10115000FF91EF919F918F912F910F900FBE0F9064
:101160001F9018958081F4CF1F920F920FB60F92A7
:1011700011242F933F938F939F93AF93BF938091AD
:10118000830190918401A0918501B09186013091F5
:10119000820123E0230F2D3758F50196A11DB11DC3
:1011A000209382018093830190938401A093850111
:1011B000B09386018091870190918801A091890167
:1011C000B0918A010196A11DB11D80938701909372
:1011D0008801A0938901B0938A01BF91AF919F913B
:1011E0008F913F912F910F900FBE0F901F901895E8
:1011F00026E8230F0296A11DB11DD2CF0F931F9396
:10120000CF93DF93EBE8F1E01382128248EE53E0D4
:1012100060E070E0448355836683778384E191E0E6
:101220009183808385EC90E09587848784EC90E0BF
:101230009787868780EC90E0918B808B81EC90E0A3
:10124000938B828B82EC90E0958B848B86EC90E084
:10125000978B868B118E128E138E148EA8E2B2E0BD
:101260001C921696FC93EE93159717961C9217975F
:1012700018961C9218971A96FC93EE931997C7E844
:10128000D2E082E08D838BE08E83EAEBF1E0E491A3
:10129000EF83E6EAF1E0E491E88700E81EE320E06E
:1012A00030E00D871E872F87388BE3E3F2E013824F
:1012B0001282448355836683778386E291E091832B
:1012C0008083B587A487118A128A138ADF91CF9110
:1012D0001F910F910895CF93DF93CDB7DEB763973A
:1012E0000FB6F894DEBF0FBECDBF789484B5826090
:1012F00084BD84B5816084BD85B5826085BD85B5BA
:10130000816085BD80916E00816080936E00109237
:1013100081008091810082608093810080918100B2
:101320008160809381008091800081608093800043
:101330008091B10084608093B1008091B0008160A1
:101340008093B00080917A00846080937A008091CD
:101350007A00826080937A0080917A008160809325
:101360007A0080917A00806880937A001092C100A0
:10137000E0913102F0913202A089B18982E08C9330
:10138000A485B5851C92A685B78587E08C93108EC1
:10139000A489B58986E08C93A289B3898C918061F8
:1013A0008C93A289B3898C9188608C93A289B3892C
:1013B0008C9180688C930288F389E02D80818F7DE9
:1013C000808380912F028111BDC081E080932F0224
:1013D00088E292E00E94680468EE73E080E090E0AA
:1013E0000E94D10280912D0290912E02DC01ED919C
:1013F000FC910084F185E02D09951816190644F337
:10140000FF24F39472E3E72E85E0E6E0F1E0DE01ED
:10141000179601900D928A95E1F7F092300210E054
:1014200000E030E020E045E050E0BE01695F7F4F22
:1014300088E292E00E944C0680912D0290912E024B
:10144000DC01ED91FC910190F081E02D63E00995C4
:101450006AEF70E080E090E00E94D1026AE771E0FC
:1014600080912D0290912E020E944A016AEF70E055
:1014700080E090E00E94D10268E771E080912D0247
:1014800090912E020E944A0164EF71E080E090E0AA
:101490000E94D1026CE671E080912D0290912E02A3
:1014A0000E944A0164EF71E080E090E00E94D10266
:1014B00088E292E00E94680485E0EBE0F1E0DE0162
:1014C000119601900D928A95E1F7E092300204E0C6
:1014D00010E09E01235F3F4F45E050E0BE016F5F8B
:1014E0007F4F88E292E00E944C068F3F980739F4C4
:1014F00068EE73E080E090E00E94D10285CF2D85F8
:101500002111FFCF049709F055C02E852053330BCE
:1015100044E6429FC001439F900D11242F85EAE0CD
:101520002E9F800D911D1124805E914028892053AB
:10153000330B820F931F90932A028093290282E338
:101540008093300262E080918C020E947B020E94B4
:101550000303605D77408109910960939002709365
:101560009102809392029093930287E38093990271
:1015700060E0A62E60E0B62E42E5942E57E5852E5B
:1015800060ED77E080E090E00E94D1020E940F03BE
:10159000882349F080918D028B3028F08D3068F0DF
:1015A00085518230E0F1412C512C30EC632E3FE725
:1015B000732E21C084E690E0BECF6091880270E077
:1015C00090E080E00E94320F2DEC3CEC4CEC5DE3AF
:1015D0000E94910F6B017C016091870270E090E0A6
:1015E00080E00E94320F9B01AC01C701B6010E944E
:1015F00087102B013C010E940F03882309F474C05B
:1016000080918D028C3009F481C0D8F48B3091F137
:10161000C12CD12C90ECE92E9FE7F92E55C060919A
:1016200087027091880276276727762790E080E00E
:101630000E94300F2DEC3CEC4CEC5DE30E94910FCE
:10164000D8CF8551823020F710918902612F70E048
:10165000762F662766277F7780918A02682B90E035
:1016600080E00E94300F2DEC3CEC4CEC5DE30E94DE
:10167000910F68C06091890270E090E080E00E9464
:10168000300F6B017C0110918A0217FF0AC0AC0178
:101690009B0160E070E080E89FEB0E9486106B0188
:1016A0007C011F70612F70E090E080E00E94320F9B
:1016B0002DEC3CEC4CEC5DE30E94910FA7019601F0
:1016C0000E9487106B017C01A3019201C301B2014A
:1016D0000E94F310811108C0A7019601C701B6014D
:1016E0000E94F3108823B9F168E371E088E591E086
:1016F0000E940E08A114B10409F442CF0E94D8013F
:10170000882309F439CF0E94000036CF1091890256
:10171000612F70E090E080E00E94300F6B017C014F
:1017200060918A026F7070E090E080E00E94320F5A
:101730002DEC3CEC4CEC5DE30E94910FA70196016F
:101740000E9487106B017C0117FFBECFF7FAF0945F
:10175000F7F8F094B9CF8E010F5E1F4F21E043E000
:10176000C701B6010E94DB0C0450110921E043E0DF
:10177000C301B2010E94DB0CBE016F5E7F4F8EE59C
:1017800091E00E940E08B80180E691E00E940E08E8
:101790000E9489068111C4C01A8219821C821B8290
:1017A0001E821D8262E671E0CE0101960E94A207B0
:1017B0000E94610686E090E00E94FE108C01DC0130
:1017C00011961C921E9213961C921E9212971596B9
:1017D0001C921E921497E980FA80E114F104E1F062
:1017E000CD80DE80B6010E947A07F8012081318128
:1017F00081117BC02115310519F0C9010E949A1190
:10180000D80111961C921E9215961C921E92149746
:1018100013961C921E921297109343020093420259
:10182000CE0101960E9472071A8219821C821B82C5
:101830001E821D8267E671E0CE0101960E94A2071A
:1018400066E371E080914202909143020E94040895
:101850004D815E8169817A8180914202909143023B
:101860000E94D807CE0101960E9472079F82E091E4
:101870004202F0914302048115812081318182E08E
:10188000C82ED12CCE0101967C0141E050E0BE0172
:10189000695F7F4F80913F02909140020E94D00487
:1018A0008A81809341020091420210914302011506
:1018B000110531F0C8010E947207C8010E949A11F7
:1018C00010924302109242028981811103C081E08B
:1018D000809344020E948906882371F064E670E0D8
:1018E00080E090E00E94D102F5CFD582C482B7019A
:1018F000C9010E94E91290CF8F82809141028887AE
:1019000002E010E09E012F5F3F4F42E050E0BE0139
:10191000695F7F4F80913F02909140020E944C0688
:1019200083E392E00E94B30680914502882309F484
:10193000E1CE1A8219821C821B821E821D8267E5FB
:1019400071E0CE0101960E94A2070E94180797FD40
:101950000FC08A30910561F08F83188641E050E016
:10196000BE01695F7F4FCE0101960E94D807EDCF7F
:1019700018861F821A8619861C861B866AE771E004
:10198000CE0107960E94A20769817A818F8198858E
:101990000E940E08CE0107960E947207CE010196A2
:1019A0000E947207BDCF86E291E09093340280934B
:1019B00033020C946106EF920F931F93CF93DF9342
:1019C000E80134E047FD34E1042E000C550B57FFCD
:1019D00003C0519541955109E32E022F242FAE01EA
:1019E0000E94F90CCE01DF91CF911F910F91EF90E2
:1019F0000895A9E0B0E0EFEFFCE00C9455106A0107
:101A0000F22EB02E102FFBE3AF2EA01608F41BE32E
:101A10001F5F012F27E0AE014F5F5F4F0E94580EFE
:101A2000BC018981982F9970913009F43FC09BE2E5
:101A3000E1FC04C09E2D9170E0FC3AC05E2D507117
:101A4000E82FE87083FF46C084E0911101C083E075
:101A5000EF2DE81B8F1508F0E0E0D6018E2F20E275
:101A6000552351F1992329F0D6019C93C601019683
:101A70006C0196012D5F3F4FE2FE24C08EE4D6013B
:101A80008C9391E411969C93119712968C93D901A3
:101A90008E2F90E281111BC0E20FF32FF11D1082F7
:101AA0008EEF9FEF2996ECE00C9471109DE2C6CF6B
:101AB00090E2C4CF2D9381508111FCCFCE0ED11C6A
:101AC000E0E0D0CF8EE6D6018C9391E6DBCF9D93FC
:101AD0008150E0CF482F447082FF3DC084E09111D7
:101AE00001C083E08F1510F4EF2DE81BD6018E2F77
:101AF00020E2552309F1992329F0D6019C93C601D0
:101B000001966C0196012D5F3F4FE2FE1BC089E4F8
:101B1000D6018C938EE411968C93119786E41296DD
:101B20008C93D9018E2F90E2882309F4B5CF9D9331
:101B30008150FACF2D9381508111FCCFCE0ED11C54
:101B4000E0E0D9CF89E6D6018C938EE611968C938E
:101B5000119786E6E4CF9B0177FF02C030E020E0DA
:101B6000A1E0B0E0911102C0B0E0A0E0F90131962F
:101B7000AE0FBF1F8B2C912CBB2009F461C0540108
:101B8000EFEFAE1ABE0AAA0DBB1DFA161B0619F01E
:101B900014F04F2D4A1B511188C0E3FC59C0760147
:101BA000A42FB0E2A1114FC0C40ED11C992309F497
:101BB0005BC040E0D6011196F60190836D0155237C
:101BC00009F448C0012F060F9A81582F507184FFE5
:101BD00003C0913309F4015010160CF047C00930CE
:101BE00008F008E0EEE2FE2E5B01A01AB1088501C4
:101BF0009194819491082F3F320729F4D601FC92E9
:101C0000F60131966F016217730794F102171307FB
:101C10007CF5DB01A21BB30BAA24A394B12CAC0E60
:101C2000BD1EAA0DBB1D11968C9121503109D60104
:101C3000119628153905F4F0F60180836D01DBCF8C
:101C4000B12CA12CA0CFF701B1937F01A150AACF55
:101C50009111B0CFD601942F50E302C05D93915003
:101C60009111FCCFC40ED11C40E0ACCF01E0BACF43
:101C700080E3DBCF6217730731F4963388F4953332
:101C800011F4552369F0F6018083FD01842F90E261
:101C9000811108C0A40FB11D1C9290E080E002CF1A
:101CA00081E3F1CF91938150F3CF911183CF8ACF0C
:101CB000283008F027E03327DA01990F311D87FD1E
:101CC000916000966105710539F432602E5F3D9395
:101CD00030E32A95E1F708959F3F30F08038710591
:101CE000610509F03C5F3C5F3D93913008F08068EE
:101CF000911DDF93CF931F930F93FF92EF92192FB4
:101D0000987F9695E92F96959695E90FFF27EE53C4
:101D1000FF4F99273327EE24FF24A701E701059001
:101D20000894079428F4360FE71EF81E491F511D2A
:101D3000660F771F881F991F0694A1F705900794D7
:101D400028F4E70EF81E491F561FC11D770F881F84
:101D5000991F661F0694A1F70590079428F4F80EC2
:101D6000491F561FC71FD11D880F991F661F771F58
:101D70000694A1F70590079420F4490F561FC71F3A
:101D8000D81F990F661F771F881F0694A9F78491A3
:101D90001095177041F0D695C79557954795F794CC
:101DA000E7941A95C1F7E8E6F0E06894159015916C
:101DB00035916591959105907FE27395E118F10A4F
:101DC000430B560BC90BD009C0F7E10CF11E431FA2
:101DD000561FC91FD01D7EF4703311F48A95E6CFCB
:101DE000E894015030F0080F0AF40027021708F4B5
:101DF000202F2395022F7A3328F079E37D932A95BB
:101E0000E9F710C07D932A9589F606949795679512
:101E1000379517951794E118F10A430B560BC90B28
:101E2000D00998F023957E9173957A3308F070E38A
:101E30007C932013B8F77E9170617D9330F0839589
:101E400071E37D9370E32A95E1F71124EF90FF9001
:101E50000F911F91CF91DF91992787FD909508955C
:101E6000E89409C097FB3EF4909580957095619534
:101E70007F4F8F4F9F4F9923A9F0F92F96E9BB27EA
:101E80009395F695879577956795B795F111F8CF66
:101E9000FAF4BB0F11F460FF1BC06F5F7F4F8F4FD1
:101EA0009F4F16C0882311F096E911C0772321F0C7
:101EB0009EE8872F762F05C0662371F096E8862F5F
:101EC00070E060E02AF09A95660F771F881FDAF7B6
:101ED000880F9695879597F90895990F0008550FE3
:101EE000AA0BE0E8FEEF16161706E807F907C0F0A0
:101EF00012161306E407F50798F0621B730B840BA8
:101F0000950B39F40A2661F0232B242B252B21F481
:101F100008950A2609F4A140A6958FEF811D811D21
:101F200008950E94A40F0C9415100E94071038F019
:101F30000E940E1020F0952311F00C94FE0F0C94CB
:101F4000041011240C9449100E94261070F3959FE0
:101F5000C1F3950F50E0551F629FF001729FBB27A0
:101F6000F00DB11D639FAA27F00DB11DAA1F649F3C
:101F70006627B00DA11D661F829F2227B00DA11DEF
:101F8000621F739FB00DA11D621F839FA00D611D75
:101F9000221F749F3327A00D611D231F849F600D96
:101FA000211D822F762F6A2F11249F5750409AF0BF
:101FB000F1F088234AF0EE0FFF1FBB1F661F771F4B
:101FC000881F91505040A9F79E3F510580F00C9416
:101FD000FE0F0C9449105F3FE4F3983ED4F38695CE
:101FE00077956795B795F795E7959F5FC1F7FE2BB6
:101FF000880F911D9695879597F9089597F99F6792
:1020000080E870E060E008959FEF80EC0895002480
:102010000A941616170618060906089500240A944D
:1020200012161306140605060895092E0394000CD3
:1020300011F4882352F0BB0F40F4BF2B11F460FF62
:1020400004C06F5F7F4F8F4F9F4F089557FD90588B
:10205000440F551F59F05F3F71F04795880F97FB6C
:10206000991F61F09F3F79F0879508951216130626
:102070001406551FF2CF4695F1DF08C01616170655
:102080001806991FF1CF869571056105089408958A
:10209000E894BB2766277727CB0197F908952F92FD
:1020A0003F924F925F926F927F928F929F92AF92E8
:1020B000BF92CF92DF92EF92FF920F931F93CF9335
:1020C000DF93CDB7DEB7CA1BDB0B0FB6F894DEBFCC
:1020D0000FBECDBF09942A88398848885F846E84F2
:1020E0007D848C849B84AA84B984C884DF80EE803C
:1020F000FD800C811B81AA81B981CE0FD11D0FB645
:10210000F894DEBF0FBECDBFED0108955058BB2738
:10211000AA270E949E100C9415100E94071038F0F8
:102120000E940E1020F039F49F3F19F426F40C940D
:1021300004100EF4E095E7FB0C94FE0FE92F0E94CB
:10214000261058F3BA17620773078407950720F023
:1021500079F4A6F50C9448100EF4E0950B2EBA2FE6
:10216000A02D0B01B90190010C01CA01A00111249D
:10217000FF27591B99F0593F50F4503E68F11A1649
:10218000F040A22F232F342F4427585FF3CF4695DA
:1021900037952795A795F0405395C9F77EF41F16FC
:1021A000BA0B620B730B840BBAF09150A1F0FF0FC6
:1021B000BB1F661F771F881FC2F70EC0BA0F621FB2
:1021C000731F841F48F4879577956795B795F795A2
:1021D0009E3F08F0B0CF9395880F08F09927EE0F37
:1021E0009795879508950E946D0F880B990B089518
:1021F000EE0FFF1F0590F491E02D09940F931F93AC
:10220000CF93DF938230910510F482E090E0E0916B
:102210009C02F0919D0230E020E0B0E0A0E0309719
:1022200099F42115310509F44AC0281B390B2430D3
:102230003105D8F58A819B816115710589F1FB0112
:1022400093838283FE0111C04081518102811381F9
:1022500048175907E0F04817590799F4109761F0AB
:1022600012960C93129713961C933296CF01DF911E
:10227000CF911F910F91089500939C0210939D029E
:10228000F4CF2115310551F04217530738F0A90159
:10229000DB019A01BD01DF01F801C1CFEF01F9CFE8
:1022A00090939D0280939C02CDCFFE01E20FF31F1D
:1022B000819391932250310939832883D7CF20917C
:1022C0009A0230919B02232B41F42091020130911C
:1022D000030130939B0220939A02209100013091D8
:1022E00001012115310541F42DB73EB7409104019C
:1022F00050910501241B350BE0919A02F0919B024D
:10230000E217F307A0F42E1B3F0B2817390778F0CC
:10231000AC014E5F5F4F2417350748F04E0F5F1F2B
:1023200050939B0240939A02819391939FCFF0E048
:10233000E0E09CCFCF93DF930097E9F0FC01329768
:1023400013821282A0919C02B0919D02ED0130E0B7
:1023500020E01097A1F420813181820F931F2091FA
:102360009A0230919B022817390709F061C0F09357
:102370009B02E0939A02DF91CF910895EA01CE1774
:10238000DF07E8F54A815B819E0141155105B1F7F0
:10239000E901FB83EA8349915991C40FD51FEC17DA
:1023A000FD0761F4808191810296840F951FE901F8
:1023B00099838883828193819B838A83F0E0E0E024
:1023C00012968D919C9113970097B9F52D913C91A0
:1023D0001197CD010296820F931F20919A0230919E
:1023E0009B022817390739F6309751F510929D0254
:1023F00010929C02B0939B02A0939A02BCCFD3830D
:10240000C28340815181840F951FC817D90761F499
:102410004E5F5F4F88819981480F591F51834083D8
:102420008A819B81938382832115310509F0B0CF86
:10243000F0939D02E0939C029ECFFD01DC01C0CF92
:1024400013821282D7CFB0E0A0E0E9E2F2E10C946F
:1024500051108C01009751F4CB010E94FE108C01A9
:10246000C801CDB7DEB7E0E10C946D10FC01E60FBA
:10247000F71F9C0122503109E217F30708F49DC0B1
:10248000D901CD91DC911197C617D70798F0C530C7
:10249000D10530F3CE0104978617970708F3C61BC2
:1024A000D70B2297C193D1936D937C93CF010E9458
:1024B0009A11D6CF5B01AC1ABD0A4C018C0E9D1E41
:1024C000A0919C02B0919D02512C412CF12CE12C49
:1024D000109731F580919A0290919B028815990589
:1024E00009F05CC04616570608F058C080910001FC
:1024F00090910101009741F48DB79EB7409104017E
:1025000050910501841B950BE817F90708F055C099
:10251000F0939B02E0939A02F90171836083A0CF4C
:102520008D919C91119712966C90129713967C90B6
:102530001397A815B90559F56C0142E0C40ED11CDA
:10254000CA14DB0420F1AC014A195B09DA011296C6
:10255000159780F06282738251834083D9016D9315
:102560007C93E114F10471F0D7011396FC93EE9380
:10257000129776CF22968C0F9D1FF901918380834D
:10258000F301EFCFF0939D02E0939C0269CF4816D0
:10259000590608F42C017D01D3019ACFCB010E948A
:1025A000FE107C01009749F0AE01B8010E94E012D4
:1025B000C8010E949A11870153CF10E000E050CF6C
:1025C000FB01DC0102C001900D9241505040D8F750
:1025D0000895FB01DC0101900D920020E1F70895C0
:1025E00010E0C7EED0E004C0FE010E94F810219672
:1025F000C83ED107C9F7F894FFCF00009E028000C3
:1026000058585858585858313030000000000E02C1
:102610006E019B015B02CC01AA01BE01000000001B
:102620004A076E016F076704E3060007ED064400E2
:10263000FE004661696C656420746F207265616498
:102640002066726F6D204448542073656E736F72FC
:1026500021006572726F72005400480064617465F5
:10266000002B25642F256D2F25592025483A254D0F
:0C2670003A2553007570646174656400C5
:107E0000112484B714BE81FFF0D085E080938100F7
:107E100082E08093C00088E18093C10086E0809377
:107E2000C20080E18093C4008EE0C9D0259A86E02C
:107E300020E33CEF91E0309385002093840096BBD3
:107E4000B09BFECF1D9AA8958150A9F7CC24DD24C4
:107E500088248394B5E0AB2EA1E19A2EF3E0BF2EE7
:107E6000A2D0813461F49FD0082FAFD0023811F036
:107E7000013811F484E001C083E08DD089C08234E0
:107E800011F484E103C0853419F485E0A6D080C0E4
:107E9000853579F488D0E82EFF2485D0082F10E0AE
:107EA000102F00270E291F29000F111F8ED06801E7
:107EB0006FC0863521F484E090D080E0DECF843638
:107EC00009F040C070D06FD0082F6DD080E0C81688
:107ED00080E7D80618F4F601B7BEE895C0E0D1E017
:107EE00062D089930C17E1F7F0E0CF16F0E7DF06D8
:107EF00018F0F601B7BEE89568D007B600FCFDCFD4
:107F0000A601A0E0B1E02C9130E011968C91119780
:107F100090E0982F8827822B932B1296FA010C0160
:107F200087BEE89511244E5F5F4FF1E0A038BF0790
:107F300051F7F601A7BEE89507B600FCFDCF97BE46
:107F4000E89526C08437B1F42ED02DD0F82E2BD052
:107F50003CD0F601EF2C8F010F5F1F4F84911BD097
:107F6000EA94F801C1F70894C11CD11CFA94CF0C13
:107F7000D11C0EC0853739F428D08EE10CD085E9AC
:107F80000AD08FE07ACF813511F488E018D01DD067
:107F900080E101D065CF982F8091C00085FFFCCF94
:107FA0009093C60008958091C00087FFFCCF809118
:107FB000C00084FD01C0A8958091C6000895E0E648
:107FC000F0E098E1908380830895EDDF803219F02E
:107FD00088E0F5DFFFCF84E1DECF1F93182FE3DFCA
:107FE0001150E9F7F2DF1F91089580E0E8DFEE27F6
:047FF000FF270994CA
:027FFE00040479
:00000001FF
