:100000000C94D9000C9401010C9401010C94010191
:100010000C9401010C9401010C9401010C94010158
:100020000C9401010C9401010C9401010C94010148
:100030000C9401010C9401010C9401010C94010138
:100040000C94FE060C9401010C94CC060C94A606AC
:100050000C9401010C9401010C9401010C94010118
:100060000C9401010C94010100407A10F35A00A095
:10007000724E18090010A5D4E80000E87648170071
:1000800000E40B54020000CA9A3B000000E1F505B1
:10009000000080969800000040420F000000A086FB
:1000A00001000000102700000000E803000000002D
:1000B0006400000000000A000000000001000000D1
:1000C00000002C76D888DC674F0823DFC1DFAE59EB
:1000D000E1B1B796E5E3E453C63AE651997696E87E
:1000E000E6C28426EB898C9B62ED407C6FFCEFBC02
:1000F0009C9F40F2BAA56FA5F490055A2AF75C932D
:100100006B6CF9676DC11BFCE0E40D47FEF520E662
:10011000B500D0ED902E0300943577050080841E45
:10012000080000204E0A000000C80C333333330FA0
:10013000986E12831141EF8D2114893BE65516CF3D
:10014000FEE6DB18D1844B381BF77C1D901DA4BB49
:10015000E424203284725E228100C9F124ECA1E5FE
:100160003D2772756E2D6272696467650A000A0028
:100170000A0000000000250028002B0000000000FD
:10018000240027002A0004040404040404040202D6
:100190000202020203030303030301020408102006
:1001A00040800102040810200102040810204807C2
:1001B000880A11241FBECFEFD8E0DEBFCDBF22E0FA
:1001C000AAE7B1E001C01D92AB39B207E1F711E037
:1001D000A0E0B1E0E2EFF1E202C005900D92AA3793
:1001E000B107D9F710E0C8EDD0E004C02197FE01B7
:1001F0000E94F40EC73DD107C9F70E9497070C94DF
:10020000EC100C940000EF92FF920F931F93CF938A
:10021000DF938C017B01D0E0C0E0F701EC0FFD1F04
:100220006491662361F0D801ED91FC910190F08119
:10023000E02DC8010995892B11F02196EECFCE0152
:10024000DF91CF911F910F91FF90EF900895AF92A2
:10025000BF92CF92DF92EF92FF920F931F93CF93B3
:10026000DF936C017B018B01040F151FEB015E0115
:10027000AE18BF08C017D10759F06991D601ED91AA
:10028000FC910190F081E02DC6010995892B79F749
:10029000C501DF91CF911F910F91FF90EF90DF90FB
:1002A000CF90BF90AF900895FC01538D448D252FC2
:1002B00030E0842F90E0821B930B541710F0CF9600
:1002C000089501970895FC01918D828D981761F032
:1002D000A28DAE0FBF2FB11D5D968C91928D9F5F49
:1002E0009F73928F90E008958FEF9FEF0895FC0128
:1002F000918D828D981731F0828DE80FF11D858DDB
:1003000090E008958FEF9FEF0895FC01918D228D6D
:10031000892F90E0805C9F4F821B91098F739927F2
:1003200008958BE991E00E94850121E0892B09F471
:1003300020E0822F089580E090E0892B29F00E9430
:10034000910181110C9400000895FC01A48DA80F67
:10035000B92FB11DA35ABF4F2C91848D90E0019607
:100360008F739927848FA689B7892C93A089B18927
:100370008C91837080648C93938D848D981306C0C8
:100380000288F389E02D80818F7D80830895EF922C
:10039000FF920F931F93CF93DF93EC0181E0888F3F
:1003A0009B8D8C8D98131AC0E889F989808185FF0F
:1003B00015C09FB7F894EE89FF896083E889F989B1
:1003C00080818370806480839FBF81E090E0DF91B3
:1003D000CF911F910F91FF90EF900895F62E0B8D06
:1003E00010E00F5F1F4F0F731127E02E8C8D8E11C1
:1003F0000CC00FB607FCFACFE889F989808185FF28
:10040000F5CFCE010E94A501F1CFEB8DEC0FFD2FB2
:10041000F11DE35AFF4FF0829FB7F8940B8FEA89E2
:10042000FB8980818062CFCFCF93DF93EC01888DF1
:100430008823B9F0AA89BB89E889F9898C9185FD5F
:1004400003C0808186FD0DC00FB607FCF7CF8C91ED
:1004500085FFF2CF808185FFEDCFCE010E94A501FF
:10046000E9CFDF91CF9108953FB7F89480917B0158
:1004700090917C01A0917D01B0917E0126B5A89B51
:1004800005C02F3F19F00196A11DB11D3FBFBA2F26
:10049000A92F982F8827BC01CD01620F711D811DE6
:1004A000911D42E0660F771F881F991F4A95D1F76B
:1004B00008958F929F92AF92BF92CF92DF92EF9268
:1004C000FF924B015C010E9434026B017C010E948F
:1004D00034026C197D098E099F09683E73408105BD
:1004E0009105A8F321E0821A9108A108B10888EECD
:1004F000C80E83E0D81EE11CF11C81149104A104F4
:10050000B10429F7FF90EF90DF90CF90BF90AF90AC
:100510009F908F9008950895CF93DF93EC018D8184
:100520009E81DC01ED91FC910084F185E02D09951F
:100530001816190654F48D819E81DC01ED91FC9111
:100540000284F385E02D0995EACFDF91CF910895DC
:100550008F929F92AF92BF92CF92DF92EF92FF92D3
:10056000CF93DF93EC018FB7F89480909701909030
:100570009801A0909901B0909A018FBF6B01F12C66
:10058000E12C8D819E81DC01ED91FC910284F3854B
:10059000E02D099597FF16C02FB7F8948091970129
:1005A00090919801A0919901B0919A012FBF88195B
:1005B0009909AA09BB098C159D05AE05BF0508F36D
:1005C0008FEF9FEFDF91CF91FF90EF90DF90CF9073
:1005D000BF90AF909F908F900895FC01238134814C
:1005E0002627022E2295207F2025032E322F2295AA
:1005F0002F700226269532272327220F220F220F43
:1006000020253483238308952F923F924F925F9247
:100610006F927F928F929F92AF92BF92CF92DF9212
:10062000EF92FF920F931F93CF93DF93CDB7DEB777
:100630002A970FB6F894DEBF0FBECDBF9A87898781
:100640005B01290137011A01200E311E3A821982FD
:1006500088248A94982C9A01260F371F3E832D8375
:10066000C801840D951D98878F83A985BA85189632
:100670008C91B981B81708F040C1E985FA85948258
:10068000838285819681DC01ED91FC910190F0815E
:10069000E02D6FEF09956FEF89859A850E94ED0235
:1006A000E985FA8585819681DC01ED91FC910190C7
:1006B000F081E02DA985BA856C910995E985FA85C7
:1006C0006081CF010E94ED02A985BA8515968D91B2
:1006D0009C91DC01ED91FC910190F081E02D6A810B
:1006E00009956A8189859A850E94ED02E985FA85D6
:1006F00085819681DC01ED91FC910190F081E02DE6
:10070000622D0995622D89859A850E94ED028501E9
:10071000E985FA8585819681DC01ED91FC91019056
:10072000F081E02D2D813E8120173107E1F4820117
:10073000E985FA8585819681DC01ED91FC91019036
:10074000F081E02D2F81388520173107C1F0D801C5
:100750006D918D010995F8013197608189859A85A0
:100760000E94ED02E5CFD8016D918D010995F80148
:100770003197608189859A850E94ED02C9CFA9854C
:10078000BA8514966C910995E985FA8585819681DB
:10079000DC01ED91FC910190F081E02DA985BA85F5
:1007A00013966C91099568EC70E089859A850E9492
:1007B000A8028F3F910509F092C0E985FA859482DD
:1007C00083826FEFCF010E94ED0265E070E08985C2
:1007D0009A850E94A802A985BA856C9168171906A6
:1007E00009F07DC0CD010E94ED026AE070E08985CC
:1007F0009A850E94A8027C0197FD71C0682F8985A7
:100800009A850E94ED026AE070E089859A850E94CF
:10081000A8028C0197FD63C0682F89859A850E9484
:10082000ED02EC821B82EB81FC810E0F1F1FF12C6D
:10083000E12C65E070E089859A850E151F05A1F011
:10084000EC14FD0489F00E94A80297FD09C0F30191
:10085000EE0DFF1D8083682F89859A850E94ED0229
:10086000FFEFEF1AFF0AE5CF0E94A8027C0197FD77
:1008700036C065E070E089859A850E94A80297FDE0
:100880002EC0FE2CEE248E0D9F1DA985BA851396D1
:100890002D913C9114978217930709F58C918F5FE6
:1008A0008C93C801C016D10608F4C6012A960FB66B
:1008B000F894DEBF0FBECDBFDF91CF911F910F9196
:1008C000FF90EF90DF90CF90BF90AF909F908F9070
:1008D0007F906F905F904F903F902F900895B981D7
:1008E000BF5FB98364E670E080E090E00E94590247
:1008F00089859A850E948C02B8CE8FEF9FEFD6CF64
:10090000CF92DF92EF92FF920F931F9368017901CC
:1009100010E000E030E020E00E9404031F910F91FE
:10092000FF90EF90DF90CF9008950F931F93CF9398
:10093000DF9300D0CDB7DEB7809154028823A1F0B9
:1009400087E78983809151028A8310E000E030E0DC
:1009500020E042E050E0BE016F5F7F4F80914F0288
:10096000909150020E948004109254020F900F90B8
:10097000DF91CF911F910F9108950F931F93CF9304
:10098000DF9300D01F92CDB7DEB782E789838091D5
:1009900051028A8301E010E09E012D5F3F4F42E04B
:1009A00050E0BE016F5F7F4F80914F0290915002E7
:1009B0000E94800481E09B81913009F080E00F90DB
:1009C0000F900F90DF91CF911F910F910895EF92AB
:1009D000FF920F931F93CF93DF9300D01F92CDB759
:1009E000DEB7FC012289211118C07C01138A8FE433
:1009F000898380E48B8386858A839F012C5E3F4FA9
:100A000000E410E043E050E0BE016F5F7F4F84855B
:100A100095850E948004F701828B0F900F900F90B4
:100A2000DF91CF911F910F91FF90EF900895CF9399
:100A3000DF93EC010E94E7048A8990E0DF91CF9177
:100A40000895CF93DF93EC010E94E7048A898823FD
:100A500041F08B89C80FD11D8C8990E0DF91CF9137
:100A600008958FEF9FEFFACFCF93DF93EC010E94B1
:100A7000E7048A89882369F081508A8B8B8991E009
:100A8000980F9B8BC80FD11D8C8990E0DF91CF917F
:100A900008958FEF9FEFFACF2FB7F89480919701C9
:100AA00090919801A0919901B0919A012FBF8093E4
:100AB0004B0290934C02A0934D02B0934E0283E4FC
:100AC00092E00E94340597FF26C02FB7F8948091DA
:100AD000970190919801A0919901B0919A012FBF2F
:100AE00040914B0250914C0260914D0270914E0228
:100AF000841B950BA60BB70B4091470250914802FF
:100B00006091490270914A0284179507A607B707BA
:100B1000B0F28FEF9FEF08950F931F93CF93DF9362
:100B200000D01F92CDB7DEB729E42983FC012685CA
:100B30002A836B8310E000E030E020E043E050E0E7
:100B4000BE016F5F7F4F848595850E94800481E0A0
:100B500090E00F900F900F90DF91CF911F910F9128
:100B6000089590E080E00895CF93DF93EC018881B1
:100B70009981009711F00E94960F198218821D82A8
:100B80001C821B821A82DF91CF910895FC01808123
:100B90009181009711F00C94960F08950F931F9375
:100BA000CF93DF93EC0188819981009759F02A81D6
:100BB0003B812617370730F081E0DF91CF911F91FD
:100BC0000F9108958B016F5F7F4F0E941F10009758
:100BD00059F0998388831B830A832C813D81232BC1
:100BE00059F7FC011082E8CF80E0E7CFEF92FF9247
:100BF0000F931F93CF93DF936115710541F480E04C
:100C0000DF91CF911F910F91FF90EF9008954115C3
:100C10005105B1F07B01EC010C811D81040F151F02
:100C2000B8010E94CE05882351F3288139818C8137
:100C30009D81B701820F931F0E94E5101D830C83D5
:100C400081E0DECFFB0101900020E9F73197AF0191
:100C5000461B570B0C94F605EF92FF920F931F93D0
:100C6000CF93DF93EC017B018A01BA010E94CE058C
:100C700081110BC0CE010E94B405CE01DF91CF914E
:100C80001F910F91FF90EF9008951D830C83B70182
:100C9000888199810E94E510F0CFFC0111821082B9
:100CA0001382128215821482FB0101900020E9F761
:100CB0003197AF01461B570B0C942C06EF92FF9215
:100CC0000F931F93CF93DF9300D000D000D01F92DB
:100CD000CDB7DEB77C018B016CE471E0CE010196EB
:100CE0000E944D06E114F10429F0B701CE010196EE
:100CF0000E9422066EE471E0CE0101960E94220657
:100D00000115110529F0B801CE0101960E942206B5
:100D10004D815E8169817A8101E010E09E01295F49
:100D20003F4F88E392E00E948004CE0101960E942A
:100D3000C60527960FB6F894DEBF0FBECDBFDF9174
:100D4000CF911F910F91FF90EF9008951F920F92F6
:100D50000FB60F9211242F933F934F935F936F938E
:100D60007F938F939F93AF93BF93EF93FF938BE901
:100D700091E00E94A501FF91EF91BF91AF919F91EA
:100D80008F917F916F915F914F913F912F910F9034
:100D90000FBE0F901F9018951F920F920FB60F92D3
:100DA00011242F938F939F93EF93FF93E091AB01C7
:100DB000F091AC018081E091B101F091B20182FD2E
:100DC0001BC090818091B4018F5F8F732091B5011A
:100DD000821741F0E091B401F0E0E556FE4F958FA7
:100DE0008093B401FF91EF919F918F912F910F907C
:100DF0000FBE0F901F9018958081F4CF1F920F9215
:100E00000FB60F9211242F933F938F939F93AF931D
:100E1000BF938091970190919801A0919901B09111
:100E20009A0130917A0123E0230F2D3758F501966E
:100E3000A11DB11D20937A01809397019093980191
:100E4000A0939901B0939A0180917B0190917C01CC
:100E5000A0917D01B0917E010196A11DB11D8093ED
:100E60007B0190937C01A0937D01B0937E01BF91A3
:100E7000AF919F918F913F912F910F900FBE0F9047
:100E80001F90189526E8230F0296A11DB11DD2CF01
:100E9000EBE9F1E01382128248EE53E060E070E08B
:100EA00044835583668377838CE291E091838083CA
:100EB00085EC90E09587848784EC90E0978786871F
:100EC00080EC90E0918B808B81EC90E0938B828B17
:100ED00082EC90E0958B848B86EC90E0978B868BF0
:100EE000118E128E138E148EA8E3B2E01C92169609
:100EF000FC93EE93159717961C92179718961C92D1
:100F000018971A96FC93EE931997E3E4F2E0138294
:100F1000128244835583668377838EE391E09183C5
:100F20008083B587A487118A128A138A0895CF9384
:100F3000DF93CDB7DEB7A3970FB6F894DEBF0FBE31
:100F4000CDBF789484B5826084BD84B5816084BD52
:100F500085B5826085BD85B5816085BD80916E0057
:100F6000816080936E001092810080918100826088
:100F700080938100809181008160809381008091C5
:100F800080008160809380008091B10084608093B4
:100F9000B1008091B00081608093B00080917A00B0
:100FA000846080937A0080917A00826080937A00D6
:100FB00080917A00816080937A0080917A008068C5
:100FC00080937A001092C100E0914102F0914202B8
:100FD000A089B18982E08C93A485B5851C92A685F1
:100FE000B78587E08C93108EA489B58986E08C93B1
:100FF000A289B3898C9180618C93A289B3898C91E9
:1010000088608C93A289B3898C9180688C930288C4
:10101000F389E02D80818F7D808380913F02811153
:10102000BDC081E080933F0288E392E00E948C0281
:1010300068EE73E080E090E00E94590280913D02EA
:1010400090913E02DC01ED91FC910084F185E02D50
:1010500009951816190644F3FF24F39472E3E72E5A
:1010600085E0E6E0F1E0DE01539601900D928A956D
:10107000E1F7F092400210E000E030E020E045E0CF
:1010800050E0BE016D5E7F4F88E392E00E948004D5
:1010900080913D0290913E02DC01ED91FC91019026
:1010A000F081E02D63E009956AEF70E080E090E068
:1010B0000E94590260E771E080913D0290913E02EA
:1010C0000E9403016AEF70E080E090E00E94590204
:1010D0006EE671E080913D0290913E020E94030114
:1010E00064EF71E080E090E00E94590262E671E0F6
:1010F00080913D0290913E020E94030164EF71E0F5
:1011000080E090E00E94590288E392E00E948C0205
:1011100085E0EBE0F1E0DE01119601900D928A95F9
:10112000E1F7E092400204E010E09E01275E3F4FAD
:1011300045E050E0BE016F5F7F4F88E392E00E9480
:1011400080048F3F980739F468EE73E080E090E008
:101150000E94590285CF298D2111FFCF049709F0F4
:1011600083C12A8D2053330B44E6429FC001439F25
:10117000900D11242B8DEAE02E9F800D911D1124DE
:10118000805E91402C8D2053330B820F931F9093E0
:101190003A028093390282E38093400228E231E0F0
:1011A000A0E1B1E08D919D919927FC01E656FE4F9B
:1011B00044918A579E4FFC0184918823C9F090E0A6
:1011C000880F991FFC01E458FE4F65917491FC0152
:1011D000EE58FE4FE590F4909FB7F894FB018081A4
:1011E000409584238083F7018081842380839FBF7F
:1011F0002A173B07B9F69E012F5F3F4F590130E098
:10120000832E30E0932E42E5342E57E5452E5524AB
:1012100053949FE7692E91E0792E20E1C22E21E0C0
:10122000D22EF12CE12CD3012D913D913D01F601FF
:101230008081F2E0CF0ED11C8E3008F08E50877086
:10124000806480937C0080917A00806480937A002F
:1012500080917A0086FDFCCF8091780060917900C2
:10126000762F682F620F731F072E000C880B990BC7
:101270000E941C0D20E030E040E05FE30E94570D2B
:101280000E94BE0EF301329771836083072E000C1B
:10129000880B990B0E941C0D20E030E040EA50E4DE
:1012A0000E94570D20E030EC4FE754E40E944C0EB2
:1012B0008E01015E1F4F23E045E00E94900AB801B5
:1012C000CE0143960E944D062FEFE21AF20A1A8EC3
:1012D000198E1C8E1B8E1E8E1D8E4AE0B501C70115
:1012E0000E94AE0AF50101900020E9F73197AF01A5
:1012F0004A195B09B501CE0149960E942C0660E5AA
:1013000071E0C5010E944D064D8D5E8D698D7A8D0F
:10131000C5010E94F605811103C0C5010E94B405F4
:1013200046E050E063E571E0C5010E94F6058111D9
:1013300003C0C5010E94B4056B897C8989819A81AB
:101340000E945E06C5010E94C605CE0149960E9414
:10135000C605CE0143960E94C6053CE0E316F104A3
:1013600009F061CF0E94BD04811193C06AE571E06C
:10137000C5010E944D060E94950486E090E00E94FF
:10138000FA0E7C01DC0111961C921E9213961C929F
:101390001E92129715961C921E92149769817A815B
:1013A0006115710521F04D815E810E942C06F0923D
:1013B0005302E0925202C5010E94C6056FE571E03A
:1013C000C5010E944D066EE471E080915202909139
:1013D00053020E9422064D815E8169817A8180914B
:1013E0005202909153020E94F605C5010E94C60563
:1013F0003B8AE0915202F0915302048115812081D1
:10140000318182E0C82ED12C750141E050E0BE014F
:101410006D5E7F4F80914F02909150020E940403B5
:101420008A8180935102E0905202F0905302E114BD
:10143000F10431F0C7010E94C605C7010E94960F52
:1014400010925302109252028981811102C050926F
:1014500054020E94BD04882351F064E670E080E0ED
:1014600090E00E945902F5CF84E690E090CE4B8A3E
:10147000809151028C8B02E010E0950142E050E037
:10148000BE016D5E7F4F80914F02909150020E948D
:10149000800483E492E00E94E7048091550288234F
:1014A00059F16DE471E0C5010E944D060E944C05A2
:1014B00097FD0EC08A30910559F08B8B1C8A41E054
:1014C00050E0BE016D5E7F4FC5010E94F605EECF74
:1014D00062E771E0CE0143960E944D0669817A81F0
:1014E0008B899C890E945E06CE0143960E94C605A8
:1014F000C5010E94C605CDCF8114910409F489CE9F
:101500000E949101882309F484CE0E94000081CEBC
:101510008EE391E090934402809343020C949504EF
:10152000EF920F931F93CF93DF93E80134E047FDD1
:1015300034E1042E000C550B57FF03C05195419523
:101540005109E32E022F242FAE010E94D30ACE01AF
:10155000DF91CF911F910F91EF900895BB274A30F3
:1015600031F4992322F4BDE2909581959F4F0C941C
:10157000BA0ABB27FB015527AA27880F991FAA1F64
:10158000A41710F0A41B83955051B9F7A05DAA339E
:1015900008F0A95DA193009779F7B111B193119269
:1015A000CB010C940A0DA9E0B0E0E9EDFAE00C944F
:1015B0001B0E6A01F22EB02E102FFBE3AF2EA016E9
:1015C00008F41BE31F5F012F27E0AE014F5F5F4F61
:1015D0000E94320CBC018981982F9970913009F4D6
:1015E0003FC09BE2E1FC04C09E2D9170E0FC3AC03C
:1015F0005E2D5071E82FE87083FF46C084E09111A2
:1016000001C083E0EF2DE81B8F1508F0E0E0D60164
:101610008E2F20E2552351F1992329F0D6019C9376
:10162000C60101966C0196012D5F3F4FE2FE24C07A
:101630008EE4D6018C9391E411969C9311971296A7
:101640008C93D9018E2F90E281111BC0E20FF32FF2
:10165000F11D10828EEF9FEF2996ECE00C94370E6F
:101660009DE2C6CF90E2C4CF2D9381508111FCCF73
:10167000CE0ED11CE0E0D0CF8EE6D6018C9391E661
:10168000DBCF9D938150E0CF482F447082FF3DC057
:1016900084E0911101C083E08F1510F4EF2DE81B59
:1016A000D6018E2F20E2552309F1992329F0D60186
:1016B0009C93C60101966C0196012D5F3F4FE2FE9F
:1016C0001BC089E4D6018C938EE411968C931197FC
:1016D00086E412968C93D9018E2F90E2882309F428
:1016E000B5CF9D938150FACF2D9381508111FCCFBE
:1016F000CE0ED11CE0E0D9CF89E6D6018C938EE6E0
:1017000011968C93119786E6E4CF9B0177FF02C078
:1017100030E020E0A1E0B0E0911102C0B0E0A0E034
:10172000F9013196AE0FBF1F8B2C912CBB2009F411
:1017300061C05401EFEFAE1ABE0AAA0DBB1DFA1626
:101740001B0619F014F04F2D4A1B511188C0E3FC01
:1017500059C07601A42FB0E2A1114FC0C40ED11C14
:10176000992309F45BC040E0D6011196F6019083FD
:101770006D01552309F448C0012F060F9A81582F97
:10178000507184FF03C0913309F4015010160CF01E
:1017900047C0093008F008E0EEE2FE2E5B01A01A17
:1017A000B10885019194819491082F3F320729F463
:1017B000D601FC92F60131966F016217730794F11E
:1017C000021713077CF5DB01A21BB30BAA24A39419
:1017D000B12CAC0EBD1EAA0DBB1D11968C912150D3
:1017E0003109D601119628153905F4F0F6018083E8
:1017F0006D01DBCFB12CA12CA0CFF701B1937F01FC
:10180000A150AACF9111B0CFD601942F50E302C0BE
:101810005D9391509111FCCFC40ED11C40E0ACCF30
:1018200001E0BACF80E3DBCF6217730731F4963360
:1018300088F4953311F4552369F0F6018083FD0196
:10184000842F90E2811108C0A40FB11D1C9290E07A
:1018500080E002CF81E3F1CF91938150F3CF9111DA
:1018600083CF8ACF283008F027E03327DA01990F99
:10187000311D87FD916000966105710539F4326074
:101880002E5F3D9330E32A95E1F708959F3F30F0B6
:1018900080387105610509F03C5F3C5F3D939130F4
:1018A00008F08068911DDF93CF931F930F93FF92F1
:1018B000EF92192F987F9695E92F96959695E90FB7
:1018C000FF27EE53FF4F99273327EE24FF24A7016C
:1018D000E70105900894079428F4360FE71EF81ED8
:1018E000491F511D660F771F881F991F0694A1F786
:1018F0000590079428F4E70EF81E491F561FC11DD6
:10190000770F881F991F661F0694A1F7059007940B
:1019100028F4F80E491F561FC71FD11D880F991FA5
:10192000661F771F0694A1F70590079420F4490FCE
:10193000561FC71FD81F990F661F771F881F069451
:10194000A9F784911095177041F0D695C7955795D2
:101950004795F794E7941A95C1F7E8E6F0E06894A4
:101960001590159135916591959105907FE273954C
:10197000E118F10A430B560BC90BD009C0F7E10C73
:10198000F11E431F561FC91FD01D7EF4703311F482
:101990008A95E6CFE894015030F0080F0AF400274A
:1019A000021708F4202F2395022F7A3328F079E3C9
:1019B0007D932A95E9F710C07D932A9589F60694C0
:1019C00097956795379517951794E118F10A430B8A
:1019D000560BC90BD00998F023957E9173957A33F5
:1019E00008F070E37C932013B8F77E9170617D93CB
:1019F00030F0839571E37D9370E32A95E1F711242C
:101A0000EF90FF900F911F91CF91DF91992787FD64
:101A100090950895DC01FC01672F71917723E1F720
:101A2000329704C07C916D9370836291AE17BF07AB
:101A3000C8F30895E89409C097FB3EF4909580950B
:101A4000709561957F4F8F4F9F4F9923A9F0F92F84
:101A500096E9BB279395F695879577956795B79502
:101A6000F111F8CFFAF4BB0F11F460FF1BC06F5FE8
:101A70007F4F8F4F9F4F16C0882311F096E911C0FA
:101A8000772321F09EE8872F762F05C0662371F01B
:101A900096E8862F70E060E02AF09A95660F771F2F
:101AA000881FDAF7880F9695879597F908950E9411
:101AB0006A0D0C94DB0D0E94CD0D38F00E94D40D00
:101AC00020F0952311F00C94C40D0C94CA0D112430
:101AD0000C940F0E0E94EC0D70F3959FC1F3950FBF
:101AE00050E0551F629FF001729FBB27F00DB11DA2
:101AF000639FAA27F00DB11DAA1F649F6627B00D32
:101B0000A11D661F829F2227B00DA11D621F739F1A
:101B1000B00DA11D621F839FA00D611D221F749F28
:101B20003327A00D611D231F849F600D211D822F6F
:101B3000762F6A2F11249F5750409AF0F1F0882396
:101B40004AF0EE0FFF1FBB1F661F771F881F9150C3
:101B50005040A9F79E3F510580F00C94C40D0C94A1
:101B60000F0E5F3FE4F3983ED4F386957795679523
:101B7000B795F795E7959F5FC1F7FE2B880F911DED
:101B80009695879597F9089597F99F6780E870E093
:101B900060E008959FEF80EC089500240A941616E3
:101BA000170618060906089500240A94121613064B
:101BB000140605060895092E0394000C11F48823D9
:101BC00052F0BB0F40F4BF2B11F460FF04C06F5FF5
:101BD0007F4F8F4F9F4F089557FD9058440F551FCB
:101BE00059F05F3F71F04795880F97FB991F61F09F
:101BF0009F3F79F087950895121613061406551F16
:101C0000F2CF4695F1DF08C0161617061806991F81
:101C1000F1CF86957105610508940895E894BB2776
:101C200066277727CB0197F908952F923F924F921D
:101C30005F926F927F928F929F92AF92BF92CF925C
:101C4000DF92EF92FF920F931F93CF93DF93CDB765
:101C5000DEB7CA1BDB0B0FB6F894DEBF0FBECDBFDD
:101C600009942A88398848885F846E847D848C84AE
:101C70009B84AA84B984C884DF80EE80FD800C81B7
:101C80001B81AA81B981CE0FD11D0FB6F894DEBF9A
:101C90000FBECDBFED0108950E94600E0C94DB0DC8
:101CA0000E94D40D58F00E94CD0D40F029F45F3F02
:101CB00029F00C94C40D51110C940F0E0C94CA0D04
:101CC0000E94EC0D68F39923B1F3552391F3951B12
:101CD000550BBB27AA2762177307840738F09F5F4D
:101CE0005F4F220F331F441FAA1FA9F335D00E2EBA
:101CF0003AF0E0E832D091505040E695001CCAF727
:101D00002BD0FE2F29D0660F771F881FBB1F2617E9
:101D100037074807AB07B0E809F0BB0B802DBF01C0
:101D2000FF2793585F4F3AF09E3F510578F00C948F
:101D3000C40D0C940F0E5F3FE4F3983ED4F38695E8
:101D400077956795B795F7959F5FC9F7880F911DB0
:101D50009695879597F90895E1E0660F771F881F9C
:101D6000BB1F621773078407BA0720F0621B730B4F
:101D7000840BBA0BEE1F88F7E09508950E94C50EFC
:101D80006894B1110C940F0E08950E94F40D88F020
:101D90009F5798F0B92F9927B751B0F0E1F0660F2F
:101DA000771F881F991F1AF0BA95C9F714C0B13070
:101DB00091F00E940E0EB1E008950C940E0E672F64
:101DC000782F8827B85F39F0B93FCCF3869577959F
:101DD0006795B395D9F73EF4909580957095619588
:101DE0007F4F8F4F9F4F0895EE0FFF1F0590F49187
:101DF000E02D09940F931F93CF93DF9382309105C9
:101E000010F482E090E0E0919902F0919A0230E0C3
:101E100020E0B0E0A0E0309799F42115310509F4F5
:101E20004AC0281B390B24303105D8F58A819B81A3
:101E30006115710589F1FB0193838283FE0111C055
:101E4000408151810281138148175907E0F04817FA
:101E5000590799F4109761F012960C931297139604
:101E60001C933296CF01DF91CF911F910F9108956E
:101E70000093990210939A02F4CF2115310551F085
:101E80004217530738F0A901DB019A01BD01DF01B8
:101E9000F801C1CFEF01F9CF90939A028093990294
:101EA000CDCFFE01E20FF31F8193919322503109B0
:101EB00039832883D7CF2091970230919802232B22
:101EC00041F4209102013091030130939802209354
:101ED000970220910001309101012115310541F453
:101EE0002DB73EB74091040150910501241B350BDD
:101EF000E0919702F0919802E217F307A0F42E1BED
:101F00003F0B2817390778F0AC014E5F5F4F24175D
:101F1000350748F04E0F5F1F509398024093970289
:101F2000819391939FCFF0E0E0E09CCFCF93DF933C
:101F30000097E9F0FC01329713821282A091990276
:101F4000B0919A02ED0130E020E01097A1F42081D9
:101F50003181820F931F20919702309198022817A8
:101F6000390709F061C0F0939802E0939702DF917E
:101F7000CF910895EA01CE17DF07E8F54A815B812A
:101F80009E0141155105B1F7E901FB83EA834991AF
:101F90005991C40FD51FEC17FD0761F48081918121
:101FA0000296840F951FE90199838883828193812A
:101FB0009B838A83F0E0E0E012968D919C911397C9
:101FC0000097B9F52D913C911197CD010296820FA2
:101FD000931F20919702309198022817390739F6FC
:101FE000309751F510929A0210929902B09398028C
:101FF000A0939702BCCFD383C28340815181840FC9
:10200000951FC817D90761F44E5F5F4F888199818A
:10201000480F591F518340838A819B819383828318
:102020002115310509F0B0CFF0939A02E09399029F
:102030009ECFFD01DC01C0CF13821282D7CFB0E06A
:10204000A0E0E5E2F0E10C94170E8C01009751F44A
:10205000CB010E94FA0E8C01C801CDB7DEB7E0E1DA
:102060000C94330EFC01E60FF71F9C01225031093E
:10207000E217F30708F49DC0D901CD91DC911197C7
:10208000C617D70798F0C530D10530F3CE010497B5
:102090008617970708F3C61BD70B2297C193D193D6
:1020A0006D937C93CF010E94960FD6CF5B01AC1A43
:1020B000BD0A4C018C0E9D1EA0919902B0919A020E
:1020C000512C412CF12CE12C109731F58091970285
:1020D000909198028815990509F05CC0461657063C
:1020E00008F058C08091000190910101009741F4DF
:1020F0008DB79EB74091040150910501841B950B4B
:10210000E817F90708F055C0F0939802E09397029A
:10211000F90171836083A0CF8D919C9111971296E4
:102120006C90129713967C901397A815B90559F5E2
:102130006C0142E0C40ED11CCA14DB0420F1AC01D6
:102140004A195B09DA011296159780F06282738250
:1021500051834083D9016D937C93E114F10471F0B4
:10216000D7011396FC93EE93129776CF22968C0F9D
:102170009D1FF90191838083F301EFCFF0939A02C1
:10218000E093990269CF4816590608F42C017D01A5
:10219000D3019ACFCB010E94FA0E7C01009749F03F
:1021A000AE01B8010E94DC10C8010E94960F8701A1
:1021B00053CF10E000E050CFFB01DC0102C00190E2
:1021C0000D9241505040D8F70895FB01DC01019079
:1021D0000D920020E1F7089510E0C8EDD0E004C0B2
:1021E000FE010E94F40E2196C93DD107C9F7F8946B
:0221F000FFCF1F
:1021F20000009B02800058585858585858313030C7
:102202000E000F001000110012001300060007005C
:10221200080009000A000B0000000000C7012701A6
:1022220054011402850163017701000000008C054E
:102232002701B1058B021705340521054400FE0074
:102242004348005F76616C75650064617465002BBC
:1022520025642E256D2E25592025483A254D3A25EF
:0A2262005300757064617465640038
:00000001FF
