:100000000C94D9000C9401010C9401010C94010191
:100010000C9401010C9401010C9401010C94010158
:100020000C9401010C9401010C9401010C94010148
:100030000C9401010C9401010C9401010C94010138
:100040000C9449070C9401010C9417070C94F106C9
:100050000C9401010C9401010C9401010C94010118
:100060000C9401010C94010100407A10F35A00A095
:10007000724E18090010A5D4E80000E87648170071
:1000800000E40B54020000CA9A3B000000E1F505B1
:10009000000080969800000040420F000000A086FB
:1000A00001000000102700000000E803000000002D
:1000B0006400000000000A000000000001000000D1
:1000C00000002C76D888DC674F0823DFC1DFAE59EB
:1000D000E1B1B796E5E3E453C63AE651997696E87E
:1000E000E6C28426EB898C9B62ED407C6FFCEFBC02
:1000F0009C9F40F2BAA56FA5F490055A2AF75C932D
:100100006B6CF9676DC11BFCE0E40D47FEF520E662
:10011000B500D0ED902E0300943577050080841E45
:10012000080000204E0A000000C80C333333330FA0
:10013000986E12831141EF8D2114893BE65516CF3D
:10014000FEE6DB18D1844B381BF77C1D901DA4BB49
:10015000E424203284725E228100C9F124ECA1E5FE
:100160003D2772756E2D6272696467650A000A0028
:100170000A0000000000250028002B0000000000FD
:10018000240027002A0004040404040404040202D6
:100190000202020203030303030301020408102006
:1001A0004080010204081020010204081020930777
:1001B000100B11241FBECFEFD8E0DEBFCDBF22E071
:1001C000A2E8B1E001C01D92A33AB207E1F711E045
:1001D000A0E0B1E0E2E0F3E202C005900D92A238A7
:1001E000B107D9F710E0C8EDD0E004C02197FE01B7
:1001F0000E947C0FC73DD107C9F70E94E2070C940B
:1002000074110C940000EF92FF920F931F93CF9301
:10021000DF938C017B01D0E0C0E0F701EC0FFD1F04
:100220006491662361F0D801ED91FC910190F08119
:10023000E02DC8010995892B11F02196EECFCE0152
:10024000DF91CF911F910F91FF90EF900895AF92A2
:10025000BF92CF92DF92EF92FF920F931F93CF93B3
:10026000DF936C017B018B01040F151FEB015E0115
:10027000AE18BF08C017D10759F06991D601ED91AA
:10028000FC910190F081E02DC6010995892B79F749
:10029000C501DF91CF911F910F91FF90EF90DF90FB
:1002A000CF90BF90AF900895FC01538D448D252FC2
:1002B00030E0842F90E0821B930B541710F0CF9600
:1002C000089501970895FC01918D828D981761F032
:1002D000A28DAE0FBF2FB11D5D968C91928D9F5F49
:1002E0009F73928F90E008958FEF9FEF0895FC0128
:1002F000918D828D981731F0828DE80FF11D858DDB
:1003000090E008958FEF9FEF0895FC01918D228D6D
:10031000892F90E0805C9F4F821B91098F739927F2
:10032000089583EA91E00E94850121E0892B09F478
:1003300020E0822F089580E090E0892B29F00E9430
:10034000910181110C9400000895FC01A48DA80F67
:10035000B92FB11DA35ABF4F2C91848D90E0019607
:100360008F739927848FA689B7892C93A089B18927
:100370008C91837080648C93938D848D981306C0C8
:100380000288F389E02D80818F7D80830895EF922C
:10039000FF920F931F93CF93DF93EC0181E0888F3F
:1003A0009B8D8C8D98131AC0E889F989808185FF0F
:1003B00015C09FB7F894EE89FF896083E889F989B1
:1003C00080818370806480839FBF81E090E0DF91B3
:1003D000CF911F910F91FF90EF900895F62E0B8D06
:1003E00010E00F5F1F4F0F731127E02E8C8D8E11C1
:1003F0000CC00FB607FCFACFE889F989808185FF28
:10040000F5CFCE010E94A501F1CFEB8DEC0FFD2FB2
:10041000F11DE35AFF4FF0829FB7F8940B8FEA89E2
:10042000FB8980818062CFCFCF93DF93EC01888DF1
:100430008823B9F0AA89BB89E889F9898C9185FD5F
:1004400003C0808186FD0DC00FB607FCF7CF8C91ED
:1004500085FFF2CF808185FFEDCFCE010E94A501FF
:10046000E9CFDF91CF9108953FB7F8948091830150
:1004700090918401A0918501B091860126B5A89B39
:1004800005C02F3F19F00196A11DB11D3FBFBA2F26
:10049000A92F982F8827BC01CD01620F711D811DE6
:1004A000911D42E0660F771F881F991F4A95D1F76B
:1004B00008958F929F92AF92BF92CF92DF92EF9268
:1004C000FF924B015C010E9434026B017C010E948F
:1004D00034026C197D098E099F09683E73408105BD
:1004E0009105A8F321E0821A9108A108B10888EECD
:1004F000C80E83E0D81EE11CF11C81149104A104F4
:10050000B10429F7FF90EF90DF90CF90BF90AF90AC
:100510009F908F9008950895CF93DF93EC018D8184
:100520009E81DC01ED91FC910084F185E02D09951F
:100530001816190654F48D819E81DC01ED91FC9111
:100540000284F385E02D0995EACFDF91CF910895DC
:100550008F929F92AF92BF92CF92DF92EF92FF92D3
:10056000CF93DF93EC018FB7F89480909F01909028
:10057000A001A090A101B090A2018FBF6B01F12C4E
:10058000E12C8D819E81DC01ED91FC910284F3854B
:10059000E02D099597FF16C02FB7F89480919F0121
:1005A0009091A001A091A101B091A2012FBF881943
:1005B0009909AA09BB098C159D05AE05BF0508F36D
:1005C0008FEF9FEFDF91CF91FF90EF90DF90CF9073
:1005D000BF90AF909F908F900895FC01238134814C
:1005E0002627022E2295207F2025032E322F2295AA
:1005F0002F700226269532272327220F220F220F43
:1006000020253483238308952F923F924F925F9247
:100610006F927F928F929F92AF92BF92CF92DF9212
:10062000EF92FF920F931F93CF93DF93CDB7DEB777
:100630002A970FB6F894DEBF0FBECDBF9A87898781
:100640005B01290137011A01200E311E3A821982FD
:1006500088248A94982C9A01260F371F3E832D8375
:10066000C801840D951D98878F83A985BA85189632
:100670008C91B981B81708F040C1E985FA85948258
:10068000838285819681DC01ED91FC910190F0815E
:10069000E02D6FEF09956FEF89859A850E94ED0235
:1006A000E985FA8585819681DC01ED91FC910190C7
:1006B000F081E02DA985BA856C910995E985FA85C7
:1006C0006081CF010E94ED02A985BA8515968D91B2
:1006D0009C91DC01ED91FC910190F081E02D6A810B
:1006E00009956A8189859A850E94ED02E985FA85D6
:1006F00085819681DC01ED91FC910190F081E02DE6
:10070000622D0995622D89859A850E94ED028501E9
:10071000E985FA8585819681DC01ED91FC91019056
:10072000F081E02D2D813E8120173107E1F4820117
:10073000E985FA8585819681DC01ED91FC91019036
:10074000F081E02D2F81388520173107C1F0D801C5
:100750006D918D010995F8013197608189859A85A0
:100760000E94ED02E5CFD8016D918D010995F80148
:100770003197608189859A850E94ED02C9CFA9854C
:10078000BA8514966C910995E985FA8585819681DB
:10079000DC01ED91FC910190F081E02DA985BA85F5
:1007A00013966C91099568EC70E089859A850E9492
:1007B000A8028F3F910509F092C0E985FA859482DD
:1007C00083826FEFCF010E94ED0265E070E08985C2
:1007D0009A850E94A802A985BA856C9168171906A6
:1007E00009F07DC0CD010E94ED026AE070E08985CC
:1007F0009A850E94A8027C0197FD71C0682F8985A7
:100800009A850E94ED026AE070E089859A850E94CF
:10081000A8028C0197FD63C0682F89859A850E9484
:10082000ED02EC821B82EB81FC810E0F1F1FF12C6D
:10083000E12C65E070E089859A850E151F05A1F011
:10084000EC14FD0489F00E94A80297FD09C0F30191
:10085000EE0DFF1D8083682F89859A850E94ED0229
:10086000FFEFEF1AFF0AE5CF0E94A8027C0197FD77
:1008700036C065E070E089859A850E94A80297FDE0
:100880002EC0FE2CEE248E0D9F1DA985BA851396D1
:100890002D913C9114978217930709F58C918F5FE6
:1008A0008C93C801C016D10608F4C6012A960FB66B
:1008B000F894DEBF0FBECDBFDF91CF911F910F9196
:1008C000FF90EF90DF90CF90BF90AF909F908F9070
:1008D0007F906F905F904F903F902F900895B981D7
:1008E000BF5FB98364E670E080E090E00E94590247
:1008F00089859A850E948C02B8CE8FEF9FEFD6CF64
:10090000CF92DF92EF92FF920F931F9368017901CC
:1009100010E000E030E020E00E9404031F910F91FE
:10092000FF90EF90DF90CF9008950F931F93CF9398
:10093000DF9300D0CDB7DEB780915C028823A1F0B1
:1009400087E78983809159028A8310E000E030E0D4
:1009500020E042E050E0BE016F5F7F4F8091570280
:10096000909158020E94800410925C020F900F90A8
:10097000DF91CF911F910F9108950F931F93CF9304
:10098000DF9300D01F92CDB7DEB782E789838091D5
:1009900059028A8301E010E09E012D5F3F4F42E043
:1009A00050E0BE016F5F7F4F8091570290915802D7
:1009B0000E94800481E09B81913009F080E00F90DB
:1009C0000F900F90DF91CF911F910F910895EF92AB
:1009D000FF920F931F93CF93DF9300D01F92CDB759
:1009E000DEB7FC012289211118C07C01138A8FE433
:1009F000898380E48B8386858A839F012C5E3F4FA9
:100A000000E410E043E050E0BE016F5F7F4F84855B
:100A100095850E948004F701828B0F900F900F90B4
:100A2000DF91CF911F910F91FF90EF900895CF9399
:100A3000DF93EC010E94E7048A8990E0DF91CF9177
:100A40000895CF93DF93EC010E94E7048A898823FD
:100A500041F08B89C80FD11D8C8990E0DF91CF9137
:100A600008958FEF9FEFFACFCF93DF93EC010E94B1
:100A7000E7048A89882369F081508A8B8B8991E009
:100A8000980F9B8BC80FD11D8C8990E0DF91CF917F
:100A900008958FEF9FEFFACF2FB7F89480919F01C1
:100AA0009091A001A091A101B091A2012FBF8093CC
:100AB000530290935402A0935502B09356028BE4D4
:100AC00092E00E94340597FF26C02FB7F8948091DA
:100AD0009F019091A001A091A101B091A2012FBF0F
:100AE0004091530250915402609155027091560208
:100AF000841B950BA60BB70B40914F0250915002EF
:100B0000609151027091520284179507A607B707AA
:100B1000B0F28FEF9FEF08950F931F93CF93DF9362
:100B200000D01F92CDB7DEB729E42983FC012685CA
:100B30002A836B8310E000E030E020E043E050E0E7
:100B4000BE016F5F7F4F848595850E94800481E0A0
:100B500090E00F900F900F90DF91CF911F910F9128
:100B6000089590E080E00895CF93DF93EC018881B1
:100B70009981009711F00E941E10198218821D821F
:100B80001C821B821A82DF91CF910895FC01808123
:100B90009181009711F00C941E1008950F931F93EC
:100BA000CF93DF93EC0188819981009759F02A81D6
:100BB0003B812617370730F081E0DF91CF911F91FD
:100BC0000F9108958B016F5F7F4F0E94A7100097D0
:100BD00059F0998388831B830A832C813D81232BC1
:100BE00059F7FC011082E8CF80E0E7CFEF92FF9247
:100BF0000F931F93CF93DF936115710541F480E04C
:100C0000DF91CF911F910F91FF90EF9008954115C3
:100C10005105B1F07B01EC010C811D81040F151F02
:100C2000B8010E94CE05882351F3288139818C8137
:100C30009D81B701820F931F0E946D111D830C834C
:100C400081E0DECFFB0101900020E9F73197AF0191
:100C5000461B570B0C94F605CF93DF93EC01FB0179
:100C600044815581608171810E94F605811103C024
:100C7000CE010E94B405CE01DF91CF910895EF928D
:100C8000FF920F931F93CF93DF93EC017B018A01B7
:100C9000BA010E94CE0581110BC0CE010E94B4059D
:100CA000CE01DF91CF911F910F91FF90EF900895AA
:100CB0001D830C83B701888199810E946D11F0CF4B
:100CC000EF92FF920F931F93CF93DF93CDB7DEB7D1
:100CD00062970FB6F894DEBF0FBECDBF8C01CB017B
:100CE000F8011182108213821282158214824AE066
:100CF0009E012F5F3F4F7901B9010E94360BF7012A
:100D000001900020E9F73197AF014E195F09B70153
:100D1000C8010E943F0662960FB6F894DEBF0FBE70
:100D2000CDBFDF91CF911F910F91FF90EF9008956C
:100D3000FC01118210821382128215821482FB013F
:100D400001900020E9F73197AF01461B570B0C9437
:100D50003F06EF92FF920F931F93CF93DF9300D044
:100D600000D000D01F92CDB7DEB77C018B016CE4C0
:100D700071E0CE0101960E949806E114F10429F079
:100D8000B701CE0101960E9422066EE471E0CE0109
:100D900001960E9422060115110529F0B801CE0125
:100DA00001960E9422064D815E8169817A8101E06F
:100DB00010E09E01295F3F4F80E492E00E94800492
:100DC000CE0101960E94C60527960FB6F894DEBFA5
:100DD0000FBECDBFDF91CF911F910F91FF90EF908C
:100DE00008951F920F920FB60F9211242F933F93E5
:100DF0004F935F936F937F938F939F93AF93BF9323
:100E0000EF93FF9383EA91E00E94A501FF91EF9198
:100E1000BF91AF919F918F917F916F915F914F9112
:100E20003F912F910F900FBE0F901F9018951F921A
:100E30000F920FB60F9211242F938F939F93EF93DE
:100E4000FF93E091B301F091B4018081E091B90189
:100E5000F091BA0182FD1BC090818091BC018F5F2F
:100E60008F732091BD01821741F0E091BC01F0E049
:100E7000ED55FE4F958F8093BC01FF91EF919F91AF
:100E80008F912F910F900FBE0F901F90189580811A
:100E9000F4CF1F920F920FB60F9211242F933F930E
:100EA0008F939F93AF93BF9380919F019091A001E7
:100EB000A091A101B091A2013091820123E0230F02
:100EC0002D3758F50196A11DB11D20938201809305
:100ED0009F019093A001A093A101B093A2018091E2
:100EE000830190918401A0918501B09186010196C2
:100EF000A11DB11D8093830190938401A09385016E
:100F0000B0938601BF91AF919F918F913F912F91A7
:100F10000F900FBE0F901F90189526E8230F029692
:100F2000A11DB11DD2CFE3EAF1E01382128248EE97
:100F300053E060E070E044835583668377838CE2FE
:100F400091E09183808385EC90E09587848784ECA1
:100F500090E09787868780EC90E0918B808B81EC86
:100F600090E0938B828B82EC90E0958B848B86EC67
:100F700090E0978B868B118E128E138E148EA0E4C8
:100F8000B2E01C921696FC93EE93159717961C925E
:100F9000179718961C9218971A96FC93EE93199728
:100FA000EBE4F2E0138212824483558366837783F5
:100FB0008EE391E091838083B587A487118A128A9A
:100FC000138A0895CF93DF93CDB7DEB768970FB636
:100FD000F894DEBF0FBECDBF789484B5826084BD27
:100FE00084B5816084BD85B5826085BD85B581602D
:100FF00085BD80916E00816080936E0010928100AB
:101000008091810082608093810080918100816065
:101010008093810080918000816080938000809126
:10102000B10084608093B1008091B00081608093B2
:10103000B00080917A00846080937A0080917A0079
:10104000826080937A0080917A00816080937A0038
:1010500080917A00806880937A001092C100E091BC
:101060004902F0914A02A089B18982E08C93A4855B
:10107000B5851C92A685B78587E08C93108EA489D0
:10108000B58986E08C93A289B3898C9180618C9319
:10109000A289B3898C9188608C93A289B3898C9141
:1010A00080688C930288F389E02D80818F7D808316
:1010B000809147028111BDC081E08093470280E4A6
:1010C00092E00E948C0268EE73E080E090E00E9463
:1010D00059028091450290914602DC01ED91FC910C
:1010E0000084F185E02D09951816190644F3FF24B4
:1010F000F39472E3E72E85E0E6E0F1E0DE01179677
:1011000001900D928A95E1F7F092480210E000E01C
:1011100030E020E045E050E0BE01695F7F4F80E4B1
:1011200092E00E9480048091450290914602DC0189
:10113000ED91FC910190F081E02D63E009956AEF5B
:1011400070E080E090E00E94590260E771E08091D9
:101150004502909146020E9403016AEF70E080E030
:1011600090E00E9459026EE671E0809145029091F4
:1011700046020E94030164EF71E080E090E00E946B
:10118000590262E671E080914502909146020E9408
:10119000030164EF71E080E090E00E94590280E476
:1011A00092E00E948C0285E0EBE0F1E0DE01119616
:1011B00001900D928A95E1F7E092480204E010E078
:1011C0009E01235F3F4F45E050E0BE016F5F7F4FC0
:1011D00080E492E00E9480048F3F980739F468EE23
:1011E00073E080E090E00E94590285CF2D852111A7
:1011F000FFCF049709F0BBC12E852053330B44E683
:10120000429FC001439F900D11242F85EAE02E9F3D
:10121000800D911D1124805E914028892053330B4D
:10122000820F931F909342028093410282E3809346
:101230004802A0E1B1E08D919D919927FC01E6560D
:10124000FE4F24918A579E4FFC0184918823C9F058
:1012500090E0880F991FFC01E458FE4F459154918E
:10126000FC01EE58FE4F659174919FB7F894FA0116
:101270008081209582238083FB018081822380836B
:101280009FBFF1E0A832BF07B1F610E000E00F5FAA
:101290001F4FB801CE0101960E94600660E571E023
:1012A000CE0107960E949806BE016F5F7F4FCE0168
:1012B00007960E942C066C01B801CE010D960E9483
:1012C000600661E571E0CE0143960E949806BE017A
:1012D000635F7F4FCE0143960E942C067C0145E060
:1012E00050E064E571E00E94F605811103C0C7017A
:1012F0000E94B405D6016D917C91F70180819181A6
:101300000E94A906CE0143960E94C605CE010D9605
:101310000E94C605CE0107960E94C605CE01019621
:101320000E94C6050C30110509F0B1CF30E0A32EA4
:1013300030E0B32E42E5542E57E5652E77247394A2
:1013400097E8892E91E0992E20E1C22E21E0D22E3D
:10135000F12CE12CD4012D913D914D01F6018081BC
:10136000F2E0CF0ED11C8E3008F08E508770806472
:1013700080937C0080917A00806480937A008091D1
:101380007A0086FDFCCF8091780060917900762FFD
:10139000682F620F731F072E000C880B990B0E9499
:1013A000A40D20E030E040E05FE30E94DF0D0E94EA
:1013B000460FF401329771836083072E000C880B6F
:1013C000990B0E94A40D20E030E040EA50E40E9416
:1013D000DF0D20E030EC4FE754E40E94D40E8E0184
:1013E0000D5E1F4F23E045E00E94180BB801CE01AF
:1013F00001960E9498062FEFE21AF20AB701CE0179
:1014000007960E94600661E571E0CE010D960E948C
:101410009806BE01695F7F4FCE010D960E942C0693
:101420008C0146E050E06AE571E00E94F60581110A
:1014300003C0C8010E94B40569817A81D8018D91E9
:101440009C910E94A906CE010D960E94C605CE0170
:1014500007960E94C605CE0101960E94C605BCE013
:10146000EB16F10409F076CF0E94BD04811196C0FD
:1014700061E671E0CE0101960E9498060E949504F3
:1014800086E090E00E94820F8C01FC0111821082A4
:10149000138212821582148269817A816115710525
:1014A00021F04D815E810E943F0610935B02009304
:1014B0005A02CE0101960E94C60566E671E0CE0191
:1014C00001960E9498066EE471E080915A02909114
:1014D0005B020E9422064D815E8169817A81809142
:1014E0005A0290915B020E94F605CE0101960E947D
:1014F000C6055F82E0915A02F0915B02048115817A
:101500002081318182E0C82ED12CCE0101967C0150
:1015100041E050E0BE01695F7F4F8091570290919A
:1015200058020E9404038A818093590200915A0252
:1015300010915B020115110531F0C8010E94C6052A
:10154000C8010E941E1010925B0210925A028981FB
:10155000811102C070925C020E94BD04882351F088
:1015600064E670E080E090E00E945902F5CF84E6E6
:1015700090E058CE6F8280915902888702E010E097
:101580009E012F5F3F4F42E050E0BE01695F7F4FF9
:1015900080915702909158020E9480048BE492E05F
:1015A0000E94E70480915D02882371F16DE471E08F
:1015B000CE0101960E9498060E944C0597FD0FC02F
:1015C0008A30910561F08F83188641E050E0BE01BA
:1015D000695F7F4FCE0101960E94F605EDCF69E766
:1015E00071E0CE0107960E94980669817A818F8109
:1015F00098850E94A906CE0107960E94C605CE01D5
:1016000001960E94C605CACFA114B10409F498CE70
:101610000E949101882309F493CE0E94000090CE8D
:101620008EE391E090934C0280934B020C949504CE
:10163000EF920F931F93CF93DF93E80134E047FDC0
:1016400034E1042E000C550B57FF03C05195419512
:101650005109E32E022F242FAE010E945B0BCE0115
:10166000DF91CF911F910F91EF900895BB274A30E2
:1016700031F4992322F4BDE2909581959F4F0C940B
:10168000420BBB27FB015527AA27880F991FAA1FCA
:10169000A41710F0A41B83955051B9F7A05DAA338D
:1016A00008F0A95DA193009779F7B111B193119258
:1016B000CB010C94920DA9E0B0E0E1E6FBE00C94C4
:1016C000A30E6A01F22EB02E102FFBE3AF2EA01650
:1016D00008F41BE31F5F012F27E0AE014F5F5F4F50
:1016E0000E94BA0CBC018981982F9970913009F43D
:1016F0003FC09BE2E1FC04C09E2D9170E0FC3AC02B
:101700005E2D5071E82FE87083FF46C084E0911190
:1017100001C083E0EF2DE81B8F1508F0E0E0D60153
:101720008E2F20E2552351F1992329F0D6019C9365
:10173000C60101966C0196012D5F3F4FE2FE24C069
:101740008EE4D6018C9391E411969C931197129696
:101750008C93D9018E2F90E281111BC0E20FF32FE1
:10176000F11D10828EEF9FEF2996ECE00C94BF0ED6
:101770009DE2C6CF90E2C4CF2D9381508111FCCF62
:10178000CE0ED11CE0E0D0CF8EE6D6018C9391E650
:10179000DBCF9D938150E0CF482F447082FF3DC046
:1017A00084E0911101C083E08F1510F4EF2DE81B48
:1017B000D6018E2F20E2552309F1992329F0D60175
:1017C0009C93C60101966C0196012D5F3F4FE2FE8E
:1017D0001BC089E4D6018C938EE411968C931197EB
:1017E00086E412968C93D9018E2F90E2882309F417
:1017F000B5CF9D938150FACF2D9381508111FCCFAD
:10180000CE0ED11CE0E0D9CF89E6D6018C938EE6CE
:1018100011968C93119786E6E4CF9B0177FF02C067
:1018200030E020E0A1E0B0E0911102C0B0E0A0E023
:10183000F9013196AE0FBF1F8B2C912CBB2009F400
:1018400061C05401EFEFAE1ABE0AAA0DBB1DFA1615
:101850001B0619F014F04F2D4A1B511188C0E3FCF0
:1018600059C07601A42FB0E2A1114FC0C40ED11C03
:10187000992309F45BC040E0D6011196F6019083EC
:101880006D01552309F448C0012F060F9A81582F86
:10189000507184FF03C0913309F4015010160CF00D
:1018A00047C0093008F008E0EEE2FE2E5B01A01A06
:1018B000B10885019194819491082F3F320729F452
:1018C000D601FC92F60131966F016217730794F10D
:1018D000021713077CF5DB01A21BB30BAA24A39408
:1018E000B12CAC0EBD1EAA0DBB1D11968C912150C2
:1018F0003109D601119628153905F4F0F6018083D7
:101900006D01DBCFB12CA12CA0CFF701B1937F01EA
:10191000A150AACF9111B0CFD601942F50E302C0AD
:101920005D9391509111FCCFC40ED11C40E0ACCF1F
:1019300001E0BACF80E3DBCF6217730731F496334F
:1019400088F4953311F4552369F0F6018083FD0185
:10195000842F90E2811108C0A40FB11D1C9290E069
:1019600080E002CF81E3F1CF91938150F3CF9111C9
:1019700083CF8ACF283008F027E03327DA01990F88
:10198000311D87FD916000966105710539F4326063
:101990002E5F3D9330E32A95E1F708959F3F30F0A5
:1019A00080387105610509F03C5F3C5F3D939130E3
:1019B00008F08068911DDF93CF931F930F93FF92E0
:1019C000EF92192F987F9695E92F96959695E90FA6
:1019D000FF27EE53FF4F99273327EE24FF24A7015B
:1019E000E70105900894079428F4360FE71EF81EC7
:1019F000491F511D660F771F881F991F0694A1F775
:101A00000590079428F4E70EF81E491F561FC11DC4
:101A1000770F881F991F661F0694A1F705900794FA
:101A200028F4F80E491F561FC71FD11D880F991F94
:101A3000661F771F0694A1F70590079420F4490FBD
:101A4000561FC71FD81F990F661F771F881F069440
:101A5000A9F784911095177041F0D695C7955795C1
:101A60004795F794E7941A95C1F7E8E6F0E0689493
:101A70001590159135916591959105907FE273953B
:101A8000E118F10A430B560BC90BD009C0F7E10C62
:101A9000F11E431F561FC91FD01D7EF4703311F471
:101AA0008A95E6CFE894015030F0080F0AF4002739
:101AB000021708F4202F2395022F7A3328F079E3B8
:101AC0007D932A95E9F710C07D932A9589F60694AF
:101AD00097956795379517951794E118F10A430B79
:101AE000560BC90BD00998F023957E9173957A33E4
:101AF00008F070E37C932013B8F77E9170617D93BA
:101B000030F0839571E37D9370E32A95E1F711241A
:101B1000EF90FF900F911F91CF91DF91992787FD53
:101B200090950895DC01FC01672F71917723E1F70F
:101B3000329704C07C916D9370836291AE17BF079A
:101B4000C8F30895E89409C097FB3EF490958095FA
:101B5000709561957F4F8F4F9F4F9923A9F0F92F73
:101B600096E9BB279395F695879577956795B795F1
:101B7000F111F8CFFAF4BB0F11F460FF1BC06F5FD7
:101B80007F4F8F4F9F4F16C0882311F096E911C0E9
:101B9000772321F09EE8872F762F05C0662371F00A
:101BA00096E8862F70E060E02AF09A95660F771F1E
:101BB000881FDAF7880F9695879597F908950E9400
:101BC000F20D0C94630E0E94550E38F00E945C0ECC
:101BD00020F0952311F00C944C0E0C94520E11240D
:101BE0000C94970E0E94740E70F3959FC1F3950F9D
:101BF00050E0551F629FF001729FBB27F00DB11D91
:101C0000639FAA27F00DB11DAA1F649F6627B00D20
:101C1000A11D661F829F2227B00DA11D621F739F09
:101C2000B00DA11D621F839FA00D611D221F749F17
:101C30003327A00D611D231F849F600D211D822F5E
:101C4000762F6A2F11249F5750409AF0F1F0882385
:101C50004AF0EE0FFF1FBB1F661F771F881F9150B2
:101C60005040A9F79E3F510580F00C944C0E0C9407
:101C7000970E5F3FE4F3983ED4F38695779567958A
:101C8000B795F795E7959F5FC1F7FE2B880F911DDC
:101C90009695879597F9089597F99F6780E870E082
:101CA00060E008959FEF80EC089500240A941616D2
:101CB000170618060906089500240A94121613063A
:101CC000140605060895092E0394000C11F48823C8
:101CD00052F0BB0F40F4BF2B11F460FF04C06F5FE4
:101CE0007F4F8F4F9F4F089557FD9058440F551FBA
:101CF00059F05F3F71F04795880F97FB991F61F08E
:101D00009F3F79F087950895121613061406551F04
:101D1000F2CF4695F1DF08C0161617061806991F70
:101D2000F1CF86957105610508940895E894BB2765
:101D300066277727CB0197F908952F923F924F920C
:101D40005F926F927F928F929F92AF92BF92CF924B
:101D5000DF92EF92FF920F931F93CF93DF93CDB754
:101D6000DEB7CA1BDB0B0FB6F894DEBF0FBECDBFCC
:101D700009942A88398848885F846E847D848C849D
:101D80009B84AA84B984C884DF80EE80FD800C81A6
:101D90001B81AA81B981CE0FD11D0FB6F894DEBF89
:101DA0000FBECDBFED0108950E94E80E0C94630EA6
:101DB0000E945C0E58F00E94550E40F029F45F3FDF
:101DC00029F00C944C0E51110C94970E0C94520E59
:101DD0000E94740E68F39923B1F3552391F3951B78
:101DE000550BBB27AA2762177307840738F09F5F3C
:101DF0005F4F220F331F441FAA1FA9F335D00E2EA9
:101E00003AF0E0E832D091505040E695001CCAF715
:101E10002BD0FE2F29D0660F771F881FBB1F2617D8
:101E200037074807AB07B0E809F0BB0B802DBF01AF
:101E3000FF2793585F4F3AF09E3F510578F00C947E
:101E40004C0E0C94970E5F3FE4F3983ED4F38695C6
:101E500077956795B795F7959F5FC9F7880F911D9F
:101E60009695879597F90895E1E0660F771F881F8B
:101E7000BB1F621773078407BA0720F0621B730B3E
:101E8000840BBA0BEE1F88F7E09508950E944D0F62
:101E90006894B1110C94970E08950E947C0E88F0FE
:101EA0009F5798F0B92F9927B751B0F0E1F0660F1E
:101EB000771F881F991F1AF0BA95C9F714C0B1305F
:101EC00091F00E94960EB1E008950C94960E672F43
:101ED000782F8827B85F39F0B93FCCF3869577958E
:101EE0006795B395D9F73EF4909580957095619577
:101EF0007F4F8F4F9F4F0895EE0FFF1F0590F49176
:101F0000E02D09940F931F93CF93DF9382309105B7
:101F100010F482E090E0E091A102F091A20230E0A2
:101F200020E0B0E0A0E0309799F42115310509F4E4
:101F30004AC0281B390B24303105D8F58A819B8192
:101F40006115710589F1FB0193838283FE0111C044
:101F5000408151810281138148175907E0F04817E9
:101F6000590799F4109761F012960C9312971396F3
:101F70001C933296CF01DF91CF911F910F9108955D
:101F80000093A1021093A202F4CF2115310551F064
:101F90004217530738F0A901DB019A01BD01DF01A7
:101FA000F801C1CFEF01F9CF9093A2028093A10273
:101FB000CDCFFE01E20FF31F81939193225031099F
:101FC00039832883D7CF20919F023091A002232B01
:101FD00041F420910201309103013093A00220933B
:101FE0009F0220910001309101012115310541F43A
:101FF0002DB73EB74091040150910501241B350BCC
:10200000E0919F02F091A002E217F307A0F42E1BCB
:102010003F0B2817390778F0AC014E5F5F4F24174C
:10202000350748F04E0F5F1F5093A00240939F0268
:10203000819391939FCFF0E0E0E09CCFCF93DF932B
:102040000097E9F0FC01329713821282A091A1025D
:10205000B091A202ED0130E020E01097A1F42081C0
:102060003181820F931F20919F023091A002281787
:10207000390709F061C0F093A002E0939F02DF915D
:10208000CF910895EA01CE17DF07E8F54A815B8119
:102090009E0141155105B1F7E901FB83EA8349919E
:1020A0005991C40FD51FEC17FD0761F48081918110
:1020B0000296840F951FE901998388838281938119
:1020C0009B838A83F0E0E0E012968D919C911397B8
:1020D0000097B9F52D913C911197CD010296820F91
:1020E000931F20919F023091A0022817390739F6DB
:1020F000309751F51092A2021092A102B093A00263
:10210000A0939F02BCCFD383C28340815181840FAF
:10211000951FC817D90761F44E5F5F4F8881998179
:10212000480F591F518340838A819B819383828307
:102130002115310509F0B0CFF093A202E093A1027E
:102140009ECFFD01DC01C0CF13821282D7CFB0E059
:10215000A0E0EDEAF0E10C949F0E8C01009751F4A1
:10216000CB010E94820F8C01C801CDB7DEB7E0E140
:102170000C94BB0EFC01E60FF71F9C0122503109A5
:10218000E217F30708F49DC0D901CD91DC911197B6
:10219000C617D70798F0C530D10530F3CE010497A4
:1021A0008617970708F3C61BD70B2297C193D193C5
:1021B0006D937C93CF010E941E10D6CF5B01AC1AA9
:1021C000BD0A4C018C0E9D1EA091A102B091A202ED
:1021D000512C412CF12CE12C109731F580919F026C
:1021E0009091A0028815990509F05CC04616570623
:1021F00008F058C08091000190910101009741F4CE
:102200008DB79EB74091040150910501841B950B39
:10221000E817F90708F055C0F093A002E0939F0279
:10222000F90171836083A0CF8D919C9111971296D3
:102230006C90129713967C901397A815B90559F5D1
:102240006C0142E0C40ED11CCA14DB0420F1AC01C5
:102250004A195B09DA011296159780F0628273823F
:1022600051834083D9016D937C93E114F10471F0A3
:10227000D7011396FC93EE93129776CF22968C0F8C
:102280009D1FF90191838083F301EFCFF093A202A8
:10229000E093A10269CF4816590608F42C017D018C
:1022A000D3019ACFCB010E94820F7C01009749F0A5
:1022B000AE01B8010E946411C8010E941E1087017E
:1022C00053CF10E000E050CFFB01DC0102C00190D1
:1022D0000D9241505040D8F70895FB01DC01019068
:1022E0000D920020E1F7089510E0C8EDD0E004C0A1
:1022F000FE010E947C0F2196C93DD107C9F7F894D1
:02230000FFCF0D
:102302000000A302800058585858585858313030AD
:102312000E000F001000110012001300060007004B
:10232200080009000A000B0000000000C701270195
:1023320054011402850163017701000000008C053D
:102342002701B1058B021705340521054400FE0063
:102352005F4348005F6E616D65005F76616C756515
:102362000064617465002B25642E256D2E2559208D
:1023720025483A254D3A25530075706461746564A9
:02238200000059
:00000001FF
