:100000000C94DB000C9403010C9403010C94030189
:100010000C9403010C9403010C9403010C94030150
:100020000C9403010C9403010C94A8090C94170A76
:100030000C9403010C9403010C9403010C94030130
:100040000C9403010C9403010C9403010C94030120
:100050000C9403010C9403010C9403010C94A10C67
:100060000C9403010C946F0C0C94490C0C94030138
:100070000C9403010C9403010C9403010C940301F0
:100080000C9403010C9403010C9403010C940301E0
:100090000C9403010C9403010C9403010C940301D0
:1000A0000C9403010C9403010C9403010000000064
:1000B000240027002A002D00300000000000250049
:1000C00028002B002E00310004040404040304055E
:1000D00002020202040302020202060606060606E5
:1000E00004040202020404040802011040804010CB
:1000F000204080408008020401804020100201104E
:1001000080102040402072756E2D627269646765B0
:100110000A000A000A00070605040100080A0B0C81
:100120000D090000000200090F0000030401000C8B
:1001300000000000000000000000000000000000BF
:1001400000080B0002020200000904000001020284
:100150000000052400100105240101010424020609
:100160000524060001070581031000400904010071
:10017000020A000000070502024000000705830292
:100180004000000403090412010002EF0201404193
:1001900023418000010102030141726475696E6FA1
:1001A000204C4C430041726475696E6F2059756E26
:1001B0000000EB0C231211241FBECFEFDAE0DEBFEC
:1001C000CDBF22E0A4E9B1E001C01D92A63FB20775
:1001D000E1F711E0A0E0B1E0ECEBFBE202C005903A
:1001E0000D92A439B107D9F710E0CAEDD0E004C0F0
:1001F0002197FE010E94A614C93DD107C9F70E94AC
:10020000570D0C94D1150C940000FC018091E20173
:10021000882311F13FB7F89482E08093E9002091A0
:10022000F200822F90E01816190614F481E090E095
:10023000882339F0289844E64093E1014091F10089
:100240004083222339F02091F200211103C02BE6D4
:100250002093E8003FBF08958FEF9FEF08952FB7D9
:10026000F89483E08093E9009091E800892F8072F0
:1002700095FF04C09091F20080E4891B2FBF089580
:100280008091D90181110DC082E08093D50184E075
:100290008093D6011092D8011092D70181E080930B
:1002A000D90185ED91E00895CF93DF931F92CDB7EB
:1002B000DEB76983DC01ED91FC910280F381E02DD2
:1002C00041E050E0BE016F5F7F4F09950F90DF91D5
:1002D000CF91089583E08093E9008091F200882314
:1002E00019F08AE38093E80008950E942F0190E0BE
:1002F0000895CF93DF931F92CDB7DEB7FC018485BD
:10030000958597FD08C02FEF3FEF358724870F9025
:10031000DF91CF910895CE0101960E9405010197CA
:1003200019F4898190E0F3CF8FEF9FEFF0CF0F9317
:100330001F93CF93DF931F92CDB7DEB78C01FC01E3
:100340008485958597FF0BC0CE0101960E9405011B
:10035000019771F4898190E0F80195878487F8010D
:10036000848595850F90DF91CF911F910F9108950E
:100370008FEF9FEFF1CFFC018485958597FD0BC032
:100380009FB7F89482E08093E9008091F2009FBFCC
:1003900090E0019608959FB7F89482E08093E90079
:1003A0008091F2009FBF90E008954091CF0150915D
:1003B000D0012091CD013091CE0142175307B4F402
:1003C0009091E8009570E1F39091E80092FD19C0DA
:1003D0008093F1008091CF019091D00101968F73AD
:1003E0009927892B19F48EEF8093E8008091CF0133
:1003F0009091D00101969093D0018093CF0181E03C
:10040000089580E00895EF92FF920F931F93CF938A
:10041000DF93F82E192FE62E042F81E0860F880F28
:100420000E94D50183E00E94D501CF2DD12FEC0E83
:10043000FD2EF11CCE15DF05B9F007FF13C0FE013C
:1004400084910E94D501182F80E00E94D50181235C
:1004500021968111EFCFDF91CF911F910F91FF90E6
:10046000EF9008958881EDCF81E0F5CFDF92EF9294
:10047000FF920F931F93CF93DF93D82E8A01EB0146
:100480007B01E40EF51ECE15DF0559F0D7FE12C034
:10049000FE0184910E94D50121968111F4CF0FEFC6
:1004A0001FEFC801DF91CF911F910F91FF90EF9047
:1004B000DF9008958881EECF0F931F93CF93DF9342
:1004C0001F92CDB7DEB782E0898342E450E061E459
:1004D00071E080E80E9436020E944001DC01129621
:1004E0000D911C910115110589F0D801ED91FC9138
:1004F0000280F381E02DBE016F5F7F4FC801099537
:1005000097FD04C0F80100851185ECCF89810F901B
:10051000DF91CF911F910F910895615030F020919C
:10052000F100FC0120830196F8CF289884E680939F
:10053000E1010895EF92FF920F931F93CF93DF9302
:100540008C017B01D0E0C0E0F701EC0FFD1F64914E
:10055000662361F0D801ED91FC910190F081E02DCE
:10056000C8010995892B11F02196EECFCE01DF91BC
:10057000CF911F910F91FF90EF900895AF92BF928E
:10058000CF92DF92EF92FF920F931F93CF93DF935F
:100590006C017B018B01040F151FEB015E01AE188E
:1005A000BF08C017D10759F06991D601ED91FC91B0
:1005B0000190F081E02DC6010995892B79F7C501DD
:1005C000DF91CF911F910F91FF90EF90DF90CF902F
:1005D000BF90AF900895FC01538D448D252F30E0DE
:1005E000842F90E0821B930B541710F0CF96089540
:1005F00001970895FC01918D828D981761F0A28D6D
:10060000AE0FBF2FB11D5D968C91928D9F5F9F7332
:10061000928F90E008958FEF9FEF0895FC01918DE8
:10062000828D981731F0828DE80FF11D858D90E055
:1006300008958FEF9FEF0895FC01918D228D892FF2
:1006400090E0805C9F4F821B91098F7399270895DA
:100650008AE492E00E941C0321E0892B09F420E047
:10066000822F089580E090E0892B29F00E942803D2
:1006700081110C9400000895FC01A48DA80FB92FDE
:10068000B11DA35ABF4F2C91848D90E001968F73BA
:100690009927848FA689B7892C93A089B1898C91D9
:1006A00082748C93938D848D981306C00288F3898D
:1006B000E02D80818F7D80830895EF92FF920F93CC
:1006C0001F93CF93DF93EC0181E0888F9B8D8C8DFE
:1006D000981319C0E889F989808185FF14C09FB7F4
:1006E000F894EE89FF896083E889F98980818274B2
:1006F00080839FBF81E090E0DF91CF911F910F91A8
:10070000FF90EF900895F62E0B8D10E00F5F1F4FB6
:100710000F731127E02E8C8D8E110CC00FB607FCC5
:10072000FACFE889F989808185FFF5CFCE010E9453
:100730003C03F1CFEB8DEC0FFD2FF11DE35AFF4F82
:10074000F0829FB7F8940B8FEA89FB8980818062E1
:10075000CFCFCF93DF93EC01888D8823B9F0AA899E
:10076000BB89E889F9898C9185FD03C0808186FD6C
:100770000DC00FB607FCF7CF8C9185FFF2CF8081BB
:1007800085FFEDCFCE010E943C03E9CFDF91CF91F1
:100790000895282F30E0F901EE5DFE4F9491F901A4
:1007A000E951FF4F849128533F4FF90124912223AF
:1007B00009F430C09923E9F091509F30D0F4E92F2B
:1007C000F0E0EB51FC4F0C94A61413041704F4034F
:1007D0000B040F04F903F903F9031A042004240499
:1007E00028042E04F9033204909180009F7790939F
:1007F0008000E22FF0E0EE0FFF1FE654FF4FA591BF
:10080000B4919FB7F894EC91611132C080958E231A
:100810008C939FBF0895909180009F7DE8CF909129
:100820008000977FE4CF94B59F7794BDE2CF94B5D5
:100830009F7DFBCF909190009F7790939000D9CFB0
:10084000909190009F7DF9CF90919000977FF5CF88
:100850009091C0009F779093C000CBCF9091C00043
:100860009F7DF9CF9091C200977F9093C200C1CF36
:100870008E2BCECFCF93DF9390E0FC01E951FF4F59
:10088000249188539F4FFC0184918823D1F090E0FC
:10089000880F991FFC01E455FF4FA591B491FC010D
:1008A000E654FF4FC591D49161110EC09FB7F894E3
:1008B0008C91E22FE0958E238C932881E223E883AC
:1008C0009FBFDF91CF9108958FB7F894EC91E22B01
:1008D000EC938FBFF6CF3FB7F8948091950190913C
:1008E0009601A0919701B091980126B5A89B05C0EB
:1008F0002F3F19F00196A11DB11D3FBFBA2FA92F9F
:10090000982F8827BC01CD01620F711D811D911D9B
:1009100042E0660F771F881F991F4A95D1F7089507
:100920008F929F92AF92BF92CF92DF92EF92FF92FF
:100930004B015C010E946B046B017C010E946B0403
:100940006C197D098E099F09683E734081059105E8
:10095000A8F321E0821A9108A108B10888EEC80E18
:1009600083E0D81EE11CF11C81149104A104B104A0
:1009700029F7FF90EF90DF90CF90BF90AF909F90BE
:100980008F9008958F929F92AF92BF92CF92DF92F5
:10099000EF92FF920F931F93CF93DF936C017B0134
:1009A0008A0180910B01882309F45CC08091E201E7
:1009B000882309F457C08091D40180FF05C080913D
:1009C000E00082608093E000E801B12C8AEFA82E5D
:1009D00093E0892E2AE3922E209711F4BB20D9F1BF
:1009E0000E942F0181110AC0AA94AA20D9F161E0C6
:1009F00070E080E090E00E949004EECF8C171D061E
:100A000011F00CF08C2F9FB7F8948092E9002091A0
:100A1000E80025FD02C09FBFDFCF282F30E0C21BBA
:100A2000D30BF701815020F041914093F100FACFB0
:100A3000E20EF31EBB2021F09092E800B12CEBCF28
:100A40008091E80085FDE7CF9092E800BB24B39445
:100A5000209709F3F3CF5D9884E68093D3011016B5
:100A600011063CF081E090E0F6019383828310E070
:100A700000E0C801DF91CF911F910F91FF90EF909F
:100A8000DF90CF90BF90AF909F908F90089590E0AF
:100A900080E00895CF93DF93EC018D819E81DC018E
:100AA000ED91FC910084F185E02D09951816190649
:100AB00054F48D819E81DC01ED91FC910284F385DB
:100AC000E02D0995EACFDF91CF9108958F929F9203
:100AD000AF92BF92CF92DF92EF92FF92CF93DF93CC
:100AE000EC018FB7F8948090990190909A01A090B2
:100AF0009B01B0909C018FBF6B01F12CE12C8D818B
:100B00009E81DC01ED91FC910284F385E02D099535
:100B100097FF16C02FB7F8948091990190919A0190
:100B2000A0919B01B0919C012FBF88199909AA0936
:100B3000BB098C159D05AE05BF0508F38FEF9FEF30
:100B4000DF91CF91FF90EF90DF90CF90BF90AF906B
:100B50009F908F900895FC01238134812627022ED7
:100B60002295207F2025032E322F22952F700226DA
:100B7000269532272327220F220F220F2025348388
:100B8000238308952F923F924F925F926F927F92AC
:100B90008F929F92AF92BF92CF92DF92EF92FF928D
:100BA0000F931F93CF93DF93CDB7DEB72A970FB67E
:100BB000F894DEBF0FBECDBF9A8789875B012901FC
:100BC00037011A01200E311E3A82198288248A9434
:100BD000982C9A01260F371F3E832D83C801840D60
:100BE000951D98878F83A985BA8518968C91B981B0
:100BF000B81708F040C1E985FA859482838285811F
:100C00009681DC01ED91FC910190F081E02D6FEF78
:100C100009956FEF89859A850E94AB05E985FA856C
:100C200085819681DC01ED91FC910190F081E02DB0
:100C3000A985BA856C910995E985FA856081CF010E
:100C40000E94AB05A985BA8515968D919C91DC0112
:100C5000ED91FC910190F081E02D6A8109956A8106
:100C600089859A850E94AB05E985FA8585819681FB
:100C7000DC01ED91FC910190F081E02D622D099550
:100C8000622D89859A850E94AB058501E985FA85E3
:100C900085819681DC01ED91FC910190F081E02D40
:100CA0002D813E8120173107E1F48201E985FA8523
:100CB00085819681DC01ED91FC910190F081E02D20
:100CC0002F81388520173107C1F0D8016D918D0132
:100CD0000995F8013197608189859A850E94AB0555
:100CE000E5CFD8016D918D010995F80131976081AB
:100CF00089859A850E94AB05C9CFA985BA851496C6
:100D00006C910995E985FA8585819681DC01ED91E3
:100D1000FC910190F081E02DA985BA8513966C9124
:100D2000099568EC70E089859A850E9466058F3F79
:100D3000910509F092C0E985FA85948283826FEF6C
:100D4000CF010E94AB0565E070E089859A850E941D
:100D50006605A985BA856C916817190609F07DC0EA
:100D6000CD010E94AB056AE070E089859A850E94FA
:100D700066057C0197FD71C0682F89859A850E9460
:100D8000AB056AE070E089859A850E9466058C0152
:100D900097FD63C0682F89859A850E94AB05EC8218
:100DA0001B82EB81FC810E0F1F1FF12CE12C65E0F3
:100DB00070E089859A850E151F05A1F0EC14FD04DD
:100DC00089F00E94660597FD09C0F301EE0DFF1D35
:100DD0008083682F89859A850E94AB05FFEFEF1A03
:100DE000FF0AE5CF0E9466057C0197FD36C065E0ED
:100DF00070E089859A850E94660597FD2EC0FE2CBD
:100E0000EE248E0D9F1DA985BA8513962D913C91D8
:100E100014978217930709F58C918F5F8C93C80103
:100E2000C016D10608F4C6012A960FB6F894DEBFA4
:100E30000FBECDBFDF91CF911F910F91FF90EF902B
:100E4000DF90CF90BF90AF909F908F907F906F90EA
:100E50005F904F903F902F900895B981BF5FB98305
:100E600064E670E080E090E00E94900489859A85B5
:100E70000E944A05B8CE8FEF9FEFD6CF8F929F92F8
:100E8000AF92BF92CF92DF92EF92FF920F931F9398
:100E9000CF93DF931F92CDB7DEB75C019B014A0170
:100EA000DC0152968C91811128C08B017B01E40EEC
:100EB000F51E0E151F0591F1D50155962D913C910A
:100EC00056975396EC91539781E08E0F53968C93DF
:100ED000D8018D918D01E20FF32FF11D8083F50173
:100EE000938984899813E5CF0190F081E02D0680E5
:100EF000F781E02DC5010995DCCF80E58983D12CF0
:100F0000C12CF12CE12C8A0141E050E0BE016F5F61
:100F10007F4FF501848595850E94C205C4010F901D
:100F2000DF91CF911F910F91FF90EF90DF90CF90C5
:100F3000BF90AF909F908F900895AF92BF92CF9245
:100F4000DF92EF92FF920F931F93CF93DF9300D026
:100F5000CDB7DEB7FC01268521111AC05C011786CA
:100F600080E7898380E28A83E088F18880E2C82E66
:100F7000D12C10E000E030E020E042E050E0BE0183
:100F80006F5F7F4F848595850E94C205F501868736
:100F90000F900F90DF91CF911F910F91FF90EF90E5
:100FA000DF90CF90BF90AF900895CF93DF93EC0187
:100FB0000E949D078E85882359F0EF85888999893D
:100FC000E80FF92FF11D808190E0DF91CF91089516
:100FD0008FEF9FEFFACFCF93DF93EC010E949D0735
:100FE0008E85882381F081508E8788899989EF8545
:100FF00021E02E0F2F87E80FF92FF11D808190E05F
:10100000DF91CF9108958FEF9FEFFACFCF93DF93CA
:10101000EC010E949D078E8590E0DF91CF910895AD
:10102000CF92DF92EF92FF920F931F93D12CC12C9E
:10103000F12CE12C10E000E030E020E00E94C2053D
:101040001F910F91FF90EF90DF90CF900895CF9375
:10105000DF93FC01228921110BC0EC01438950E090
:1010600065897689848595850E94100881E08B8B3F
:10107000DF91CF910895CF93DF9300D0CDB7DEB746
:10108000DC0152968C9152978823A1F080E58983E8
:101090006A8342E050E0BE016F5F7F4F1C968D91E6
:1010A0009C910E94100881E090E00F900F90DF91DA
:1010B000CF91089555968D919C9156975396EC91AA
:1010C000539721E02E0F53962C935397E80FF92F47
:1010D000F11D608353969C91539754968C9154972D
:1010E0009813E1CFED91FC9111970680F781E02DE7
:1010F000CD010995D8CFFC0101900020E9F7319787
:10110000AF01481B590BBC0183E392E00C943E07EE
:101110008F929F92AF92BF920F931F93CF93DF93C3
:10112000CDB7DEB7A1970FB6F894DEBF0FBECDBF27
:1011300019A2423008F44AE08E010F5D1F4F842E41
:10114000912CB12CA12CA50194010E948414E62FAE
:10115000B901CA01EA30F4F4E05DD801EE938D01E3
:10116000232B242B252B79F790E080E0109719F0A2
:10117000CD010E947B08A1960FB6F894DEBF0FBE8A
:10118000CDBFDF91CF911F910F91BF90AF909F90F6
:101190008F900895E95CE1CF4F925F926F927F92BA
:1011A0008F929F92AF92BF92CF92DF92EF92FF9277
:1011B0000F931F93CF936B017C01742EAC019B01A5
:1011C0000E947F14882399F089E591E0CF911F91C7
:1011D0000F91FF90EF90DF90CF90BF90AF909F90D6
:1011E0008F907F906F905F904F900C947B0846019A
:1011F0005701E894B7F82FEF3FEF4FE75FE7C501DE
:10120000B4010E947F1481110DC02FEF3FEF4FE713
:101210005FE7C501B4010E94411218161CF48DE568
:1012200091E0D4CF2FEF3FEF4FE75FE4C701B60166
:101230000E947A1418161CF481E691E0C7CF2FEFB4
:101240003FEF4FE75FECC701B6010E94411287FDF7
:10125000F3CF20E030E0A901C701B6010E9441129E
:1012600010E000E087FF0AC06DE283E392E00E9495
:101270003B088C01F7FAF094F7F8F094C0E060E0D6
:1012800070E080E09FE37C1641F020E030E040E237
:1012900051E40E94D213CF5FF6CFA70196010E94BE
:1012A00066132B013C010E944B144B015C014AE088
:1012B0000E9488087C01E00EF11ECC23C1F1C5011B
:1012C000B4010E9446129B01AC01C301B2010E940D
:1012D00065134B015C016EE283E392E00E943B08E0
:1012E000E80EF91EC15018F120E030E040E251E470
:1012F000C501B4010E94A7122B013C010E944B14AE
:101300004B01B12CA12C4AE0C501B4010E94880810
:10131000E80EF91EC501B4010E9446129B01AC0102
:10132000C301B2010E9465134B015C01DBCFC70111
:10133000CF911F910F91FF90EF90DF90CF90BF90D2
:10134000AF909F908F907F906F905F904F90089597
:101350001F920F920FB60F9211248F939F9380913B
:10136000E1009091E100937F9093E10083FF0FC033
:101370001092E90091E09093EB001092EC0092E360
:101380009093ED001092E20198E09093F00082FFBC
:1013900022C093E09093E9009091F200992319F014
:1013A0009AE39093E8009091D301992341F09091B2
:1013B000D30191509093D301911101C05D9A909106
:1013C000E101992341F09091E10191509093E10165
:1013D000911101C0289A84FF18C08091E2008E7E8E
:1013E00081608093E2008091E1008F7E8093E10034
:1013F0008091D4018E7E80618093D4019F918F91E2
:101400000F900FBE0F901F90189580FFF7CF80911F
:10141000E2008E7E80618093E2008091E1008E7E0A
:101420008093E1008091D4018E7E8160E5CF1F9290
:101430000F920FB60F921124CF92DF92EF92FF928C
:101440000F931F932F933F934F935F936F937F93CC
:101450008F939F93AF93BF93EF93FF93CF93DF93BC
:10146000CDB7DEB76C97DEBFCDBF1092E90080919B
:10147000E80083FF25C068E0CE0145960E948D02FA
:1014800082EF8093E8008D8987FF39C09091E80052
:1014900090FFFCCF982F907609F034C19E894F8938
:1014A000588D2F89F88C911131C0803861F5809169
:1014B000D2018093F1001092F1008EEF8093E8004A
:1014C0006C960FB6F894DEBF0FBECDBFDF91CF9103
:1014D000FF91EF91BF91AF919F918F917F916F910C
:1014E0005F914F913F912F911F910F91FF90EF903E
:1014F000DF90CF900F900FBE0F901F9018959EEF2A
:101500009093E800C7CF1092F100D5CF913059F4F5
:101510008111D3CF4130510581F68091D2018D7F69
:101520008093D201CACF933049F48111C6CF4130A4
:10153000510519F68091D2018260F2CF953041F4C5
:101540008091E80080FFFCCF20682093E300B5CFB6
:10155000963009F0A9C00B8D1C8D22E01092E90095
:101560001092D0011092CF01F2122EC01092CE0133
:101570001092CD010E945C021F8299E09983FA8249
:1015800091E09E8390EA98879AEF99872091CF0106
:101590003091D001275F3F4F3C832B838D83109286
:1015A000E9001092D0011092CF011093CE01009368
:1015B000CD0149E050E0BE016F5F7F4F80E00E94A7
:1015C00036020E945C0279CF1093CE010093CD01C8
:1015D0000E944001DC0112960D911C91011511052C
:1015E00009F451C1D801ED91FC910480F581E02D01
:1015F000BE016B5E7F4FC8010995009709F03EC19F
:10160000F80100851185EACFF3E0FF120EC08F8943
:10161000882309F440C0823061F440E86BE085EA39
:1016200091E00E940302811148CF81E28093EB0098
:1016300047CF813029F440E86BE089E991E0F1CFB0
:10164000833099F70E944001DC011296ED90FC90E6
:101650008E010F5F1F4F6801E114F10479F0D7018B
:10166000ED91FC910680F781E02DB801C701099545
:10167000080F111DF701E084F184EECFD8011C9210
:10168000F60101900020E9F73197BF016C197D093F
:1016900040E0C601C6CF63E871E0FB01449150E031
:1016A00080E80E94360209CF973009F4BECF983007
:1016B00021F481E08093F10000CF993009F0FDCE54
:1016C000837009F0B2CFEDE1F1E081E031E096E323
:1016D0002191222371F08093E9003093EB00DF0128
:1016E00011972C912093EC009093ED008F5F873041
:1016F00079F78EE78093EA001092EA008F89809351
:10170000E201DBCE8B8D9C8D1092E9001092D0010E
:101710001092CF019093CE018093CD01898D8111DC
:1017200092C08E899D89913A49F4813209F07DCF2A
:1017300047E050E064E071E080E0B3CF913209F01F
:1017400074CF833269F48F89988DB0E0A0E08093E4
:10175000000190930101A0930201B0930301ADCE6B
:10176000803269F48091E80082FFFCCF67E084E07A
:1017700091E00E948D028BEF8093E8009ECE823232
:1017800009F09BCE8F8980930B01EEEFFFE78591E7
:1017900094918B3F9C4D51F1E0E0F8E08091040181
:1017A00090910501A0910601B0910701803B944002
:1017B000A105B105F1F480910B0180FD1AC0EE3F47
:1017C0008AE0F80789F587E797E79183808380911E
:1017D00060008093D10188E19BE00FB6F894A89552
:1017E000809360000FBE9093600067CEEEEFFAE04A
:1017F000D5CF808191818737974709F05ECEA89534
:10180000809160008861809360008091D101809315
:101810006000EE3F2AE0F20789F08091FE0A909185
:10182000FF0A9183808349CE808191818737980711
:1018300051F29093FF0A8093FE0AC5CF1092FF0ADF
:101840001092FE0A3ACE0E944001DC0112960D91E0
:101850001C910115110509F4E8CED801ED91FC9118
:101860000190F081E02DBE016B5E7F4FC8010995AC
:10187000811123CEF80100851185EBCF18161906CA
:101880000CF41BCED2CEF1E0FF12BECE67E871E0C1
:1018900004CF1F920F920FB60F9211242F933F93F4
:1018A0004F935F936F937F938F939F93AF93BF9368
:1018B000EF93FF938AE492E00E943C03FF91EF9143
:1018C000BF91AF919F918F917F916F915F914F9158
:1018D0003F912F910F900FBE0F901F9018951F9260
:1018E0000F920FB60F9211242F938F939F93EF9324
:1018F000FF93E0915A02F0915B028081E0916002D7
:10190000F091610282FD1BC09081809163028F5F24
:101910008F7320916402821741F0E0916302F0E03E
:10192000E65BFD4F958F80936302FF91EF919F914E
:101930008F912F910F900FBE0F901F90189580815F
:10194000F4CF1F920F920FB60F9211242F933F9353
:101950008F939F93AF93BF938091990190919A0138
:10196000A0919B01B0919C013091940123E0230F41
:101970002D3758F50196A11DB11D20939401809338
:10198000990190939A01A0939B01B0939C0180913F
:10199000950190919601A0919701B09198010196BF
:1019A000A11DB11D8093950190939601A09397017D
:1019B000B0939801BF91AF919F918F913F912F91DB
:1019C0000F900FBE0F901F90189526E8230F0296D8
:1019D000A11DB11DD2CFCF93DF93E3EEF1E01382CF
:1019E000128248EE53E060E070E0448355836683E2
:1019F000778387E291E0918380838FEF9FEF9587D4
:101A00008487EAE4F2E0138212824483558366837A
:101A1000778389E391E0918380838DEC90E09587D3
:101A200084878CEC90E09787868788EC90E0918B98
:101A3000808B89EC90E0938B828B8AEC90E0958B85
:101A4000848B8EEC90E0978B868B118E128E138E8A
:101A5000148EA3E3B2E013961C921E921297149672
:101A60004D935D936D937C9317978BE491E0119662
:101A70009C938E93C7EED2E01D96DC93CE931C9779
:101A80001E961C921E971F961C921F9751961C9291
:101A90001E92509781E052968C931882FE83ED83BC
:101AA0001F821886FA87E987DF91CF910895CF9337
:101AB000DF93CDB7DEB766970FB6F894DEBF0FBEE3
:101AC000CDBF789484B5826084BD84B5816084BDC7
:101AD00085B5826085BD85B5816085BD80916E00CC
:101AE000816080936E0010928100809181008260FD
:101AF000809381008091810081608093810080913A
:101B0000800081608093800080919100826080934A
:101B1000910080919100816080939100809190006C
:101B20008160809390008091C10084608093C100A7
:101B30008091C10082608093C1008091C10081606A
:101B40008093C1008091C30081608093C300809125
:101B5000C00082608093C0008091C2008160809349
:101B6000C20080917A00846080937A0080917A002C
:101B7000826080937A0080917A00816080937A00FD
:101B800080917A00806880937A001092E20110922E
:101B9000D2011092D4018091D70081608093D70048
:101BA00080EA8093D80089B5806189BD89B582605B
:101BB00089BD09B400FEFDCF61E070E080E090E0F7
:101BC0000E9490048091D8008F7C80618093D8001F
:101BD0008091E000807F8093E0008091E1008E7E24
:101BE0008093E1008DE08093E200559A209AE09185
:101BF000F002F091F102A089B18982E08C93A48572
:101C0000B5851C92A685B78587E08C93108EA48934
:101C1000B58986E08C93A289B3898C9180618C937D
:101C2000A289B3898C9188608C93A289B3898C91A5
:101C300080688C930288F389E02D80818F7D80837A
:101C40008091EE028111BEC081E08093EE0287EEAA
:101C500092E00E944A0568EE73E080E090E00E9406
:101C600090048091EC029091ED02DC01ED91FC91E9
:101C70000084F185E02D09951816190644F3BB245C
:101C8000B39442E3A42E85E0E2E1F1E0DE01169692
:101C900001900D928A95E1F7B092EF0245E050E095
:101CA000BE016A5F7F4F87EE92E00E94100880912C
:101CB000EC029091ED02DC01ED91FC910190F0813C
:101CC000E02D63E009956AEF70E080E090E00E940B
:101CD000900464E171E08091EC029091ED020E9429
:101CE0009A026AEF70E080E090E00E94900462E166
:101CF00071E08091EC029091ED020E949A0264EFF3
:101D000071E080E090E00E94900466E071E08091D4
:101D1000EC029091ED020E949A0264EF71E080E083
:101D200090E00E94900487EE92E00E944A0585E0D0
:101D3000E7E1F1E0DE01119601900D928A95E1F75D
:101D4000A092EF0234E0C32ED12CFE013B967F011E
:101D500010E000E030E020E045E050E0BE016F5FC1
:101D60007F4F87EE92E00E94C2058F3F980739F4BB
:101D700068EE73E080E090E00E94900484CF2B85B1
:101D80002111FFCF049709F0BFC22C852053330BDC
:101D900044E6429FC001439F900D11242D853AE0F7
:101DA000239F800D911D1124805E91402E8520532C
:101DB000330B820F931F9093E9028093E80282E332
:101DC0008093EF0221E6B22EB982CC24C394D12CA9
:101DD000AE014F5F5F4F7A0110E000E030E020E09D
:101DE00041E050E0B70180913F02909140020E9493
:101DF000C2058981813041F785E691E00E947B0828
:101E000080E791E00E947B0860E083E10E943A0451
:101E100061E089E00E943A0480E090E0A2E8B2E448
:101E20008093B9019093BA01A093BB01B093BC0118
:101E300080E090E0A0E8B0E48093A5019093A60133
:101E4000A093A701B093A8018AE097EDA3E2BCE3B9
:101E50008093AD019093AE01A093AF01B093B00118
:101E60001092A1011092A2011092A3011092A4015C
:101E70001092B1011092B2011092B3011092B4010C
:101E80001092CC011092CB011092CA011092C9019C
:101E900010929D0110929E0110929F011092A0013C
:101EA0001092C5011092C6011092C7011092C8018C
:101EB0008BE2282E81E0382E00E010E08091CB01EB
:101EC0009091CC0101969093CC018093CB018091AD
:101ED000C9019091CA0101969093CA018093C901EA
:101EE000E7E1F1E0849120917B00982F990F990F01
:101EF00090722F7D922B90937B00877080648093EB
:101F00007C0080917A00806480937A0080917A00CE
:101F100086FDFCCF8091780060917900762F682F44
:101F2000072E000C880B990B0E94481220E030E02D
:101F300040EA5BE30E94A71220E030E040EA5FE362
:101F40000E9465132AE037ED43EA5BE30E94D21357
:101F50006B017C016091C5017091C6018091C70140
:101F60009091C8010E9448129B01AC01C701B601C3
:101F70000E9466130E9444146093C5017093C601C9
:101F80008093C7019093C8012091C9013091CA0183
:101F90002A30310509F09BC10E94481220E030E050
:101FA00040E251E40E94D2136093C1017093C201D8
:101FB0008093C3019093C4018FB7F8942091990145
:101FC00030919A0140919B0150919C012F87388B51
:101FD000498B5A8B8FBF8091BD019091BE01A0911A
:101FE000BF01B091C001281B390B4A0B5B0BCA0122
:101FF000B90128EE33E040E050E00E948414CA01A9
:10200000B9010E9446122B013C0120E030E0A901F9
:102010000E947A1418160CF037C12091C10130913A
:10202000C2014091C3015091C4016091B901709106
:10203000BA018091BB019091BC010E9465136B01B4
:102040007C01C092B501D092B601E092B701F09246
:10205000B801AC019B01C301B2010E94A7122091FB
:10206000B1013091B2014091B3015091B4010E948D
:1020700066136093B1017093B2018093B3019093A2
:10208000B4018090AD019090AE01A090AF01B090EE
:10209000B001A50194010E94A71220E030E04FE7B3
:1020A00053E40E947A14181684F4A501940160E0A8
:1020B00070E08FE793E40E94D2136093B1017093B4
:1020C000B2018093B3019093B4012091B10130919A
:1020D000B2014091B3015091B401C501B4010E9415
:1020E000A71220E030E0A9010E94411287FF08C03A
:1020F0001092B1011092B2011092B3011092B4018A
:102100002091A5013091A6014091A7015091A8010D
:10211000C701B6010E94A7126B8B7C8B8D8B9E8BA7
:102120002091B1013091B2014091B3015091B401BD
:10213000C501B4010E94A7129B01AC016B897C8987
:102140008D899E890E9466134B015C012091A90133
:102150003091AA014091AB015091AC01C701B60189
:102160000E946513A30192010E94D2132091A10144
:102170003091A2014091A3015091A4010E94A712A5
:102180009B01AC01C501B4010E9466134B015C01C7
:1021900020E030E04FE753E40E947A1418160CF464
:1021A000B6C080929D0190929E01A0929F01B09234
:1021B000A00120E030E0A90160919D0170919E0195
:1021C00080919F019091A0010E94411287FF08C059
:1021D00010929D0110929E0110929F011092A001F9
:1021E000C092A901D092AA01E092AB01F092AC0199
:1021F0008F859889A989BA898093BD019093BE0182
:10220000A093BF01B093C00183E791E00E947B08D7
:102210006091B9017091BA018091BB019091BC01AC
:1022200042E00E94CC088AE791E00E947B0860911E
:10223000C1017091C2018091C3019091C40142E03B
:102240000E94CC0882E891E00E947B086091B50171
:102250007091B6018091B7019091B80142E00E945F
:10226000CC088BE891E00E947B0860919D01709101
:102270009E0180919F019091A00142E00E94CC08B4
:1022800080E791E00E947B0860919D0170919E0122
:1022900080919F019091A0010E9444144B017B0109
:1022A00061E089E00E943A0481149104E9F560E05C
:1022B00089E00E94C9031092C5011092C6011092D4
:1022C000C7011092C8011092CA011092C9018091F1
:1022D000CB019091CC018436910521F41092CC0170
:1022E0001092CB0162E370E080E090E00E949004E5
:1022F0000115110509F4E2CD0E942803882309F491
:10230000DDCD0E940000DACD84E690E054CD80E07F
:1023100090E0AFE7B3E480939D0190939E01A0937A
:102320009F01B093A00145CF9FEF8916910411F44E
:1023300061E0BECFF1018491EFEFE80FEF3008F0DC
:102340007CC0F0E0EA55FE4E0C94A614B511BA110B
:10235000BF11C911D3111D121D121D12DD11E7117C
:10236000F111FB1108121D12101284B5806884BD92
:1023700087BCA1CF84B5806284BD88BC9CCF80918E
:10238000800080688093800090928900809288000D
:1023900092CF8091800080628093800090928B0029
:1023A00080928A0088CF809180008860809380002E
:1023B00090928D0080928C007ECF809190008068FA
:1023C00080939000909299008092980074CF8091B1
:1023D000900080628093900090929B0080929A007F
:1023E0006ACF8091900088608093900090929D00C9
:1023F00080929C0060CF8091C00080688093C00074
:102400008091C0008F7B8093C0008092CF0053CF1B
:102410008091C00080628093C0008092D0004BCF3A
:102420008091C20088608093C2008091C2008B7F3F
:102430008093C2008092D2003ECFF0E8EF16F10404
:102440000CF076CF34CF8BE491E0909334028093FC
:1024500033028091450281110BC080914802909116
:102460004902009711F00E94481581E080934502CF
:102470008091430290914402009711F00C9448150A
:1024800008950E94831208F481E00895E89409C039
:1024900097FB3EF490958095709561957F4F8F4F97
:1024A0009F4F9923A9F0F92F96E9BB279395F695AD
:1024B000879577956795B795F111F8CFFAF4BB0F2B
:1024C00011F460FF1BC06F5F7F4F8F4F9F4F16C08F
:1024D000882311F096E911C0772321F09EE8872F19
:1024E000762F05C0662371F096E8862F70E060E0D5
:1024F0002AF09A95660F771F881FDAF7880F96954E
:10250000879597F90895990F0008550FAA0BE0E8F1
:10251000FEEF16161706E807F907C0F012161306A5
:10252000E407F50798F0621B730B840B950B39F4E5
:102530000A2661F0232B242B252B21F408950A264B
:1025400009F4A140A6958FEF811D811D08950E9479
:10255000BA120C942B130E941D1338F00E942413FE
:1025600020F0952311F00C9414130C941A131124D9
:102570000C945F130E943C1370F3959FC1F3950F69
:1025800050E0551F629FF001729FBB27F00DB11DF7
:10259000639FAA27F00DB11DAA1F649F6627B00D87
:1025A000A11D661F829F2227B00DA11D621F739F70
:1025B000B00DA11D621F839FA00D611D221F749F7E
:1025C0003327A00D611D231F849F600D211D822FC5
:1025D000762F6A2F11249F5750409AF0F1F08823EC
:1025E0004AF0EE0FFF1FBB1F661F771F881F915019
:1025F0005040A9F79E3F510580F00C9414130C94A1
:102600005F135F3FE4F3983ED4F386957795679523
:10261000B795F795E7959F5FC1F7FE2B880F911D42
:102620009695879597F9089597F99F6780E870E0E8
:1026300060E008959FEF80EC089500240A94161638
:10264000170618060906089500240A9412161306A0
:10265000140605060895092E0394000C11F488232E
:1026600052F0BB0F40F4BF2B11F460FF04C06F5F4A
:102670007F4F8F4F9F4F089557FD9058440F551F20
:1026800059F05F3F71F04795880F97FB991F61F0F4
:102690009F3F79F087950895121613061406551F6B
:1026A000F2CF4695F1DF08C0161617061806991FD7
:1026B000F1CF86957105610508940895E894BB27CC
:1026C00066277727CB0197F908955058BB27AA278B
:1026D0000E947D130C942B130E941D1338F00E944E
:1026E000241320F039F49F3F19F426F40C941A13A4
:1026F0000EF4E095E7FB0C941413E92F0E943C13B1
:1027000058F3BA17620773078407950720F079F426
:10271000A6F50C945E130EF4E0950B2EBA2FA02DA7
:102720000B01B90190010C01CA01A0011124FF277E
:10273000591B99F0593F50F4503E68F11A16F04079
:10274000A22F232F342F4427585FF3CF4695379578
:102750002795A795F0405395C9F77EF41F16BA0B3D
:10276000620B730B840BBAF09150A1F0FF0FBB1FEB
:10277000661F771F881FC2F70EC0BA0F621F731F34
:10278000841F48F4879577956795B795F7959E3F91
:1027900008F0B0CF9395880F08F09927EE0F979522
:1027A000879508950E94E6130C942B130E9424131E
:1027B00058F00E941D1340F029F45F3F29F00C945B
:1027C000141351110C945F130C941A130E943C13B0
:1027D00068F39923B1F3552391F3951B550BBB2750
:1027E000AA2762177307840738F09F5F5F4F220F95
:1027F000331F441FAA1FA9F335D00E2E3AF0E0E88C
:1028000032D091505040E695001CCAF72BD0FE2FD5
:1028100029D0660F771F881FBB1F26173707480769
:10282000AB07B0E809F0BB0B802DBF01FF27935821
:102830005F4F3AF09E3F510578F00C9414130C94BE
:102840005F135F3FE4F3983ED4F3869577956795E1
:10285000B795F7959F5FC9F7880F911D9695879556
:1028600097F90895E1E0660F771F881FBB1F621775
:1028700073078407BA0720F0621B730B840BBA0B33
:10288000EE1F88F7E09508950E944B146894B111EB
:102890000C945F1308950E94441388F09F5798F09A
:1028A000B92F9927B751B0F0E1F0660F771F881F55
:1028B000991F1AF0BA95C9F714C0B13091F00E946F
:1028C0005E13B1E008950C945E13672F782F88276C
:1028D000B85F39F0B93FCCF3869577956795B39596
:1028E000D9F73EF490958095709561957F4F8F4F05
:1028F0009F4F08950E94831208F48FEF08950E945D
:102900008312880B990B0895A1E21A2EAA1BBB1BF8
:10291000FD010DC0AA1FBB1FEE1FFF1FA217B307AB
:10292000E407F50720F0A21BB30BE40BF50B661FC1
:10293000771F881F991F1A9469F760957095809585
:1029400090959B01AC01BD01CF010895EE0FFF1FD3
:102950000590F491E02D09940F931F93CF93DF938B
:102960008230910510F482E090E0E091F402F09161
:10297000F50230E020E0B0E0A0E0309799F42115B6
:10298000310509F44AC0281B390B24303105D8F52C
:102990008A819B816115710589F1FB019383828393
:1029A000FE0111C0408151810281138148175907EE
:1029B000E0F04817590799F4109761F012960C93BC
:1029C000129713961C933296CF01DF91CF911F91EE
:1029D0000F9108950093F4021093F502F4CF21159E
:1029E000310551F04217530738F0A901DB019A0174
:1029F000BD01DF01F801C1CFEF01F9CF9093F502DE
:102A00008093F402CDCFFE01E20FF31F81939193E7
:102A10002250310939832883D7CF2091F202309197
:102A2000F302232B41F420910E0130910F013093DA
:102A3000F3022093F20220910C0130910D01211537
:102A4000310541F42DB73EB740911001509111016D
:102A5000241B350BE091F202F091F302E217F30729
:102A6000A0F42E1B3F0B2817390778F0AC014E5FFE
:102A70005F4F2417350748F04E0F5F1F5093F30246
:102A80004093F202819391939FCFF0E0E0E09CCFDE
:102A9000CF93DF930097E9F0FC0132971382128203
:102AA000A091F402B091F502ED0130E020E0109722
:102AB000A1F420813181820F931F2091F202309185
:102AC000F3022817390709F061C0F093F302E0938D
:102AD000F202DF91CF910895EA01CE17DF07E8F502
:102AE0004A815B819E0141155105B1F7E901FB83E4
:102AF000EA8349915991C40FD51FEC17FD0761F482
:102B0000808191810296840F951FE90199838883C2
:102B1000828193819B838A83F0E0E0E012968D911D
:102B20009C9113970097B9F52D913C911197CD0188
:102B30000296820F931F2091F2023091F302281720
:102B4000390739F6309751F51092F5021092F402D8
:102B5000B093F302A093F202BCCFD383C28340812F
:102B60005181840F951FC817D90761F44E5F5F4FDD
:102B700088819981480F591F518340838A819B81A5
:102B8000938382832115310509F0B0CFF093F502CC
:102B9000E093F4029ECFFD01DC01C0CF13821282CC
:102BA000D7CF10E0CAEDD0E004C0FE010E94A61409
:0C2BB0002196CB3DD107C9F7F894FFCF68
:102BBC00FFFFFFFF00E10000000000000000F60234
:102BCC0080005858585858585831303000C18081BE
:102BDC00000000000000005401C20475016A01BB32
:102BEC000179019701000000005D03BE02EB02A910
:102BFC00031C03FA020E03000000003B083E0747CB
:102C0C000527080608EB07D5076E616E00696E662E
:102C1C00006F766600436F6E6E65637465642E009C
:102C2C000D0A00736574203D20002C20696E203D38
:102C3C0020002C20657272203D20002C206F7574B2
:042C4C00203D200007
:00000001FF
