:100000000C9460010C9488010C9488010C94880174
:100010000C9488010C9488010C9488010C9488013C
:100020000C9488010C9488010C946C0F0C94DB0FD9
:100030000C9488010C9488010C9488010C9488011C
:100040000C9488010C9488010C9488010C9488010C
:100050000C9488010C9488010C9488010C9465120E
:100060000C9488010C9433120C940D120C9488019A
:100070000C9488010C9488010C9488010C948801DC
:100080000C9488010C9488010C9488010C948801CC
:100090000C9488010C9488010C9488010C948801BC
:1000A0000C9488010C9488010C94880100407A100B
:1000B000F35A00A0724E18090010A5D4E80000E819
:1000C0007648170000E40B54020000CA9A3B000077
:1000D00000E1F505000080969800000040420F0006
:1000E0000000A08601000000102700000000E803C7
:1000F000000000006400000000000A000000000092
:100100000100000000002C76D888DC674F0823DF50
:10011000C1DFAE59E1B1B796E5E3E453C63AE65123
:10012000997696E8E6C28426EB898C9B62ED407C4A
:100130006FFCEFBC9C9F40F2BAA56FA5F490055AE6
:100140002AF75C936B6CF9676DC11BFCE0E40D470B
:10015000FEF520E6B500D0ED902E0300943577052E
:100160000080841E080000204E0A000000C80C33E6
:100170003333330F986E12831141EF8D2114893B75
:10018000E65516CFFEE6DB18D1844B381BF77C1DF5
:10019000901DA4BBE424203284725E228100C9F148
:1001A00024ECA1E53D27302E302E302E30003132A8
:1001B000372E302E302E3100070605040100080AC4
:1001C0000B0C0D0900000000240027002A002D0060
:1001D000300000000000250028002B002E00310018
:1001E00004040404040304050202020204030202DC
:1001F00002020606060606060404020202040404BD
:100200000802011040804010204080408008020415
:1002100001804020100201108010204040207275A3
:100220006E2D6272696467650A000A000A000000A8
:10023000000200090F0000030401000C0000000090
:1002400000000000000000000000000000080B009B
:10025000020202000009040000010202000005245D
:1002600000100105240101010424020605240600F2
:10027000010705810310004009040100020A000083
:100280000007050202400000070583024000000449
:1002900003090412010002EF0201404123418000E2
:1002A000010102030141726475696E6F204C4C4379
:1002B0000041726475696E6F2059756E0000AF124F
:1002C00011241FBECFEFDAE0DEBFCDBF23E0A8E8E8
:1002D000B2E001C01D92AB3FB207E1F712E0A0E02F
:1002E000B1E0ECE2F5E402C005900D92A838B10748
:1002F000D9F711E0C0E6D1E004C02197FE010E94C9
:100300008E20CF35D107C9F70E9437130C94942261
:100310000C940000FC018091E202882311F13FB7A8
:10032000F89482E08093E9002091F200822F90E01F
:100330001816190614F481E090E0882339F0289803
:1003400044E64093E1024091F1004083222339F0DA
:100350002091F200211103C02BE62093E8003FBF5B
:1003600008958FEF9FEF08952FB7F89483E080935F
:10037000E9009091E800892F807295FF04C0909168
:10038000F20080E4891B2FBF08958091D90281116A
:100390000DC082E08093D50284E08093D602109253
:1003A000D8021092D70281E08093D90285ED92E0C5
:1003B0000895CF93DF931F92CDB7DEB76983DC0139
:1003C000ED91FC910280F381E02D41E050E0BE010F
:1003D0006F5F7F4F09950F90DF91CF91089583E074
:1003E0008093E9008091F200882319F08AE38093DA
:1003F000E80008950E94B40190E00895CF93DF9340
:100400001F92CDB7DEB7FC018485958597FD08C0A6
:100410002FEF3FEF358724870F90DF91CF9108951D
:10042000CE0101960E948A01019719F4898190E01A
:10043000F3CF8FEF9FEFF0CF0F931F93CF93DF9307
:100440001F92CDB7DEB78C01FC018485958597FF9F
:100450000BC0CE0101960E948A01019771F4898137
:1004600090E0F80195878487F801848595850F9041
:10047000DF91CF911F910F9108958FEF9FEFF1CFF3
:10048000FC018485958597FD0BC09FB7F89482E0A9
:100490008093E9008091F2009FBF90E0019608955B
:1004A0009FB7F89482E08093E9008091F2009FBFAB
:1004B00090E008954091CF025091D0022091CD025A
:1004C0003091CE0242175307B4F49091E800957032
:1004D000E1F39091E80092FD19C08093F1008091C2
:1004E000CF029091D00201968F739927892B19F42E
:1004F0008EEF8093E8008091CF029091D002019618
:100500009093D0028093CF0281E0089580E0089517
:10051000EF92FF920F931F93CF93DF93F82E192F33
:10052000E62E042F81E0860F880F0E945A0283E096
:100530000E945A02CF2DD12FEC0EFD2EF11CCE15AC
:10054000DF05B9F007FF13C0FE0184910E945A0233
:10055000182F80E00E945A02812321968111EFCF4B
:10056000DF91CF911F910F91FF90EF9008958881B7
:10057000EDCF81E0F5CFDF92EF92FF920F931F93C3
:10058000CF93DF93D82E8A01EB017B01E40EF51E99
:10059000CE15DF0559F0D7FE12C0FE0184910E94EE
:1005A0005A0221968111F4CF0FEF1FEFC801DF919E
:1005B000CF911F910F91FF90EF90DF900895888168
:1005C000EECF0F931F93CF93DF931F92CDB7DEB77C
:1005D00082E0898342E450E06DE472E080E80E94AA
:1005E000BB020E94C501DC0112960D911C91011500
:1005F000110589F0D801ED91FC910280F381E02D85
:10060000BE016F5F7F4FC801099597FD04C0F801D7
:1006100000851185ECCF89810F90DF91CF911F91DB
:100620000F910895615030F02091F100FC0120837A
:100630000196F8CF289884E68093E1020895DC01C2
:10064000ED91FC910190F081E02D0994EF92FF92E1
:100650000F931F93CF93DF938C017B01D0E0C0E019
:10066000F701EC0FFD1F6491662361F0D801ED9155
:10067000FC910190F081E02DC8010995892B11F0C2
:100680002196EECFCE01DF91CF911F910F91FF9078
:10069000EF900895AF92BF92CF92DF92EF92FF92C8
:1006A0000F931F93CF93DF936C017B018B01040F9A
:1006B000151FEB015E01AE18BF08C017D10759F036
:1006C0006991D601ED91FC910190F081E02DC60178
:1006D0000995892B79F7C501DF91CF911F910F9172
:1006E000FF90EF90DF90CF90BF90AF900895FC0106
:1006F000538D448D252F30E0842F90E0821B930B87
:10070000541710F0CF96089501970895FC01918D2C
:10071000828D981761F0A28DAE0FBF2FB11D5D962F
:100720008C91928D9F5F9F73928F90E008958FEFD1
:100730009FEF0895FC01918D828D981731F0828D85
:10074000E80FF11D858D90E008958FEF9FEF0895DC
:10075000FC01918D228D892F90E0805C9F4F821B40
:1007600091098F73992708958FE393E00E94A8035E
:1007700021E0892B09F420E0822F089580E090E0A9
:10078000892B29F00E94B40381110C940000089574
:10079000FC01A48DA80FB92FB11DA35ABF4F2C91F6
:1007A000848D90E001968F739927848FA689B789ED
:1007B0002C93A089B1898C9182748C93938D848DB4
:1007C000981306C00288F389E02D80818F7D808395
:1007D0000895EF92FF920F931F93CF93DF93EC0155
:1007E00081E0888F9B8D8C8D981319C0E889F989D9
:1007F000808185FF14C09FB7F894EE89FF896083DC
:10080000E889F9898081827480839FBF81E090E0CC
:10081000DF91CF911F910F91FF90EF900895F62EE9
:100820000B8D10E00F5F1F4F0F731127E02E8C8D83
:100830008E110CC00FB607FCFACFE889F9898081C8
:1008400085FFF5CFCE010E94C803F1CFEB8DEC0FF1
:10085000FD2FF11DE35AFF4FF0829FB7F8940B8FE5
:10086000EA89FB8980818062CFCFCF93DF93EC014F
:10087000888D8823B9F0AA89BB89E889F9898C9188
:1008800085FD03C0808186FD0DC00FB607FCF7CF44
:100890008C9185FFF2CF808185FFEDCFCE010E9444
:1008A000C803E9CFDF91CF910895282F30E0F901F7
:1008B000E25DFD4F9491F901E150FE4F8491205289
:1008C0003E4FF9012491222309F430C09923E9F025
:1008D00091509F30D0F4E92FF0E0EF58FB4F0C948B
:1008E0008E209F04A304800497049B048504850440
:1008F0008504A604AC04B004B404BA048504BE04A0
:10090000909180009F7790938000E22FF0E0EE0FAF
:10091000FF1FEE52FE4FA591B4919FB7F894EC9152
:10092000611132C080958E238C939FBF0895909162
:1009300080009F7DE8CF90918000977FE4CF94B5B1
:100940009F7794BDE2CF94B59F7DFBCF90919000AF
:100950009F7790939000D9CF909190009F7DF9CF91
:1009600090919000977FF5CF9091C0009F779093E2
:10097000C000CBCF9091C0009F7DF9CF9091C20075
:10098000977F9093C200C1CF8E2BCECFCF93DF93B2
:1009900090E0FC01E150FE4F249180529E4FFC01FB
:1009A00084918823D1F090E0880F991FFC01EC53CB
:1009B000FE4FA591B491FC01EE52FE4FC591D4912A
:1009C00061110EC09FB7F8948C91E22FE0958E23B1
:1009D0008C932881E223E8839FBFDF91CF91089514
:1009E0008FB7F894EC91E22BEC938FBFF6CF823166
:1009F00008F08251E82FF0E0E854FE4FE491909126
:100A00007B008E2F880F880F80729F7D892B8093AB
:100A10007B00E770E064E0937C0080917A00806462
:100A200080937A0080917A0086FDFCCF80917800D7
:100A30009091790008953FB7F89480918D0290913C
:100A40008E02A0918F02B091900226B5A89B05C09E
:100A50002F3F19F00196A11DB11D3FBFBA2FA92F3D
:100A6000982F8827BC01CD01620F711D811D911D3A
:100A700042E0660F771F881F991F4A95D1F70895A6
:100A80008F929F92AF92BF92CF92DF92EF92FF929E
:100A90004B015C010E941B056B017C010E941B0540
:100AA0006C197D098E099F09683E73408105910587
:100AB000A8F321E0821A9108A108B10888EEC80EB7
:100AC00083E0D81EE11CF11C81149104A104B1043F
:100AD00029F7FF90EF90DF90CF90BF90AF909F905D
:100AE0008F9008958F929F92AF92BF92CF92DF9294
:100AF000EF92FF920F931F93CF93DF936C017B01D3
:100B00008A0180910B01882309F45CC08091E20284
:100B1000882309F457C08091D40280FF05C08091DA
:100B2000E00082608093E000E801B12C8AEFA82EFB
:100B300093E0892E2AE3922E209711F4BB20D9F15D
:100B40000E94B40181110AC0AA94AA20D9F161E0DF
:100B500070E080E090E00E944005EECF8C171D060B
:100B600011F00CF08C2F9FB7F8948092E90020913F
:100B7000E80025FD02C09FBFDFCF282F30E0C21B59
:100B8000D30BF701815020F041914093F100FACF4F
:100B9000E20EF31EBB2021F09092E800B12CEBCFC7
:100BA0008091E80085FDE7CF9092E800BB24B394E4
:100BB000209709F3F3CF5D9884E68093D302101653
:100BC00011063CF081E090E0F6019383828310E00F
:100BD00000E0C801DF91CF911F910F91FF90EF903E
:100BE000DF90CF90BF90AF909F908F9008952FB7D8
:100BF000F8946091890270918A0280918B029091A1
:100C00008C022FBF08950895FB012785FC012787DB
:100C1000FB012685FC0126870895CF93DF93EC0125
:100C20008D819E81DC01ED91FC910084F185E02DA8
:100C300009951816190654F48D819E81DC01ED91F9
:100C4000FC910284F385E02D0995EACFDF91CF91E5
:100C500008958F929F92AF92BF92CF92DF92EF92C0
:100C6000FF92CF93DF93EC016B010E94F7054B01DC
:100C70005C01F12CE12C8D819E81DC01ED91FC91D8
:100C80000284F385E02D099597FF0DC00E94F705BA
:100C9000681979098A099B096C157D058E059F05E0
:100CA00050F38FEF9FEFDF91CF91FF90EF90DF90A8
:100CB000CF90BF90AF909F908F900895FC012381BB
:100CC00034812627022E2295207F2025032E322FC5
:100CD00022952F700226269532272327220F220FD6
:100CE000220F20253483238308952F923F924F9221
:100CF0005F926F927F928F929F92AF92BF92CF92AC
:100D0000DF92EF92FF920F931F93CF93DF93CDB7B4
:100D1000DEB72A970FB6F894DEBF0FBECDBF9A8715
:100D200089875B01290137011A01200E311E3A82A1
:100D3000198288248A94982C9A01260F371F3E83A3
:100D40002D83C801840D951D98878F83A985BA8549
:100D500018968C91B981B81708F040C1E985FA85D9
:100D60009482838285819681DC01ED91FC910190D2
:100D7000F081E02D6FEF09956FEF89859A850E94CC
:100D80005E06E985FA8585819681DC01ED91FC910D
:100D90000190F081E02DA985BA856C910995E985CE
:100DA000FA856081CF010E945E06A985BA851596F5
:100DB0008D919C91DC01ED91FC910190F081E02DF1
:100DC0006A8109956A8189859A850E945E06E9850E
:100DD000FA8585819681DC01ED91FC910190F0818D
:100DE000E02D622D0995622D89859A850E945E0607
:100DF0008501E985FA8585819681DC01ED91FC917B
:100E00000190F081E02D2D813E8120173107E1F422
:100E10008201E985FA8585819681DC01ED91FC915D
:100E20000190F081E02D2F81388520173107C1F026
:100E3000D8016D918D010995F801319760818985FF
:100E40009A850E945E06E5CFD8016D918D010995C6
:100E5000F8013197608189859A850E945E06C9CF25
:100E6000A985BA8514966C910995E985FA858581DD
:100E70009681DC01ED91FC910190F081E02DA98536
:100E8000BA8513966C91099568EC70E089859A850E
:100E90000E9429068F3F910509F092C0E985FA85E5
:100EA000948283826FEFCF010E945E0665E070E05E
:100EB00089859A850E942906A985BA856C9168174B
:100EC000190609F07DC0CD010E945E066AE070E05F
:100ED00089859A850E9429067C0197FD71C0682F3B
:100EE00089859A850E945E066AE070E089859A8508
:100EF0000E9429068C0197FD63C0682F89859A8519
:100F00000E945E06EC821B82EB81FC810E0F1F1F8C
:100F1000F12CE12C65E070E089859A850E151F059E
:100F2000A1F0EC14FD0489F00E94290697FD09C088
:100F3000F301EE0DFF1D8083682F89859A850E943D
:100F40005E06FFEFEF1AFF0AE5CF0E9429067C013B
:100F500097FD36C065E070E089859A850E94290674
:100F600097FD2EC0FE2CEE248E0D9F1DA985BA85FF
:100F700013962D913C9114978217930709F58C9144
:100F80008F5F8C93C801C016D10608F4C6012A965B
:100F90000FB6F894DEBF0FBECDBFDF91CF911F918A
:100FA0000F91FF90EF90DF90CF90BF90AF909F9008
:100FB0008F907F906F905F904F903F902F9008950B
:100FC000B981BF5FB98364E670E080E090E00E9481
:100FD000400589859A850E940D06B8CE8FEF9FEF58
:100FE000D6CFAF92BF92CF92DF92EF92FF920F9344
:100FF0001F93CF93DF9300D0CDB7DEB7FC019B01E9
:101000005A018785882301F18CE6898386858A8346
:10101000D12CC12CF12CE12C8A0142E050E0BE0120
:101020006F5F7F4F848595850E947506C5010F907F
:101030000F90DF91CF911F910F91FF90EF90DF9074
:10104000CF90BF90AF900895B12CA12CEFCFCF924D
:10105000DF92EF92FF920F931F936801790110E0E6
:1010600000E030E020E00E9475061F910F91FF9094
:10107000EF90DF90CF900895EF92FF920F931F9320
:10108000CF93DF9300D01F92CDB7DEB7DC011F9660
:101090002C911F97222301F17C01ED91FC9100849A
:1010A000F185E02D0995892B11F58CE48983F701F1
:1010B00086858A8301E010E09E012D5F3F4F42E06C
:1010C00050E0BE016F5F7F4F848595850E942708A1
:1010D00081E09B81913009F080E00F900F900F909C
:1010E000DF91CF911F910F91FF90EF90089581E0D4
:1010F000F4CFEF92FF920F931F93CF93DF9300D023
:101100001F92CDB7DEB7FC012089211118C07C01E8
:10111000118A8BE4898380E48B8386858A839F018F
:101120002E5E3F4F00E410E043E050E0BE016F5FF1
:101130007F4F848595850E942708F701808B0F904B
:101140000F900F90DF91CF911F910F91FF90EF9033
:101150000895CF93DF93EC010E9479088889882352
:1011600041F08989C80FD11D8A8990E0DF91CF9124
:1011700008958FEF9FEFFACF0F931F93CF93DF93D5
:10118000EC010E94F705688779878A879B87CE01E3
:101190000E94A90897FF15C00E94F70508851985C8
:1011A0002A853B85601B710B820B930B0C811D8183
:1011B0002E813F81601771078207930740F38FEFFD
:1011C0009FEFDF91CF911F910F910895CF92DF9202
:1011D000EF92FF920F931F93CF93DF93EC016A017D
:1011E0007B0110E000E08889811106C0CE010E94D9
:1011F00079088889882399F0E98981E08E0F898BA5
:101200000F5F1F4FEC0FFD2FF11D8289F7018193B6
:101210007F0188898150888B0C151D0520F3C8013A
:10122000DF91CF911F910F91FF90EF90DF90CF90C2
:101230000895CF93DF93EC010E9479088889882371
:1012400069F08150888B898991E0980F998BC80F3C
:10125000D11D8A8990E0DF91CF9108958FEF9FEFA4
:10126000FACF0F931F93CF93DF93EC010E94F70502
:10127000688779878A879B87CE010E94190997FF23
:1012800015C00E94F705088519852A853B85601BD6
:10129000710B820B930B0C811D812E813F81601796
:1012A00071078207930740F38FEF9FEFDF91CF9194
:1012B0001F910F9108958F929F92AF92BF92CF92FC
:1012C000DF92EF92FF920F931F93CF93DF938C01E6
:1012D000C8010E94BC08FC0197FD89C08D329105B0
:1012E00009F04CC0812C912C80E8A82E8FE3B82EF9
:1012F000C12CD12C7601C0E0D0E0E130F10559F1EC
:10130000ED32F10509F446C0EE32F10509F444C0AE
:10131000CF01C0970A97F8F4AAE0B0E0A7019601C0
:101320000E94FC1E6F01FF0FEE08FF08C60ED71EBD
:10133000E81EF91E80E3C81AD108E108F108CC23A1
:1013400051F02DEC3CEC4CEC5DE3C501B4010E9486
:101350003E1E4B015C01C8010E941909C8010E9490
:10136000BC08FC01C0970A9740F2EE32F105B1F4D7
:10137000CC2319F2CD2FD11117C024C0C0970A97E2
:1013800008F4B0CFEE32F10509F4ACCFC8010E94E9
:1013900019099ECFD1E0DFCFC1E0DDCFE130F1050B
:1013A00009F4ABCFDD2341F0F094E094D094C094E5
:1013B000C11CD11CE11CF11CC701B6010E94DF1D3C
:1013C000CC2341F0C701B6010E94DF1DA5019401A5
:1013D0000E943E1EDF91CF911F910F91FF90EF90E1
:1013E000DF90CF90BF90AF909F908F90089560E076
:1013F00070E0CB01EFCFCF93DF93EC010E9479082F
:10140000888990E0DF91CF9108950F931F9310E0AA
:1014100000E030E020E00E9427081F910F9108951E
:10142000CF93DF9300D0CDB7DEB722E629836A835E
:1014300042E050E0BE016F5F7F4FFC0184819581E7
:101440000E94050A81E090E00F900F90DF91CF910C
:101450000895CF93DF9300D01F92CDB7DEB7FC0184
:10146000278590E080E0222381F08CE689838685C1
:101470008A836B8343E050E0BE016F5F7F4F8485BA
:1014800095850E94050A81E090E00F900F900F90E3
:10149000DF91CF9108950F931F93CF93DF9300D0E7
:1014A000CDB7DEB78C01FC018785882369F08AE619
:1014B000898386858A8342E050E0BE016F5F7F4F5B
:1014C000848595850E94050AF8011786108A118A7D
:1014D0000F900F90DF91CF911F910F910895DC0134
:1014E000FB018281938113969C938E931297448182
:1014F00055816681778114964D935D936D937C93AE
:101500001797408551856285738518964D935D9335
:101510006D937C931B9780E291E011969C938E9340
:10152000848595851D969C938E931C9786851E9623
:101530008C931E9787851F968C931F978089509652
:101540008C935097818951968C93519780E4729631
:10155000529601900D928A95E1F70895FC018785D6
:101560000895089590E080E00895FB010190002027
:10157000E9F73197AF01461B570BDC01ED91FC9168
:101580000280F381E02D09948F929F92AF92BF92D7
:10159000EF92FF920F931F93CF93DF93CDB7DEB7F8
:1015A000A1970FB6F894DEBF0FBECDBF7C01FA0144
:1015B000CB0119A2223008F42AE08E010F5D1F4FE3
:1015C000822E912CB12CA12CBF01A50194010E9467
:1015D0006C20F901CA016A300CF5605DD8016E9388
:1015E0008D01232B242B252B79F790E080E0109799
:1015F00021F0BD01C7010E94B50AA1960FB6F8946B
:10160000DEBF0FBECDBFDF91CF911F910F91FF9035
:10161000EF90BF90AF909F908F900895695CDECF60
:101620000F931F93CF93DF93EC010E94B50A8C01B7
:101630006BE771E0CE010E94B50A800F911FDF9128
:10164000CF911F910F910895AF92BF92CF92DF92E9
:10165000EF92FF920F931F93CF93DF9300D000D0B0
:1016600000D01F92CDB7DEB75C019B0183E4898374
:101670005A834B83FB0101900020E9F731978F01DA
:10168000061B170BCC24C394D12CCE0106967C01EB
:1016900043E050E0BE016F5F7F4FD5011C968D91F6
:1016A0009C910E947506892BB9F18E81F501868780
:1016B00093E69C838D8301E010E09E01295F3F4FFC
:1016C00042E050E0BE016C5F7F4FD5011C968D91CA
:1016D0009C910E9427088F81882339F061E070E097
:1016E00080E090E00E944005E6CF81E0F501878729
:1016F0000190F081E02D0688F789E02DC50109955C
:1017000081111DC0D501ED91FC910488F589E02D72
:10171000C5010995F501168690E080E027960FB681
:10172000F894DEBF0FBECDBFDF91CF911F910F9117
:10173000FF90EF90DF90CF90BF90AF90089581E041
:1017400090E0ECCF0E947622FC0124813581232B8E
:1017500039F421E0FB018081882349F020E007C0B3
:10176000808191810E94842221E0892BB9F7822F08
:1017700008950F931F93CF93DF93EC018881998194
:10178000009759F02A813B812617370730F081E016
:10179000DF91CF911F910F9108958B016F5F7F4F64
:1017A0000E94B921009759F0998388831B830A838B
:1017B0002C813D81232B59F7FC011082E8CF80E07A
:1017C000E7CFEF92FF920F931F93CF93DF936115B3
:1017D000710541F480E0DF91CF911F910F91FF904F
:1017E000EF90089541155105B1F07B01EC010C819A
:1017F0001D81040F151FB8010E94B90B882351F3F6
:10180000288139818C819D81B701820F931F0E94AD
:101810008D221D830C8381E0DECFEF92FF920F9328
:101820001F93CF93DF9300D000D0CDB7DEB77C01FC
:10183000862F4AE08E010F5F1F4FB80190E00E9493
:101840006C1BF80101900020E9F73197AF01401BB4
:10185000510BB801C7010E94E10B0F900F900F9040
:101860000F90DF91CF911F910F91FF90EF9008950E
:10187000CF93DF9300D0CDB7DEB769831A8241E002
:1018800050E0BE016F5F7F4F0E94E10B0F900F9001
:10189000DF91CF9108956115710551F0FB01019021
:1018A0000020E9F73197AF01461B570B0C94E10B71
:1018B00080E00895CF93DF93EC01888199810097B0
:1018C00011F00E943021198218821D821C821B8215
:1018D0001A82DF91CF910895EF92FF920F931F9399
:1018E000CF93DF93EC017B018A01BA010E94B90B0F
:1018F00081110BC0CE010E945A0CCE01DF91CF9115
:101900001F910F91FF90EF9008951D830C83B701F5
:10191000888199810E948D22F0CFEF92FF920F93E0
:101920001F93CF93DF93CDB7DEB7A1970FB6F8948F
:10193000DEBF0FBECDBF7C01CB01BA01F701118222
:10194000108213821282158214828E010F5F1F4F44
:1019500022E044E00E94471B0097C9F0FC0101907F
:101960000020E9F73197AF01481B590BBC01C701B3
:101970000E946C0CA1960FB6F894DEBF0FBECDBFCF
:10198000DF91CF911F910F91FF90EF900895C701C4
:101990000E945A0CEFCFFC01118210821382128236
:1019A00015821482FB0101900020E9F73197AF0105
:1019B000461B570B0C946C0C0F931F93CF93DF9324
:1019C000EC018B016DE771E00E94CB0CC8010E9415
:1019D000310997FD08C08F32910529F0682FCE019B
:1019E0000E94380CF3CFCE01DF91CF911F910F9160
:1019F0000895FC0180819181009711F00C943021B1
:101A00000895EF92FF920F931F93CF93DF9300D02F
:101A100000D000D01F92CDB7DEB77C018B016EE7FE
:101A200071E0CE0101960E94CB0CB701CE01019668
:101A30000E944B0C41E050E060E871E0CE0101965D
:101A40000E94E10BB801CE0101960E944B0C4D8122
:101A50005E8169817A8101E010E09E01295F3F4F3C
:101A60008CED93E00E942708CE0101960E94F90CAC
:101A700027960FB6F894DEBF0FBECDBFDF91CF9192
:101A80001F910F91FF90EF900895CF92DF92EF9208
:101A9000FF920F931F93CF93DF9300D000D000D01D
:101AA000CDB7DEB77C018B016A016DE771E0CE0135
:101AB00001960E94CB0C62E170E0CE0101960E947B
:101AC000B90BD80112966C91CE0101960E940D0CB3
:101AD0006EE2CE0101960E94380CF8016381CE01BE
:101AE00001960E940D0C6EE2CE0101960E94380C08
:101AF000D80114966C91CE0101960E940D0C6EE2F5
:101B0000CE0101960E94380CF8016581CE01019644
:101B10000E940D0C69817A81D701ED91FC910088BA
:101B2000F189E02DA601C70109958C01CE0101962E
:101B30000E94F90CC80126960FB6F894DEBF0FBEBE
:101B4000CDBFDF91CF911F910F91FF90EF90DF906C
:101B5000CF9008952F923F924F925F926F927F9213
:101B60008F929F92AF92BF92CF92DF92EF92FF92AD
:101B70001F93CF93DF93EC016A017B01722EAB01BF
:101B80009601CB01B6010E94672062E871E08111E5
:101B900026C046015701E894B7F82FEF3FEF4FE713
:101BA0005FE7C501B4010E94672081110CC02FEFCF
:101BB0003FEF4FE75FE7C501B4010E94D81D66E81B
:101BC00071E0181664F02FEF3FEF4FE75FE4C701B5
:101BD000B6010E9462201816B4F46AE871E0CE01E2
:101BE000DF91CF911F91FF90EF90DF90CF90BF904A
:101BF000AF909F908F907F906F905F904F903F90AD
:101C00002F900C94B50A2FEF3FEF4FE75FECC70121
:101C1000B6010E94D81D87FDE0CF20E030E0A90189
:101C2000C701B6010E94D81D312C212C87FF09C0A5
:101C30006DE2CE010E941F031C01F7FAF094F7F841
:101C4000F09410E060E070E080E09FE3711641F0F6
:101C500020E030E040E251E40E94BA1F1F5FF6CF5F
:101C6000A70196010E944E1F2B013C010E943320C8
:101C70004B015C012AE0BC01A401CE010E94C40A10
:101C80007C01E20CF31C1123C1F1C501B4010E94D7
:101C9000DD1D9B01AC01C301B2010E944D1F4B0130
:101CA0005C016EE2CE010E941F03E80EF91E115086
:101CB00020F120E030E040E251E4C501B4010E948F
:101CC0003E1E2B013C010E9433204B01B12CA12C64
:101CD0002AE0B501A401CE010E94C40AE80EF91E53
:101CE000C501B4010E94DD1D9B01AC01C301B2011D
:101CF0000E944D1F4B015C01DACFC701DF91CF91EC
:101D00001F91FF90EF90DF90CF90BF90AF909F908A
:101D10008F907F906F905F904F903F902F9008959D
:101D20000F931F93CF93DF93EC010E94AA0D8C01B8
:101D30006BE771E0CE010E94B50A800F911FDF9121
:101D4000CF911F910F9108958F929F92AF92BF9262
:101D5000CF92DF92EF92FF920F931F93CF93DF9377
:101D60007C018B016C0182E0C80ED11C4701E5E0CB
:101D70008E0E911CD0E0C0E0F60141916F0150E061
:101D800070E060E02AE0C8010E94C40A5C016EE2D3
:101D9000C8010E941F038A0D9B1DC80FD91FC814BC
:101DA000D90451F7F701458150E070E060E02AE086
:101DB000C8010E94C40A8C0F9D1FDF91CF911F9113
:101DC0000F91FF90EF90DF90CF90BF90AF909F90DA
:101DD0008F900895AF92BF92CF92DF92EF92FF92D1
:101DE0000F931F93CF93DF93CDB7DEB72A970FB62C
:101DF000F894DEBF0FBECDBF5C018EE48F83F5018A
:101E000086819781988789871A8219821C821B8212
:101E10001E821D8269E070E0CE0101960E94B90B1E
:101E2000811144C0CE0101960E945A0CF5018185B2
:101E300081110CC067E070E0CE0101960E94B90BE1
:101E400081113FC0CE0101960E945A0C0D811E8166
:101E500029813A81CC24C394D12CCE010A967C01ED
:101E600043E050E0BE01695F7F4FF50184819581B9
:101E70000E94750681E09A85913009F080E0F501B5
:101E80008087CE0101960E94F90C2A960FB6F8942D
:101E9000DEBF0FBECDBFDF91CF911F910F91FF909D
:101EA000EF90DF90CF90BF90AF90089589E090E0E1
:101EB0009E838D836EEA71E089819A810E94651B01
:101EC000B5CF87E090E09E838D8366EA71E08981DB
:101ED0009A810E94651BBACF1F920F920FB60F9284
:101EE00011248F939F938091E1009091E100937F63
:101EF0009093E10083FF0FC01092E90091E090936E
:101F0000EB001092EC0092E39093ED001092E2024D
:101F100098E09093F00082FF22C093E09093E90054
:101F20009091F200992319F09AE39093E800909130
:101F3000D302992341F09091D30291509093D30210
:101F4000911101C05D9A9091E102992341F0909125
:101F5000E10291509093E102911101C0289A84FF0F
:101F600018C08091E2008E7E81608093E2008091B3
:101F7000E1008F7E8093E1008091D4028E7E8061AB
:101F80008093D4029F918F910F900FBE0F901F905E
:101F9000189580FFF7CF8091E2008E7E806180935C
:101FA000E2008091E1008E7E8093E1008091D40276
:101FB0008E7E8160E5CF1F920F920FB60F92112493
:101FC000CF92DF92EF92FF920F931F932F933F9345
:101FD0004F935F936F937F938F939F93AF93BF9331
:101FE000EF93FF93CF93DF93CDB7DEB76C97DEBF50
:101FF000CDBF1092E9008091E80083FF25C068E022
:10200000CE0145960E94120382EF8093E8008D89ED
:1020100087FF39C09091E80090FFFCCF982F907611
:1020200009F034C19E894F89588D2F89F88C911100
:1020300031C0803861F58091D2028093F100109216
:10204000F1008EEF8093E8006C960FB6F894DEBF37
:102050000FBECDBFDF91CF91FF91EF91BF91AF91B7
:102060009F918F917F916F915F914F913F912F91B0
:102070001F910F91FF90EF90DF90CF900F900FBEC8
:102080000F901F9018959EEF9093E800C7CF109285
:10209000F100D5CF913059F48111D3CF41305105A2
:1020A00081F68091D2028D7F8093D202CACF933085
:1020B00049F48111C6CF4130510519F68091D20201
:1020C0008260F2CF953041F48091E80080FFFCCF30
:1020D00020682093E300B5CF963009F0A9C00B8D9E
:1020E0001C8D22E01092E9001092D0021092CF02D3
:1020F000F2122EC01092CE021092CD020E94E10286
:102100001F8299E09983FA8291E09E8390EA9887F2
:102110009AEF99872091CF023091D002275F3F4FED
:102120003C832B838D831092E9001092D002109291
:10213000CF021093CE020093CD0249E050E0BE01E1
:102140006F5F7F4F80E00E94BB020E94E10279CF67
:102150001093CE020093CD020E94C501DC011296BD
:102160000D911C910115110509F451C1D801ED9192
:10217000FC910480F581E02DBE016B5E7F4FC801AC
:102180000995009709F03EC1F80100851185EACF55
:10219000F3E0FF120EC08F89882309F440C082301B
:1021A00061F440E86BE081EB92E00E9488028111CB
:1021B00048CF81E28093EB0047CF813029F440E89B
:1021C0006BE085EA92E0F1CF833099F70E94C50178
:1021D000DC011296ED90FC908E010F5F1F4F68019D
:1021E000E114F10479F0D701ED91FC910680F781BB
:1021F000E02DB801C7010995080F111DF701E08412
:10220000F184EECFD8011C92F60101900020E9F78D
:102210003197BF016C197D0940E0C601C6CF6FE858
:1022200072E0FB01449150E080E80E94BB0209CFBC
:10223000973009F4BECF983021F481E08093F1000B
:1022400000CF993009F0FDCE837009F0B2CFEDE3F5
:10225000F1E081E031E096E32191222371F0809357
:10226000E9003093EB00DF0111972C912093EC00F3
:102270009093ED008F5F873079F78EE78093EA00C7
:102280001092EA008F898093E202DBCE8B8D9C8DC9
:102290001092E9001092D0021092CF029093CE02D9
:1022A0008093CD02898D811192C08E899D89913A4A
:1022B00049F4813209F07DCF47E050E064E071E0FD
:1022C00080E0B3CF913209F074CF833269F48F8903
:1022D000988DB0E0A0E08093000190930101A0935D
:1022E0000201B0930301ADCE803269F48091E80021
:1022F00082FFFCCF67E084E091E00E9412038BEF45
:102300008093E8009ECE823209F09BCE8F89809325
:102310000B01EEEFFFE7859194918B3F9C4D51F1BE
:10232000E0E0F8E08091040190910501A0910601A0
:10233000B0910701803B9440A105B105F1F4809173
:102340000B0180FD1AC0EE3F8AE0F80789F587E7A8
:1023500097E791838083809160008093D10288E128
:102360009BE00FB6F894A895809360000FBE909301
:10237000600067CEEEEFFAE0D5CF8081918187379C
:10238000974709F05ECEA8958091600088618093A0
:1023900060008091D10280936000EE3F2AE0F20756
:1023A00089F08091FE0A9091FF0A9183808349CE43
:1023B000808191818737980751F29093FF0A80932B
:1023C000FE0AC5CF1092FF0A1092FE0A3ACE0E9472
:1023D000C501DC0112960D911C910115110509F43E
:1023E000E8CED801ED91FC910190F081E02DBE0185
:1023F0006B5E7F4FC8010995811123CEF8010085DE
:102400001185EBCF181619060CF41BCED2CEF1E0D5
:10241000FF12BECE63E972E004CF1F920F920FB697
:102420000F9211242F933F934F935F936F937F935A
:102430008F939F93AF93BF93EF93FF938FE393E0BB
:102440000E94C803FF91EF91BF91AF919F918F912F
:102450007F916F915F914F913F912F910F900FBEA0
:102460000F901F9018951F920F920FB60F92112484
:102470002F938F939F93EF93FF93E0914F03F091EE
:1024800050038081E0915503F091560382FD1BC0FB
:102490009081809158038F5F8F7320915903821729
:1024A00041F0E0915803F0E0E15CFC4F958F8093A0
:1024B0005803FF91EF919F918F912F910F900FBE35
:1024C0000F901F9018958081F4CF1F920F920FB636
:1024D0000F9211242F933F938F939F93AF93BF93AA
:1024E0008091890290918A02A0918B02B0918C0216
:1024F0003091880223E0230F2D3758F50196A11D56
:10250000B11D209388028093890290938A02A09340
:102510008B02B0938C0280918D0290918E02A091DB
:102520008F02B09190020196A11DB11D80938D0282
:1025300090938E02A0938F02B0939002BF91AF91BF
:102540009F918F913F912F910F900FBE0F901F90F1
:10255000189526E8230F0296A11DB11DD2CFE3EEF8
:10256000F2E01382128288EE93E0A0E0B0E0848370
:102570009583A683B78327E431E0318320832FEF4F
:102580003FEF35872487EFE3F3E0138212828483E1
:102590009583A683B78389E591E0918380838DEC51
:1025A00090E0958784878CEC90E09787868788EC0D
:1025B00090E0918B808B89EC90E0938B828B8AECFE
:1025C00090E0958B848B8EEC90E0978B868B118EB0
:1025D000128E138E148EA3E3B3E089E791E0119677
:1025E0009C938E9312961C92129713961C9213979B
:1025F00014961C92149715961C92A9E3B3E01196B9
:102600009C938E9312961C92129713961C9213977A
:1026100014961C92149715961C92ACEDB3E01C9284
:102620001696FC93EE93159717961C92179718968B
:102630001C9218971A96FC93EE931997E1EFF3E02A
:10264000918380831282138214821582E7EEF3E075
:10265000138212828BE691E091838083B583A483F9
:1026600083EB95E197838683108611860895CF9337
:10267000DF93CDB7DEB7CC52D1400FB6F894DEBFB2
:102680000FBECDBF789484B5826084BD84B581606F
:1026900084BD85B5826085BD85B5816085BD80912D
:1026A0006E00816080936E001092810080918100A5
:1026B000826080938100809181008160809381009D
:1026C0008091800081608093800080919100826081
:1026D000809391008091910081608093910080911E
:1026E00090008160809390008091C100846080930D
:1026F000C1008091C10082608093C1008091C100BF
:1027000081608093C1008091C30081608093C30089
:102710008091C00082608093C0008091C20081607F
:102720008093C20080917A00846080937A008091C7
:102730007A00826080937A0080917A008160809331
:102740007A0080917A00806880937A001092E20289
:102750001092D2021092D4028091D70081608093AF
:10276000D70080EA8093D80089B5806189BD89B59A
:10277000826089BD09B400FEFDCF61E070E080E0B9
:1027800090E00E9440058091D8008F7C806180930A
:10279000D8008091E000807F8093E0008091E1008C
:1027A0008E7E8093E1008DE08093E200559A209A1E
:1027B000E091E503F091E603A089B18982E08C9372
:1027C000A485B5851C92A685B78587E08C93108E6D
:1027D000A489B58986E08C93A289B3898C918061A4
:1027E0008C93A289B3898C9188608C93A289B389D8
:1027F0008C9180688C930288F389E02D80818F7D95
:1028000080838091E3038111C5C081E08093E3035D
:102810008CED93E00E940D0668EE73E080E090E09E
:102820000E9440058091E1039091E203DC01ED916B
:10283000FC910084F185E02D09951816190644F3E2
:10284000FF24F39492E3E92E85E0E2E1F1E0DE017A
:10285000AD5ABF4F01900D928A95E1F7F092E403D3
:1028600045E050E0BE016D5A7F4F8CED93E00E9431
:10287000050A63E08091E1039091E2030E941F0347
:102880006AEF70E080E090E00E9440056CE272E048
:102890008091E1039091E2030E9426036AEF70E0C9
:1028A00080E090E00E9440056AE272E08091E103DE
:1028B0009091E2030E94260364EF71E080E090E0D3
:1028C0000E9440056EE172E08091E1039091E20385
:1028D0000E94260364EF71E080E090E00E944005D2
:1028E0008CED93E00E940D0685E0E7E1F1E0DE016A
:1028F000119601900D928A95E1F7E092E40304E0CD
:1029000010E09E012B553F4F45E050E0BE016F5F48
:102910007F4F8CED93E00E9427088F3F980739F492
:1029200068EE73E080E090E00E9440058DCFCB55CB
:10293000DF4F2881C55AD0402111FFCF049709F0FD
:10294000DBC5CA55DF4F2881C65AD0402053330B10
:1029500044E6429FC001439F900D1124C955DF4FAB
:102960002881C75AD040EAE02E9F800D911D112486
:10297000805E9140C855DF4F2881C85AD04020530F
:10298000330B820F931F9093DE038093DD0382E36A
:102990008093E40360E083E10E94C60461E089E083
:1029A0000E94C60480E090E0A0E2B2E48093B90205
:1029B0009093BA02A093BB02B093BC0280E090E077
:1029C000A0EAB0E48093990290939A02A0939B02AC
:1029D000B0939C0240E050E068EC72E440939502B2
:1029E000509396026093970270939802109291020E
:1029F0001092920210929302109294028093A50278
:102A00009093A602A093A702B093A8028DEC9CEC31
:102A1000ACE4BDE38093AD029093AE02A093AF020D
:102A2000B093B0021092A1021092A2021092A302DF
:102A30001092A4021092B1021092B2021092B3024C
:102A40001092B4021092CC021092CB021092CA02E1
:102A50001092C90210929D0210929E0210929F0243
:102A60001092A0021092C5021092C6021092C702E4
:102A70001092C80281E08093F00387EE93E00E94F9
:102A8000EA0E88EE482E83E0582E612C712C1E0130
:102A9000F7EF2F0E311C2BE664962FAF649701E001
:102AA00010E09E012F5F3F4F41E050E0BE016D5AA4
:102AB0007F4F8091EB039091EC030E942708892BB4
:102AC00009F01DC5C955DF4F19821882C75AD04079
:102AD000C755DF4F488259826A827B82C95AD040EB
:102AE00040E251E0CB55DF4F59834883C55AD0406F
:102AF0008CED93E0CF54DF4F99838883C15BD04046
:102B0000CD54DF4F1882C35BD040CC54DF4F1882C6
:102B1000C45BD040CB54DF4F1882C55BD040CC544F
:102B2000DF4F8881C45BD040882309F403C3BE0112
:102B30006B557F4FCE018D5A9F4F0E946F0ABE0189
:102B40006D5A7F4FCE01855E9E4F0E94DC0C6EE871
:102B500071E0CE01855E9E4F0E94A40B882309F48C
:102B600009C1BE016D5A7F4FCE0101960E946F0AC6
:102B7000BE016F5F7F4FCE018B5E9E4F0E94DC0CCB
:102B800063E971E0CE0101960E94100B63EA71E0E7
:102B9000CE0101960E94100B6BEB71E0CE01019605
:102BA0000E94100B6BE771E0CE0101960E94B50AFE
:102BB0006DEC71E0CE0101960E94100B6DED71E09D
:102BC000CE0101960E94100B6AEE71E0CE010196D3
:102BD0000E94100B4091B9025091BA026091BB0261
:102BE0007091BC0222E0CE0101960E94AA0D6FE115
:102BF00072E0CE0101960E94B50A4091C102509147
:102C0000C2026091C3027091C40222E0CE0101961B
:102C10000E94AA0D6FE172E0CE0101960E94B50AF2
:102C20004091B5025091B6026091B7027091B8021E
:102C300022E0CE0101960E94AA0D6FE172E0CE0162
:102C400001960E94B50A40919D0250919E026091AA
:102C50009F027091A00222E0CE0101960E94AA0D6F
:102C60006FE172E0CE0101960E94B50A409199028F
:102C700050919A0260919B0270919C0222E0CE01D9
:102C800001960E94AA0D6FE172E0CE0101960E94AA
:102C9000B50A409195025091960260919702709109
:102CA000980222E0CE0101960E94AA0D6FE172E027
:102CB000CE0101960E94B50A409191025091920274
:102CC00060919302709194022AE030E0CE01019667
:102CD0000E94900E62E272E0CE0101960E94100BFB
:102CE00069E472E0CE01815F9E4F0E94CB0CC75F0A
:102CF000DE4F19821882C950D140C55FDE4F19825C
:102D00001882CB50D140C35FDE4F19821882CD505C
:102D1000D1404AE0B10185E090E00E946C1BF101D6
:102D200001900020E9F73197AF0142195309B10131
:102D3000CE01875F9E4F0E946C0CC75FDE4F68819B
:102D40007981C950D140C15FDE4F88819981CF50D0
:102D5000D1400E94010DCE01875F9E4F0E94F90C69
:102D6000CE01815F9E4F0E94F90CCE018B5E9E4F7B
:102D70000E94F90C61E372E0CE01855E9E4F0E94D5
:102D8000A40B882309F4CCC1BE016D5A7F4FCE013C
:102D900001960E946F0ABE016F5F7F4FCE01815F77
:102DA0009E4F0E94DC0C62E472E0CE01815F9E4F78
:102DB0000E94A40B882309F44EC0CE0101960E9404
:102DC0005B096B017C0120E030E0A9010E94D81D65
:102DD000882341F0C092B902D092BA02E092BB02BD
:102DE000F092BC0267E372E0CE0101960E94100BE4
:102DF0004091B9025091BA026091BB027091BC023D
:102E000022E030E0CE0101960E94900E62E472E072
:102E1000CE01875F9E4F0E94CB0C4091B90250912A
:102E2000BA026091BB027091BC02C1010E948D0C7C
:102E3000D1016D917C91C75FDE4F88819981C95026
:102E4000D1400E94010DC1010E94F90CCE01875FA3
:102E50009E4F0E94F90C66E572E0CE01815F9E4FA5
:102E60000E94A40B882309F47EC0CE0101960E9423
:102E70005B096B017C0120E030E0A9010E94D81DB4
:102E80008823C1F1C0929902D0929A02E0929B02EB
:102E9000F0929C02C092A502D092A602E092A702F4
:102EA000F092A802209195023091960240919702EB
:102EB00050919802C701B6010E94BA1F6093AD02FB
:102EC0007093AE028093AF029093B002A701960177
:102ED000609191027091920280919302909194027C
:102EE0000E943E1E6093A1027093A2028093A302EF
:102EF0009093A4026BE472E0CE0101960E94B50AA1
:102F00004091990250919A0260919B0270919C02AB
:102F100022E030E0CE0101960E94900E66E572E05C
:102F2000CE01875F9E4F0E94CB0C40919902509139
:102F30009A0260919B0270919C02C1010E948D0CCB
:102F4000F10160817181C75FDE4F88819981C9502D
:102F5000D1400E94010DC1010E94F90CCE01875F92
:102F60009E4F0E94F90C66E672E0CE01815F9E4F93
:102F70000E94A40B882309F462C0CE0101960E942E
:102F80005B096B017C0120E030E0A9010E94D81DA3
:102F90008823E1F0C0929502D0929602E0929702C7
:102FA000F0929802A70196016091990270919A029D
:102FB00080919B0290919C020E94BA1F6093AD0287
:102FC0007093AE028093AF029093B0026BE572E013
:102FD000CE0101960E94B50A409195025091960249
:102FE000609197027091980222E030E0CE01019644
:102FF0000E94900E66E672E0CE01875F9E4F0E94AF
:10300000CB0C40919502509196026091970270917D
:103010009802C1010E948D0CD1016D917C91C75F16
:10302000DE4F88819981C950D1400E94010DC101B4
:103030000E94F90CCE01875F9E4F0E94F90C6AE74F
:1030400072E0CE01815F9E4F0E94A40B882309F499
:1030500062C0CE0101960E945B096B017C0120E0F9
:1030600030E0A9010E94D81D8823E1F0C0929102AE
:10307000D0929202E0929302F0929402A7019601FC
:103080006091990270919A0280919B0290919C02AA
:103090000E943E1E6093A1027093A2028093A3023D
:1030A0009093A4026FE672E0CE0101960E94100B8D
:1030B000409191025091920260919302709194021A
:1030C00022E030E0CE0101960E94900E6AE772E0A5
:1030D000CE01875F9E4F0E94CB0C40919102509190
:1030E00092026091930270919402C1010E948D0C32
:1030F000F10160817181C75FDE4F88819981C9507C
:10310000D1400E94010DC1010E94F90CCE01875FE0
:103110009E4F0E94F90CCE01815F9E4F0E94F90CD8
:10312000CE01855E9E4F0E94F90CCE018B559F4FBC
:103130000E944B0A62E370E080E090E00E9440054C
:103140008091CB029091CC0201969093CC02809317
:10315000CB02E090C902F090CA02FFEFEF1AFF0A1B
:10316000F092CA02E092C90283E10E94F70483E16F
:103170000E94F704BC01990F880B990B0E94DF1D78
:1031800024E431E84BE55FE30E943E1E2FE23EE778
:1031900047E553E40E944D1F4B015C016091C5025D
:1031A0007091C6028091C7029091C8020E94DF1DF3
:1031B0009B01AC01C501B4010E944E1F0E942C204E
:1031C0006093C5027093C6028093C7029093C802B1
:1031D0002AE0E216F10409F077C10E94DF1D20E029
:1031E00030E040E251E40E94BA1F6B017C01C092C2
:1031F000C102D092C202E092C302F092C4020E94C5
:10320000F705CB5DDE4F688379838A839B83C55244
:10321000D1408091BD029091BE02A091BF02B091B9
:10322000C002CB5DDE4F288139814A815B81C55266
:10323000D140281B390B4A0B5B0BCA01B901A30112
:1032400092010E946C20CA01B9010E94DD1DCF5D70
:10325000DE4F688379838A839B83C152D14020E00B
:1032600030E0A9010E94622018160CF009C1A701E4
:1032700096016091B9027091BA028091BB0290915F
:10328000BC020E944D1F4B015C018092B5029092DE
:10329000B602A092B702B092B802AC019B01CF5D1A
:1032A000DE4F688179818A819B81C152D1400E9421
:1032B0003E1E2091B1023091B2024091B302509172
:1032C000B4020E944E1F6093B1027093B2028093C9
:1032D000B3029093B402C090AD02D090AE02E090E1
:1032E000AF02F090B002A70196010E943E1E20E0BE
:1032F00030E04FE753E40E946220181684F4A701DF
:10330000960160E070E08FE793E40E94BA1F60933B
:10331000B1027093B2028093B3029093B4022091F1
:10332000B1023091B2024091B3025091B402C70190
:10333000B6010E943E1E20E030E0A9010E94D81D87
:1033400087FF08C01092B1021092B2021092B3022D
:103350001092B4022091A5023091A6024091A702DA
:103360005091A802C501B4010E943E1EC75DDE4F08
:10337000688379838A839B83C952D1402091B102AB
:103380003091B2024091B3025091B402C701B6012C
:103390000E943E1E9B01AC01C75DDE4F68817981B2
:1033A0008A819B81C952D1400E944E1F6B017C01D2
:1033B0002091A9023091AA024091AB025091AC0237
:1033C000C501B4010E944D1FCF5DDE4F28813981B8
:1033D0004A815B81C152D1400E94BA1F2091A10253
:1033E0003091A2024091A3025091A4020E943E1E7D
:1033F0009B01AC01C701B6010E944E1F6B017C010D
:1034000020E030E04FE753E40E94622018160CF4ED
:10341000A1C0C0929D02D0929E02E0929F02F092C3
:10342000A00220E030E0A90160919D0270919E020F
:1034300080919F029091A0020E94D81D87FF08C032
:1034400010929D0210929E0210929F021092A00272
:103450008092A9029092AA02A092AB02B092AC0212
:10346000CB5DDE4F88819981AA81BB81C552D14055
:103470008093BD029093BE02A093BF02B093C0029E
:1034800060919D0270919E0280919F029091A00296
:103490000E942C204B017B0161E089E00E94C60460
:1034A0008114910409F063C060E089E00E94550432
:1034B0001092C5021092C6021092C7021092C80262
:1034C0001092CA021092C9028091CB029091CC0254
:1034D0008436910521F41092CC021092CB0280E048
:1034E00090E0892B09F4D7CA0E94B403882309F419
:1034F000D2CA0E940000CBCA84E690E044CA898107
:10350000C955DF4F19821882C75AD040C755DF4FBF
:10351000488259826A827B82C95AD040A0E2B1E0D7
:10352000CB55DF4FB983A883C55AD040ECEDF3E00B
:10353000CF54DF4FF983E883C15BD040CD54DF4FD8
:103540008883C35BD04081E0CC54DF4F8883C45B69
:10355000D040E0CA80E090E0AFE7B3E480939D0202
:1035600090939E02A0939F02B093A0025ACF9FEF28
:103570008916910411F461E098CFE7E3F2E08491B9
:10358000EFEFE80FEF3008F07CC0F0E0E653F54EC7
:103590000C948E20D91ADE1AE31AED1AF71A411B81
:1035A000411B411B011B0B1B151B1F1B2C1B411B14
:1035B000341B84B5806884BD87BC7ACF84B58062B3
:1035C00084BD88BC75CF8091800080688093800026
:1035D00090928900809288006BCF809180008062F9
:1035E0008093800090928B0080928A0061CF8091BE
:1035F000800088608093800090928D0080928C0083
:1036000057CF8091900080688093900090929900AD
:10361000809298004DCF80919000806280939000BE
:1036200090929B0080929A0043CF80919000886096
:103630008093900090929D0080929C0039CF809161
:10364000C00080688093C0008091C0008F7B809311
:10365000C0008092CF002CCF8091C0008062809308
:10366000C0008092D00024CF8091C20088608093F7
:10367000C2008091C2008B7F8093C2008092D200F2
:1036800017CFF0E8EF16F1040CF075CF0DCFEF92E5
:103690000F931F93CF93DF93E80134E047FD34E1AC
:1036A000042E000C550B57FF03C05195419551094D
:1036B000E32E022F242FAE010E94911BCE01DF9139
:1036C000CF911F910F91EF900895FB01DC010590C0
:1036D0000D920020E1F70895BB274A3031F4992379
:1036E00022F4BDE2909581959F4F0C94781BBB27E7
:1036F000FB015527AA27880F991FAA1FA41710F0AE
:10370000A41B83955051B9F7A05DAA3308F0A95DB9
:10371000A193009779F7B111B1931192CB010C9459
:10372000C81DA9E0B0E0E7E9FBE10C940D1F6A01B8
:10373000F22EB02E102FFBE3AF2EA01608F41BE3E1
:103740001F5F012F27E0AE014F5F5F4F0E94F01C0B
:10375000BC018981982F9970913009F43FC09BE298
:10376000E1FC04C09E2D9170E0FC3AC05E2D5071CA
:10377000E82FE87083FF46C084E0911101C083E028
:10378000EF2DE81B8F1508F0E0E0D6018E2F20E228
:10379000552351F1992329F0D6019C93C601019636
:1037A0006C0196012D5F3F4FE2FE24C08EE4D601EE
:1037B0008C9391E411969C93119712968C93D90156
:1037C0008E2F90E281111BC0E20FF32FF11D1082AA
:1037D0008EEF9FEF2996ECE00C94291F9DE2C6CF57
:1037E00090E2C4CF2D9381508111FCCFCE0ED11C1D
:1037F000E0E0D0CF8EE6D6018C9391E6DBCF9D93AF
:103800008150E0CF482F447082FF3DC084E0911189
:1038100001C083E08F1510F4EF2DE81BD6018E2F29
:1038200020E2552309F1992329F0D6019C93C60182
:1038300001966C0196012D5F3F4FE2FE1BC089E4AB
:10384000D6018C938EE411968C93119786E4129690
:103850008C93D9018E2F90E2882309F4B5CF9D93E4
:103860008150FACF2D9381508111FCCFCE0ED11C07
:10387000E0E0D9CF89E6D6018C938EE611968C9341
:10388000119786E6E4CF9B0177FF02C030E020E08D
:10389000A1E0B0E0911102C0B0E0A0E0F9013196E2
:1038A000AE0FBF1F8B2C912CBB2009F461C05401BB
:1038B000EFEFAE1ABE0AAA0DBB1DFA161B0619F0D1
:1038C00014F04F2D4A1B511188C0E3FC59C07601FA
:1038D000A42FB0E2A1114FC0C40ED11C992309F44A
:1038E0005BC040E0D6011196F60190836D0155232F
:1038F00009F448C0012F060F9A81582F507184FF98
:1039000003C0913309F4015010160CF047C0093080
:1039100008F008E0EEE2FE2E5B01A01AB108850176
:103920009194819491082F3F320729F4D601FC929B
:10393000F60131966F016217730794F102171307AE
:103940007CF5DB01A21BB30BAA24A394B12CAC0E13
:10395000BD1EAA0DBB1D11968C9121503109D601B7
:10396000119628153905F4F0F60180836D01DBCF3F
:10397000B12CA12CA0CFF701B1937F01A150AACF08
:103980009111B0CFD601942F50E302C05D939150B6
:103990009111FCCFC40ED11C40E0ACCF01E0BACFF6
:1039A00080E3DBCF6217730731F4963388F49533E5
:1039B00011F4552369F0F6018083FD01842F90E214
:1039C000811108C0A40FB11D1C9290E080E002CFCD
:1039D00081E3F1CF91938150F3CF911183CF8ACFBF
:1039E000283008F027E03327DA01990F311D87FDD1
:1039F000916000966105710539F432602E5F3D9348
:103A000030E32A95E1F708959F3F30F08038710543
:103A1000610509F03C5F3C5F3D93913008F08068A0
:103A2000911DDF93CF931F930F93FF92EF92192F66
:103A3000987F9695E92F96959695E90FFF27EA5F6F
:103A4000FE4F99273327EE24FF24A701E7010590B5
:103A50000894079428F4360FE71EF81E491F511DDD
:103A6000660F771F881F991F0694A1F7059007948A
:103A700028F4E70EF81E491F561FC11D770F881F37
:103A8000991F661F0694A1F70590079428F4F80E75
:103A9000491F561FC71FD11D880F991F661F771F0B
:103AA0000694A1F70590079420F4490F561FC71FED
:103AB000D81F990F661F771F881F0694A9F7849156
:103AC0001095177041F0D695C79557954795F7947F
:103AD000E7941A95C1F7ECEAF0E068941590159117
:103AE00035916591959105907FE27395E118F10A02
:103AF000430B560BC90BD009C0F7E10CF11E431F55
:103B0000561FC91FD01D7EF4703311F48A95E6CF7D
:103B1000E894015030F0080F0AF40027021708F467
:103B2000202F2395022F7A3328F079E37D932A956D
:103B3000E9F710C07D932A9589F6069497956795C5
:103B4000379517951794E118F10A430B560BC90BDB
:103B5000D00998F023957E9173957A3308F070E33D
:103B60007C932013B8F77E9170617D9330F083953C
:103B700071E37D9370E32A95E1F71124EF90FF90B4
:103B80000F911F91CF91DF91992787FD909508950F
:103B9000DC01FC01672F71917723E1F7329704C0B4
:103BA0007C916D9370836291AE17BF07C8F308953F
:103BB0000E941A1E08F481E00895E89409C097FB5A
:103BC0003EF490958095709561957F4F8F4F9F4FF4
:103BD0009923A9F0F92F96E9BB279395F695879538
:103BE00077956795B795F111F8CFFAF4BB0F11F4FB
:103BF00060FF1BC06F5F7F4F8F4F9F4F16C08823A2
:103C000011F096E911C0772321F09EE8872F762FD7
:103C100005C0662371F096E8862F70E060E02AF018
:103C20009A95660F771F881FDAF7880F9695879504
:103C300097F90895990F0008550FAA0BE0E8FEEFD9
:103C400016161706E807F907C0F012161306E40760
:103C5000F50798F0621B730B840B950B39F40A2659
:103C600061F0232B242B252B21F408950A2609F437
:103C7000A140A6958FEF811D811D08950E94511EC0
:103C80000C94C21E0E94B41E38F00E94BB1E20F08D
:103C9000952311F00C94AB1E0C94B11E11240C94BE
:103CA000F61E0E94D31E70F3959FC1F3950F50E04E
:103CB000551F629FF001729FBB27F00DB11D639FDE
:103CC000AA27F00DB11DAA1F649F6627B00DA11D84
:103CD000661F829F2227B00DA11D621F739FB00D2A
:103CE000A11D621F839FA00D611D221F749F33279A
:103CF000A00D611D231F849F600D211D822F762F33
:103D00006A2F11249F5750409AF0F1F088234AF00F
:103D1000EE0FFF1FBB1F661F771F881F915050407B
:103D2000A9F79E3F510580F00C94AB1E0C94F61E33
:103D30005F3FE4F3983ED4F3869577956795B79502
:103D4000F795E7959F5FC1F7FE2B880F911D96951C
:103D5000879597F9089597F99F6780E870E060E08C
:103D600008959FEF80EC089500240A941616170614
:103D700018060906089500240A941216130614065C
:103D800005060895092E0394000C11F4882352F0BF
:103D9000BB0F40F4BF2B11F460FF04C06F5F7F4F77
:103DA0008F4F9F4F089557FD9058440F551F59F05E
:103DB0005F3F71F04795880F97FB991F61F09F3F18
:103DC00079F087950895121613061406551FF2CF41
:103DD0004695F1DF08C0161617061806991FF1CF91
:103DE00086957105610508940895E894BB276627B8
:103DF0007727CB0197F908950E943E1FA59F900D4C
:103E0000B49F900DA49F800D911D112408952F92B1
:103E10003F924F925F926F927F928F929F92AF925A
:103E2000BF92CF92DF92EF92FF920F931F93CF93A7
:103E3000DF93CDB7DEB7CA1BDB0B0FB6F894DEBF3E
:103E40000FBECDBF09942A88398848885F846E8464
:103E50007D848C849B84AA84B984C884DF80EE80AE
:103E6000FD800C811B81AA81B981CE0FD11D0FB6B7
:103E7000F894DEBF0FBECDBFED010895A29FB00143
:103E8000B39FC001A39F700D811D1124911DB29F8E
:103E9000700D811D1124911D08955058BB27AA272C
:103EA0000E94651F0C94C21E0E94B41E38F00E942E
:103EB000BB1E20F039F49F3F19F426F40C94B11E78
:103EC0000EF4E095E7FB0C94AB1EE92F0E94D31E85
:103ED00058F3BA17620773078407950720F079F43F
:103EE000A6F50C94F51E0EF4E0950B2EBA2FA02D1E
:103EF0000B01B90190010C01CA01A0011124FF2797
:103F0000591B99F0593F50F4503E68F11A16F04091
:103F1000A22F232F342F4427585FF3CF4695379590
:103F20002795A795F0405395C9F77EF41F16BA0B55
:103F3000620B730B840BBAF09150A1F0FF0FBB1F03
:103F4000661F771F881FC2F70EC0BA0F621F731F4C
:103F5000841F48F4879577956795B795F7959E3FA9
:103F600008F0B0CF9395880F08F09927EE0F97953A
:103F7000879508950E94CE1F0C94C21E0E94BB1EFE
:103F800058F00E94B41E40F029F45F3F29F00C94D1
:103F9000AB1E51110C94F61E0C94B11E0E94D31E40
:103FA00068F39923B1F3552391F3951B550BBB2768
:103FB000AA2762177307840738F09F5F5F4F220FAD
:103FC000331F441FAA1FA9F335D00E2E3AF0E0E8A4
:103FD00032D091505040E695001CCAF72BD0FE2FEE
:103FE00029D0660F771F881FBB1F26173707480782
:103FF000AB07B0E809F0BB0B802DBF01FF2793583A
:104000005F4F3AF09E3F510578F00C94AB1E0C9434
:10401000F61E5F3FE4F3983ED4F386957795679557
:10402000B795F7959F5FC9F7880F911D969587956E
:1040300097F90895E1E0660F771F881FBB1F62178D
:1040400073078407BA0720F0621B730B840BBA0B4B
:10405000EE1F88F7E09508950E9433206894B1110F
:104060000C94F61E08950E94DB1E88F09F5798F06E
:10407000B92F9927B751B0F0E1F0660F771F881F6D
:10408000991F1AF0BA95C9F714C0B13091F00E9487
:10409000F51EB1E008950C94F51E672F782F882740
:1040A000B85F39F0B93FCCF3869577956795B395AE
:1040B000D9F73EF490958095709561957F4F8F4F1D
:1040C0009F4F08950E941A1E08F48FEF08950E94D2
:1040D0001A1E880B990B0895A1E21A2EAA1BBB1B6E
:1040E000FD010DC0AA1FBB1FEE1FFF1FA217B307C4
:1040F000E407F50720F0A21BB30BE40BF50B661FDA
:10410000771F881F991F1A9469F76095709580959D
:1041100090959B01AC01BD01CF010895EE0FFF1FEB
:104120000590F491E02D09940F931F93CF93DF93A3
:104130008230910510F482E090E0E091F903F09173
:10414000FA0330E020E0B0E0A0E0309799F42115C8
:10415000310509F44AC0281B390B24303105D8F544
:104160008A819B816115710589F1FB0193838283AB
:10417000FE0111C040815181028113814817590706
:10418000E0F04817590799F4109761F012960C93D4
:10419000129713961C933296CF01DF91CF911F9106
:1041A0000F9108950093F9031093FA03F4CF2115AA
:1041B000310551F04217530738F0A901DB019A018C
:1041C000BD01DF01F801C1CFEF01F9CF9093FA03F0
:1041D0008093F903CDCFFE01E20FF31F81939193FA
:1041E0002250310939832883D7CF2091F7033091AA
:1041F000F803232B41F420910E0130910F013093ED
:10420000F8032093F70320910C0130910D01211543
:10421000310541F42DB73EB7409110015091110185
:10422000241B350BE091F703F091F803E217F30735
:10423000A0F42E1B3F0B2817390778F0AC014E5F16
:104240005F4F2417350748F04E0F5F1F5093F80358
:104250004093F703819391939FCFF0E0E0E09CCFF0
:10426000CF93DF930097E9F0FC013297138212821B
:10427000A091F903B091FA03ED0130E020E010972E
:10428000A1F420813181820F931F2091F703309197
:10429000F8032817390709F061C0F093F803E09399
:1042A000F703DF91CF910895EA01CE17DF07E8F514
:1042B0004A815B819E0141155105B1F7E901FB83FC
:1042C000EA8349915991C40FD51FEC17FD0761F49A
:1042D000808191810296840F951FE90199838883DB
:1042E000828193819B838A83F0E0E0E012968D9136
:1042F0009C9113970097B9F52D913C911197CD01A1
:104300000296820F931F2091F7033091F80328172C
:10431000390739F6309751F51092FA031092F903E4
:10432000B093F803A093F703BCCFD383C28340813B
:104330005181840F951FC817D90761F44E5F5F4FF5
:1043400088819981480F591F518340838A819B81BD
:10435000938382832115310509F0B0CFF093FA03DE
:10436000E093F9039ECFFD01DC01C0CF13821282DE
:10437000D7CFB0E0A0E0EFEBF1E20C94091F8C0185
:10438000009751F4CB010E9494208C01C801CDB755
:10439000DEB7E0E10C94251FFC01E60FF71F9C013E
:1043A00022503109E217F30708F49DC0D901CD91DD
:1043B000DC911197C617D70798F0C530D10530F3B7
:1043C000CE0104978617970708F3C61BD70B2297D1
:1043D000C193D1936D937C93CF010E943021D6CFAE
:1043E0005B01AC1ABD0A4C018C0E9D1EA091F90315
:1043F000B091FA03512C412CF12CE12C109731F59E
:104400008091F7039091F8038815990509F05CC035
:104410004616570608F058C080910C0190910D0186
:10442000009741F48DB79EB7409110015091110152
:10443000841B950BE817F90708F055C0F093F803B3
:10444000E093F703F90171836083A0CF8D919C9174
:10445000119712966C90129713967C901397A8154B
:10446000B90559F56C0142E0C40ED11CCA14DB0435
:1044700020F1AC014A195B09DA011296159780F018
:104480006282738251834083D9016D937C93E114DE
:10449000F10471F0D7011396FC93EE93129776CF47
:1044A00022968C0F9D1FF90191838083F301EFCF3A
:1044B000F093FA03E093F90369CF4816590608F41C
:1044C0002C017D01D3019ACFCB010E9494207C0165
:1044D000009749F0AE01B8010E947B22C8010E94FA
:1044E0003021870153CF10E000E050CF81E090E011
:1044F000F8940C949422FB01DC0102C001900D920F
:1045000041505040D8F70895FB01DC018D91019096
:1045100080190110D9F3990B0895FB01DC0101907A
:0C4520000D920020E1F70895F894FFCF01
:10452C00FFFFFFFF00E10000000000000000FB03A4
:10453C0080005858585858585831303000000000F6
:10454C00290AF107B20A0306FB091909A908450D46
:10455C00240BE6084B0A3C08AE0A040600C1808115
:10456C0000000000000000D9017205FA01EF0140C3
:10457C0002FE011C0200000000E9034A0377033528
:10458C0004A80386039A0300000000100A4A03B231
:10459C000AB10AEA0E00000000A40E0D0A00440045
:1045AC00FE006E616E00696E66006F766600726565
:1045BC00616400485454502F312E31203230302059
:1045CC004F4B00436F6E74656E742D547970653A61
:1045DC0020746578742F68746D6C00436F6E6E6513
:1045EC006374696F6E3A20636C6F7365003C214491
:1045FC004F43545950452048544D4C3E003C687430
:10460C006D6C3E3C626F64793E00736574706F69CB
:10461C006E742C20696E7075742C206572726F72BA
:10462C002C206F75747075742C20472C2074617558
:10463C00492C2074617544203C6272202F3E002C62
:10464C0020003C2F626F64793E3C2F68746D6C3E89
:10465C00007772697465004368616E6765207468E1
:10466C006520736574706F696E74004368616E6762
:10467C006520746865206761696E004368616E67C8
:10468C00652074686520696E74656772616C00439F
:10469C0068616E676520746865206469666665721A
:0846AC00656E7469616C000089
:00000001FF
