:100000000C9451010C9479010C9479010C947901B0
:100010000C9479010C9479010C9479010C94790178
:100020000C9479010C9479010C94140D0C94830DAB
:100030000C9479010C9479010C9479010C94790158
:100040000C9479010C9479010C9479010C94790148
:100050000C9479010C9479010C9479010C940D1095
:100060000C9479010C94DB0F0C94B50F0C9479016E
:100070000C9479010C9479010C9479010C94790118
:100080000C9479010C9479010C9479010C94790108
:100090000C9479010C9479010C9479010C947901F8
:1000A0000C9479010C9479010C94790100407A1038
:1000B000F35A00A0724E18090010A5D4E80000E819
:1000C0007648170000E40B54020000CA9A3B000077
:1000D00000E1F505000080969800000040420F0006
:1000E0000000A08601000000102700000000E803C7
:1000F000000000006400000000000A000000000092
:100100000100000000002C76D888DC674F0823DF50
:10011000C1DFAE59E1B1B796E5E3E453C63AE65123
:10012000997696E8E6C28426EB898C9B62ED407C4A
:100130006FFCEFBC9C9F40F2BAA56FA5F490055AE6
:100140002AF75C936B6CF9676DC11BFCE0E40D470B
:10015000FEF520E6B500D0ED902E0300943577052E
:100160000080841E080000204E0A000000C80C33E6
:100170003333330F986E12831141EF8D2114893B75
:10018000E65516CFFEE6DB18D1844B381BF77C1DF5
:10019000901DA4BBE424203284725E228100C9F148
:1001A00024ECA1E53D27302E302E302E30003132A8
:1001B000372E302E302E310072756E2D62726964CA
:1001C00067650A000A000A000000000025002800F8
:1001D0002B002E00310000000000240027002A0020
:1001E0002D0030000404040404030405020202028A
:1001F00004030202020206060606060604040202C0
:100200000204040408020110408040102040804095
:10021000800802040180402010020110801020405C
:100220004020070605040100080A0B0C0D09080B05
:1002300000020202000009040000010202000005A1
:1002400024001001052401010104240206052406EE
:1002500000010705810310004009040100020A00A3
:10026000000007050202400000070583024000006D
:100270000403090412010002EF02014041234180FE
:1002800000010102030141726475696E6F204C4CDC
:10029000430041726475696E6F2059756E00571086
:1002A000851611241FBECFEFDAE0DEBFCDBF23E0FD
:1002B000ACECB1E001C01D92AD35B207E1F711E041
:1002C000A0E0B1E0EAE8F9E302C005900D92AC3C91
:1002D000B107D9F711E0C0E5D1E004C02197FE01D4
:1002E0000E94B21ACF34D107C9F70E94F5100C94BE
:1002F000B81C0C940000FC018091EA01882311F1E4
:100300003FB7F89482E08093E9002091F200822FB9
:1003100090E01816190614F481E090E0882339F073
:10032000289844E64093E9014091F100408322235C
:1003300039F02091F200211103C02BE62093E80050
:100340003FBF08958FEF9FEF08952FB7F89483E094
:100350008093E9009091E800892F807295FF04C096
:100360009091F20080E4891B2FBF08958091E101F4
:1003700081110DC082E08093DD0184E08093DE0175
:100380001092E0011092DF0181E08093E1018DED98
:1003900091E00895CF93DF931F92CDB7DEB76983C5
:1003A000DC01ED91FC910280F381E02D41E050E011
:1003B000BE016F5F7F4F09950F90DF91CF91089538
:1003C00083E08093E9008091F200882319F08AE3AA
:1003D0008093E80008950E94A50190E00895CF93CE
:1003E000DF931F92CDB7DEB7FC018485958597FD1D
:1003F00008C02FEF3FEF358724870F90DF91CF9113
:100400000895CE0101960E947B01019719F489811C
:1004100090E0F3CF8FEF9FEFF0CF0F931F93CF9329
:10042000DF931F92CDB7DEB78C01FC0184859585E3
:1004300097FF0BC0CE0101960E947B01019771F4DA
:10044000898190E0F80195878487F80184859585F6
:100450000F90DF91CF911F910F9108958FEF9FEF34
:10046000F1CFFC018485958597FD0BC09FB7F8946B
:1004700082E08093E9008091F2009FBF90E00196B6
:1004800008959FB7F89482E08093E9008091F2008C
:100490009FBF90E008954091D7015091D8012091DD
:1004A000D5013091D60142175307B4F49091E8007A
:1004B0009570E1F39091E80092FD19C08093F100EE
:1004C0008091D7019091D80101968F739927892B3C
:1004D00019F48EEF8093E8008091D7019091D801B4
:1004E00001969093D8018093D70181E0089580E030
:1004F0000895EF92FF920F931F93CF93DF93F82EFF
:10050000192FE62E042F81E0860F880F0E944B02E0
:1005100083E00E944B02CF2DD12FEC0EFD2EF11C5B
:10052000CE15DF05B9F007FF13C0FE0184910E94CC
:100530004B02182F80E00E944B02812321968111EB
:10054000EFCFDF91CF911F910F91FF90EF90089522
:100550008881EDCF81E0F5CFDF92EF92FF920F938C
:100560001F93CF93DF93D82E8A01EB017B01E40E1A
:10057000F51ECE15DF0559F0D7FE12C0FE0184919D
:100580000E944B0221968111F4CF0FEF1FEFC8019B
:10059000DF91CF911F910F91FF90EF90DF90089521
:1005A0008881EECF0F931F93CF93DF931F92CDB728
:1005B000DEB782E0898342E450E06EE272E080E8D8
:1005C0000E94AC020E94B601DC0112960D911C91B2
:1005D0000115110589F0D801ED91FC910280F3819C
:1005E000E02DBE016F5F7F4FC801099597FD04C0E4
:1005F000F80100851185ECCF89810F90DF91CF91B3
:100600001F910F910895615030F02091F100FC018D
:1006100020830196F8CF289884E68093E901089515
:100620000895CF93DF93EC012FB7F8948091D10117
:100630009091D201A091D301B091D4012FBF8887AE
:100640009987AA87BB87E881F9810284F385E02D29
:10065000CE01099597FF1EC02FB7F8948091D10164
:100660009091D201A091D301B091D4012FBF4885C0
:1006700059856A857B85841B950BA60BB70B4C812E
:100680005D816E817F8184179507A607B707D8F231
:100690008FEF9FEFDF91CF910895EF92FF920F932D
:1006A0001F93CF93DF938C017B01D0E0C0E0F70173
:1006B000EC0FFD1F6491662361F0D801ED91FC9170
:1006C0000190F081E02DC8010995892B11F0219648
:1006D000EECFCE01DF91CF911F910F91FF90EF9060
:1006E0000895AF92BF92CF92DF92EF92FF920F9355
:1006F0001F93CF93DF936C017B018B01040F151FB8
:10070000EB015E01AE18BF08C017D10759F069911F
:10071000D601ED91FC910190F081E02DC601099583
:10072000892B79F7C501DF91CF911F910F91FF9030
:10073000EF90DF90CF90BF90AF900895FC01538D64
:10074000448D252F30E0842F90E0821B930B5417AB
:1007500010F0CF96089501970895FC01918D828D38
:10076000981761F0A28DAE0FBF2FB11D5D968C91D1
:10077000928D9F5F9F73928F90E008958FEF9FEF10
:100780000895FC01918D828D981731F0828DE80FCC
:10079000F11D858D90E008958FEF9FEF0895FC0186
:1007A000918D228D892F90E0805C9F4F821B910953
:1007B0008F739927089587E492E00E94CF0321E088
:1007C000892B09F420E0822F089580E090E0892BA6
:1007D00029F00E94DB0381110C9400000895FC01B4
:1007E000A48DA80FB92FB11DA35ABF4F2C91848D92
:1007F00090E001968F739927848FA689B7892C93EF
:10080000A089B1898C9182748C93938D848D981377
:1008100006C00288F389E02D80818F7D8083089552
:10082000EF92FF920F931F93CF93DF93EC0181E040
:10083000888F9B8D8C8D981319C0E889F9898081E8
:1008400085FF14C09FB7F894EE89FF896083E8891B
:10085000F9898081827480839FBF81E090E0DF917D
:10086000CF911F910F91FF90EF900895F62E0B8D71
:1008700010E00F5F1F4F0F731127E02E8C8D8E112C
:100880000CC00FB607FCFACFE889F989808185FF93
:10089000F5CFCE010E94EF03F1CFEB8DEC0FFD2FD2
:1008A000F11DE35AFF4FF0829FB7F8940B8FEA894E
:1008B000FB8980818062CFCFCF93DF93EC01888D5D
:1008C0008823B9F0AA89BB89E889F9898C9185FDCB
:1008D00003C0808186FD0DC00FB607FCF7CF8C9159
:1008E00085FFF2CF808185FFEDCFCE010E94EF031F
:1008F000E9CFDF91CF9108953FB7F8948091CD0172
:100900009091CE01A091CF01B091D00126B5A89BC6
:1009100005C02F3F19F00196A11DB11D3FBFBA2F91
:10092000A92F982F8827BC01CD01620F711D811D51
:10093000911D42E0660F771F881F991F4A95D1F7D6
:1009400008958F929F92AF92BF92CF92DF92EF92D3
:10095000FF924B015C010E947C046B017C010E94B0
:100960007C046C197D098E099F09683E73408105DE
:100970009105A8F321E0821A9108A108B10888EE38
:10098000C80E83E0D81EE11CF11C81149104A1045F
:10099000B10429F7FF90EF90DF90CF90BF90AF9018
:1009A0009F908F9008958F929F92AF92BF92CF9217
:1009B000DF92EF92FF920F931F93CF93DF936C011F
:1009C0007B018A0180910B01882309F45CC080912E
:1009D000EA01882309F457C08091DC0180FF05C03B
:1009E0008091E00082608093E000E801B12C8AEF02
:1009F000A82E93E0892E2AE3922E209711F4BB2093
:100A0000D9F10E94A50181110AC0AA94AA20D9F1A6
:100A100061E070E080E090E00E94A104EECF8C17CE
:100A20001D0611F00CF08C2F9FB7F8948092E9000E
:100A30002091E80025FD02C09FBFDFCF282F30E0C6
:100A4000C21BD30BF701815020F041914093F1007C
:100A5000FACFE20EF31EBB2021F09092E800B12CF9
:100A6000EBCF8091E80085FDE7CF9092E800BB24B2
:100A7000B394209709F3F3CF5D9884E68093DB016C
:100A8000101611063CF081E090E0F601938382831A
:100A900010E000E0C801DF91CF911F910F91FF900E
:100AA000EF90DF90CF90BF90AF909F908F90089580
:100AB0000895FB012785FC012787FB012685FC01A2
:100AC00026870895CF93DF93EC018D819E81DC0111
:100AD000ED91FC910084F185E02D09951816190619
:100AE00054F48D819E81DC01ED91FC910284F385AB
:100AF000E02D0995EACFDF91CF9108958F929F92D3
:100B0000AF92BF92CF92DF92EF92FF92CF93DF939B
:100B1000EC018FB7F8948090D1019090D201A09011
:100B2000D301B090D4018FBF6B01F12CE12C8D81EA
:100B30009E81DC01ED91FC910284F385E02D099505
:100B400097FF16C02FB7F8948091D1019091D201F0
:100B5000A091D301B091D4012FBF88199909AA0996
:100B6000BB098C159D05AE05BF0508F38FEF9FEF00
:100B7000DF91CF91FF90EF90DF90CF90BF90AF903B
:100B80009F908F900895FC01238134812627022EA7
:100B90002295207F2025032E322F22952F700226AA
:100BA000269532272327220F220F220F2025348358
:100BB000238308952F923F924F925F926F927F927C
:100BC0008F929F92AF92BF92CF92DF92EF92FF925D
:100BD0000F931F93CF93DF93CDB7DEB72A970FB64E
:100BE000F894DEBF0FBECDBF9A8789875B012901CC
:100BF00037011A01200E311E3A82198288248A9404
:100C0000982C9A01260F371F3E832D83C801840D2F
:100C1000951D98878F83A985BA8518968C91B9817F
:100C2000B81708F040C1E985FA85948283828581EE
:100C30009681DC01ED91FC910190F081E02D6FEF48
:100C400009956FEF89859A850E94C305E985FA8524
:100C500085819681DC01ED91FC910190F081E02D80
:100C6000A985BA856C910995E985FA856081CF01DE
:100C70000E94C305A985BA8515968D919C91DC01CA
:100C8000ED91FC910190F081E02D6A8109956A81D6
:100C900089859A850E94C305E985FA8585819681B3
:100CA000DC01ED91FC910190F081E02D622D099520
:100CB000622D89859A850E94C3058501E985FA859B
:100CC00085819681DC01ED91FC910190F081E02D10
:100CD0002D813E8120173107E1F48201E985FA85F3
:100CE00085819681DC01ED91FC910190F081E02DF0
:100CF0002F81388520173107C1F0D8016D918D0102
:100D00000995F8013197608189859A850E94C3050C
:100D1000E5CFD8016D918D010995F801319760817A
:100D200089859A850E94C305C9CFA985BA8514967D
:100D30006C910995E985FA8585819681DC01ED91B3
:100D4000FC910190F081E02DA985BA8513966C91F4
:100D5000099568EC70E089859A850E947E058F3F31
:100D6000910509F092C0E985FA85948283826FEF3C
:100D7000CF010E94C30565E070E089859A850E94D5
:100D80007E05A985BA856C916817190609F07DC0A2
:100D9000CD010E94C3056AE070E089859A850E94B2
:100DA0007E057C0197FD71C0682F89859A850E9418
:100DB000C3056AE070E089859A850E947E058C01F2
:100DC00097FD63C0682F89859A850E94C305EC82D0
:100DD0001B82EB81FC810E0F1F1FF12CE12C65E0C3
:100DE00070E089859A850E151F05A1F0EC14FD04AD
:100DF00089F00E947E0597FD09C0F301EE0DFF1DED
:100E00008083682F89859A850E94C305FFEFEF1ABA
:100E1000FF0AE5CF0E947E057C0197FD36C065E0A4
:100E200070E089859A850E947E0597FD2EC0FE2C74
:100E3000EE248E0D9F1DA985BA8513962D913C91A8
:100E400014978217930709F58C918F5F8C93C801D3
:100E5000C016D10608F4C6012A960FB6F894DEBF74
:100E60000FBECDBFDF91CF911F910F91FF90EF90FB
:100E7000DF90CF90BF90AF909F908F907F906F90BA
:100E80005F904F903F902F900895B981BF5FB983D5
:100E900064E670E080E090E00E94A10489859A8574
:100EA0000E946205B8CE8FEF9FEFD6CFAF92BF9270
:100EB000CF92DF92EF92FF920F931F93CF93DF9326
:100EC00000D0CDB7DEB7FC019B015A01878588238E
:100ED00001F18CE6898386858A83D12CC12CF12C83
:100EE000E12C8A0142E050E0BE016F5F7F4F8485B4
:100EF00095850E94DA05C5010F900F90DF91CF9183
:100F00001F910F91FF90EF90DF90CF90BF90AF9027
:100F10000895B12CA12CEFCFCF92DF92EF92FF92E8
:100F20000F931F936801790110E000E030E020E0AA
:100F30000E94DA051F910F91FF90EF90DF90CF9004
:100F400008950F931F93CF93DF9300D01F92CDB7D7
:100F5000DEB782E7898380910D038A8301E010E088
:100F60009E012D5F3F4F42E050E0BE016F5F7F4F1B
:100F700080910B0390910C030E948C0781E09B8170
:100F8000913009F080E00F900F900F90DF91CF919A
:100F90001F910F910895EF92FF920F931F93CF939C
:100FA000DF9300D01F92CDB7DEB7FC01228921115B
:100FB00018C07C01138A8FE4898380E48B83868543
:100FC0008A839F012C5E3F4F00E410E043E050E035
:100FD000BE016F5F7F4F848595850E948C07F70166
:100FE000828B0F900F900F90DF91CF911F910F91F7
:100FF000FF90EF900895CF93DF93EC010E94CB0711
:101000008A8990E0DF91CF910895CF93DF93EC012F
:101010000E94CB078A89882341F08B89C80FD11D94
:101020008C8990E0DF91CF9108958FEF9FEFFACFF9
:10103000CF93DF93EC010E94CB078A89882369F064
:1010400081508A8B8B8991E0980F9B8BC80FD11DA3
:101050008C8990E0DF91CF9108958FEF9FEFFACFC9
:10106000EF92FF920F931F93CF93DF9300D01F92C5
:10107000CDB7DEB7DC011F962C911F97222301F11B
:101080007C01ED91FC910084F185E02D0995892B7F
:1010900011F58CE48983F70186858A8301E010E0ED
:1010A0009E012D5F3F4F42E050E0BE016F5F7F4FDA
:1010B000848595850E948C0781E09B81913009F0A1
:1010C00080E00F900F900F90DF91CF911F910F91C3
:1010D000FF90EF90089581E0F4CFEF92FF920F938D
:1010E0001F93CF93DF9300D01F92CDB7DEB7FC01E3
:1010F0002089211118C07C01118A8BE4898380E446
:101100008B8386858A839F012E5E3F4F00E410E02B
:1011100043E050E0BE016F5F7F4F848595850E945C
:101120008C07F701808B0F900F900F90DF91CF917C
:101130001F910F91FF90EF900895CF93DF93EC01F3
:101140000E946D088889882341F08989C80FD11DC4
:101150008A8990E0DF91CF9108958FEF9FEFFACFCA
:10116000CF92DF92EF92FF920F931F93CF93DF9373
:10117000EC016A017B0110E000E08889811106C062
:10118000CE010E946D088889882399F0E98981E061
:101190008E0F898B0F5F1F4FEC0FFD2FF11D828982
:1011A000F70181937F0188898150888B0C151D057B
:1011B00020F3C801DF91CF911F910F91FF90EF9025
:1011C000DF90CF900895CF93DF93EC010E946D08DC
:1011D0008889882369F08150888B898991E0980FEC
:1011E000998BC80FD11D8A8990E0DF91CF91089526
:1011F0008FEF9FEFFACFCF93DF93EC010E946D0842
:10120000888990E0DF91CF9108950F931F9310E0AC
:1012100000E030E020E00E948C071F910F910895BC
:10122000CF93DF9300D0CDB7DEB780911003882332
:1012300081F087E7898380910D038A8342E050E043
:10124000BE016F5F7F4F80910B0390910C030E9452
:101250000509109210030F900F90DF91CF91089520
:10126000CF93DF9300D01F92CDB7DEB729E4298357
:10127000FC0126852A836B8343E050E0BE016F5F4B
:101280007F4F848595850E94050981E090E00F904D
:101290000F900F90DF91CF910895CF93DF9300D0FF
:1012A000CDB7DEB722E629836A8342E050E0BE0173
:1012B0006F5F7F4FFC01848195810E94050981E069
:1012C00090E00F900F90DF91CF910895CF93DF932F
:1012D00000D01F92CDB7DEB7FC01278590E080E0FB
:1012E000222381F08CE6898386858A836B8343E0A1
:1012F00050E0BE016F5F7F4F848595850E94050990
:1013000081E090E00F900F900F90DF91CF910895C2
:101310000F931F93CF93DF9300D0CDB7DEB78C012F
:10132000FC018785882369F08AE6898386858A831C
:1013300042E050E0BE016F5F7F4F848595850E943B
:101340000509F8011786108A118A0F900F90DF9116
:10135000CF911F910F910895FC018785089590E02A
:1013600080E008958F929F92AF92BF92EF92FF928A
:101370000F931F93CF93DF93CDB7DEB7A1970FB62F
:10138000F894DEBF0FBECDBF7C01FA01CB0119A2DC
:10139000223008F42AE08E010F5D1F4F822E912C1F
:1013A000B12CA12CBF01A50194010E94901AF90152
:1013B000CA016A3074F5605DD8016E938D01232BEC
:1013C000242B252B79F790E080E0109789F0FD0120
:1013D00001900020E9F73197AF014A1B5B0BD70161
:1013E000ED91FC910280F381E02DB801C7010995D0
:1013F000A1960FB6F894DEBF0FBECDBFDF91CF919F
:101400001F910F91FF90EF90BF90AF909F908F90A2
:101410000895695CD1CF8F929F92AF92BF92CF9285
:10142000DF92EF92FF920F931F93CF93DF937C0194
:10143000EB016C0182E0C80ED11C4701E5E08E0E85
:10144000911C10E000E0F60141916F0150E070E066
:1014500060E02AE0CE010E94B2095C01E881F981D6
:101460000190F081E02D6EE2CE0109958A0D9B1D61
:10147000080F191FC814D90431F7F701458150E04E
:1014800070E060E02AE0CE010E94B209800F911F57
:10149000DF91CF911F910F91FF90EF90DF90CF9050
:1014A000BF90AF909F908F900895AF92BF92CF92D0
:1014B000DF92EF92FF920F931F93CF93DF9300D0B1
:1014C00000D000D01F92CDB7DEB75C019B0183E452
:1014D00089835A834B83FB0101900020E9F7319700
:1014E0008F01061B170BCC24C394D12CCE0106967A
:1014F0007C0143E050E0BE016F5F7F4FD5011C9639
:101500008D919C910E94DA05892BB9F18E81F501AC
:10151000868793E69C838D8301E010E09E01295F1E
:101520003F4F42E050E0BE016C5F7F4FD5011C96FB
:101530008D919C910E948C078F81882339F061E006
:1015400070E080E090E00E94A104E6CF81E0F50128
:1015500087870190F081E02D0688F789E02DC5018D
:10156000099581111DC0D501ED91FC910488F58983
:10157000E02DC5010995F501168690E080E02796DB
:101580000FB6F894DEBF0FBECDBFDF91CF911F9194
:101590000F91FF90EF90DF90CF90BF90AF900895A4
:1015A00081E090E0ECCFCF93DF93EC0188819981CB
:1015B000009711F00E94541B198218821D821C8210
:1015C0001B821A82DF91CF910895FC018081918165
:1015D000009711F00C94541B08950E949A1C0F93CD
:1015E0001F93CF93DF93EC0188819981009759F085
:1015F0002A813B812617370730F081E0DF91CF91B8
:101600001F910F9108958B016F5F7F4F0E94DD1B2B
:10161000009759F0998388831B830A832C813D812D
:10162000232B59F7FC011082E8CF80E0E7CFEF923F
:10163000FF920F931F93CF93DF936115710541F4D0
:1016400080E0DF91CF911F910F91FF90EF9008956F
:1016500041155105B1F07B01EC010C811D81040F96
:10166000151FB8010E94EF0A882351F328813981A0
:101670008C819D81B701820F931F0E94B11C1D8335
:101680000C8381E0DECFFB0101900020E9F7319768
:10169000AF01461B570B0C94170BEF92FF920F9361
:1016A0001F93CF93DF9300D000D0CDB7DEB77C017E
:1016B000862F4AE08E010F5F1F4FB80190E00E9415
:1016C000DD16F80101900020E9F73197AF01401BCA
:1016D000510BB801C7010E94170B0F900F900F908C
:1016E0000F90DF91CF911F910F91FF90EF90089590
:1016F000CF93DF9300D0CDB7DEB769831A8241E084
:1017000050E0BE016F5F7F4F0E94170B0F900F904C
:10171000DF91CF910895EF92FF920F931F93CF9394
:10172000DF93EC017B018A01BA010E94EF0A81116B
:101730000BC0CE010E94D30ACE01DF91CF911F9141
:101740000F91FF90EF9008951D830C83B70188815E
:1017500099810E94B11CF0CFFC011182108213828A
:10176000128215821482FB0101900020E9F7319763
:10177000AF01461B570B0C948B0BEF92FF920F930C
:101780001F93CF93DF9300D000D000D01F92CDB72E
:10179000DEB77C018B0169E971E0CE0101960E9400
:1017A000AC0BE114F10429F0B701CE0101960E94BF
:1017B000430B6BE971E0CE0101960E94430B0115CA
:1017C000110529F0B801CE0101960E94430B4D810D
:1017D0005E8169817A8101E010E09E01295F3F4FBF
:1017E00084EF92E00E948C07CE0101960E94E50AE8
:1017F00027960FB6F894DEBF0FBECDBFDF91CF9115
:101800001F910F91FF90EF900895EF92FF920F9329
:101810001F93CF93DF93EC017B01042F63EA71E008
:101820000E94AC0BC7010E941103002E000C110B8B
:1018300097FD0BC00817190741F0682FCE010E94D1
:10184000780BC7010E941103F3CFCE01DF91CF9136
:101850001F910F91FF90EF900895CF92DF92EF923A
:10186000FF920F931F93CF93DF9300D000D000D04F
:10187000CDB7DEB77C018B016A0163EA71E0CE016E
:1018800001960E94AC0B62E170E0CE0101960E94CD
:10189000EF0AD80112966C91CE0101960E944D0B71
:1018A0006EE2CE0101960E94780BF8016381CE01B1
:1018B00001960E944D0B6EE2CE0101960E94780BBC
:1018C000D80114966C91CE0101960E944D0B6EE2E8
:1018D000CE0101960E94780BF8016581CE01019638
:1018E0000E944D0B69817A81D701ED91FC910088AE
:1018F000F189E02DA601C70109958C01CE01019661
:101900000E94E50AC80126960FB6F894DEBF0FBE06
:10191000CDBFDF91CF911F910F91FF90EF90DF909E
:10192000CF900895AF92BF92CF92DF92EF92FF9245
:101930000F931F93CF93DF93CDB7DEB72A970FB6E0
:10194000F894DEBF0FBECDBF5C018EE48F83F5013E
:1019500086819781988789871A8219821C821B82C7
:101960001E821D8269E070E0CE0101960E94EF0A9E
:10197000811144C0CE0101960E94D30AF5018185F0
:1019800081110CC067E070E0CE0101960E94EF0A61
:1019900081113FC0CE0101960E94D30A0D811E81A4
:1019A00029813A81CC24C394D12CCE010A967C01A2
:1019B00043E050E0BE01695F7F4FF501848195816E
:1019C0000E94DA0581E09A85913009F080E0F50106
:1019D0008087CE0101960E94E50A2A960FB6F894F8
:1019E000DEBF0FBECDBFDF91CF911F910F91FF9052
:1019F000EF90DF90CF90BF90AF90089589E090E096
:101A00009E838D836EEA71E089819A810E94D61649
:101A1000B5CF87E090E09E838D8366EA71E089818F
:101A20009A810E94D616BACF1F920F920FB60F92CC
:101A300011248F939F938091E1009091E100937F17
:101A40009093E10083FF0FC01092E90091E0909322
:101A5000EB001092EC0092E39093ED001092EA01FB
:101A600098E09093F00082FF22C093E09093E90009
:101A70009091F200992319F09AE39093E8009091E5
:101A8000DB01992341F09091DB0191509093DB01B0
:101A9000911101C05D9A9091E901992341F09091D3
:101AA000E90191509093E901911101C0289A84FFB6
:101AB00018C08091E2008E7E81608093E200809168
:101AC000E1008F7E8093E1008091DC018E7E806159
:101AD0008093DC019F918F910F900FBE0F901F900C
:101AE000189580FFF7CF8091E2008E7E8061809311
:101AF000E2008091E1008E7E8093E1008091DC0124
:101B00008E7E8160E5CF1F920F920FB60F92112447
:101B1000CF92DF92EF92FF920F931F932F933F93F9
:101B20004F935F936F937F938F939F93AF93BF93E5
:101B3000EF93FF93CF93DF93CDB7DEB76C97DEBF04
:101B4000CDBF1092E9008091E80083FF25C068E0D6
:101B5000CE0145960E94030382EF8093E8008D89B1
:101B600087FF39C09091E80090FFFCCF982F9076C6
:101B700009F034C19E894F89588D2F89F88C9111B5
:101B800031C0803861F58091DA018093F1001092C4
:101B9000F1008EEF8093E8006C960FB6F894DEBFEC
:101BA0000FBECDBFDF91CF91FF91EF91BF91AF916C
:101BB0009F918F917F916F915F914F913F912F9165
:101BC0001F910F91FF90EF90DF90CF900F900FBE7D
:101BD0000F901F9018959EEF9093E800C7CF10923A
:101BE000F100D5CF913059F48111D3CF4130510557
:101BF00081F68091DA018D7F8093DA01CACF93302C
:101C000049F48111C6CF4130510519F68091DA01AE
:101C10008260F2CF953041F48091E80080FFFCCFE4
:101C200020682093E300B5CF963009F0A9C00B8D52
:101C30001C8D22E01092E9001092D8011092D70179
:101C4000F2122EC01092D6011092D5010E94D2023B
:101C50001F8299E09983FA8291E09E8390EA9887A7
:101C60009AEF99872091D7013091D801275F3F4F94
:101C70003C832B838D831092E9001092D80110923F
:101C8000D7011093D6010093D50149E050E0BE0181
:101C90006F5F7F4F80E00E94AC020E94D20279CF3A
:101CA0001093D6010093D5010E94B601DC01129673
:101CB0000D911C910115110509F451C1D801ED9147
:101CC000FC910480F581E02DBE016B5E7F4FC80161
:101CD0000995009709F03EC1F80100851185EACF0A
:101CE000F3E0FF120EC08F89882309F440C08230D0
:101CF00061F440E86BE082E992E00E947902811190
:101D000048CF81E28093EB0047CF813029F440E84F
:101D10006BE086E892E0F1CF833099F70E94B6013C
:101D2000DC011296ED90FC908E010F5F1F4F680151
:101D3000E114F10479F0D701ED91FC910680F7816F
:101D4000E02DB801C7010995080F111DF701E084C6
:101D5000F184EECFD8011C92F60101900020E9F742
:101D60003197BF016C197D0940E0C601C6CF60E71D
:101D700072E0FB01449150E080E80E94AC0209CF80
:101D8000973009F4BECF983021F481E08093F100C0
:101D900000CF993009F0FDCE837009F0B2CFE9E4AD
:101DA000F1E081E031E096E32191222371F080930C
:101DB000E9003093EB00DF0111972C912093EC00A8
:101DC0009093ED008F5F873079F78EE78093EA007C
:101DD0001092EA008F898093EA01DBCE8B8D9C8D77
:101DE0001092E9001092D8011092D7019093D60179
:101DF0008093D501898D811192C08E899D89913AF8
:101E000049F4813209F07DCF47E050E064E071E0B1
:101E100080E0B3CF913209F074CF833269F48F89B7
:101E2000988DB0E0A0E08093000190930101A09311
:101E30000201B0930301ADCE803269F48091E800D5
:101E400082FFFCCF67E084E091E00E9403038BEF08
:101E50008093E8009ECE823209F09BCE8F898093DA
:101E60000B01EEEFFFE7859194918B3F9C4D51F173
:101E7000E0E0F8E08091040190910501A091060155
:101E8000B0910701803B9440A105B105F1F4809128
:101E90000B0180FD1AC0EE3F8AE0F80789F587E75D
:101EA00097E791838083809160008093D90188E1D6
:101EB0009BE00FB6F894A895809360000FBE9093B6
:101EC000600067CEEEEFFAE0D5CF80819181873751
:101ED000974709F05ECEA895809160008861809355
:101EE00060008091D90180936000EE3F2AE0F20704
:101EF00089F08091FE0A9091FF0A9183808349CEF8
:101F0000808191818737980751F29093FF0A8093DF
:101F1000FE0AC5CF1092FF0A1092FE0A3ACE0E9426
:101F2000B601DC0112960D911C910115110509F401
:101F3000E8CED801ED91FC910190F081E02DBE0139
:101F40006B5E7F4FC8010995811123CEF801008592
:101F50001185EBCF181619060CF41BCED2CEF1E08A
:101F6000FF12BECE64E772E004CF1F920F920FB64D
:101F70000F9211242F933F934F935F936F937F930F
:101F80008F939F93AF93BF93EF93FF9387E492E078
:101F90000E94EF03FF91EF91BF91AF919F918F91BD
:101FA0007F916F915F914F913F912F910F900FBE55
:101FB0000F901F9018951F920F920FB60F92112439
:101FC0002F938F939F93EF93FF93E0915702F0919C
:101FD00058028081E0915D02F0915E0282FD1BC09B
:101FE0009081809160028F5F8F73209161028217D0
:101FF00041F0E0916002F0E0E95BFD4F958F809346
:102000006002FF91EF919F918F912F910F900FBEE2
:102010000F901F9018958081F4CF1F920F920FB6EA
:102020000F9211242F933F938F939F93AF93BF935E
:102030008091D1019091D201A091D301B091D401AE
:102040003091CC0123E0230F2D3758F50196A11DC7
:10205000B11D2093CC018093D1019093D201A09324
:10206000D301B093D4018091CD019091CE01A09184
:10207000CF01B091D0010196A11DB11D8093CD017A
:102080009093CE01A093CF01B093D001BF91AF91B7
:102090009F918F913F912F910F900FBE0F901F90A6
:1020A000189526E8230F0296A11DB11DD2CFEBEEA5
:1020B000F1E01382128248EE53E060E070E0448366
:1020C00055836683778383E591E0918380838FEFE7
:1020D0009FEF95878487E7E4F2E0138212824483BE
:1020E00055836683778385E691E0918380838DECC9
:1020F00090E0958784878CEC90E09787868788ECC2
:1021000090E0918B808B89EC90E0938B828B8AECB2
:1021100090E0958B848B8EEC90E0978B868B118E64
:10212000128E138E148EABE3B2E087E991E0119624
:102130009C938E9312961C92129713961C9213974F
:1021400014961C92149715961C92A1E4B2E0119675
:102150009C938E9312961C92129713961C9213972F
:1021600014961C92149715961C92A4EFB2E01C9240
:102170001696FC93EE93159717961C921797189640
:102180001C9218971A96FC93EE931997E3E5F3E0E7
:10219000918380831282138214821582EFEFF2E022
:1021A00013821282448355836683778385E891E0A6
:1021B00091838083B587A487118A128A138AEAEEF5
:1021C000F2E01382128287E791E091838083B583E6
:1021D000A48383EB95E197838683108611866DE94E
:1021E00071E084EE92E00C94AC0BCF93DF93CDB70B
:1021F000DEB7C251D1400FB6F894DEBF0FBECDBFDF
:10220000789484B5826084BD84B5816084BD85B5D1
:10221000826085BD85B5816085BD80916E008160DD
:1022200080936E0010928100809181008260809383
:102230008100809181008160809381008091800085
:1022400081608093800080919100826080939100F2
:1022500080919100816080939100809190008160D5
:10226000809390008091C10084608093C100809130
:10227000C10082608093C1008091C1008160809321
:10228000C1008091C30081608093C3008091C00031
:1022900082608093C0008091C20081608093C20000
:1022A00080917A00846080937A0080917A008260C5
:1022B00080937A0080917A00816080937A00809187
:1022C0007A00806880937A001092EA011092DA0115
:1022D0001092DC018091D70081608093D70080EA62
:1022E0008093D80089B5806189BD89B5826089BD38
:1022F00009B400FEFDCF61E070E080E090E00E9454
:10230000A1048091D8008F7C80618093D800809157
:10231000E000807F8093E0008091E1008E7E8093DA
:10232000E1008DE08093E200559A209AE091FD0251
:10233000F091FE02A089B18982E08C93A485B585D5
:102340001C92A685B78587E08C93108EA489B589E9
:1023500086E08C93A289B3898C9180618C93A28949
:10236000B3898C9188608C93A289B3898C918068A1
:102370008C930288F389E02D80818F7D808380910A
:10238000FB028111CAC081E08093FB0284EF92E0DE
:102390000E94620568EE73E080E090E00E94A10474
:1023A0008091F9029091FA02DC01ED91FC91008498
:1023B000F185E02D09951816190644F3FF24F394CE
:1023C00062E3E62E85E0E2E1F1E0DE01AD5ABF4FC7
:1023D00001900D928A95E1F7F092FC0245E050E001
:1023E000BE016D5A7F4F84EF92E00E9405098091F3
:1023F000F9029091FA02DC01ED91FC910190F081DB
:10240000E02D63E009956AEF70E080E090E00E94C3
:10241000A10466EC71E08091F9029091FA020E94A9
:102420004D036AEF70E080E090E00E94A10464EC4C
:1024300071E08091F9029091FA020E944D0364EFDD
:1024400071E080E090E00E94A10468EB71E080916F
:10245000F9029091FA020E944D0364EF71E080E06E
:1024600090E00E94A10484EF92E00E94620585E062
:10247000E7E1F1E0DE01119601900D928A95E1F716
:10248000E092FC0204E010E09E012B553F4F45E036
:1024900050E0BE016F5F7F4F84EF92E00E948C0797
:1024A0008F3F980739F468EE73E080E090E00E9477
:1024B000A10488CFCB55DF4F2881C55AD0402111C8
:1024C000FFCF049709F0D5C1CA55DF4F2881C65AFE
:1024D000D0402053330B44E6429FC001439F900DF0
:1024E0001124C955DF4F2881C75AD040EAE02E9FFA
:1024F000800D911D1124805E9140C855DF4F2881C9
:10250000C85AD0402053330B820F931F9093F6028A
:102510008093F50282E38093FC02ACE3B1E028E40F
:1025200031E08D919D919927FC01ED5FFD4F449124
:102530008C519E4FFC0184918823C9F090E0880F54
:10254000991FFC01EA52FE4F65917491FC01E8531A
:10255000FE4F059114919FB7F894FB01808140953F
:1025600084238083F8018081842380839FBF2A177E
:102570003B07B9F681E08093F3028AEE92E00E9475
:10258000920C5E01F3E5AF0EB11C28EE422E23E063
:10259000522E612C712C95012E5E3F4F1901CE01F8
:1025A00001964C01F12CE12C8091E8029091E90216
:1025B000E816F90608F060C18091E4029091E50206
:1025C000009709F459C18E0D9F1DDC018C911A8270
:1025D00019821C821B821E821D82F501808311825A
:1025E00001900020E9F73197AF014A195B09B50165
:1025F000C4010E948B0B89819A81009709F43EC126
:102600000E94AF16C15FDE4F688379838A839B8304
:10261000CF50D140C4010E94E50AC15FDE4F28813E
:102620003981CF50D1402130310509F097C0F701F1
:10263000EE0FFF1FE45CFE4FE081E23108F0E25153
:10264000F0E0EE5DFD4FE49190917B008E2F880FBE
:10265000880F80729F7D892B80937B00E770E064F8
:10266000E0937C0080917A00806480937A0080916E
:102670007A0086FDFCCF8091780060917900762FFA
:10268000682F072E000C880B990B0E94601920E020
:1026900030E040EA50E40E949B1920E030E040E83E
:1026A0005AE30E949B198E0109501F4F23E044E01A
:1026B0000E949116B801C5010E94AC0BCB55DF4FAB
:1026C00019821882C55AD040C955DF4F1982188225
:1026D000C75AD040C755DF4F19821882C95AD04017
:1026E0004AE0B401C7010E94DD16F4010190002008
:1026F000E9F73197AF0148195909B401CE018B555B
:102700009F4F0E948B0B64EA71E0C4010E94AC0BE6
:10271000C755DF4F48815981C95AD040CB55DF4F4B
:1027200068817981C55AD040C4010E94170B81117C
:1027300003C0C4010E94D30AD5016D917C918981A7
:102740009A810E94BD0BC4010E94E50ACE018B55FF
:102750009F4F0E94E50AC5010E94E50ABFEFEB1AF0
:10276000FB0AE6E0EE16F10409F01ECF0E94A10775
:102770008111A0C066EA71E0C4010E94AC0B0E9406
:10278000100986E090E00E94B81A7C01DC011196E5
:102790001C921E9213961C921E92129715961C92D2
:1027A0001E92149769817A816115710521F04D811E
:1027B0005E810E948B0BF0920F03E0920E03C40126
:1027C0000E94E50A6BEA71E0C4010E94AC0B6BE960
:1027D00071E080910E0390910F030E94430B4D8195
:1027E0005E8169817A8180910E0390910F030E942E
:1027F000170BC4010E94E50A82E5F5018083E09190
:102800000E03F0910F03048115812081318182E054
:10281000C82ED12C740141E050E0B50180910B032A
:1028200090910C030E94DA058A8180930D03E09059
:102830000E03F0900F03E114F10431F0C7010E9480
:10284000E50AC7010E94541B10920F0310920E0359
:102850008981811103C081E0809310030E94A10748
:102860008823A9F064E670E080E090E00E94A10473
:10287000F5CF84E690E04ACE80E0A9CEC15FDE4F7E
:10288000188219821A821B82CF50D140C3CE87E5AD
:10289000D5018C9380910D0311968C9302E010E08A
:1028A000940142E050E0B50180910B0390910C033C
:1028B0000E948C078FEF92E00E94CB07809111035A
:1028C0008823C9F04AE06FEF72E0C4010E94050C52
:1028D00065EB71E0C5010E94AC0B69817A81F5015D
:1028E000808191810E94BD0BC5010E94E50AC4014F
:1028F0000E94E50ADFCF8BE6D5018C9301E010E062
:10290000940141E050E0B5018091EE029091EF0218
:102910000E948C07892B09F09AC1C955DF4F198293
:102920001882C75AD040C755DF4F488259826A8201
:102930007B82C95AD04080E291E0CB55DF4F99832A
:102940008883C55AD04084EF92E0CF54DF4F9983FB
:102950008883C15BD040CD54DF4F1882C35BD04029
:10296000CC54DF4F1882C45BD040CB54DF4F188269
:10297000C55BD040CC54DF4F8881C45BD0408823F6
:1029800009F452C1C955DF4F88819981C75AD04097
:10299000F50193838283C755DF4F88819981AA818E
:1029A000BB81C95AD04084839583A683B783C3551E
:1029B000DF4F88819981AA81BB81CD5AD040808721
:1029C0009187A287B38700E211E011830083CF547F
:1029D000DF4F88819981C15BD04095878487CD5432
:1029E000DF4F8881C35BD040868781E08787CB54E7
:1029F000DF4F8881C55BD040808BCA54DF4F888110
:102A0000C65BD040818B80E4E5EAF0E0EC0FFD1F6F
:102A10007296D10101900D928A95E1F74FE2B501CE
:102A2000CE01875F9E4F0E94050CC35FDE4F8881F9
:102A30009981CD50D140892B09F4ECC06DEB71E048
:102A4000C75FDE4F88819981C950D1400E94A81C80
:102A5000892B09F0DFC0D50112968D919C911397B7
:102A60009C838B8314968D919D910D90BC91A02D8C
:102A70008D839E83AF83B887F50180859185A2857C
:102A8000B38589879A87AB87BC871A830983848536
:102A900095859E878D8786858F878785888B80899A
:102AA000898B81898A8B80E4F101DE015396019044
:102AB0000D928A95E1F74FE2B401CE018D5F9E4FF2
:102AC0000E94050CC95FDE4F88819981C750D140B3
:102AD000892B09F49AC063EC71E0CD5FDE4F8881E9
:102AE0009981C350D1400E94A81C892B09F08DC048
:102AF00063EA71E0CE0183509F4F0E94AC0B4DE022
:102B0000B401CE0189509F4F0E94050CC350DF4F86
:102B100088819981CD5FD040009709F4C5C0C95024
:102B2000DF4F68817981C75FD0406115710509F475
:102B3000B9C0C150DF4F48815981CF5FD040C550E7
:102B4000DF4F28813981CB5FD0404217530708F40B
:102B5000A9C00E94B11CC550DF4F88819981CB5F0D
:102B6000D040CF5FDE4F99838883C150D140C5509C
:102B7000DF4F19821882CB5FD040CE0189509F4F22
:102B80000E94E50AC350DF4F68817981CD5FD04054
:102B900061157105E9F0CF5FDE4F88819981C150E1
:102BA000D140079758F086E090E0CF5FDE4F9983E1
:102BB0008883C150D140DB0116961C92CF5FDE4F57
:102BC00048815981C150D14084EE92E00E948B0B24
:102BD00063EC71E0CE0189509F4F0E94AC0B609175
:102BE000E4027091E502C950DF4F88819981C75F87
:102BF000D0400E94BD0BCE0189509F4F0E94E50A34
:102C0000CE0183509F4F0E94E50ACE018D5F9E4FFB
:102C10000E94E50ACE01875F9E4F0E94E50ACE0121
:102C20008B559F4F0E94880962E370E080E090E03E
:102C30000E94A10480E090E0892B09F4B3CC0E94AB
:102C4000DB03882309F4ABCC0E940000A4CC89816B
:102C5000C955DF4F19821882C75AD040C755DF4F78
:102C6000488259826A827B82C95AD04020E231E090
:102C7000CB55DF4F39832883C55AD04024EF32E04B
:102C8000CF54DF4F39832883C15BD040CD54DF4F11
:102C90008883C35BD04081E0CC54DF4F8883C45B22
:102CA000D04063CE0E94541BC950DF4F8881998168
:102CB000C75FD040C350DF4F99838883CD5FD0403A
:102CC000C750DF4F88819981C95FD040C150DF4F25
:102CD00099838883CF5FD040C550DF4F8881998129
:102CE000CB5FD040CF5FDE4F99838883C150D14006
:102CF000C950DF4F19821882C75FD040C750DF4FDD
:102D000019821882C95FD04032CF84EE92E00E94CF
:102D1000E50A85E891E0909300038093FF020C940C
:102D20001009EF920F931F93CF93DF93E80134E0E4
:102D300047FD34E1042E000C550B57FF03C051959D
:102D400041955109E32E022F242FAE010E9417173F
:102D5000CE01DF91CF911F910F91EF9008951F93B6
:102D6000FC0199278827BC01E89411911032E9F3FE
:102D7000193010F01E30C8F31B3251F01D3249F4E7
:102D8000689406C00E94E816610F711D811D911D97
:102D9000119110531A30B0F33EF4909580957095D0
:102DA00061957F4F8F4F9F4F1F910895FB01DC016D
:102DB00005900D920020E1F70895BB274A3031F4C9
:102DC000992322F4BDE2909581959F4F0C94FE16B5
:102DD000592F482F372F262F660F771F881F991FCF
:102DE000660F771F881F991F620F731F841F951F1F
:102DF000660F771F881F991F0895BB27FB01552772
:102E0000AA27880F991FAA1FA41710F0A41B839547
:102E10005051B9F7A05DAA3308F0A95DA1930097BE
:102E200079F7B111B1931192CB010C944E19A9E02D
:102E3000B0E0EDE1F7E10C945F1A6A01F22EB02EDA
:102E4000102FFBE3AF2EA01608F41BE31F5F012F2A
:102E500027E0AE014F5F5F4F0E947618BC01898169
:102E6000982F9970913009F43FC09BE2E1FC04C0B7
:102E70009E2D9170E0FC3AC05E2D5071E82FE870F5
:102E800083FF46C084E0911101C083E0EF2DE81B71
:102E90008F1508F0E0E0D6018E2F20E2552351F186
:102EA000992329F0D6019C93C60101966C019601E5
:102EB0002D5F3F4FE2FE24C08EE4D6018C9391E457
:102EC00011969C93119712968C93D9018E2F90E2B4
:102ED00081111BC0E20FF32FF11D10828EEF9FEFC7
:102EE0002996ECE00C947B1A9DE2C6CF90E2C4CF09
:102EF0002D9381508111FCCFCE0ED11CE0E0D0CFBC
:102F00008EE6D6018C9391E6DBCF9D938150E0CF86
:102F1000482F447082FF3DC084E0911101C083E0DE
:102F20008F1510F4EF2DE81BD6018E2F20E25523CC
:102F300009F1992329F0D6019C93C60101966C01F1
:102F400096012D5F3F4FE2FE1BC089E4D6018C93B2
:102F50008EE411968C93119786E412968C93D90186
:102F60008E2F90E2882309F4B5CF9D938150FACF3C
:102F70002D9381508111FCCFCE0ED11CE0E0D9CF32
:102F800089E6D6018C938EE611968C93119786E68E
:102F9000E4CF9B0177FF02C030E020E0A1E0B0E089
:102FA000911102C0B0E0A0E0F9013196AE0FBF1F51
:102FB0008B2C912CBB2009F461C05401EFEFAE1AA9
:102FC000BE0AAA0DBB1DFA161B0619F014F04F2DF0
:102FD0004A1B511188C0E3FC59C07601A42FB0E20E
:102FE000A1114FC0C40ED11C992309F45BC040E06D
:102FF000D6011196F60190836D01552309F448C05E
:10300000012F060F9A81582F507184FF03C091330E
:1030100009F4015010160CF047C0093008F008E020
:10302000EEE2FE2E5B01A01AB10885019194819415
:1030300091082F3F320729F4D601FC92F601319610
:103040006F016217730794F1021713077CF5DB0118
:10305000A21BB30BAA24A394B12CAC0EBD1EAA0DC7
:10306000BB1D11968C9121503109D601119628155E
:103070003905F4F0F60180836D01DBCFB12CA12C72
:10308000A0CFF701B1937F01A150AACF9111B0CF8A
:10309000D601942F50E302C05D9391509111FCCF63
:1030A000C40ED11C40E0ACCF01E0BACF80E3DBCF4F
:1030B0006217730731F4963388F4953311F455236E
:1030C00069F0F6018083FD01842F90E2811108C030
:1030D000A40FB11D1C9290E080E002CF81E3F1CFFC
:1030E00091938150F3CF911183CF8ACF283008F08C
:1030F00027E03327DA01990F311D87FD9160009693
:103100006105710539F432602E5F3D9330E32A95F5
:10311000E1F708959F3F30F080387105610509F0AF
:103120003C5F3C5F3D93913008F08068911DDF93D8
:10313000CF931F930F93FF92EF92192F987F96953D
:10314000E92F96959695E90FFF27EA5FFE4F99279D
:103150003327EE24FF24A701E70105900894079484
:1031600028F4360FE71EF81E491F511D660F771F02
:10317000881F991F0694A1F70590079428F4E70E7D
:10318000F81E491F561FC11D770F881F991F661F04
:103190000694A1F70590079428F4F80E491F561FCE
:1031A000C71FD11D880F991F661F771F0694A1F7AF
:1031B0000590079420F4490F561FC71FD81F990F79
:1031C000661F771F881F0694A9F7849110951770C2
:1031D00041F0D695C79557954795F794E7941A957A
:1031E000C1F7ECEAF0E0689415901591359165917E
:1031F000959105907FE27395E118F10A430B560B08
:10320000C90BD009C0F7E10CF11E431F561FC91F9F
:10321000D01D7EF4703311F48A95E6CFE894015006
:1032200030F0080F0AF40027021708F4202F239526
:10323000022F7A3328F079E37D932A95E9F710C0BD
:103240007D932A9589F606949795679537951795F6
:103250001794E118F10A430B560BC90BD00998F0EB
:1032600023957E9173957A3308F070E37C93201355
:10327000B8F77E9170617D9330F0839571E37D9313
:1032800070E32A95E1F71124EF90FF900F911F91C1
:10329000CF91DF91992787FD90950895DC01FC017E
:1032A000672F71917723E1F7329704C07C916D937A
:1032B00070836291AE17BF07C8F30895E89409C000
:1032C00097FB3EF490958095709561957F4F8F4F59
:1032D0009F4F9923A9F0F92F96E9BB279395F6956F
:1032E000879577956795B795F111F8CFFAF4BB0FED
:1032F00011F460FF1BC06F5F7F4F8F4F9F4F16C051
:10330000882311F096E911C0772321F09EE8872FDA
:10331000762F05C0662371F096E8862F70E060E096
:103320002AF09A95660F771F881FDAF7880F96950F
:10333000879597F908950E94AE190C941F1A0E9460
:10334000111A38F00E94181A20F0952311F00C94ED
:10335000081A0C940E1A11240C94531A0E94301A55
:1033600070F3959FC1F3950F50E0551F629FF001D8
:10337000729FBB27F00DB11D639FAA27F00DB11DF1
:10338000AA1F649F6627B00DA11D661F829F22277A
:10339000B00DA11D621F739FB00DA11D621F839F01
:1033A000A00D611D221F749F3327A00D611D231FD7
:1033B000849F600D211D822F762F6A2F11249F5725
:1033C00050409AF0F1F088234AF0EE0FFF1FBB1F28
:1033D000661F771F881F91505040A9F79E3F5105E7
:1033E00080F00C94081A0C94531A5F3FE4F3983E53
:1033F000D4F3869577956795B795F795E7959F5F91
:10340000C1F7FE2B880F911D9695879597F9089522
:1034100097F99F6780E870E060E008959FEF80EC87
:10342000089500240A94161617061806090608952A
:1034300000240A9412161306140605060895092E90
:103440000394000C11F4882352F0BB0F40F4BF2BFF
:1034500011F460FF04C06F5F7F4F8F4F9F4F08953F
:1034600057FD9058440F551F59F05F3F71F0479535
:10347000880F97FB991F61F09F3F79F0879508951A
:10348000121613061406551FF2CF4695F1DF08C039
:10349000161617061806991FF1CF86957105610556
:1034A00008940895E894BB2766277727CB0197F9FE
:1034B00008952F923F924F925F926F927F928F92D8
:1034C0009F92AF92BF92CF92DF92EF92FF920F93B3
:1034D0001F93CF93DF93CDB7DEB7CA1BDB0B0FB6BD
:1034E000F894DEBF0FBECDBF09942A88398848887A
:1034F0005F846E847D848C849B84AA84B984C88410
:10350000DF80EE80FD800C811B81AA81B981CE0F06
:10351000D11D0FB6F894DEBF0FBECDBFED010895EB
:10352000A1E21A2EAA1BBB1BFD010DC0AA1FBB1FC7
:10353000EE1FFF1FA217B307E407F50720F0A21B39
:10354000B30BE40BF50B661F771F881F991F1A94A6
:1035500069F760957095809590959B01AC01BD01D0
:10356000CF010895EE0FFF1F0590F491E02D09940F
:103570000F931F93CF93DF938230910510F482E075
:1035800090E0E0915B03F0915C0330E020E0B0E07C
:10359000A0E0309799F42115310509F44AC0281BA1
:1035A000390B24303105D8F58A819B81611571056D
:1035B00089F1FB0193838283FE0111C04081518117
:1035C0000281138148175907E0F04817590799F409
:1035D000109761F012960C93129713961C933296E3
:1035E000CF01DF91CF911F910F91089500935B035D
:1035F00010935C03F4CF2115310551F042175307A6
:1036000038F0A901DB019A01BD01DF01F801C1CF4A
:10361000EF01F9CF90935C0380935B03CDCFFE0164
:10362000E20FF31F8193919322503109398328834C
:10363000D7CF2091590330915A03232B41F4209185
:103640000E0130910F0130935A03209359032091BA
:103650000C0130910D012115310541F42DB73EB714
:103660004091100150911101241B350BE091590339
:10367000F0915A03E217F307A0F42E1B3F0B281713
:10368000390778F0AC014E5F5F4F2417350748F0DB
:103690004E0F5F1F50935A034093590381939193A8
:1036A0009FCFF0E0E0E09CCFCF93DF930097E9F06D
:1036B000FC01329713821282A0915B03B0915C03EC
:1036C000ED0130E020E01097A1F420813181820FDC
:1036D000931F2091590330915A032817390709F095
:1036E00061C0F0935A03E0935903DF91CF9108959D
:1036F000EA01CE17DF07E8F54A815B819E0141159B
:103700005105B1F7E901FB83EA8349915991C40F4F
:10371000D51FEC17FD0761F4808191810296840F1B
:10372000951FE90199838883828193819B838A8392
:10373000F0E0E0E012968D919C9113970097B9F517
:103740002D913C911197CD010296820F931F2091EC
:10375000590330915A032817390739F6309751F534
:1037600010925C0310925B03B0935A03A093590329
:10377000BCCFD383C28340815181840F951FC8176A
:10378000D90761F44E5F5F4F88819981480F591FB7
:10379000518340838A819B819383828321153105E4
:1037A00009F0B0CFF0935C03E0935B039ECFFD0183
:1037B000DC01C0CF13821282D7CFB0E0A0E0E3EEED
:1037C000FBE10C945B1A8C01009751F4CB010E9431
:1037D000B81A8C01C801CDB7DEB7E0E10C94771AB6
:1037E000FC01E60FF71F9C0122503109E217F30795
:1037F00008F49DC0D901CD91DC911197C617D70768
:1038000098F0C530D10530F3CE010497861797079D
:1038100008F3C61BD70B2297C193D1936D937C936A
:10382000CF010E94541BD6CF5B01AC1ABD0A4C01DC
:103830008C0E9D1EA0915B03B0915C03512C412C1A
:10384000F12CE12C109731F58091590390915A0396
:103850008815990509F05CC04616570608F058C04F
:1038600080910C0190910D01009741F48DB79EB7A6
:103870004091100150911101841B950BE817F90735
:1038800008F055C0F0935A03E0935903F90171838E
:103890006083A0CF8D919C91119712966C90129796
:1038A00013967C901397A815B90559F56C0142E061
:1038B000C40ED11CCA14DB0420F1AC014A195B0907
:1038C000DA011296159780F06282738251834083E9
:1038D000D9016D937C93E114F10471F0D701139633
:1038E000FC93EE93129776CF22968C0F9D1FF901D1
:1038F00091838083F301EFCFF0935C03E0935B034C
:1039000069CF4816590608F42C017D01D3019ACFDE
:10391000CB010E94B81A7C01009749F0AE01B801B2
:103920000E949F1CC8010E94541B870153CF10E0C6
:1039300000E050CF81E090E0F8940C94B81CFB01BB
:10394000DC0102C001900D9241505040D8F708951B
:10395000FB01DC018D91019080190110D9F3990BC5
:103960000895FB01DC0101900D920020E1F708951C
:1039700011E0C0E5D1E004C0FE010E94B21A219618
:0A398000C135D107C9F7F894FFCF55
:10398A00FFFFFFFF00E100000000000000005D03F0
:10399A0080005858585858585831303000000000A4
:1039AA0066095607AF095805FB08E3089D082D0C60
:1039BA00550AB00888093008AC09590512001300E5
:1039CA00140015001600170000C1808100000000D5
:1039DA00000000CA01D304EB01E0013102EF010D3E
:1039EA000200000000100471039E035C04CF03ADC3
:1039FA0003C103000000004D097103AF09100392CF
:103A0A000C0000000030097103AF095805FB0718C4
:103A1A00080508000000000B0A4400FE003131319D
:103A2A0031313100410064617465002B25483A2523
:103A3A004D3A255300757064617465640077726944
:0C3A4A007465006368616E6E656C73004B
:00000001FF
