:100000000C94BA000C94E2000C94E2000C94E20010
:100010000C94E2000C94E2000C94E2000C94E200D8
:100020000C94E2000C94E2000C94E2000C94E200C8
:100030000C94E2000C94E2000C94E2000C94E200B8
:100040000C94E20B0C94E2000C94B00B0C948A0B11
:100050000C94E2000C94E2000C94E2000C94E20098
:100060000C94E2000C94E200302E302E302E300042
:100070003132372E302E302E3100000000002400A7
:1000800027002A0000000000250028002B007275C0
:100090006E2D6272696467650A000A000A0000003A
:1000A00000002300260029000404040404040404BE
:1000B0000202020202020303030303030102040813
:1000C00010204080010204081020010204081020C2
:1000D0002073657420746F200050696E2044000006
:1000E00000000800020100000304070000000000F7
:1000F00000000020726561647320616E616C6F673F
:10010000200050696E2041002073657420746F20B8
:10011000616E616C6F67200050696E2044006572EB
:10012000726F723A20696E76616C6964206D6F64DB
:1001300065200020636F6E66696775726564206173
:1001400073204F5554505554210050696E2044007F
:1001500020636F6E666967757265642061732049FC
:100160004E505554210050696E2044006572726FE4
:1001700072002C0C11241FBECFEFD8E0DEBFCDBF24
:1001800022E0A0E8B1E001C01D92A135B207E1F77D
:1001900011E0A0E0B1E0E6E3F7E202C005900D92C5
:1001A000A038B107D9F710E0CAEBD0E004C021971E
:1001B000FE010E949311C93BD107C9F70E94A40C0C
:1001C0000C9499130C940000EF92FF920F931F93DD
:1001D000CF93DF938C017B01D0E0C0E0F701EC0FFF
:1001E000FD1F6491662361F0D801ED91FC910190AF
:1001F000F081E02DC8010995892B11F02196EECFF1
:10020000CE01DF91CF911F910F91FF90EF90089554
:10021000AF92BF92CF92DF92EF92FF920F931F9314
:10022000CF93DF936C017B018B01040F151FEB0152
:100230005E01AE18BF08C017D10759F06991D60109
:10024000ED91FC910190F081E02DC6010995892B7B
:1002500079F7C501DF91CF911F910F91FF90EF903A
:10026000DF90CF90BF90AF900895FC01538D448DE7
:10027000252F30E0842F90E0821B930B541710F051
:10028000CF96089501970895FC01918D828D98175E
:1002900061F0A28DAE0FBF2FB11D5D968C91928D36
:1002A0009F5F9F73928F90E008958FEF9FEF089567
:1002B000FC01918D828D981731F0828DE80FF11D30
:1002C000858D90E008958FEF9FEF0895FC01918D4B
:1002D000228D892F90E0805C9F4F821B91098F7344
:1002E0009927089585E991E00E94660121E0892B14
:1002F00009F420E0822F089580E090E0892B29F016
:100300000E94720181110C9400000895FC01A48DDB
:10031000A80FB92FB11DA35ABF4F2C91848D90E027
:1003200001968F739927848FA689B7892C93A0890A
:10033000B1898C91837080648C93938D848D981394
:1003400006C00288F389E02D80818F7D8083089527
:10035000EF92FF920F931F93CF93DF93EC0181E015
:10036000888F9B8D8C8D98131AC0E889F9898081BC
:1003700085FF15C09FB7F894EE89FF896083E889EF
:10038000F98980818370806480839FBF81E090E0E1
:10039000DF91CF911F910F91FF90EF900895F62E6E
:1003A0000B8D10E00F5F1F4F0F731127E02E8C8D08
:1003B0008E110CC00FB607FCFACFE889F98980814D
:1003C00085FFF5CFCE010E948601F1CFEB8DEC0FBA
:1003D000FD2FF11DE35AFF4FF0829FB7F8940B8F6A
:1003E000EA89FB8980818062CFCFCF93DF93EC01D4
:1003F000888D8823B9F0AA89BB89E889F9898C910D
:1004000085FD03C0808186FD0DC00FB607FCF7CFC8
:100410008C9185FFF2CF808185FFEDCFCE010E94C8
:100420008601E9CFDF91CF910895833081F028F4E0
:10043000813099F08230A9F008958730A9F0883092
:10044000C9F08430B1F4809180008F7D03C0809129
:1004500080008F7780938000089584B58F7784BD66
:10046000089584B58F7DFBCF8091B0008F77809306
:10047000B00008958091B0008F7DF9CF1F93CF9386
:10048000DF93282F30E0F901E152FF4F8491F90109
:10049000E454FF4FD491F901E855FF4FC491CC23A8
:1004A000A9F0162F81110E941502EC2FF0E0EE0F3B
:1004B000FF1FEC57FF4FA591B4918FB7F894EC91C3
:1004C000111108C0D095DE23DC938FBFDF91CF914F
:1004D0001F910895DE2BF8CFCF93DF9390E0FC01BE
:1004E000E454FF4F249188559F4FFC018491882349
:1004F000D1F090E0880F991FFC01E658FF4FA591BD
:10050000B491FC01EC57FF4FC591D49161110EC01D
:100510009FB7F8948C91E22FE0958E238C932881DD
:10052000E223E8839FBFDF91CF9108958FB7F894BE
:10053000EC91E22BEC938FBFF6CF3FB7F89480910C
:10054000850190918601A0918701B091880126B51F
:10055000A89B05C02F3F19F00196A11DB11D3FBFFB
:10056000BA2FA92F982F8827BC01CD01620F711DCA
:10057000811D911D42E0660F771F881F991F4A95C4
:10058000D1F708958F929F92AF92BF92CF92DF9250
:10059000EF92FF924B015C010E949D026B017C0176
:1005A0000E949D026C197D098E099F09683E734067
:1005B00081059105A8F321E0821A9108A108B108EC
:1005C00088EEC80E83E0D81EE11CF11C8114910452
:1005D000A104B10429F7FF90EF90DF90CF90BF9076
:1005E000AF909F908F9008952FB7F89460918101FC
:1005F0007091820180918301909184012FBF0895B1
:100600000895FB012785FC012787FB012685FC0156
:1006100026870895CF93DF93EC018D819E81DC01C5
:10062000ED91FC910084F185E02D099518161906CD
:1006300054F48D819E81DC01ED91FC910284F3855F
:10064000E02D0995EACFDF91CF9108958F929F9287
:10065000AF92BF92CF92DF92EF92FF92CF93DF9350
:10066000EC016B010E94F4024B015C01F12CE12CC6
:100670008D819E81DC01ED91FC910284F385E02D5A
:10068000099597FF0DC00E94F402681979098A093B
:100690009B096C157D058E059F0550F38FEF9FEF2D
:1006A000DF91CF91FF90EF90DF90CF90BF90AF9010
:1006B0009F908F900895FC01238134812627022E7C
:1006C0002295207F2025032E322F22952F7002267F
:1006D000269532272327220F220F220F202534832D
:1006E000238308952F923F924F925F926F927F9251
:1006F0008F929F92AF92BF92CF92DF92EF92FF9232
:100700000F931F93CF93DF93CDB7DEB72A970FB622
:10071000F894DEBF0FBECDBF9A8789875B012901A0
:1007200037011A01200E311E3A82198288248A94D8
:10073000982C9A01260F371F3E832D83C801840D04
:10074000951D98878F83A985BA8518968C91B98154
:10075000B81708F040C1E985FA85948283828581C3
:100760009681DC01ED91FC910190F081E02D6FEF1D
:1007700009956FEF89859A850E945B03E985FA8563
:1007800085819681DC01ED91FC910190F081E02D55
:10079000A985BA856C910995E985FA856081CF01B3
:1007A0000E945B03A985BA8515968D919C91DC0109
:1007B000ED91FC910190F081E02D6A8109956A81AB
:1007C00089859A850E945B03E985FA8585819681F2
:1007D000DC01ED91FC910190F081E02D622D0995F5
:1007E000622D89859A850E945B038501E985FA85DA
:1007F00085819681DC01ED91FC910190F081E02DE5
:100800002D813E8120173107E1F48201E985FA85C7
:1008100085819681DC01ED91FC910190F081E02DC4
:100820002F81388520173107C1F0D8016D918D01D6
:100830000995F8013197608189859A850E945B034B
:10084000E5CFD8016D918D010995F801319760814F
:1008500089859A850E945B03C9CFA985BA851496BC
:100860006C910995E985FA8585819681DC01ED9188
:10087000FC910190F081E02DA985BA8513966C91C9
:10088000099568EC70E089859A850E9426038F3F60
:10089000910509F092C0E985FA85948283826FEF11
:1008A000CF010E945B0365E070E089859A850E9414
:1008B0002603A985BA856C916817190609F07DC0D1
:1008C000CD010E945B036AE070E089859A850E94F1
:1008D00026037C0197FD71C0682F89859A850E9447
:1008E0005B036AE070E089859A850E9426038C018B
:1008F00097FD63C0682F89859A850E945B03EC820F
:100900001B82EB81FC810E0F1F1FF12CE12C65E097
:1009100070E089859A850E151F05A1F0EC14FD0481
:1009200089F00E94260397FD09C0F301EE0DFF1D1B
:100930008083682F89859A850E945B03FFEFEF1AF9
:10094000FF0AE5CF0E9426037C0197FD36C065E0D3
:1009500070E089859A850E94260397FD2EC0FE2CA3
:10096000EE248E0D9F1DA985BA8513962D913C917D
:1009700014978217930709F58C918F5F8C93C801A8
:10098000C016D10608F4C6012A960FB6F894DEBF49
:100990000FBECDBFDF91CF911F910F91FF90EF90D0
:1009A000DF90CF90BF90AF909F908F907F906F908F
:1009B0005F904F903F902F900895B981BF5FB983AA
:1009C00064E670E080E090E00E94C20289859A852A
:1009D0000E940A03B8CE8FEF9FEFD6CFAF92BF929F
:1009E000CF92DF92EF92FF920F931F93CF93DF93FB
:1009F00000D0CDB7DEB7FC019B015A018785882363
:100A000001F18CE6898386858A83D12CC12CF12C57
:100A1000E12C8A0142E050E0BE016F5F7F4F848588
:100A200095850E947203C5010F900F90DF91CF91C1
:100A30001F910F91FF90EF90DF90CF90BF90AF90FC
:100A40000895B12CA12CEFCFCF92DF92EF92FF92BD
:100A50000F931F936801790110E000E030E020E07F
:100A60000E9472031F910F91FF90EF90DF90CF9043
:100A70000895EF92FF920F931F93CF93DF9300D0CF
:100A80001F92CDB7DEB7DC011F962C911F97222352
:100A900001F17C01ED91FC910084F185E02D099537
:100AA000892B11F58CE48983F70186858A8301E01F
:100AB00010E09E012D5F3F4F42E050E0BE016F5FAE
:100AC0007F4F848595850E94240581E09B8191302C
:100AD00009F080E00F900F900F90DF91CF911F9160
:100AE0000F91FF90EF90089581E0F4CFEF92FF9285
:100AF0000F931F93CF93DF9300D01F92CDB7DEB734
:100B0000FC012089211118C07C01118A8BE48983A2
:100B100080E48B8386858A839F012E5E3F4F00E4AD
:100B200010E043E050E0BE016F5F7F4F8485958504
:100B30000E942405F701808B0F900F900F90DF919A
:100B4000CF911F910F91FF90EF900895CF93DF9376
:100B5000EC010E9476058889882341F08989C80FB5
:100B6000D11D8A8990E0DF91CF9108958FEF9FEF9B
:100B7000FACF0F931F93CF93DF93EC010E94F402FF
:100B8000688779878A879B87CE010E94A60597FF91
:100B900015C00E94F402088519852A853B85601BD3
:100BA000710B820B930B0C811D812E813F8160178D
:100BB00071078207930740F38FEF9FEFDF91CF918B
:100BC0001F910F910895CF92DF92EF92FF920F93B2
:100BD0001F93CF93DF93EC016A017B0110E000E0EB
:100BE0008889811106C0CE010E94760588898823F4
:100BF00099F0E98981E08E0F898B0F5F1F4FEC0F11
:100C0000FD2FF11D8289F70181937F018889815031
:100C1000888B0C151D0520F3C801DF91CF911F9122
:100C20000F91FF90EF90DF90CF900895CF93DF93D7
:100C3000EC010E9476058889882369F08150888BB1
:100C4000898991E0980F998BC80FD11D8A8990E00E
:100C5000DF91CF9108958FEF9FEFFACFCF92DF9280
:100C6000EF92FF921F93CF93DF93EC01CE010E948E
:100C7000B905FC0197FD4FC08D32910521F0C09759
:100C80000A9708F042C0C12CD12C760110E0E13067
:100C9000F105D1F0ED32F105E1F1CF01C0970A97EE
:100CA00098F4AAE0B0E0A70196010E9420116F011C
:100CB000FF0FEE08FF08C60ED71EE81EF91E80E3E0
:100CC000C81AD108E108F108CE010E941606CE012B
:100CD0000E94B905FC01C0970A97C8F2E130F105FE
:100CE000B1F2112341F0F094E094D094C094C11C6F
:100CF000D11CE11CF11CC701B601DF91CF911F91FE
:100D0000FF90EF90DF90CF900895CE010E941606DD
:100D1000ADCF11E0D9CFC12CD12C7601ECCF0F9300
:100D20001F93CF93DF93EC010E94F40268877987C9
:100D30008A879B87CE010E94160697FF15C00E94E6
:100D4000F402088519852A853B85601B710B820B8F
:100D5000930B0C811D812E813F81601771078207E3
:100D6000930740F38FEF9FEFDF91CF911F910F918A
:100D70000895CF93DF93EC010E947605888990E077
:100D8000DF91CF9108950F931F9310E000E030E0C2
:100D900020E00E9424051F910F910895CF93DF93C7
:100DA00000D0CDB7DEB722E629836A8342E050E067
:100DB000BE016F5F7F4FFC01848195810E94C30655
:100DC00081E090E00F900F90DF91CF910895CF9345
:100DD000DF9300D01F92CDB7DEB7FC01278590E0EE
:100DE00080E0222381F08CE6898386858A836B8369
:100DF00043E050E0BE016F5F7F4F848595850E9480
:100E0000C30681E090E00F900F900F90DF91CF919B
:100E100008950F931F93CF93DF9300D0CDB7DEB724
:100E20008C01FC018785882369F08AE689838685A1
:100E30008A8342E050E0BE016F5F7F4F84859585D5
:100E40000E94C306F8011786108A118A0F900F902E
:100E5000DF91CF911F910F910895DC01FB018281F9
:100E6000938113969C938E9312974481558166814A
:100E7000778114964D935D936D937C93179740857E
:100E800051856285738518964D935D936D937C9320
:100E90001B9784E191E011969C938E9384859585B0
:100EA0001D969C938E931C9786851E968C931E97F9
:100EB00087851F968C931F97808950968C935097A7
:100EC000818951968C93519780E472965296019045
:100ED0000D928A95E1F70895FC018785089508959C
:100EE00090E080E008958F929F92AF92BF92EF9230
:100EF000FF920F931F93CF93DF93CDB7DEB7A197E8
:100F00000FB6F894DEBF0FBECDBF7C01FA01CB0156
:100F100019A2223008F42AE08E010F5D1F4F822EA5
:100F2000912CB12CA12CBF01A50194010E9471113B
:100F3000F901CA016A3074F5605DD8016E938D01C4
:100F4000232B242B252B79F790E080E0109789F054
:100F5000FD0101900020E9F73197AF014A1B5B0BBF
:100F6000D701ED91FC910280F381E02DB801C7011A
:100F70000995A1960FB6F894DEBF0FBECDBFDF91E5
:100F8000CF911F910F91FF90EF90BF90AF909F90E6
:100F90008F900895695CD1CF42E050E066E571E042
:100FA0000C94EE04AF92BF92CF92DF92EF92FF9239
:100FB0000F931F93CF93DF9300D000D000D01F92E8
:100FC000CDB7DEB75C019B0183E489835A834B83F1
:100FD000FB0101900020E9F731978F01061B170BE9
:100FE000CC24C394D12CCE0106967C0143E050E082
:100FF000BE016F5F7F4FD5011C968D919C910E9421
:101000007203892BB9F18E81F501868793E69C8363
:101010008D8301E010E09E01295F3F4F42E050E0E8
:10102000BE016C5F7F4FD5011C968D919C910E94F3
:1010300024058F81882339F061E070E080E090E042
:101040000E94C202E6CF81E0F50187870190F0811E
:10105000E02D0688F789E02DC501099581111DC095
:10106000D501ED91FC910488F589E02DC501099524
:10107000F501168690E080E027960FB6F894DEBF63
:101080000FBECDBFDF91CF911F910F91FF90EF90D9
:10109000DF90CF90BF90AF90089581E090E0ECCFCB
:1010A000CF92DF92EF92FF920F931F93CF93DF9334
:1010B0006B01770FEE08FF08F7FE1BC0EC016DE235
:1010C0000E94E7068C0144275527BA014C195D0997
:1010D0006E097F092AE0CE010E947307800F911FDD
:1010E000DF91CF911F910F91FF90EF90DF90CF9004
:1010F00008952AE0B701A601DF91CF911F910F91CA
:10110000FF90EF90DF90CF900C9473070F931F9395
:10111000CF93DF93EC010E9450088C01CE010E9416
:10112000CC07800F911FDF91CF911F910F910895F0
:101130008F929F92AF92BF92CF92DF92EF92FF92E7
:101140000F931F93CF93DF937C01EB016C0182E03F
:10115000C80ED11C4701E5E08E0E911C10E000E0A6
:10116000F60141916F0150E070E060E02AE0CE01AD
:101170000E9473075C01E881F9810190F081E02D04
:101180006EE2CE0109958A0D9B1D080F191FC81428
:10119000D90431F7F701458150E070E060E02AE0C2
:1011A000CE010E947307800F911FDF91CF911F9195
:1011B0000F91FF90EF90DF90CF90BF90AF909F90F6
:1011C0008F9008950E947B13FC0124813581232B8D
:1011D00039F421E0FB018081882349F020E007C039
:1011E000808191810E94891321E0892BB9F7822F98
:1011F00008950F931F93CF93DF93EC01888199811A
:10120000009759F02A813B812617370730F081E09B
:10121000DF91CF911F910F9108958B016F5F7F4FE9
:101220000E94BE12009759F0998388831B830A831A
:101230002C813D81232B59F7FC011082E8CF80E0FF
:10124000E7CFEF92FF920F931F93CF93DF93611538
:10125000710541F480E0DF91CF911F910F91FF90D4
:10126000EF90089541155105B1F07B01EC010C811F
:101270001D81040F151FB8010E94F908882351F33E
:10128000288139818C819D81B701820F931F0E9433
:1012900092131D830C8381E0DECFEF92FF920F93B8
:1012A0001F93CF93DF93CDB7DEB728970FB6F8948F
:1012B000DEBF0FBECDBF7C01CB014AE08E010F5FC8
:1012C0001F4FB8010E94EB10F80101900020E9F7D0
:1012D0003197AF01401B510BB801C7010E94210992
:1012E00028960FB6F894DEBF0FBECDBFDF91CF9129
:1012F0001F910F91FF90EF900895EF92FF920F933F
:101300001F93CF93DF9300D000D0CDB7DEB77C0121
:10131000862F4AE08E010F5F1F4FB80190E00E94B8
:10132000EB10F80101900020E9F73197AF01401B65
:10133000510BB801C7010E9421090F900F900F9027
:101340000F90DF91CF911F910F91FF90EF90089533
:10135000CF93DF9300D0CDB7DEB769831A8241E027
:1013600050E0BE016F5F7F4F0E9421090F900F90E8
:10137000DF91CF9108956115710551F0FB01019046
:101380000020E9F73197AF01461B570B0C94210958
:1013900080E00895CF93DF93EC01888199810097D5
:1013A00011F00E943512198218821D821C821B8244
:1013B0001A82DF91CF910895EF92FF920F931F93BE
:1013C000CF93DF93EC017B01198218821B821A8272
:1013D0001D821C82FB0101900020E9F731978F01EB
:1013E000061B170BB8010E94F908811109C0CE0134
:1013F000DF91CF911F910F91FF90EF900C94CA094C
:101400001D830C83B70188819981DF91CF911F9152
:101410000F91FF90EF900C949213CF92DF92EF9286
:10142000FF920F931F93CF93DF93CDB7DEB76297F1
:101430000FB6F894DEBF0FBECDBF8C01CB01F80113
:101440001182108213821282158214824AE09E0158
:101450002F5F3F4F6901B9010E94EB10F601019027
:101460000020E9F731977F01EC18FD08B701C801AA
:101470000E94F908811112C0C8010E94CA0962962F
:101480000FB6F894DEBF0FBECDBFDF91CF911F9195
:101490000F91FF90EF90DF90CF900895F801F582C3
:1014A000E482B601808191810E949213E8CFFC0111
:1014B00080819181009711F00C9435120895EF927C
:1014C000FF920F931F93CF93DF9300D000D000D0F3
:1014D0001F92CDB7DEB77C018B0169E571E0CE01CB
:1014E00001960E94DC09B701CE0101960E94BB095A
:1014F00041E050E06BE571E0CE0101960E942109C8
:10150000B801CE0101960E94BB094D815E816981BF
:101510007A8101E010E09E01295F3F4F82E392E073
:101520000E942405CE0101960E94570A27960FB605
:10153000F894DEBF0FBECDBFDF91CF911F910F9109
:10154000FF90EF900895CF92DF92EF92FF920F936A
:101550001F93CF93DF9300D000D000D0CDB7DEB77C
:101560007C018B016A0168E571E0CE0101960E9461
:10157000DC0962E170E0CE0101960E94F908D80111
:1015800012966C91CE0101960E947D096EE2CE0109
:1015900001960E94A809F8016381CE0101960E947C
:1015A0007D096EE2CE0101960E94A809D801149629
:1015B0006C91CE0101960E947D096EE2CE010196EA
:1015C0000E94A809F8016581CE0101960E947D095B
:1015D00069817A81D701ED91FC910088F189E02D34
:1015E000A601C70109958C01CE0101960E94570AF8
:1015F000C80126960FB6F894DEBF0FBECDBFDF91AF
:10160000CF911F910F91FF90EF90DF90CF900895B1
:10161000AF92BF92CF92DF92EF92FF920F931F9300
:10162000CF93DF93CDB7DEB72A970FB6F894DEBF1E
:101630000FBECDBF5C018EE48F83F501868197815B
:10164000988789871A8219821C821B821E821D82BA
:1016500069E070E0CE0101960E94F908811144C052
:10166000CE0101960E94CA09F501818581110CC045
:1016700067E070E0CE0101960E94F90881113FC039
:10168000CE0101960E94CA090D811E8129813A81ED
:10169000CC24C394D12CCE010A967C0143E050E0C7
:1016A000BE01695F7F4FF501848195810E947203BD
:1016B00081E09A85913009F080E0F5018087CE01C4
:1016C00001960E94570A2A960FB6F894DEBF0FBE05
:1016D000CDBFDF91CF911F910F91FF90EF90DF90E1
:1016E000CF90BF90AF90089589E090E09E838D8366
:1016F00060E770E089819A810E94E410B5CF87E0AD
:1017000090E09E838D8368E670E089819A810E94D3
:10171000E410BACF1F920F920FB60F9211242F939D
:101720003F934F935F936F937F938F939F93AF9369
:10173000BF93EF93FF9385E991E00E948601FF91AB
:10174000EF91BF91AF919F918F917F916F915F9139
:101750004F913F912F910F900FBE0F901F901895B2
:101760001F920F920FB60F9211242F938F939F9376
:10177000EF93FF93E091A501F091A6018081E091A4
:10178000AB01F091AC0182FD1BC090818091AE0154
:101790008F5F8F732091AF01821741F0E091AE010E
:1017A000F0E0EB56FE4F958F8093AE01FF91EF91E5
:1017B0009F918F912F910F900FBE0F901F901895B2
:1017C0008081F4CF1F920F920FB60F9211242F93A6
:1017D0003F938F939F93AF93BF938091810190919B
:1017E0008201A0918301B09184013091800123E0B6
:1017F000230F2D3758F50196A11DB11D20938001AF
:101800008093810190938201A0938301B09384011E
:101810008091850190918601A0918701B091880106
:101820000196A11DB11D8093850190938601A0931F
:101830008701B0938801BF91AF919F918F913F91A4
:101840002F910F900FBE0F901F90189526E8230F31
:101850000296A11DB11DD2CFE5E9F1E013821282FB
:1018600088EE93E0A0E0B0E084839583A683B783FD
:1018700084E391E09183808385EC90E09587848771
:1018800084EC90E09787868780EC90E0918B808B4A
:1018900081EC90E0938B828B82EC90E0958B848B33
:1018A00086EC90E0978B868B118E128E138E148EA1
:1018B000A9E8B1E084E591E011969C938E9312968D
:1018C0001C92129713961C92139714961C921497BD
:1018D00015961C92AFE8B1E011969C938E931296E8
:1018E0001C92129713961C92139714961C9214979D
:1018F00015961C92A2E3B2E01C921696FC93EE930E
:10190000159717961C92179718961C9218971A9667
:10191000FC93EE931997E7E4F2E0918380831282BF
:10192000138214821582EDE3F2E01382128286E4C0
:1019300091E091838083B583A48383EB95E19783C2
:101940008683108611860895CF93DF93CDB7DEB7D7
:10195000C850D1400FB6F894DEBF0FBECDBF78940B
:1019600084B5826084BD84B5816084BD85B58260A4
:1019700085BD85B5816085BD80916E008160809355
:101980006E001092810080918100826080938100BE
:1019900080918100816080938100809180008160CE
:1019A000809380008091B10084608093B100809129
:1019B000B00081608093B00080917A008460809351
:1019C0007A0080917A00826080937A0080917A0018
:1019D000816080937A0080917A00806880937A0099
:1019E0001092C10061E08DE00E946C0260E08DE029
:1019F0000E943E02E0913B02F0913C02A089B18935
:101A000082E08C93A485B5851C92A685B78587E076
:101A10008C93108EA489B58986E08C93A289B389B2
:101A20008C9180618C93A289B3898C9188608C930E
:101A3000A289B3898C9180688C930288F389E02D08
:101A400080818F7D8083809139028111CAC081E0BD
:101A50008093390282E392E00E940A0368EE73E009
:101A600080E090E00E94C20280913702909138029B
:101A7000DC01ED91FC910084F185E02D09951816AB
:101A8000190644F3FF24F39442E3E42E85E0E6E0F4
:101A9000F1E0DE01AD5ABF4F01900D928A95E1F75A
:101AA000F0923A0245E050E0BE016D5A7F4F82E36A
:101AB00092E00E94C3068091370290913802DC01C7
:101AC000ED91FC910190F081E02D63E009956AEFC2
:101AD00070E080E090E00E94C2026CE970E08091CA
:101AE0003702909138020E94E4006AEF70E080E0D3
:101AF00090E00E94C2026AE970E080913702909102
:101B000038020E94E40064EF71E080E090E00E94FF
:101B1000C2026EE870E080913702909138020E9414
:101B2000E40064EF71E080E090E00E94C20282E392
:101B300092E00E940A0385E0EBE0F1E0DE011196FD
:101B400001900D928A95E1F7E0923A0204E010E0EC
:101B50009E012B553F4F45E050E0BE016F5F7F4F28
:101B600082E392E00E9424058F3F980739F468EEE3
:101B700073E080E090E00E94C20288CFCB55DF4F37
:101B80002881C55AD0402111FFCF049709F0ACC07D
:101B9000CA55DF4F2881C65AD0402053330B44E644
:101BA000429FC001439F900D1124C955DF4F2881EA
:101BB000C75AD0403AE0239F800D911D1124805ECA
:101BC0009140C855DF4F2881C85AD0402053330B6D
:101BD000820F931F909334028093330282E38093A9
:101BE0003A0261E08DE00E943E0281E0809346026D
:101BF0008DE392E00E94080B38EE432E33E0532E23
:101C0000612C712C24E1C22E21E0D22E92E3A92E68
:101C100092E0B92E222423948BE664968FAF6497CA
:101C200001E010E09E012F5F3F4F41E050E0BE0118
:101C30006D5A7F4F80914102909142020E9424058B
:101C4000892B09F054C0C955DF4F19821882C75A31
:101C5000D040C755DF4F488259826A827B82C95A79
:101C6000D040CB55DF4FD982C882C55AD040CF541F
:101C7000DF4FB982A882C15BD040CD54DF4F1882BC
:101C8000C35BD040CC54DF4F1882C45BD040CB54F0
:101C9000DF4F1882C55BD040CC54DF4F8881C45BD6
:101CA000D040882309F4B2C1BE016B557F4FCE01ED
:101CB0008D5A9F4F0E942D0768E571E0CE018D5F20
:101CC0009E4F0E94DC09CE018D5A9F4F0E948F06C5
:101CD00097FD33C08F32910581F1682FCE018D5F62
:101CE0009E4F0E94A809EFCF84E690E073CF8981D0
:101CF000C955DF4F19821882C75AD040C755DF4FE8
:101D0000488259826A827B82C95AD040CB55DF4FC4
:101D1000D982C882C55AD040CF54DF4FB982A88239
:101D2000C15BD040CD54DF4F8883C35BD040CC54DF
:101D3000DF4F2882C45BD040AACF6DE571E0CE01B1
:101D40008D5F9E4F0E94E408882309F463C0BE01A2
:101D50006D5A7F4FCE0101960E942D07CE0101964C
:101D60000E942E06162F962EE72ECE0101960E9477
:101D700016068F9709F081C0CE0101960E942E06AB
:101D8000072FF62E812F0E943E0269ED70E0CE01F2
:101D900001960E94E400692D7E2DCE0101960E94DD
:101DA000500860ED70E0CE0101960E94E4006F2DB6
:101DB000702FCE0101960E94860869E571E0CE0180
:101DC00083509F4F0E94DC09692D7E2DCE018350E8
:101DD0009F4F0E944D096F2D702FCE0189509F4F4C
:101DE0000E940D0AC950DF4F68817981C75FD040DA
:101DF000C350DF4F88819981CD5FD0400E945F0A38
:101E0000CE0189509F4F0E94570ACE0183509F4FA9
:101E10000E94570A65E671E0CE018D5F9E4F0E94D9
:101E2000E408882309F4C1C0BE016D5A7F4FCE017A
:101E300001960E942D07CE0101960E942E06162FB4
:101E4000862E972ECE0101960E9416068F9709F0D6
:101E500011C1CE0101960E942E06062F372EE62EC6
:101E6000F72E61E0812F0E946C02E114F10459F514
:101E700060E0812F0E943E0257C0212F30E0F9011F
:101E8000E152FF4F8491F901E454FF4F0491F901AD
:101E9000E855FF4F1491112399F081110E9415020A
:101EA000E12FF0E0EE0FFF1FE256FF4FA591B49136
:101EB000EC91E02381E000E009F480E0F82E65CFAA
:101EC000F12C00E062CF9FEFE916F10411F461E01C
:101ED000D0CFE12FF0E0E152FF4FE491E33009F47D
:101EE000ADC050F4E130E1F0E23009F4A2C0A0E866
:101EF000EA16F10464F7BCCFE73009F4ABC0E83070
:101F000009F4B0C0E43099F780918000806280933A
:101F10008000802F932D90938B0080938A0004C0C3
:101F200084B5806884BD07BD68E171E0CE0101968B
:101F30000E94E400B401CE0101960E94500868E0BE
:101F400071E0CE0101960E94E400B701CE01019636
:101F50000E94860869E571E0CE0183509F4F0E9480
:101F6000DC09B401CE0183509F4F0E944D09B70197
:101F7000CE0189509F4F0E940D0AC950DF4F6881E2
:101F80007981C75FD040C350DF4F88819981CD5F91
:101F9000D0400E945F0ACE0189509F4F0E94570A8D
:101FA000CE0183509F4F0E94570A6EE671E0CE012A
:101FB0008D5F9E4F0E94E4088823F1F0BE016D5AA8
:101FC0007F4FCE0101960E942D07CE0101960E94FF
:101FD0002E06162F072FCE0101960E9416068F9708
:101FE00009F483C06CE671E0CE0101960E94E40022
:101FF000CE0101960E94CC07CE018D5F9E4F0E94BC
:10200000570ACE018B559F4F0E94090762E370E08B
:1020100080E090E00E94C20220E030E0232B09F42F
:10202000FBCD0E947201882309F4F0CD0E940000CC
:10203000E9CD84B5806284BD08BD76CF80918000F3
:10204000806880938000802F932D909389008093E7
:1020500088006ACF8091B00080688093B0000093C0
:10206000B30062CF8091B00080628093B000009393
:10207000B4005ACF1E3008F01E5017701064109331
:102080007C0080917A00806480937A0080917A004D
:1020900086FDFCCF8091780000917900102F082FE9
:1020A00062E071E0CE0101960E94E400B401CE012D
:1020B00001960E94500863EF70E0CE0101960E94E5
:1020C000E400B801CE0101960E9486086CE671E03A
:1020D000CE0183509F4F0E94DC09B401CE01835092
:1020E0009F4F0E944D09B80143CF68E571E0CE01D2
:1020F00089509F4F0E94DC09CE0101960E948F06F5
:1021000097FD0AC08D30910539F0682FCE018950B6
:102110009F4F0E94A809F0CFE12EF02E63E771E0F7
:10212000CE0189509F4F0E94E4088823D9F060E0D7
:10213000812F0E946C0266E671E0CE0101960E943A
:10214000E400B701CE0101960E94500860E571E0FD
:10215000CE0101960E94E400CE0189509F4F0E945B
:10216000570A4ACF69E771E0CE0189509F4F0E941C
:10217000E408882391F061E0812F0E946C026AE4F8
:1021800071E0CE0101960E94E400B701CE010196F4
:102190000E94500863E371E0DBCF6EE171E0CE0195
:1021A00001960E94E400C550DF4F48815981CB5F02
:1021B000D040C950DF4F68817981C75FD040CE01E0
:1021C00001960E94EE04C8CFFB01DC0105900D9240
:1021D0000020E1F70895BB274A3031F4992322F417
:1021E000BDE2909581959F4F0C94F710BB27FB01A2
:1021F0005527AA27880F991FAA1FA41710F0A41B00
:1022000083955051B9F7A05DAA3308F0A95DA19359
:10221000009779F7B111B1931192CB010C94101181
:10222000DC01FC01672F71917723E1F7329704C03D
:102230007C916D9370836291AE17BF07C8F30895C8
:102240000E946211A59F900DB49F900DA49F800DD8
:10225000911D112408952F923F924F925F926F9299
:102260007F928F929F92AF92BF92CF92DF92EF9226
:10227000FF920F931F93CF93DF93CDB7DEB7CA1BA7
:10228000DB0B0FB6F894DEBF0FBECDBF09942A88D2
:10229000398848885F846E847D848C849B84AA847A
:1022A000B984C884DF80EE80FD800C811B81AA8107
:1022B000B981CE0FD11D0FB6F894DEBF0FBECDBFD2
:1022C000ED010895A29FB001B39FC001A39F700DBF
:1022D000811D1124911DB29F700D811D1124911D2E
:1022E0000895A1E21A2EAA1BBB1BFD010DC0AA1F57
:1022F000BB1FEE1FFF1FA217B307E407F50720F06F
:10230000A21BB30BE40BF50B661F771F881F991FE9
:102310001A9469F760957095809590959B01AC0132
:10232000BD01CF010895EE0FFF1F0590F491E02D40
:1023300009940F931F93CF93DF938230910510F48C
:1023400082E090E0E0914F02F091500230E020E016
:10235000B0E0A0E0309799F42115310509F44AC0A6
:10236000281B390B24303105D8F58A819B816115F2
:10237000710589F1FB0193838283FE0111C04081C5
:1023800051810281138148175907E0F04817590716
:1023900099F4109761F012960C93129713961C9370
:1023A0003296CF01DF91CF911F910F910895009345
:1023B0004F0210935002F4CF2115310551F042170E
:1023C000530738F0A901DB019A01BD01DF01F801D3
:1023D000C1CFEF01F9CF9093500280934F02CDCF40
:1023E000FE01E20FF31F819391932250310939834B
:1023F0002883D7CF20914D0230914E02232B41F4F8
:10240000209102013091030130934E0220934D023E
:1024100020910001309101012115310541F42DB7C2
:102420003EB74091040150910501241B350BE0910A
:102430004D02F0914E02E217F307A0F42E1B3F0B62
:102440002817390778F0AC014E5F5F4F2417350726
:1024500048F04E0F5F1F50934E0240934D02819300
:1024600091939FCFF0E0E0E09CCFCF93DF93009774
:10247000E9F0FC01329713821282A0914F02B091D1
:102480005002ED0130E020E01097A1F4208131816D
:10249000820F931F20914D0230914E022817390769
:1024A00009F061C0F0934E02E0934D02DF91CF91AD
:1024B0000895EA01CE17DF07E8F54A815B819E01A6
:1024C00041155105B1F7E901FB83EA83499159911F
:1024D000C40FD51FEC17FD0761F48081918102962E
:1024E000840F951FE90199838883828193819B835F
:1024F0008A83F0E0E0E012968D919C91139700970B
:10250000B9F52D913C911197CD010296820F931F41
:1025100020914D0230914E022817390739F6309735
:1025200051F51092500210924F02B0934E02A093B8
:102530004D02BCCFD383C28340815181840F951F4C
:10254000C817D90761F44E5F5F4F88819981480FA2
:10255000591F518340838A819B81938382832115F4
:10256000310509F0B0CFF0935002E0934F029ECFB7
:10257000FD01DC01C0CF13821282D7CFB0E0A0E012
:10258000E4ECF2E10C942D118C01009751F4CB0195
:102590000E9499118C01C801CDB7DEB7E0E10C941F
:1025A0004911FC01E60FF71F9C0122503109E21787
:1025B000F30708F49DC0D901CD91DC911197C6179E
:1025C000D70798F0C530D10530F3CE0104978617B0
:1025D000970708F3C61BD70B2297C193D1936D932E
:1025E0007C93CF010E943512D6CF5B01AC1ABD0A95
:1025F0004C018C0E9D1EA0914F02B0915002512CA7
:10260000412CF12CE12C109731F580914D029091E5
:102610004E028815990509F05CC04616570608F069
:1026200058C08091000190910101009741F48DB74D
:102630009EB74091040150910501841B950BE8174A
:10264000F90708F055C0F0934E02E0934D02F901EE
:1026500071836083A0CF8D919C91119712966C909D
:10266000129713967C901397A815B90559F56C012C
:1026700042E0C40ED11CCA14DB0420F1AC014A199B
:102680005B09DA011296159780F06282738251839A
:102690004083D9016D937C93E114F10471F0D7016B
:1026A0001396FC93EE93129776CF22968C0F9D1F74
:1026B000F90191838083F301EFCFF0935002E0930F
:1026C0004F0269CF4816590608F42C017D01D30149
:1026D0009ACFCB010E9499117C01009749F0AE017D
:1026E000B8010E948013C8010E943512870153CFA0
:1026F00010E000E050CF81E090E0F8940C94991342
:10270000FB01DC0102C001900D9241505040D8F70E
:102710000895FB01DC018D91019080190110D9F31E
:10272000990B0895FB01DC0101900D920020E1F767
:062730000895F894FFCFAC
:1027360000005102800058585858585858313030C7
:1027460000000000E706EE0470070003B90616064F
:10275600A605A30AD207E305090739056C07010395
:1027660000000000A80108013501F50166014401D9
:10277600580100000000CE06080170076F07080B1D
:102786000000000098080D0A004400FE0064696716
:102796006974616C00616E616C6F670041006D6FFA
:1027A600646500696E707574006F75747075740079
:00000001FF
