:100000000C9461010C9489010C9489010C94890170
:100010000C9489010C9489010C9489010C94890138
:100020000C9489010C9489010C94FD150C946C16A8
:100030000C9489010C9489010C9489010C94890118
:100040000C9489010C9489010C9489010C94890108
:100050000C9489010C9489010C9489010C94F61874
:100060000C9489010C94C4180C949E180C9489016A
:100070000C9489010C9489010C9489010C948901D8
:100080000C9489010C9489010C9489010C948901C8
:100090000C9489010C9489010C9489010C948901B8
:1000A0000C9489010C9489010C94890100407A1008
:1000B000F35A00A0724E18090010A5D4E80000E819
:1000C0007648170000E40B54020000CA9A3B000077
:1000D00000E1F505000080969800000040420F0006
:1000E0000000A08601000000102700000000E803C7
:1000F000000000006400000000000A000000000092
:100100000100000000002C76D888DC674F0823DF50
:10011000C1DFAE59E1B1B796E5E3E453C63AE65123
:10012000997696E8E6C28426EB898C9B62ED407C4A
:100130006FFCEFBC9C9F40F2BAA56FA5F490055AE6
:100140002AF75C936B6CF9676DC11BFCE0E40D470B
:10015000FEF520E6B500D0ED902E0300943577052E
:100160000080841E080000204E0A000000C80C33E6
:100170003333330F986E12831141EF8D2114893B75
:10018000E65516CFFEE6DB18D1844B381BF77C1DF5
:10019000901DA4BBE424203284725E228100C9F148
:1001A00024ECA1E53D27302E302E302E30003132A8
:1001B000372E302E302E3100070605040100080AC4
:1001C0000B0C0D0900000000240027002A002D0060
:1001D000300000000000250028002B002E00310018
:1001E00004040404040304050202020204030202DC
:1001F00002020606060606060404020202040404BD
:100200000802011040804010204080408008020415
:10021000018040201002011080102040402000008A
:10022000000200090F0000030401000C00000000A0
:100230000000000000000000000000000072756E69
:100240002D6272696467650A000A000A00080B00E3
:10025000020202000009040000010202000005245D
:1002600000100105240101010424020605240600F2
:10027000010705810310004009040100020A000083
:100280000007050202400000070583024000000449
:1002900003090412010002EF0201404123418000E2
:1002A000010102030141726475696E6F204C4C4379
:1002B0000041726475696E6F2059756E00004019B7
:1002C000E71B11241FBECFEFDAE0DEBFCDBF24E075
:1002D000A4E8B2E001C01D92AB34B207E1F712E02E
:1002E000A0E0B1E0E8E8F6E402C005900D92A43881
:1002F000B107D9F711E0C0E6D1E004C02197FE01B3
:100300000E943121CF35D107C9F70E94D9190C9429
:1003100037230C940000FC018091DE02882311F148
:100320003FB7F89482E08093E9002091F200822F99
:1003300090E01816190614F481E090E0882339F053
:10034000289844E64093DD024091F1004083222347
:1003500039F02091F200211103C02BE62093E80030
:100360003FBF08958FEF9FEF08952FB7F89483E074
:100370008093E9009091E800892F807295FF04C076
:100380009091F20080E4891B2FBF08958091D502DF
:1003900081110DC082E08093D10284E08093D2026B
:1003A0001092D4021092D30281E08093D50281EDA5
:1003B00092E00895CF93DF931F92CDB7DEB76983A4
:1003C000DC01ED91FC910280F381E02D41E050E0F1
:1003D000BE016F5F7F4F09950F90DF91CF91089518
:1003E00083E08093E9008091F200882319F08AE38A
:1003F0008093E80008950E94B50190E00895CF939E
:10040000DF931F92CDB7DEB7FC018485958597FDFC
:1004100008C02FEF3FEF358724870F90DF91CF91F2
:100420000895CE0101960E948B01019719F48981EC
:1004300090E0F3CF8FEF9FEFF0CF0F931F93CF9309
:10044000DF931F92CDB7DEB78C01FC0184859585C3
:1004500097FF0BC0CE0101960E948B01019771F4AA
:10046000898190E0F80195878487F80184859585D6
:100470000F90DF91CF911F910F9108958FEF9FEF14
:10048000F1CFFC018485958597FD0BC09FB7F8944B
:1004900082E08093E9008091F2009FBF90E0019696
:1004A00008959FB7F89482E08093E9008091F2006C
:1004B0009FBF90E008954091CB025091CC022091D3
:1004C000C9023091CA0242175307B4F49091E80070
:1004D0009570E1F39091E80092FD19C08093F100CE
:1004E0008091CB029091CC0201968F739927892B32
:1004F00019F48EEF8093E8008091CB029091CC02AA
:1005000001969093CC028093CB0281E0089580E025
:100510000895EF92FF920F931F93CF93DF93F82EDE
:10052000192FE62E042F81E0860F880F0E945B02B0
:1005300083E00E945B02CF2DD12FEC0EFD2EF11C2B
:10054000CE15DF05B9F007FF13C0FE0184910E94AC
:100550005B02182F80E00E945B02812321968111AB
:10056000EFCFDF91CF911F910F91FF90EF90089502
:100570008881EDCF81E0F5CFDF92EF92FF920F936C
:100580001F93CF93DF93D82E8A01EB017B01E40EFA
:10059000F51ECE15DF0559F0D7FE12C0FE0184917D
:1005A0000E945B0221968111F4CF0FEF1FEFC8016B
:1005B000DF91CF911F910F91FF90EF90DF90089501
:1005C0008881EECF0F931F93CF93DF931F92CDB708
:1005D000DEB782E0898342E450E06DE472E080E8B7
:1005E0000E94BC020E94C601DC0112960D911C9172
:1005F0000115110589F0D801ED91FC910280F3817C
:10060000E02DBE016F5F7F4FC801099597FD04C0C3
:10061000F80100851185ECCF89810F90DF91CF9192
:100620001F910F910895615030F02091F100FC016D
:1006300020830196F8CF289884E68093DD02089500
:10064000EF92FF920F931F93CF93DF938C017B0167
:10065000D0E0C0E0F701EC0FFD1F6491662361F06C
:10066000D801ED91FC910190F081E02DC801099530
:10067000892B11F02196EECFCE01DF91CF911F9102
:100680000F91FF90EF900895AF92BF92CF92DF92BB
:10069000EF92FF920F931F93CF93DF936C017B0137
:1006A0008B01040F151FEB015E01AE18BF08C017C8
:1006B000D10759F06991D601ED91FC910190F0813B
:1006C000E02DC6010995892B79F7C501DF91CF91FE
:1006D0001F910F91FF90EF90DF90CF90BF90AF9060
:1006E0000895FC01538D448D252F30E0842F90E038
:1006F000821B930B541710F0CF960895019708951D
:10070000FC01918D828D981761F0A28DAE0FBF2FE5
:10071000B11D5D968C91928D9F5F9F73928F90E03B
:1007200008958FEF9FEF0895FC01918D828D9817AA
:1007300031F0828DE80FF11D858D90E008958FEFE7
:100740009FEF0895FC01918D228D892F90E0805CB0
:100750009F4F821B91098F73992708958BE393E034
:100760000E94A20321E0892B09F420E0822F089542
:1007700080E090E0892B29F00E94AE0381110C9457
:1007800000000895FC01A48DA80FB92FB11DA35A34
:10079000BF4F2C91848D90E001968F739927848FA1
:1007A000A689B7892C93A089B1898C9182748C9386
:1007B000938D848D981306C00288F389E02D808183
:1007C0008F7D80830895EF92FF920F931F93CF93B5
:1007D000DF93EC0181E0888F9B8D8C8D981319C07D
:1007E000E889F989808185FF14C09FB7F894EE8964
:1007F000FF896083E889F9898081827480839FBF43
:1008000081E090E0DF91CF911F910F91FF90EF90E9
:100810000895F62E0B8D10E00F5F1F4F0F731127F9
:10082000E02E8C8D8E110CC00FB607FCFACFE88934
:10083000F989808185FFF5CFCE010E94C203F1CFF7
:10084000EB8DEC0FFD2FF11DE35AFF4FF0829FB7A8
:10085000F8940B8FEA89FB8980818062CFCFCF9398
:10086000DF93EC01888D8823B9F0AA89BB89E889D8
:10087000F9898C9185FD03C0808186FD0DC00FB67E
:1008800007FCF7CF8C9185FFF2CF808185FFEDCFFC
:10089000CE010E94C203E9CFDF91CF910895282FA6
:1008A00030E0F901E25EFD4F9491F901E150FE4F15
:1008B000849120523E4FF9012491222309F430C043
:1008C0009923E9F091509F30D0F4E92FF0E0E559F9
:1008D000FB4F0C94312199049D047A0491049504F2
:1008E0007F047F047F04A004A604AA04AE04B40419
:1008F0007F04B804909180009F7790938000E22F4E
:10090000F0E0EE0FFF1FEE52FE4FA591B4919FB79E
:10091000F894EC91611132C080958E238C939FBF27
:100920000895909180009F7DE8CF90918000977FFF
:10093000E4CF94B59F7794BDE2CF94B59F7DFBCF74
:10094000909190009F7790939000D9CF90919000D4
:100950009F7DF9CF90919000977FF5CF9091C00047
:100960009F779093C000CBCF9091C0009F7DF9CF2F
:100970009091C200977F9093C200C1CF8E2BCECFB3
:10098000CF93DF9390E0FC01E150FE4F2491805221
:100990009E4FFC0184918823D1F090E0880F991F2D
:1009A000FC01EC53FE4FA591B491FC01EE52FE4FB9
:1009B000C591D49161110EC09FB7F8948C91E22F2C
:1009C000E0958E238C932881E223E8839FBFDF91FB
:1009D000CF9108958FB7F894EC91E22BEC938FBFF1
:1009E000F6CF823108F08251E82FF0E0E854FE4F54
:1009F000E49190917B008E2F880F880F80729F7DED
:100A0000892B80937B00E770E064E0937C00809109
:100A10007A00806480937A0080917A0086FDFCCF12
:100A2000809178009091790008953FB7F894809173
:100A3000990290919A02A0919B02B0919C0226B5D6
:100A4000A89B05C02F3F19F00196A11DB11D3FBF06
:100A5000BA2FA92F982F8827BC01CD01620F711DD5
:100A6000811D911D42E0660F771F881F991F4A95CF
:100A7000D1F708958F929F92AF92BF92CF92DF925B
:100A8000EF92FF924B015C010E9415056B017C0106
:100A90000E9415056C197D098E099F09683E7340F7
:100AA00081059105A8F321E0821A9108A108B108F7
:100AB00088EEC80E83E0D81EE11CF11C811491045D
:100AC000A104B10429F7FF90EF90DF90CF90BF9081
:100AD000AF909F908F9008958F929F92AF92BF9208
:100AE000CF92DF92EF92FF920F931F93CF93DF93FA
:100AF0006C017B018A0180910B01882309F45CC0A1
:100B00008091DE02882309F457C08091D00280FFD3
:100B100005C08091E00082608093E000E801B12C84
:100B20008AEFA82E93E0892E2AE3922E209711F4C3
:100B3000BB20D9F10E94B50181110AC0AA94AA2054
:100B4000D9F161E070E080E090E00E943A05EECFDC
:100B50008C171D0611F00CF08C2F9FB7F894809223
:100B6000E9002091E80025FD02C09FBFDFCF282FBC
:100B700030E0C21BD30BF701815020F0419140932C
:100B8000F100FACFE20EF31EBB2021F09092E800B4
:100B9000B12CEBCF8091E80085FDE7CF9092E80083
:100BA000BB24B394209709F3F3CF5D9884E6809338
:100BB000CF02101611063CF081E090E0F60193831D
:100BC000828310E000E0C801DF91CF911F910F9167
:100BD000FF90EF90DF90CF90BF90AF909F908F905D
:100BE00008952FB7F89460919502709196028091C4
:100BF0009702909198022FBF08950F931F93CF9360
:100C0000DF93EC010E94F105688779878A879B87CB
:100C1000E881F9810284F385E02DCE01099597FFE3
:100C200015C00E94F105088519852A853B85601B42
:100C3000710B820B930B0C811D812E813F816017FC
:100C400071078207930720F38FEF9FEFDF91CF911A
:100C50001F910F9108950895FB012785FC012787B7
:100C6000FB012685FC0126870895CF93DF93EC01D5
:100C70008D819E81DC01ED91FC910084F185E02D58
:100C800009951816190654F48D819E81DC01ED91A9
:100C9000FC910284F385E02D0995EACFDF91CF9195
:100CA00008958F929F92AF92BF92CF92DF92EF9270
:100CB000FF92CF93DF93EC016B010E94F1054B0192
:100CC0005C01F12CE12C8D819E81DC01ED91FC9188
:100CD0000284F385E02D099597FF0DC00E94F10570
:100CE000681979098A099B096C157D058E059F0590
:100CF00050F38FEF9FEFDF91CF91FF90EF90DF9058
:100D0000CF90BF90AF909F908F900895FC0123816A
:100D100034812627022E2295207F2025032E322F74
:100D200022952F700226269532272327220F220F85
:100D3000220F20253483238308952F923F924F92D0
:100D40005F926F927F928F929F92AF92BF92CF925B
:100D5000DF92EF92FF920F931F93CF93DF93CDB764
:100D6000DEB72A970FB6F894DEBF0FBECDBF9A87C5
:100D700089875B01290137011A01200E311E3A8251
:100D8000198288248A94982C9A01260F371F3E8353
:100D90002D83C801840D951D98878F83A985BA85F9
:100DA00018968C91B981B81708F040C1E985FA8589
:100DB0009482838285819681DC01ED91FC91019082
:100DC000F081E02D6FEF09956FEF89859A850E947C
:100DD0008606E985FA8585819681DC01ED91FC9195
:100DE0000190F081E02DA985BA856C910995E9857E
:100DF000FA856081CF010E948606A985BA8515967D
:100E00008D919C91DC01ED91FC910190F081E02DA0
:100E10006A8109956A8189859A850E948606E98595
:100E2000FA8585819681DC01ED91FC910190F0813C
:100E3000E02D622D0995622D89859A850E9486068E
:100E40008501E985FA8585819681DC01ED91FC912A
:100E50000190F081E02D2D813E8120173107E1F4D2
:100E60008201E985FA8585819681DC01ED91FC910D
:100E70000190F081E02D2F81388520173107C1F0D6
:100E8000D8016D918D010995F801319760818985AF
:100E90009A850E948606E5CFD8016D918D0109954E
:100EA000F8013197608189859A850E948606C9CFAD
:100EB000A985BA8514966C910995E985FA8585818D
:100EC0009681DC01ED91FC910190F081E02DA985E6
:100ED000BA8513966C91099568EC70E089859A85BE
:100EE0000E9451068F3F910509F092C0E985FA856D
:100EF000948283826FEFCF010E94860665E070E0E6
:100F000089859A850E945106A985BA856C916817D2
:100F1000190609F07DC0CD010E9486066AE070E0E6
:100F200089859A850E9451067C0197FD71C0682FC2
:100F300089859A850E9486066AE070E089859A858F
:100F40000E9451068C0197FD63C0682F89859A85A0
:100F50000E948606EC821B82EB81FC810E0F1F1F14
:100F6000F12CE12C65E070E089859A850E151F054E
:100F7000A1F0EC14FD0489F00E94510697FD09C010
:100F8000F301EE0DFF1D8083682F89859A850E94ED
:100F90008606FFEFEF1AFF0AE5CF0E9451067C019B
:100FA00097FD36C065E070E089859A850E945106FC
:100FB00097FD2EC0FE2CEE248E0D9F1DA985BA85AF
:100FC00013962D913C9114978217930709F58C91F4
:100FD0008F5F8C93C801C016D10608F4C6012A960B
:100FE0000FB6F894DEBF0FBECDBFDF91CF911F913A
:100FF0000F91FF90EF90DF90CF90BF90AF909F90B8
:101000008F907F906F905F904F903F902F900895BA
:10101000B981BF5FB98364E670E080E090E00E9430
:101020003A0589859A850E943506B8CE8FEF9FEFE5
:10103000D6CFAF92BF92CF92DF92EF92FF920F93F3
:101040001F93CF93DF9300D0CDB7DEB7FC019B0198
:101050005A018785882301F18CE6898386858A83F6
:10106000D12CC12CF12CE12C8A0142E050E0BE01D0
:101070006F5F7F4F848595850E949D06C5010F9007
:101080000F90DF91CF911F910F91FF90EF90DF9024
:10109000CF90BF90AF900895B12CA12CEFCFCF92FD
:1010A000DF92EF92FF920F931F936801790110E096
:1010B00000E030E020E00E949D061F910F91FF901C
:1010C000EF90DF90CF9008950F931F93CF93DF930E
:1010D00000D01F92CDB7DEB782E789838091FB03F2
:1010E0008A8301E010E09E012D5F3F4F42E050E017
:1010F000BE016F5F7F4F8091F9039091FA030E94C8
:101100004F0881E09B81913009F080E00F900F90B3
:101110000F90DF91CF911F910F910895EF92FF9261
:101120000F931F93CF93DF9300D01F92CDB7DEB7FD
:10113000FC012289211118C07C01138A8FE4898364
:1011400080E48B8386858A839F012C5E3F4F00E479
:1011500010E043E050E0BE016F5F7F4F84859585CE
:101160000E944F08F701828B0F900F900F90DF9134
:10117000CF911F910F91FF90EF900895CF93DF9340
:10118000EC010E948E088A89882341F08B89C80F60
:10119000D11D8C8990E0DF91CF9108958FEF9FEF63
:1011A000FACFCF93DF93EC010E948E088A898823BF
:1011B00069F081508A8B8B8991E0980F9B8BC80FC7
:1011C000D11D8C8990E0DF91CF9108958FEF9FEF33
:1011D000FACFCF93DF93EC010E948E088A8990E0CA
:1011E000DF91CF910895EF92FF920F931F93CF93CA
:1011F000DF9300D01F92CDB7DEB7DC011F962C9194
:101200001F97222301F17C01ED91FC910084F1856F
:10121000E02D0995892B11F58CE48983F7018685EA
:101220008A8301E010E09E012D5F3F4F42E050E0D5
:10123000BE016F5F7F4F848595850E944F0881E0D6
:101240009B81913009F080E00F900F900F90DF911B
:10125000CF911F910F91FF90EF90089581E0F4CF0F
:10126000EF92FF920F931F93CF93DF9300D01F92C3
:10127000CDB7DEB7FC012089211118C07C01118A8D
:101280008BE4898380E48B8386858A839F012E5E2D
:101290003F4F00E410E043E050E0BE016F5F7F4F3E
:1012A000848595850E944F08F701808B0F900F90E1
:1012B0000F90DF91CF911F910F91FF90EF900895C4
:1012C000CF93DF93EC010E9430098889882341F095
:1012D0008989C80FD11D8A8990E0DF91CF91089547
:1012E0008FEF9FEFFACF0F931F93CF93DF93EC0114
:1012F0000E94F105688779878A879B87CE010E94C3
:10130000600997FF15C00E94F105088519852A8597
:101310003B85601B710B820B930B0C811D812E8111
:101320003F81601771078207930740F38FEF9FEFAC
:10133000DF91CF911F910F910895CF92DF92EF929D
:10134000FF920F931F93CF93DF93EC016A017B0110
:1013500010E000E08889811106C0CE010E943009AA
:101360008889882399F0E98981E08E0F898B0F5F46
:101370001F4FEC0FFD2FF11D8289F70181937F0133
:1013800088898150888B0C151D0520F3C801DF91D9
:10139000CF911F910F91FF90EF90DF90CF90089524
:1013A000CF93DF93EC010E9430098889882369F08C
:1013B0008150888B898991E0980F998BC80FD11D36
:1013C0008A8990E0DF91CF9108958FEF9FEFFACF58
:1013D0008F929F92AF92BF92CF92DF92EF92FF9245
:1013E0000F931F93CF93DF938C01C8010E94730961
:1013F000FC0197FD89C08D32910509F04CC0812C0C
:10140000912C80E8A82E8FE3B82EC12CD12C760128
:10141000C0E0D0E0E130F10559F1ED32F10509F419
:1014200046C0EE32F10509F444C0CF01C0970A97D7
:10143000F8F4AAE0B0E0A70196010E94A41F6F0192
:10144000FF0FEE08FF08C60ED71EE81EF91E80E348
:10145000C81AD108E108F108CC2351F02DEC3CEC7E
:101460004CEC5DE3C501B4010E94E61E4B015C013A
:10147000C8010E94D009C8010E947309FC01C097ED
:101480000A9740F2EE32F105B1F4CC2319F2CD2FD8
:10149000D11117C024C0C0970A9708F4B0CFEE321C
:1014A000F10509F4ACCFC8010E94D0099ECFD1E06C
:1014B000DFCFC1E0DDCFE130F10509F4ABCFDD23B3
:1014C00041F0F094E094D094C094C11CD11CE11C74
:1014D000F11CC701B6010E94871ECC2341F0C70151
:1014E000B6010E94871EA50194010E94E61EDF91AD
:1014F000CF911F910F91FF90EF90DF90CF90BF9011
:10150000AF909F908F90089560E070E0CB01EFCF97
:10151000CF93DF93EC010E943009888990E0DF913E
:10152000CF9108950F931F9310E000E030E020E08A
:101530000E944F081F910F910895CF93DF9300D021
:10154000CDB7DEB78091FE03882381F087E78983DA
:101550008091FB038A8342E050E0BE016F5F7F4FC2
:101560008091F9039091FA030E94920A1092FE036F
:101570000F900F90DF91CF910895CF93DF9300D01C
:101580001F92CDB7DEB729E42983FC0126852A8383
:101590006B8343E050E0BE016F5F7F4F848595858C
:1015A0000E94920A81E090E00F900F900F90DF91DF
:1015B000CF910895CF93DF9300D0CDB7DEB722E669
:1015C00029836A8342E050E0BE016F5F7F4FFC01D8
:1015D000848195810E94920A81E090E00F900F90A3
:1015E000DF91CF910895CF93DF9300D01F92CDB7B5
:1015F000DEB7FC01278590E080E0222381F08CE6B5
:10160000898386858A836B8343E050E0BE016F5FE8
:101610007F4F848595850E94920A81E090E00F902B
:101620000F900F90DF91CF9108950F931F93CF9359
:10163000DF9300D0CDB7DEB78C01FC01878588230E
:1016400069F08AE6898386858A8342E050E0BE019C
:101650006F5F7F4F848595850E94920AF8011786F7
:10166000108A118A0F900F90DF91CF911F910F91E7
:101670000895DC01FB018281938113969C938E93E4
:101680001297448155816681778114964D935D93BD
:101690006D937C9317974085518562857385189665
:1016A0004D935D936D937C931B9780E291E011962F
:1016B0009C938E93848595851D969C938E931C9701
:1016C00086851E968C931E9787851F968C931F97F1
:1016D000808950968C935097818951968C9351971D
:1016E00080E47296529601900D928A95E1F70895E2
:1016F000FC0187850895089590E080E00895FB013E
:1017000001900020E9F73197AF01461B570BDC0130
:10171000ED91FC910280F381E02D09948F929F92CC
:10172000AF92BF92EF92FF920F931F93CF93DF93ED
:10173000CDB7DEB7A1970FB6F894DEBF0FBECDBF11
:101740007C01FA01CB0119A2223008F42AE08E01B3
:101750000F5D1F4F822E912CB12CA12CBF01A50132
:1017600094010E940F21F901CA016A300CF5605DF5
:10177000D8016E938D01232B242B252B79F790E034
:1017800080E0109721F0BD01C7010E947F0BA19658
:101790000FB6F894DEBF0FBECDBFDF91CF911F9182
:1017A0000F91FF90EF90BF90AF909F908F90089512
:1017B000695CDECF8F929F92AF92BF92CF92DF9201
:1017C000EF92FF920F931F93CF93DF937C01EB0176
:1017D0006C0182E0C80ED11C4701E5E08E0E911C21
:1017E00010E000E0F60141916F0150E070E060E030
:1017F0002AE0CE010E948E0B5C01E881F981019004
:10180000F081E02D6EE2CE0109958A0D9B1D080F37
:10181000191FC814D90431F7F701458150E070E071
:1018200060E02AE0CE010E948E0B800F911FDF91B5
:10183000CF911F910F91FF90EF90DF90CF90BF90CD
:10184000AF909F908F9008950F931F93CF93DF9346
:10185000EC010E947F0B8C016DE871E0CE010E94CB
:101860007F0B800F911FDF91CF911F910F910895F2
:10187000AF92BF92CF92DF92EF92FF920F931F939E
:10188000CF93DF9300D000D000D01F92CDB7DEB74A
:101890005C019B0183E489835A834B83FB010190A4
:1018A0000020E9F731978F01061B170BCC24C39456
:1018B000D12CCE0106967C0143E050E0BE016F5F63
:1018C0007F4FD5011C968D919C910E949D06892B7E
:1018D000B9F18E81F501868793E69C838D8301E0C3
:1018E00010E09E01295F3F4F42E050E0BE016C5F77
:1018F0007F4FD5011C968D919C910E944F088F813E
:10190000882339F061E070E080E090E00E943A05C1
:10191000E6CF81E0F50187870190F081E02D068810
:10192000F789E02DC501099581111DC0D501ED9103
:10193000FC910488F589E02DC5010995F50116860D
:1019400090E080E027960FB6F894DEBF0FBECDBFC3
:10195000DF91CF911F910F91FF90EF90DF90CF908B
:10196000BF90AF90089581E090E0ECCF0E941923E2
:10197000FC0124813581232B39F421E0FB01808196
:10198000882349F020E007C0808191810E942723AD
:1019900021E0892BB9F7822F08950F931F93CF93DE
:1019A000DF93EC0188819981009759F02A813B816E
:1019B0002617370730F081E0DF91CF911F910F910B
:1019C00008958B016F5F7F4F0E945C22009759F052
:1019D000998388831B830A832C813D81232B59F7AC
:1019E000FC011082E8CF80E0E7CFEF92FF920F93E7
:1019F0001F93CF93DF936115710541F480E0DF9170
:101A0000CF911F910F91FF90EF90089541155105CF
:101A1000B1F07B01EC010C811D81040F151FB80191
:101A20000E94CD0C882351F3288139818C819D81BE
:101A3000B701820F931F0E9430231D830C8381E026
:101A4000DECFFB0101900020E9F73197AF01461B83
:101A5000570B0C94F50CEF92FF920F931F93CF93BB
:101A6000DF9300D000D0CDB7DEB77C01862F4AE0EF
:101A70008E010F5F1F4FB80190E00E94141CF80107
:101A800001900020E9F73197AF01401B510BB801DD
:101A9000C7010E94F50C0F900F900F900F90DF91EF
:101AA000CF911F910F91FF90EF900895CF93DF9307
:101AB00000D0CDB7DEB769831A8241E050E0BE01A5
:101AC0006F5F7F4F0E94F50C0F900F90DF91CF91C9
:101AD0000895CF93DF93EC0188819981009711F0ED
:101AE0000E94D321198218821D821C821B821A82B5
:101AF000DF91CF910895EF92FF920F931F93CF93B1
:101B0000DF93EC017B018A01BA010E94CD0C8111A7
:101B10000BC0CE010E94690DCE01DF91CF911F91C4
:101B20000F91FF90EF9008951D830C83B70188817A
:101B300099810E943023F0CFEF92FF920F931F9371
:101B4000CF93DF93CDB7DEB7A1970FB6F894DEBF82
:101B50000FBECDBF7C01CB01BA01F701118210820B
:101B600013821282158214828E010F5F1F4F22E0B2
:101B700044E00E94EF1B0097C9F0FC010190002097
:101B8000E9F73197AF01481B590BBC01C7010E940F
:101B90007B0DA1960FB6F894DEBF0FBECDBFDF91CF
:101BA000CF911F910F91FF90EF900895C7010E9470
:101BB000690DEFCFFC01118210821382128215820F
:101BC0001482FB0101900020E9F73197AF01461B19
:101BD000570B0C947B0DEF92FF920F931F93CF93B3
:101BE000DF93EC017B01042F6FE871E00E94DA0DB6
:101BF000C7010E94FD05002E000C110B97FD0BC0C4
:101C00000817190741F0682FCE010E94560DC70131
:101C10000E94FD05F3CFCE01DF91CF911F910F916F
:101C2000FF90EF900895FC0180819181009711F061
:101C30000C94D3210895EF92FF920F931F93CF93AB
:101C4000DF9300D000D000D01F92CDB7DEB7FB01EC
:101C500000811181FC01E080F18060E971E0CE013A
:101C600001960E94DA0DE114F10429F0B701CE01CA
:101C700001960E94210D62E971E0CE0101960E9459
:101C8000210D0115110529F0B801CE0101960E9420
:101C9000210D4D815E8169817A8101E010E09E0114
:101CA000295F3F4F82EE93E00E944F08CE010196DC
:101CB0000E94130E27960FB6F894DEBF0FBECDBF5D
:101CC000DF91CF911F910F91FF90EF900895CF92E8
:101CD000DF92EF92FF920F931F93CF93DF9300D089
:101CE00000D000D0CDB7DEB77C018B016A016FE870
:101CF00071E0CE0101960E94DA0D62E170E0CE0142
:101D000001960E94CD0CD80112966C91CE010196DD
:101D10000E942B0D6EE2CE0101960E94560DF80135
:101D20006381CE0101960E942B0D6EE2CE010196D9
:101D30000E94560DD80114966C91CE0101960E9416
:101D40002B0D6EE2CE0101960E94560DF8016581C1
:101D5000CE0101960E942B0D69817A81D701ED9108
:101D6000FC910088F189E02DA601C70109958C013D
:101D7000CE0101960E94130EC80126960FB6F89464
:101D8000DEBF0FBECDBFDF91CF911F910F91FF90AE
:101D9000EF90DF90CF900895AF92BF92CF92DF92F5
:101DA000EF92FF920F931F93CF93DF93CDB7DEB7E0
:101DB0002A970FB6F894DEBF0FBECDBF5C018EE44C
:101DC0008F83F50186819781988789871A82198286
:101DD0001C821B821E821D8269E070E0CE0101968A
:101DE0000E94CD0C811144C0CE0101960E94690D64
:101DF000F501818581110CC067E070E0CE0101968C
:101E00000E94CD0C81113FC0CE0101960E94690D48
:101E10000D811E8129813A81CC24C394D12CCE011D
:101E20000A967C0143E050E0BE01695F7F4FF501F7
:101E3000848195810E949D0681E09A85913009F008
:101E400080E0F5018087CE0101960E94130E2A964C
:101E50000FB6F894DEBF0FBECDBFDF91CF911F91BB
:101E60000F91FF90EF90DF90CF90BF90AF900895CB
:101E700089E090E09E838D836EEA71E089819A818A
:101E80000E940D1CB5CF87E090E09E838D8366EAAB
:101E900071E089819A810E940D1CBACF4F925F92A6
:101EA0006F927F928F929F92AF92BF92CF92DF926A
:101EB000EF92FF920F931F93CF93DF93CDB7DEB7CF
:101EC000C651D1400FB6F894DEBF0FBECDBF4091D2
:101ED000C5025091C6026091C7027091C802CE013E
:101EE0008D5A9F4F0E949C0D64E971E0CE010196CE
:101EF0000E94DA0DBE016D5A7F4FCE0101960E94FD
:101F00001B0ECE0101960E94130ECE018D5A9F4FDB
:101F10000E94130E409190025091910260919202A2
:101F200070919302CE018D5A9F4F0E949C0D60E6E6
:101F300072E0CE0101960E94DA0DBE016D5A7F4F0C
:101F4000CE0101960E941B0ECE0101960E94130E37
:101F5000CE018D5A9F4F0E94130E40918C025091DA
:101F60008D0260918E0270918F02CE018D5A9F4F2B
:101F70000E949C0D6DE971E0CE0101960E94DA0D80
:101F8000BE016D5A7F4FCE0101960E941B0ECE01FD
:101F900001960E94130ECE018D5A9F4F0E94130E80
:101FA0004091A1025091A2026091A3027091A402FB
:101FB000CE018D5A9F4F0E949C0D63EA71E0CE01C5
:101FC00001960E94DA0DBE016D5A7F4FCE01019637
:101FD0000E941B0ECE0101960E94130ECE018D5A57
:101FE0009F4F0E94130E4091C1025091C202609116
:101FF000C3027091C402CE018D5A9F4F0E949C0D66
:102000006AEA71E0CE0101960E94DA0DBE016D5AB6
:102010007F4FCE0101960E941B0ECE0101960E94B9
:10202000130ECE018D5A9F4F0E94130E4091BD0298
:102030005091BE026091BF027091C002CE018D5AD4
:102040009F4F0E949C0D6CEA71E0CE0101960E94A8
:10205000DA0DBE016D5A7F4FCE0101960E941B0E14
:10206000CE0101960E94130ECE018D5A9F4F0E9401
:10207000130E4091B9025091BA026091BB02709167
:10208000BC02CE018D5A9F4F0E949C0D60E971E009
:10209000CE0101960E94DA0DBE016D5A7F4FCE012E
:1020A00001960E941B0ECE0101960E94130ECE01D6
:1020B0008D5A9F4F0E94130E0E9464088111A1C087
:1020C0006EEA71E0CE0101960E94DA0D0E949D0A2F
:1020D00086E090E00E9437217C01DC0111961C9281
:1020E0001E9213961C921E92129715961C921E9287
:1020F000149769817A816115710521F04D815E81A6
:102100000E947B0DF092FD03E092FC03CE0101964C
:102110000E94130E63EB71E0CE0101960E94DA0D6E
:1021200062E971E08091FC039091FD030E94210D12
:102130004D815E8169817A818091FC039091FD03DC
:102140000E94F50CCE0101960E94130E82E5649662
:102150008FAF6497E091FC03F091FD03048115813A
:102160002081318182E0C82ED12CFE0131967F0181
:1021700041E050E0BE016D5A7F4F8091F90390918C
:10218000FA030E949D068A818093FB03E090FC0382
:10219000F090FD03E114F10431F0C7010E94130E29
:1021A000C7010E94D3211092FD031092FC03898184
:1021B000811103C081E08093FE030E94640888239C
:1021C00039F064E670E080E090E00E943A05F5CFD7
:1021D00087E564968FAF64978091FB0365968FAF18
:1021E000659702E010E09E012F5F3F4F42E050E014
:1021F000BE016D5A7F4F8091F9039091FA030E94BE
:102200004F088DEE93E00E948E088091FF03882393
:10221000F9F04AE06DEE73E0CE018D5A9F4F0E94B7
:10222000EB0D66EC71E0CE0101960E94DA0DBE0165
:102230006D5A7F4FCE0101960E941B0ECE01019672
:102240000E94130ECE018D5A9F4F0E94130ED9CFBC
:102250008BE664968FAF649701E010E09E012F5FDC
:102260003F4F41E050E0BE016D5A7F4F8091DC034B
:102270009091DD030E944F08892B09F0F3C3C955E3
:10228000DF4F19821882C75AD04088EE93E0A0E051
:10229000B0E0C755DF4F88839983AA83BB83C95AAF
:1022A000D04080E291E0CB55DF4F99838883C55AB7
:1022B000D04082EE93E0CF54DF4F99838883C15B97
:1022C000D040CD54DF4F1882C35BD040CC54DF4F99
:1022D0001882C45BD040CB54DF4F1882C55BD0401E
:1022E000CC54DF4F8881C45BD040882309F4DFC120
:1022F000BE016B557F4FCE018D5A9F4F0E94390B07
:102300004FE2BE016D5A7F4FCE01875F9E4F0E9404
:10231000EB0D6EEC71E0CE01875F9E4F0E94B80C12
:10232000882389F1BE016D5A7F4FCE0101960E942C
:10233000390B63ED71E0CE0101960E94240C63EE2F
:1023400071E0CE0101960E94240C61E072E0CE01A2
:1023500001960E94240C65E372E0CE0101960E9472
:10236000240C62E672E0CE0101960E94240C6DE816
:1023700071E0CE0101960E947F0B64E772E0CE010E
:1023800001960E94240C6DE772E0CE01875F9E4F9C
:102390000E94B80C882309F480C1BE016D5A7F4F9A
:1023A000CE0101960E94390B4FE2BE016F5F7F4F55
:1023B000CE018D5F9E4F0E94EB0D64E971E0CE016E
:1023C0008D5F9E4F0E94B80C8823D9F1CE010196F3
:1023D0000E94E8096B017C0120E030E0A9010E9425
:1023E000801E882341F0C092C502D092C602E092BE
:1023F000C702F092C8024091C5025091C602609196
:10240000C7027091C802CE0189509F4F0E949C0D57
:1024100064E971E0CE0183509F4F0E94DA0DBE0146
:1024200069507F4FCE0183509F4F0E941B0ECE01FB
:1024300083509F4F0E94130ECE0189509F4F0E94E0
:10244000130E6AEA71E0CE018D5F9E4F0E94B80CB8
:10245000882309F46BC0CE0101960E94E8096B0144
:102460007C0120E030E0A9010E94801E8823C1F198
:10247000C092C102D092C202E092C302F092C402A2
:10248000C092B502D092B602E092B702F092B802C2
:102490002091BD023091BE024091BF025091C00216
:1024A000C701B6010E9462206093B1027093B2022C
:1024B0008093B3029093B402A70196016091B90290
:1024C0007091BA028091BB029091BC020E94E61EFC
:1024D0006093AD027093AE028093AF029093B0020E
:1024E0004091C1025091C2026091C3027091C40236
:1024F000CE0189509F4F0E949C0D6AEA71E0CE0187
:1025000083509F4F0E94DA0DBE0169507F4FCE016C
:1025100083509F4F0E941B0ECE0183509F4F0E94FD
:10252000130ECE0189509F4F0E94130E6CEA71E08A
:10253000CE018D5F9E4F0E94B80C882309F44FC0D6
:10254000CE0101960E94E8096B017C0120E030E099
:10255000A9010E94801E8823E1F0C092BD02D092A2
:10256000BE02E092BF02F092C002A7019601609104
:10257000C1027091C2028091C3029091C4020E9474
:1025800062206093B1027093B2028093B302909381
:10259000B4024091BD025091BE026091BF027091A1
:1025A000C002CE0189509F4F0E949C0D6CEA71E0E1
:1025B000CE0183509F4F0E94DA0DBE0169507F4FBC
:1025C000CE0183509F4F0E941B0ECE0183509F4F20
:1025D0000E94130ECE0189509F4F0E94130E60E996
:1025E00071E0CE018D5F9E4F0E94B80C882309F4E4
:1025F0004FC0CE0101960E94E8096B017C0120E0EA
:1026000030E0A9010E94801E8823E1F0C092B90247
:10261000D092BA02E092BB02F092BC02A7019601EE
:102620006091C1027091C2028091C3029091C40274
:102630000E94E61E6093AD027093AE028093AF02DB
:102640009093B0024091B9025091BA026091BB02DE
:102650007091BC02CE0189509F4F0E949C0D60E991
:1026600071E0CE0183509F4F0E94DA0DBE01695088
:102670007F4FCE0183509F4F0E941B0ECE0183508F
:102680009F4F0E94130ECE0189509F4F0E94130E40
:10269000CE018D5F9E4F0E94130ECE01875F9E4F2D
:1026A0000E94130ECE018B559F4F0E94150B62E3C3
:1026B00070E080E090E00E943A058091A70290913E
:1026C000A80201969093A8028093A702E090A50229
:1026D000F090A602FFEFEF1AFF0AF092A602E09236
:1026E000A50283E10E94F10483E10E94F104BC0190
:1026F000990F880B990B0E94871E24E431E84BE563
:102700005FE30E94E61E2FE23EE747E553E40E94A6
:10271000F51F4B015C0160919D0270919E028091BA
:102720009F029091A0020E94871E9B01AC01C501EF
:10273000B4010E94F61F0E94D42060939D02709302
:102740009E0280939F029093A0022AE0E216F10479
:1027500009F065C10E94871E20E030E040E251E4AC
:102760000E9462206B017C01C0929002D092910283
:10277000E0929202F09293020E94F105C15FDE4F57
:10278000688379838A839B83CF50D140809188026C
:1027900090918902A0918A02B0918B02C15FDE4FB5
:1027A000288139814A815B81CF50D140281B390B68
:1027B0004A0B5B0BCA01B90128EE33E040E050E060
:1027C0000E940F21CA01B9010E94851E2B013C0104
:1027D00020E030E0A9010E940A2118160CF0FBC08D
:1027E000A70196016091C5027091C6028091C7024F
:1027F0009091C8020E94F51F6B017C01C0928C026F
:10280000D0928D02E0928E02F0928F02A30192018B
:102810000E94E61E2091A9023091AA024091AB02CB
:102820005091AC020E94F61F6093A9027093AA0215
:102830008093AB029093AC028090B1029090B20270
:10284000A090B302B090B402A50194010E94E61ECC
:1028500020E030E04FE753E40E940A21181684F488
:10286000A501940160E070E08FE793E40E9462208C
:102870006093A9027093AA028093AB029093AC027A
:102880002091A9023091AA024091AB025091AC0272
:10289000C501B4010E94E61E20E030E0A9010E94BB
:1028A000801E87FF08C01092A9021092AA021092FF
:1028B000AB021092AC022091B5023091B602409169
:1028C000B7025091B802C701B6010E94E61ECD5E64
:1028D000DE4F688379838A839B83C351D1402091E3
:1028E000A9023091AA024091AB025091AC02C501FD
:1028F000B4010E94E61E9B01AC01CD5EDE4F6881F3
:1029000079818A819B81C351D1400E94F61F4B017E
:102910005C012091840230918502409186025091A1
:102920008702C701B6010E94F51FA30192010E9410
:1029300062202091AD023091AE024091AF025091E1
:10294000B0020E94E61E9B01AC01C501B4010E94C9
:10295000F61F4B015C0120E030E04FE753E40E949A
:102960000A2118160CF4ADC08092A1029092A20226
:10297000A092A302B092A40220E030E0A9016091ED
:10298000A1027091A2028091A3029091A4020E94E0
:10299000801E87FF08C01092A1021092A20210921E
:1029A000A3021092A402C0928402D0928502E09207
:1029B0008602F0928702C15FDE4F88819981AA81E9
:1029C000BB81CF50D1408093880290938902A0931D
:1029D0008A02B0938B026091A1027091A202809151
:1029E000A3029091A4020E94D4206B015B0161E0DC
:1029F00089E00E94C004C114D10409F06FC060E0F6
:102A000089E00E944F0410929D0210929E02109243
:102A10009F021092A0021092A6021092A50280912D
:102A2000A7029091A8028436910521F41092A80281
:102A30001092A702CA5EDE4F0FB6F894DEBF0FBE3B
:102A4000CDBFDF91CF911F910F91FF90EF90DF905D
:102A5000CF90BF90AF909F908F907F906F905F903E
:102A60004F9008958981C955DF4F19821882C75A3E
:102A7000D04048EE53E060E070E0C755DF4F488338
:102A800059836A837B83C95AD04020E231E0CB5519
:102A9000DF4F39832883C55AD04022EE33E0CF542C
:102AA000DF4F39832883C15BD040CD54DF4F88830B
:102AB000C35BD04081E0CC54DF4F8883C45BD040FF
:102AC0000ACC80E090E0AFE7B3E48093A10290935A
:102AD000A202A093A302B093A4024ECF9FEFC91607
:102AE000D10411F461E08CCFE7E2F2E0E491E1502F
:102AF000EF3008F07CC0F0E0E058FA4E0C94312141
:102B00008F1594159915A315AD15F715F715F7152C
:102B1000B715C115CB15D515E215F715EA1584B50E
:102B2000806884BDC7BC6FCF84B5806284BDC8BCDB
:102B30006ACF80918000806880938000D092890065
:102B4000C092880060CF8091800080628093800076
:102B5000D0928B00C0928A0056CF8091800088600E
:102B600080938000D0928D00C0928C004CCF8091D9
:102B70009000806880939000D0929900C092980055
:102B800042CF80919000806280939000D0929B0011
:102B9000C0929A0038CF8091900088608093900016
:102BA000D0929D00C0929C002ECF8091C000806882
:102BB0008093C0008091C0008F7B8093C000C09242
:102BC000CF0021CF8091C00080628093C000C0926E
:102BD000D00019CF8091C20088608093C20080919C
:102BE000C2008B7F8093C200C092D2000CCFA0E8BD
:102BF000AA16B1040CF076CF02CF1F920F920FB637
:102C00000F9211248F939F938091E1009091E100A6
:102C1000937F9093E10083FF0FC01092E90091E051
:102C20009093EB001092EC0092E39093ED001092E1
:102C3000DE0298E09093F00082FF22C093E0909330
:102C4000E9009091F200992319F09AE39093E8003B
:102C50009091CF02992341F09091CF02915090939F
:102C6000CF02911101C05D9A9091DD02992341F04C
:102C70009091DD0291509093DD02911101C0289A4C
:102C800084FF18C08091E2008E7E81608093E20014
:102C90008091E1008F7E8093E1008091D0028E7E52
:102CA00080618093D0029F918F910F900FBE0F9003
:102CB0001F90189580FFF7CF8091E2008E7E806193
:102CC0008093E2008091E1008E7E8093E10080910C
:102CD000D0028E7E8160E5CF1F920F920FB60F92C9
:102CE0001124CF92DF92EF92FF920F931F932F93B5
:102CF0003F934F935F936F937F938F939F93AF9384
:102D0000BF93EF93FF93CF93DF93CDB7DEB76C976D
:102D1000DEBFCDBF1092E9008091E80083FF25C09F
:102D200068E0CE0145960E94130382EF8093E8008D
:102D30008D8987FF39C09091E80090FFFCCF982FD4
:102D4000907609F034C19E894F89588D2F89F88C6F
:102D5000911131C0803861F58091CE028093F100ED
:102D60001092F1008EEF8093E8006C960FB6F89405
:102D7000DEBF0FBECDBFDF91CF91FF91EF91BF912D
:102D8000AF919F918F917F916F915F914F913F9103
:102D90002F911F910F91FF90EF90DF90CF900F90A8
:102DA0000FBE0F901F9018959EEF9093E800C7CF2D
:102DB0001092F100D5CF913059F48111D3CF413029
:102DC000510581F68091CE028D7F8093CE02CACFCD
:102DD000933049F48111C6CF4130510519F68091E5
:102DE000CE028260F2CF953041F48091E80080FFFE
:102DF000FCCF20682093E300B5CF963009F0A9C03E
:102E00000B8D1C8D22E01092E9001092CC021092E2
:102E1000CB02F2122EC01092CA021092C9020E9476
:102E2000E2021F8299E09983FA8291E09E8390EA00
:102E300098879AEF99872091CB023091CC02275F37
:102E40003F4F3C832B838D831092E9001092CC027C
:102E50001092CB021093CA020093C90249E050E0DD
:102E6000BE016F5F7F4F80E00E94BC020E94E202C1
:102E700079CF1093CA020093C9020E94C601DC01F7
:102E800012960D911C910115110509F451C1D8013B
:102E9000ED91FC910480F581E02DBE016B5E7F4FCA
:102EA000C8010995009709F03EC1F8010085118518
:102EB000EACFF3E0FF120EC08F89882309F440C0E7
:102EC000823061F440E86BE081EB92E00E9489027D
:102ED000811148CF81E28093EB0047CF813029F404
:102EE00040E86BE085EA92E0F1CF833099F70E94E9
:102EF000C601DC011296ED90FC908E010F5F1F4F12
:102F00006801E114F10479F0D701ED91FC9106809C
:102F1000F781E02DB801C7010995080F111DF701D0
:102F2000E084F184EECFD8011C92F60101900020DC
:102F3000E9F73197BF016C197D0940E0C601C6CFA2
:102F40006FE872E0FB01449150E080E80E94BC020F
:102F500009CF973009F4BECF983021F481E08093F7
:102F6000F10000CF993009F0FDCE837009F0B2CFA7
:102F7000EDE3F1E081E031E096E32191222371F06D
:102F80008093E9003093EB00DF0111972C9120939F
:102F9000EC009093ED008F5F873079F78EE7809398
:102FA000EA001092EA008F898093DE02DBCE8B8DDF
:102FB0009C8D1092E9001092CC021092CB0290935B
:102FC000CA028093C902898D811192C08E899D8920
:102FD000913A49F4813209F07DCF47E050E064E056
:102FE00071E080E0B3CF913209F074CF833269F49D
:102FF0008F89988DB0E0A0E080930001909301014B
:10300000A0930201B0930301ADCE803269F48091A8
:10301000E80082FFFCCF67E084E091E00E941303A8
:103020008BEF8093E8009ECE823209F09BCE8F8991
:1030300080930B01EEEFFFE7859194918B3F9C4DC0
:1030400051F1E0E0F8E08091040190910501A09138
:103050000601B0910701803B9440A105B105F1F450
:1030600080910B0180FD1AC0EE3F8AE0F80789F5D8
:1030700087E797E791838083809160008093CD02FA
:1030800088E19BE00FB6F894A895809360000FBE8E
:103090009093600067CEEEEFFAE0D5CF808191810A
:1030A0008737974709F05ECEA895809160008861C8
:1030B000809360008091CD0280936000EE3F2AE013
:1030C000F20789F08091FE0A9091FF0A9183808334
:1030D00049CE808191818737980751F29093FF0AFA
:1030E0008093FE0AC5CF1092FF0A1092FE0A3ACED4
:1030F0000E94C601DC0112960D911C91011511056B
:1031000009F4E8CED801ED91FC910190F081E02D19
:10311000BE016B5E7F4FC8010995811123CEF80176
:1031200000851185EBCF181619060CF41BCED2CEF4
:10313000F1E0FF12BECE63E972E004CF1F920F925E
:103140000FB60F9211242F933F934F935F936F937A
:103150007F938F939F93AF93BF93EF93FF938BE3F3
:1031600093E00E94C203FF91EF91BF91AF919F91B5
:103170008F917F916F915F914F913F912F910F9020
:103180000FBE0F901F9018951F920F920FB60F92BF
:1031900011242F938F939F93EF93FF93E0914B0311
:1031A000F0914C038081E0915103F091520382FD34
:1031B0001BC09081809154038F5F8F7320915503C2
:1031C000821741F0E0915403F0E0E55CFC4F958FED
:1031D00080935403FF91EF919F918F912F910F90C6
:1031E0000FBE0F901F9018958081F4CF1F920F9201
:1031F0000FB60F9211242F933F938F939F93AF930A
:10320000BF938091950290919602A0919702B09100
:1032100098023091940223E0230F2D3758F5019640
:10322000A11DB11D20939402809395029093960264
:10323000A0939702B09398028091990290919A027C
:10324000A0919B02B0919C020196A11DB11D80939B
:10325000990290939A02A0939B02B0939C02BF9113
:10326000AF919F918F913F912F910F900FBE0F9033
:103270001F90189526E8230F0296A11DB11DD2CFED
:10328000EFEDF2E01382128248EE53E060E070E06E
:10329000448355836683778387E491E091838083B9
:1032A0008FEF9FEF95878487EBE3F3E01382128221
:1032B000448355836683778389E591E09183808396
:1032C0008DEC90E0958784878CEC90E097878687DB
:1032D00088EC90E0918B808B89EC90E0938B828BD3
:1032E0008AEC90E0958B848B8EEC90E0978B868BAC
:1032F000118E128E138E148EAFE2B3E08BE891E044
:1033000011969C938E9312961C92129713961C9270
:10331000139714961C92149715961C92A5E3B3E08C
:1033200011969C938E9312961C92129713961C9250
:10333000139714961C92149715961C92A2EEB3E064
:103340001C921696FC93EE93159717961C9217975E
:1033500018961C9218971A96FC93EE931997E1E42D
:10336000F4E0918380831282138214821582EDEE41
:10337000F3E013821282448355836683778389E75F
:1033800091E091838083B587A487118A128A138A7A
:10339000E8EDF3E0138212828BE691E09183808363
:1033A000B583A48383EB95E197838683108611868A
:1033B0000895CF93DF93CDB7DEB72E970FB6F8946D
:1033C000DEBF0FBECDBF789484B5826084BD84B566
:1033D000816084BD85B5826085BD85B5816085BD10
:1033E00080916E00816080936E00109281008091C8
:1033F0008100826080938100809181008160809350
:103400008100809180008160809380008091910094
:1034100082608093910080919100816080939100FF
:10342000809190008160809390008091C1008460C1
:103430008093C1008091C10082608093C10080911F
:10344000C10081608093C1008091C300816080933E
:10345000C3008091C00082608093C0008091C20050
:1034600081608093C20080917A00846080937A00AA
:1034700080917A00826080937A0080917A008160E6
:1034800080937A0080917A00806880937A0010920D
:10349000DE021092CE021092D0028091D70081609D
:1034A0008093D70080EA8093D80089B5806189BD78
:1034B00089B5826089BD09B400FEFDCF61E070E08E
:1034C00080E090E00E943A058091D8008F7C806176
:1034D0008093D8008091E000807F8093E00080910D
:1034E000E1008E7E8093E1008DE08093E200559AAA
:1034F000209AE091EB03F091EC03A089B18982E07E
:103500008C93A485B5851C92A685B78587E08C939E
:10351000108EA489B58986E08C93A289B3898C9199
:1035200080618C93A289B3898C9188608C93A289E5
:10353000B3898C9180688C930288F389E02D808117
:103540008F7D80838091E9038111B9C081E08093F0
:10355000E90382EE93E00E94350668EE73E080E0B6
:1035600090E00E943A058091E7039091E803DC0126
:10357000ED91FC910084F185E02D0995181619064E
:1035800044F3FF24F39482E3E82E85E0E2E1F1E0E6
:10359000DE01169601900D928A95E1F7F092EA030A
:1035A00045E050E0BE016A5F7F4F82EE93E00E94EB
:1035B000920A8091E7039091E803DC01ED91FC9180
:1035C0000190F081E02D63E009956AEF70E080E002
:1035D00090E00E943A056BE472E08091E7039091DD
:1035E000E8030E9420036AEF70E080E090E00E9410
:1035F0003A0569E472E08091E7039091E8030E9444
:10360000200364EF71E080E090E00E943A056DE3F2
:1036100072E08091E7039091E8030E94200364EF39
:1036200071E080E090E00E943A0582EE93E00E9413
:10363000350685E0E7E1F1E0DE01119601900D929B
:103640008A95E1F7E092EA0304E010E09E01255F2D
:103650003F4F45E050E0BE016F5F7F4F82EE93E049
:103660000E944F088F3F980739F468EE73E080E0BE
:1036700090E00E943A0589CF2B852111FFCF049756
:1036800009F0A2C02C852053330B44E6429FC001B1
:10369000439F900D11242D853AE0239F800D911DAD
:1036A0001124805E91402E852053330B820F931F8F
:1036B0009093E4038093E30382E38093EA0360E062
:1036C00083E10E94C00461E089E00E94C00480E0C0
:1036D00090E0A0E2B2E48093C5029093C602A0936A
:1036E000C702B093C80280E090E0A0EAB0E4809303
:1036F000C1029093C202A093C302B093C40240E0FF
:1037000050E068EC72E44093BD025093BE026093B7
:10371000BF027093C0021092B9021092BA021092C6
:10372000BB021092BC028093B5029093B602A093A4
:10373000B702B093B8028DEC9CECACE4BDE380938F
:10374000B1029093B202A093B302B093B40210926C
:10375000AD021092AE021092AF021092B00210921F
:10376000A9021092AA021092AB021092AC0210921F
:10377000A8021092A7021092A6021092A50210921F
:10378000A1021092A2021092A3021092A40210921F
:103790009D0210929E0210929F021092A00281E060
:1037A0008093E10388ED93E00E94CC0E00E010E0EE
:1037B0000E944E0F01151105D9F30E94AE03882314
:1037C000B9F30E940000F4CF84E690E071CF89E75E
:1037D00091E09093EE038093ED030C949D0AEF9299
:1037E0000F931F93CF93DF93E80134E047FD34E15B
:1037F000042E000C550B57FF03C0519541955109FC
:10380000E32E022F242FAE010E94391CCE01DF913E
:10381000CF911F910F91EF900895FB01DC0105906E
:103820000D920020E1F70895BB274A3031F4992327
:1038300022F4BDE2909581959F4F0C94201CBB27EC
:10384000FB015527AA27880F991FAA1FA41710F05C
:10385000A41B83955051B9F7A05DAA3308F0A95D68
:10386000A193009779F7B111B1931192CB010C9408
:10387000701EA9E0B0E0EFE3FCE10C94B51F6A0113
:10388000F22EB02E102FFBE3AF2EA01608F41BE390
:103890001F5F012F27E0AE014F5F5F4F0E94981D11
:1038A000BC018981982F9970913009F43FC09BE247
:1038B000E1FC04C09E2D9170E0FC3AC05E2D507179
:1038C000E82FE87083FF46C084E0911101C083E0D7
:1038D000EF2DE81B8F1508F0E0E0D6018E2F20E2D7
:1038E000552351F1992329F0D6019C93C6010196E5
:1038F0006C0196012D5F3F4FE2FE24C08EE4D6019D
:103900008C9391E411969C93119712968C93D90104
:103910008E2F90E281111BC0E20FF32FF11D108258
:103920008EEF9FEF2996ECE00C94D11F9DE2C6CF5D
:1039300090E2C4CF2D9381508111FCCFCE0ED11CCB
:10394000E0E0D0CF8EE6D6018C9391E6DBCF9D935D
:103950008150E0CF482F447082FF3DC084E0911138
:1039600001C083E08F1510F4EF2DE81BD6018E2FD8
:1039700020E2552309F1992329F0D6019C93C60131
:1039800001966C0196012D5F3F4FE2FE1BC089E45A
:10399000D6018C938EE411968C93119786E412963F
:1039A0008C93D9018E2F90E2882309F4B5CF9D9393
:1039B0008150FACF2D9381508111FCCFCE0ED11CB6
:1039C000E0E0D9CF89E6D6018C938EE611968C93F0
:1039D000119786E6E4CF9B0177FF02C030E020E03C
:1039E000A1E0B0E0911102C0B0E0A0E0F901319691
:1039F000AE0FBF1F8B2C912CBB2009F461C054016A
:103A0000EFEFAE1ABE0AAA0DBB1DFA161B0619F07F
:103A100014F04F2D4A1B511188C0E3FC59C07601A8
:103A2000A42FB0E2A1114FC0C40ED11C992309F4F8
:103A30005BC040E0D6011196F60190836D015523DD
:103A400009F448C0012F060F9A81582F507184FF46
:103A500003C0913309F4015010160CF047C009302F
:103A600008F008E0EEE2FE2E5B01A01AB108850125
:103A70009194819491082F3F320729F4D601FC924A
:103A8000F60131966F016217730794F1021713075D
:103A90007CF5DB01A21BB30BAA24A394B12CAC0EC2
:103AA000BD1EAA0DBB1D11968C9121503109D60166
:103AB000119628153905F4F0F60180836D01DBCFEE
:103AC000B12CA12CA0CFF701B1937F01A150AACFB7
:103AD0009111B0CFD601942F50E302C05D93915065
:103AE0009111FCCFC40ED11C40E0ACCF01E0BACFA5
:103AF00080E3DBCF6217730731F4963388F4953394
:103B000011F4552369F0F6018083FD01842F90E2C2
:103B1000811108C0A40FB11D1C9290E080E002CF7B
:103B200081E3F1CF91938150F3CF911183CF8ACF6D
:103B3000283008F027E03327DA01990F311D87FD7F
:103B4000916000966105710539F432602E5F3D93F6
:103B500030E32A95E1F708959F3F30F080387105F2
:103B6000610509F03C5F3C5F3D93913008F080684F
:103B7000911DDF93CF931F930F93FF92EF92192F15
:103B8000987F9695E92F96959695E90FFF27EA5F1E
:103B9000FE4F99273327EE24FF24A701E701059064
:103BA0000894079428F4360FE71EF81E491F511D8C
:103BB000660F771F881F991F0694A1F70590079439
:103BC00028F4E70EF81E491F561FC11D770F881FE6
:103BD000991F661F0694A1F70590079428F4F80E24
:103BE000491F561FC71FD11D880F991F661F771FBA
:103BF0000694A1F70590079420F4490F561FC71F9C
:103C0000D81F990F661F771F881F0694A9F7849104
:103C10001095177041F0D695C79557954795F7942D
:103C2000E7941A95C1F7ECEAF0E0689415901591C5
:103C300035916591959105907FE27395E118F10AB0
:103C4000430B560BC90BD009C0F7E10CF11E431F03
:103C5000561FC91FD01D7EF4703311F48A95E6CF2C
:103C6000E894015030F0080F0AF40027021708F416
:103C7000202F2395022F7A3328F079E37D932A951C
:103C8000E9F710C07D932A9589F606949795679574
:103C9000379517951794E118F10A430B560BC90B8A
:103CA000D00998F023957E9173957A3308F070E3EC
:103CB0007C932013B8F77E9170617D9330F08395EB
:103CC00071E37D9370E32A95E1F71124EF90FF9063
:103CD0000F911F91CF91DF91992787FD90950895BE
:103CE000DC01FC01672F71917723E1F7329704C063
:103CF0007C916D9370836291AE17BF07C8F30895EE
:103D00000E94C21E08F481E00895E89409C097FB60
:103D10003EF490958095709561957F4F8F4F9F4FA2
:103D20009923A9F0F92F96E9BB279395F6958795E6
:103D300077956795B795F111F8CFFAF4BB0F11F4A9
:103D400060FF1BC06F5F7F4F8F4F9F4F16C0882350
:103D500011F096E911C0772321F09EE8872F762F86
:103D600005C0662371F096E8862F70E060E02AF0C7
:103D70009A95660F771F881FDAF7880F96958795B3
:103D800097F90895990F0008550FAA0BE0E8FEEF88
:103D900016161706E807F907C0F012161306E4070F
:103DA000F50798F0621B730B840B950B39F40A2608
:103DB00061F0232B242B252B21F408950A2609F4E6
:103DC000A140A6958FEF811D811D08950E94F91EC7
:103DD0000C946A1F0E945C1F38F00E94631F20F041
:103DE000952311F00C94531F0C94591F11240C941B
:103DF0009E1F0E947B1F70F3959FC1F3950F50E0AB
:103E0000551F629FF001729FBB27F00DB11D639F8C
:103E1000AA27F00DB11DAA1F649F6627B00DA11D32
:103E2000661F829F2227B00DA11D621F739FB00DD8
:103E3000A11D621F839FA00D611D221F749F332748
:103E4000A00D611D231F849F600D211D822F762FE1
:103E50006A2F11249F5750409AF0F1F088234AF0BE
:103E6000EE0FFF1FBB1F661F771F881F915050402A
:103E7000A9F79E3F510580F00C94531F0C949E1F90
:103E80005F3FE4F3983ED4F3869577956795B795B1
:103E9000F795E7959F5FC1F7FE2B880F911D9695CB
:103EA000879597F9089597F99F6780E870E060E03B
:103EB00008959FEF80EC089500240A9416161706C3
:103EC00018060906089500240A941216130614060B
:103ED00005060895092E0394000C11F4882352F06E
:103EE000BB0F40F4BF2B11F460FF04C06F5F7F4F26
:103EF0008F4F9F4F089557FD9058440F551F59F00D
:103F00005F3F71F04795880F97FB991F61F09F3FC6
:103F100079F087950895121613061406551FF2CFEF
:103F20004695F1DF08C0161617061806991FF1CF3F
:103F300086957105610508940895E894BB27662766
:103F40007727CB0197F908950E94E61FA59F900D52
:103F5000B49F900DA49F800D911D112408952F9260
:103F60003F924F925F926F927F928F929F92AF9209
:103F7000BF92CF92DF92EF92FF920F931F93CF9356
:103F8000DF93CDB7DEB7CA1BDB0B0FB6F894DEBFED
:103F90000FBECDBF09942A88398848885F846E8413
:103FA0007D848C849B84AA84B984C884DF80EE805D
:103FB000FD800C811B81AA81B981CE0FD11D0FB666
:103FC000F894DEBF0FBECDBFED010895A29FB001F2
:103FD000B39FC001A39F700D811D1124911DB29F3D
:103FE000700D811D1124911D08955058BB27AA27DB
:103FF0000E940D200C946A1F0E945C1F38F00E94E2
:10400000631F20F039F49F3F19F426F40C94591FD4
:104010000EF4E095E7FB0C94531FE92F0E947B1FE1
:1040200058F3BA17620773078407950720F079F4ED
:10403000A6F50C949D1F0EF4E0950B2EBA2FA02D23
:104040000B01B90190010C01CA01A0011124FF2745
:10405000591B99F0593F50F4503E68F11A16F04040
:10406000A22F232F342F4427585FF3CF469537953F
:104070002795A795F0405395C9F77EF41F16BA0B04
:10408000620B730B840BBAF09150A1F0FF0FBB1FB2
:10409000661F771F881FC2F70EC0BA0F621F731FFB
:1040A000841F48F4879577956795B795F7959E3F58
:1040B00008F0B0CF9395880F08F09927EE0F9795E9
:1040C000879508950E9476200C946A1F0E94631FB2
:1040D00058F00E945C1F40F029F45F3F29F00C94D7
:1040E000531F51110C949E1F0C94591F0E947B1F4B
:1040F00068F39923B1F3552391F3951B550BBB2717
:10410000AA2762177307840738F09F5F5F4F220F5B
:10411000331F441FAA1FA9F335D00E2E3AF0E0E852
:1041200032D091505040E695001CCAF72BD0FE2F9C
:1041300029D0660F771F881FBB1F26173707480730
:10414000AB07B0E809F0BB0B802DBF01FF279358E8
:104150005F4F3AF09E3F510578F00C94531F0C943A
:104160009E1F5F3FE4F3983ED4F38695779567955D
:10417000B795F7959F5FC9F7880F911D969587951D
:1041800097F90895E1E0660F771F881FBB1F62173C
:1041900073078407BA0720F0621B730B840BBA0BFA
:1041A000EE1F88F7E09508950E94DB206894B11116
:1041B0000C949E1F08950E94831F88F09F5798F0CB
:1041C000B92F9927B751B0F0E1F0660F771F881F1C
:1041D000991F1AF0BA95C9F714C0B13091F00E9436
:1041E0009D1FB1E008950C949D1F672F782F88279D
:1041F000B85F39F0B93FCCF3869577956795B3955D
:10420000D9F73EF490958095709561957F4F8F4FCB
:104210009F4F08950E94C21E08F48FEF0895A1E2F7
:104220001A2EAA1BBB1BFD010DC0AA1FBB1FEE1F30
:10423000FF1FA217B307E407F50720F0A21BB30B7B
:10424000E40BF50B661F771F881F991F1A9469F7F7
:1042500060957095809590959B01AC01BD01CF0153
:104260000895EE0FFF1F0590F491E02D09940F9330
:104270001F93CF93DF938230910510F482E090E09A
:10428000E0914904F0914A0430E020E0B0E0A0E081
:10429000309799F42115310509F44AC0281B390BD0
:1042A00024303105D8F58A819B816115710589F12A
:1042B000FB0193838283FE0111C040815181028101
:1042C000138148175907E0F04817590799F41097D8
:1042D00061F012960C93129713961C933296CF01AD
:1042E000DF91CF911F910F9108950093490410938E
:1042F0004A04F4CF2115310551F04217530738F025
:10430000A901DB019A01BD01DF01F801C1CFEF0175
:10431000F9CF90934A0480934904CDCFFE01E20F78
:10432000F31F819391932250310939832883D7CF8A
:104330002091470430914804232B41F420910E0131
:1043400030910F01309348042093470420910C01D1
:1043500030910D012115310541F42DB73EB7409143
:10436000100150911101241B350BE0914704F0918D
:104370004804E217F307A0F42E1B3F0B2817390758
:1043800078F0AC014E5F5F4F2417350748F04E0FB1
:104390005F1F5093480440934704819391939FCFAC
:1043A000F0E0E0E09CCFCF93DF930097E9F0FC01D1
:1043B000329713821282A0914904B0914A04ED0110
:1043C00030E020E01097A1F420813181820F931F0B
:1043D00020914704309148042817390709F061C03B
:1043E000F0934804E0934704DF91CF910895EA01E8
:1043F000CE17DF07E8F54A815B819E014115510523
:10440000B1F7E901FB83EA8349915991C40FD51FA4
:10441000EC17FD0761F4808191810296840F951F4E
:10442000E90199838883828193819B838A83F0E069
:10443000E0E012968D919C9113970097B9F52D911C
:104440003C911197CD010296820F931F2091470452
:10445000309148042817390739F6309751F51092F2
:104460004A0410924904B0934804A0934704BCCF77
:10447000D383C28340815181840F951FC817D90708
:1044800061F44E5F5F4F88819981480F591F5183B6
:1044900040838A819B81938382832115310509F0B2
:1044A000B0CFF0934A04E09349049ECFFD01DC01B4
:1044B000C0CF13821282D7CFB0E0A0E0E2E6F2E2F2
:1044C0000C94B11F8C01009751F4CB010E9437214D
:1044D0008C01C801CDB7DEB7E0E10C94CD1FFC0123
:1044E000E60FF71F9C0122503109E217F30708F489
:1044F0009DC0D901CD91DC911197C617D70798F0CF
:10450000C530D10530F3CE0104978617970708F31D
:10451000C61BD70B2297C193D1936D937C93CF0188
:104520000E94D321D6CF5B01AC1ABD0A4C018C0E80
:104530009D1EA0914904B0914A04512C412CF12CAC
:10454000E12C109731F5809147049091480488152B
:10455000990509F05CC04616570608F058C08091CE
:104560000C0190910D01009741F48DB79EB74091D9
:10457000100150911101841B950BE817F90708F001
:1045800055C0F0934804E0934704F90171836083B8
:10459000A0CF8D919C91119712966C9012971396C3
:1045A0007C901397A815B90559F56C0142E0C40E2B
:1045B000D11CCA14DB0420F1AC014A195B09DA01F1
:1045C0001296159780F06282738251834083D901DD
:1045D0006D937C93E114F10471F0D7011396FC9371
:1045E000EE93129776CF22968C0F9D1FF90191833F
:1045F0008083F301EFCFF0934A04E093490469CF3D
:104600004816590608F42C017D01D3019ACFCB013D
:104610000E9437217C01009749F0AE01B8010E9449
:104620001E23C8010E94D321870153CF10E000E070
:1046300050CF81E090E0F8940C943723FB01DC012B
:1046400002C001900D9241505040D8F70895FB01EF
:10465000DC018D91019080190110D9F3990B089517
:10466000FB01DC0101900D920020E1F7089511E0BB
:10467000C0E6D1E004C0FE010E9431212196C1367E
:08468000D107C9F7F894FFCF40
:10468800FFFFFFFF00E100000000000000004B04F6
:104698008000585858585858583130300000000099
:1046A800F30A19087C0B2B06880AD0096009670EE3
:1046B800380C9D09150BF308780B2C0600C1808176
:1046C80000000000000000DA016C05FB01F0014168
:1046D80002FF011D0200000000E303440371032FE1
:1046E80004A2038003940300000000DA0A44037C58
:1046F8000B7B0BCC0E00000000BD0A44037C0B2B87
:1047080006E908D108BE0800000000DA0B0D0A000F
:104718004400FE00736574706F696E740065727290
:104728006F72006F75747075740050004900646191
:104738007465002B25642F256D2F25592025483AAF
:10474800254D3A255300757064617465640072657F
:10475800616400485454502F312E312032303020BB
:104768004F4B00436F6E74656E742D547970653AC3
:10477800206170706C69636174696F6E2F786D6CFD
:10478800004163636573732D436F6E74726F6C2D94
:10479800416C6C6F772D4F726967696E3A20687447
:1047A80074703A2F2F6C6F63616C686F73743A384A
:1047B8003030302F004163636573732D436F6E741F
:1047C800726F6C2D416C6C6F772D4D6574686F64DA
:1047D800733A204745542C20504F53542C205055A1
:1047E8005400436F6E6E656374696F6E3A20636C34
:1047F8006F7365005375636365737321007772691E
:0448080074650000D3
:00000001FF
